{
	"visiblity/visibility2.sol": {
		"Visibility2": {
			"abi": [
				{
					"inputs": [],
					"name": "funExt",
					"outputs": [
						{
							"internalType": "uint256",
							"name": "",
							"type": "uint256"
						},
						{
							"internalType": "uint256",
							"name": "",
							"type": "uint256"
						},
						{
							"internalType": "uint256",
							"name": "",
							"type": "uint256"
						}
					],
					"stateMutability": "view",
					"type": "function"
				},
				{
					"inputs": [],
					"name": "funPub",
					"outputs": [
						{
							"internalType": "uint256",
							"name": "",
							"type": "uint256"
						},
						{
							"internalType": "uint256",
							"name": "",
							"type": "uint256"
						},
						{
							"internalType": "uint256",
							"name": "",
							"type": "uint256"
						}
					],
					"stateMutability": "view",
					"type": "function"
				},
				{
					"inputs": [],
					"name": "pub",
					"outputs": [
						{
							"internalType": "uint256",
							"name": "",
							"type": "uint256"
						}
					],
					"stateMutability": "view",
					"type": "function"
				}
			],
			"devdoc": {
				"kind": "dev",
				"methods": {},
				"version": 1
			},
			"evm": {
				"assembly": "    /* \"visiblity/visibility2.sol\":124:737  contract Visibility2 {... */\n  mstore(0x40, 0x80)\n    /* \"visiblity/visibility2.sol\":174:175  1 */\n  0x01\n    /* \"visiblity/visibility2.sol\":156:175  uint public pub = 1 */\n  0x00\n  sstore\n    /* \"visiblity/visibility2.sol\":217:218  2 */\n  0x02\n    /* \"visiblity/visibility2.sol\":198:218  uint private pri = 2 */\n  0x01\n  sstore\n    /* \"visiblity/visibility2.sol\":246:247  3 */\n  0x03\n    /* \"visiblity/visibility2.sol\":224:247  uint internal inter = 3 */\n  0x02\n  sstore\n    /* \"visiblity/visibility2.sol\":124:737  contract Visibility2 {... */\n  callvalue\n  dup1\n  iszero\n  tag_1\n  jumpi\n  0x00\n  dup1\n  revert\ntag_1:\n  pop\n  dataSize(sub_0)\n  dup1\n  dataOffset(sub_0)\n  0x00\n  codecopy\n  0x00\n  return\nstop\n\nsub_0: assembly {\n        /* \"visiblity/visibility2.sol\":124:737  contract Visibility2 {... */\n      mstore(0x40, 0x80)\n      callvalue\n      dup1\n      iszero\n      tag_1\n      jumpi\n      0x00\n      dup1\n      revert\n    tag_1:\n      pop\n      jumpi(tag_2, lt(calldatasize, 0x04))\n      shr(0xe0, calldataload(0x00))\n      dup1\n      0x03383d95\n      eq\n      tag_3\n      jumpi\n      dup1\n      0x7defb410\n      eq\n      tag_4\n      jumpi\n      dup1\n      0xbfc3ef44\n      eq\n      tag_5\n      jumpi\n    tag_2:\n      0x00\n      dup1\n      revert\n        /* \"visiblity/visibility2.sol\":320:417  function funPub() public view returns(uint, uint, uint) {... */\n    tag_3:\n      tag_6\n      tag_7\n      jump\t// in\n    tag_6:\n      mload(0x40)\n      tag_8\n      swap4\n      swap3\n      swap2\n      swap1\n      tag_9\n      jump\t// in\n    tag_8:\n      mload(0x40)\n      dup1\n      swap2\n      sub\n      swap1\n      return\n        /* \"visiblity/visibility2.sol\":156:175  uint public pub = 1 */\n    tag_4:\n      tag_10\n      tag_11\n      jump\t// in\n    tag_10:\n      mload(0x40)\n      tag_12\n      swap2\n      swap1\n      tag_13\n      jump\t// in\n    tag_12:\n      mload(0x40)\n      dup1\n      swap2\n      sub\n      swap1\n      return\n        /* \"visiblity/visibility2.sol\":635:735  function funExt() external view returns (uint, uint, uint) {... */\n    tag_5:\n      tag_14\n      tag_15\n      jump\t// in\n    tag_14:\n      mload(0x40)\n      tag_16\n      swap4\n      swap3\n      swap2\n      swap1\n      tag_9\n      jump\t// in\n    tag_16:\n      mload(0x40)\n      dup1\n      swap2\n      sub\n      swap1\n      return\n        /* \"visiblity/visibility2.sol\":320:417  function funPub() public view returns(uint, uint, uint) {... */\n    tag_7:\n        /* \"visiblity/visibility2.sol\":358:362  uint */\n      0x00\n        /* \"visiblity/visibility2.sol\":364:368  uint */\n      dup1\n        /* \"visiblity/visibility2.sol\":370:374  uint */\n      0x00\n        /* \"visiblity/visibility2.sol\":394:397  pub */\n      dup1\n      sload\n        /* \"visiblity/visibility2.sol\":399:402  pri */\n      sload(0x01)\n        /* \"visiblity/visibility2.sol\":404:409  inter */\n      sload(0x02)\n        /* \"visiblity/visibility2.sol\":386:410  return (pub, pri, inter) */\n      swap3\n      pop\n      swap3\n      pop\n      swap3\n      pop\n        /* \"visiblity/visibility2.sol\":320:417  function funPub() public view returns(uint, uint, uint) {... */\n      swap1\n      swap2\n      swap3\n      jump\t// out\n        /* \"visiblity/visibility2.sol\":156:175  uint public pub = 1 */\n    tag_11:\n      sload(0x00)\n      dup2\n      jump\t// out\n        /* \"visiblity/visibility2.sol\":635:735  function funExt() external view returns (uint, uint, uint) {... */\n    tag_15:\n        /* \"visiblity/visibility2.sol\":676:680  uint */\n      0x00\n        /* \"visiblity/visibility2.sol\":682:686  uint */\n      dup1\n        /* \"visiblity/visibility2.sol\":688:692  uint */\n      0x00\n        /* \"visiblity/visibility2.sol\":712:715  pub */\n      dup1\n      sload\n        /* \"visiblity/visibility2.sol\":717:720  pri */\n      sload(0x01)\n        /* \"visiblity/visibility2.sol\":722:727  inter */\n      sload(0x02)\n        /* \"visiblity/visibility2.sol\":704:728  return (pub, pri, inter) */\n      swap3\n      pop\n      swap3\n      pop\n      swap3\n      pop\n        /* \"visiblity/visibility2.sol\":635:735  function funExt() external view returns (uint, uint, uint) {... */\n      swap1\n      swap2\n      swap3\n      jump\t// out\n        /* \"#utility.yul\":7:84   */\n    tag_19:\n        /* \"#utility.yul\":44:51   */\n      0x00\n        /* \"#utility.yul\":73:78   */\n      dup2\n        /* \"#utility.yul\":62:78   */\n      swap1\n      pop\n        /* \"#utility.yul\":7:84   */\n      swap2\n      swap1\n      pop\n      jump\t// out\n        /* \"#utility.yul\":90:208   */\n    tag_20:\n        /* \"#utility.yul\":177:201   */\n      tag_24\n        /* \"#utility.yul\":195:200   */\n      dup2\n        /* \"#utility.yul\":177:201   */\n      tag_19\n      jump\t// in\n    tag_24:\n        /* \"#utility.yul\":172:175   */\n      dup3\n        /* \"#utility.yul\":165:202   */\n      mstore\n        /* \"#utility.yul\":90:208   */\n      pop\n      pop\n      jump\t// out\n        /* \"#utility.yul\":214:656   */\n    tag_9:\n        /* \"#utility.yul\":363:367   */\n      0x00\n        /* \"#utility.yul\":401:403   */\n      0x60\n        /* \"#utility.yul\":390:399   */\n      dup3\n        /* \"#utility.yul\":386:404   */\n      add\n        /* \"#utility.yul\":378:404   */\n      swap1\n      pop\n        /* \"#utility.yul\":414:485   */\n      tag_26\n        /* \"#utility.yul\":482:483   */\n      0x00\n        /* \"#utility.yul\":471:480   */\n      dup4\n        /* \"#utility.yul\":467:484   */\n      add\n        /* \"#utility.yul\":458:464   */\n      dup7\n        /* \"#utility.yul\":414:485   */\n      tag_20\n      jump\t// in\n    tag_26:\n        /* \"#utility.yul\":495:567   */\n      tag_27\n        /* \"#utility.yul\":563:565   */\n      0x20\n        /* \"#utility.yul\":552:561   */\n      dup4\n        /* \"#utility.yul\":548:566   */\n      add\n        /* \"#utility.yul\":539:545   */\n      dup6\n        /* \"#utility.yul\":495:567   */\n      tag_20\n      jump\t// in\n    tag_27:\n        /* \"#utility.yul\":577:649   */\n      tag_28\n        /* \"#utility.yul\":645:647   */\n      0x40\n        /* \"#utility.yul\":634:643   */\n      dup4\n        /* \"#utility.yul\":630:648   */\n      add\n        /* \"#utility.yul\":621:627   */\n      dup5\n        /* \"#utility.yul\":577:649   */\n      tag_20\n      jump\t// in\n    tag_28:\n        /* \"#utility.yul\":214:656   */\n      swap5\n      swap4\n      pop\n      pop\n      pop\n      pop\n      jump\t// out\n        /* \"#utility.yul\":662:884   */\n    tag_13:\n        /* \"#utility.yul\":755:759   */\n      0x00\n        /* \"#utility.yul\":793:795   */\n      0x20\n        /* \"#utility.yul\":782:791   */\n      dup3\n        /* \"#utility.yul\":778:796   */\n      add\n        /* \"#utility.yul\":770:796   */\n      swap1\n      pop\n        /* \"#utility.yul\":806:877   */\n      tag_30\n        /* \"#utility.yul\":874:875   */\n      0x00\n        /* \"#utility.yul\":863:872   */\n      dup4\n        /* \"#utility.yul\":859:876   */\n      add\n        /* \"#utility.yul\":850:856   */\n      dup5\n        /* \"#utility.yul\":806:877   */\n      tag_20\n      jump\t// in\n    tag_30:\n        /* \"#utility.yul\":662:884   */\n      swap3\n      swap2\n      pop\n      pop\n      jump\t// out\n\n    auxdata: 0xa2646970667358221220b89ecb577c1b26e905ab447d1bcbbfe8e3655b12278a82d69c9d28a5747b0ecc64736f6c63430008190033\n}\n",
				"bytecode": {
					"linkReferences": {},
					"object": "608060405260015f5560026001556003600255348015601c575f80fd5b5061016e8061002a5f395ff3fe608060405234801561000f575f80fd5b506004361061003f575f3560e01c806303383d95146100435780637defb41014610063578063bfc3ef4414610081575b5f80fd5b61004b6100a1565b60405161005a939291906100ea565b60405180910390f35b61006b6100b7565b604051610078919061011f565b60405180910390f35b6100896100bc565b604051610098939291906100ea565b60405180910390f35b5f805f8054600154600254925092509250909192565b5f5481565b5f805f8054600154600254925092509250909192565b5f819050919050565b6100e4816100d2565b82525050565b5f6060820190506100fd5f8301866100db565b61010a60208301856100db565b61011760408301846100db565b949350505050565b5f6020820190506101325f8301846100db565b9291505056fea2646970667358221220b89ecb577c1b26e905ab447d1bcbbfe8e3655b12278a82d69c9d28a5747b0ecc64736f6c63430008190033",
					"opcodes": "PUSH1 0x80 PUSH1 0x40 MSTORE PUSH1 0x1 PUSH0 SSTORE PUSH1 0x2 PUSH1 0x1 SSTORE PUSH1 0x3 PUSH1 0x2 SSTORE CALLVALUE DUP1 ISZERO PUSH1 0x1C JUMPI PUSH0 DUP1 REVERT JUMPDEST POP PUSH2 0x16E DUP1 PUSH2 0x2A PUSH0 CODECOPY PUSH0 RETURN INVALID PUSH1 0x80 PUSH1 0x40 MSTORE CALLVALUE DUP1 ISZERO PUSH2 0xF JUMPI PUSH0 DUP1 REVERT JUMPDEST POP PUSH1 0x4 CALLDATASIZE LT PUSH2 0x3F JUMPI PUSH0 CALLDATALOAD PUSH1 0xE0 SHR DUP1 PUSH4 0x3383D95 EQ PUSH2 0x43 JUMPI DUP1 PUSH4 0x7DEFB410 EQ PUSH2 0x63 JUMPI DUP1 PUSH4 0xBFC3EF44 EQ PUSH2 0x81 JUMPI JUMPDEST PUSH0 DUP1 REVERT JUMPDEST PUSH2 0x4B PUSH2 0xA1 JUMP JUMPDEST PUSH1 0x40 MLOAD PUSH2 0x5A SWAP4 SWAP3 SWAP2 SWAP1 PUSH2 0xEA JUMP JUMPDEST PUSH1 0x40 MLOAD DUP1 SWAP2 SUB SWAP1 RETURN JUMPDEST PUSH2 0x6B PUSH2 0xB7 JUMP JUMPDEST PUSH1 0x40 MLOAD PUSH2 0x78 SWAP2 SWAP1 PUSH2 0x11F JUMP JUMPDEST PUSH1 0x40 MLOAD DUP1 SWAP2 SUB SWAP1 RETURN JUMPDEST PUSH2 0x89 PUSH2 0xBC JUMP JUMPDEST PUSH1 0x40 MLOAD PUSH2 0x98 SWAP4 SWAP3 SWAP2 SWAP1 PUSH2 0xEA JUMP JUMPDEST PUSH1 0x40 MLOAD DUP1 SWAP2 SUB SWAP1 RETURN JUMPDEST PUSH0 DUP1 PUSH0 DUP1 SLOAD PUSH1 0x1 SLOAD PUSH1 0x2 SLOAD SWAP3 POP SWAP3 POP SWAP3 POP SWAP1 SWAP2 SWAP3 JUMP JUMPDEST PUSH0 SLOAD DUP2 JUMP JUMPDEST PUSH0 DUP1 PUSH0 DUP1 SLOAD PUSH1 0x1 SLOAD PUSH1 0x2 SLOAD SWAP3 POP SWAP3 POP SWAP3 POP SWAP1 SWAP2 SWAP3 JUMP JUMPDEST PUSH0 DUP2 SWAP1 POP SWAP2 SWAP1 POP JUMP JUMPDEST PUSH2 0xE4 DUP2 PUSH2 0xD2 JUMP JUMPDEST DUP3 MSTORE POP POP JUMP JUMPDEST PUSH0 PUSH1 0x60 DUP3 ADD SWAP1 POP PUSH2 0xFD PUSH0 DUP4 ADD DUP7 PUSH2 0xDB JUMP JUMPDEST PUSH2 0x10A PUSH1 0x20 DUP4 ADD DUP6 PUSH2 0xDB JUMP JUMPDEST PUSH2 0x117 PUSH1 0x40 DUP4 ADD DUP5 PUSH2 0xDB JUMP JUMPDEST SWAP5 SWAP4 POP POP POP POP JUMP JUMPDEST PUSH0 PUSH1 0x20 DUP3 ADD SWAP1 POP PUSH2 0x132 PUSH0 DUP4 ADD DUP5 PUSH2 0xDB JUMP JUMPDEST SWAP3 SWAP2 POP POP JUMP INVALID LOG2 PUSH5 0x6970667358 0x22 SLT KECCAK256 0xB8 SWAP15 0xCB JUMPI PUSH29 0x1B26E905AB447D1BCBBFE8E3655B12278A82D69C9D28A5747B0ECC6473 PUSH16 0x6C634300081900330000000000000000 "
				},
				"gasEstimates": {
					"creation": {
						"codeDepositCost": "73200",
						"executionCost": "66438",
						"totalCost": "139638"
					},
					"external": {
						"funExt()": "infinite",
						"funPub()": "infinite",
						"pub()": "2424"
					},
					"internal": {
						"funInter()": "infinite",
						"funPriv()": "infinite"
					}
				},
				"methodIdentifiers": {
					"funExt()": "bfc3ef44",
					"funPub()": "03383d95",
					"pub()": "7defb410"
				}
			},
			"storageLayout": {
				"storage": [
					{
						"astId": 4,
						"contract": "visiblity/visibility2.sol:Visibility2",
						"label": "pub",
						"offset": 0,
						"slot": "0",
						"type": "t_uint256"
					},
					{
						"astId": 7,
						"contract": "visiblity/visibility2.sol:Visibility2",
						"label": "pri",
						"offset": 0,
						"slot": "1",
						"type": "t_uint256"
					},
					{
						"astId": 10,
						"contract": "visiblity/visibility2.sol:Visibility2",
						"label": "inter",
						"offset": 0,
						"slot": "2",
						"type": "t_uint256"
					}
				],
				"types": {
					"t_uint256": {
						"encoding": "inplace",
						"label": "uint256",
						"numberOfBytes": "32"
					}
				}
			},
			"userdoc": {
				"kind": "user",
				"methods": {},
				"version": 1
			}
		}
	}
}