{
	"OOP/inh-cap/capsul.sol": {
		"Number": {
			"abi": [
				{
					"inputs": [],
					"name": "changeNum5",
					"outputs": [],
					"stateMutability": "nonpayable",
					"type": "function"
				},
				{
					"inputs": [],
					"name": "getNum",
					"outputs": [
						{
							"internalType": "uint256",
							"name": "",
							"type": "uint256"
						}
					],
					"stateMutability": "view",
					"type": "function"
				}
			],
			"devdoc": {
				"kind": "dev",
				"methods": {},
				"version": 1
			},
			"evm": {
				"assembly": "    /* \"OOP/inh-cap/capsul.sol\":67:246  contract Number {... */\n  mstore(0x40, 0x80)\n    /* \"OOP/inh-cap/capsul.sol\":108:109  4 */\n  0x04\n    /* \"OOP/inh-cap/capsul.sol\":89:109  uint private num = 4 */\n  0x00\n  sstore\n    /* \"OOP/inh-cap/capsul.sol\":67:246  contract Number {... */\n  callvalue\n  dup1\n  iszero\n  tag_1\n  jumpi\n  0x00\n  dup1\n  revert\ntag_1:\n  pop\n  dataSize(sub_0)\n  dup1\n  dataOffset(sub_0)\n  0x00\n  codecopy\n  0x00\n  return\nstop\n\nsub_0: assembly {\n        /* \"OOP/inh-cap/capsul.sol\":67:246  contract Number {... */\n      mstore(0x40, 0x80)\n      callvalue\n      dup1\n      iszero\n      tag_1\n      jumpi\n      0x00\n      dup1\n      revert\n    tag_1:\n      pop\n      jumpi(tag_2, lt(calldatasize, 0x04))\n      shr(0xe0, calldataload(0x00))\n      dup1\n      0x67e0badb\n      eq\n      tag_3\n      jumpi\n      dup1\n      0x9b36e881\n      eq\n      tag_4\n      jumpi\n    tag_2:\n      0x00\n      dup1\n      revert\n        /* \"OOP/inh-cap/capsul.sol\":173:244  function getNum() public view returns(uint) {... */\n    tag_3:\n      tag_5\n      tag_6\n      jump\t// in\n    tag_5:\n      mload(0x40)\n      tag_7\n      swap2\n      swap1\n      tag_8\n      jump\t// in\n    tag_7:\n      mload(0x40)\n      dup1\n      swap2\n      sub\n      swap1\n      return\n        /* \"OOP/inh-cap/capsul.sol\":115:168  function changeNum5() public {... */\n    tag_4:\n      tag_9\n      tag_10\n      jump\t// in\n    tag_9:\n      stop\n        /* \"OOP/inh-cap/capsul.sol\":173:244  function getNum() public view returns(uint) {... */\n    tag_6:\n        /* \"OOP/inh-cap/capsul.sol\":211:215  uint */\n      0x00\n        /* \"OOP/inh-cap/capsul.sol\":234:237  num */\n      dup1\n      sload\n        /* \"OOP/inh-cap/capsul.sol\":227:237  return num */\n      swap1\n      pop\n        /* \"OOP/inh-cap/capsul.sol\":173:244  function getNum() public view returns(uint) {... */\n      swap1\n      jump\t// out\n        /* \"OOP/inh-cap/capsul.sol\":115:168  function changeNum5() public {... */\n    tag_10:\n        /* \"OOP/inh-cap/capsul.sol\":160:161  5 */\n      0x05\n        /* \"OOP/inh-cap/capsul.sol\":154:157  num */\n      0x00\n        /* \"OOP/inh-cap/capsul.sol\":154:161  num = 5 */\n      dup2\n      swap1\n      sstore\n      pop\n        /* \"OOP/inh-cap/capsul.sol\":115:168  function changeNum5() public {... */\n      jump\t// out\n        /* \"#utility.yul\":7:84   */\n    tag_13:\n        /* \"#utility.yul\":44:51   */\n      0x00\n        /* \"#utility.yul\":73:78   */\n      dup2\n        /* \"#utility.yul\":62:78   */\n      swap1\n      pop\n        /* \"#utility.yul\":7:84   */\n      swap2\n      swap1\n      pop\n      jump\t// out\n        /* \"#utility.yul\":90:208   */\n    tag_14:\n        /* \"#utility.yul\":177:201   */\n      tag_18\n        /* \"#utility.yul\":195:200   */\n      dup2\n        /* \"#utility.yul\":177:201   */\n      tag_13\n      jump\t// in\n    tag_18:\n        /* \"#utility.yul\":172:175   */\n      dup3\n        /* \"#utility.yul\":165:202   */\n      mstore\n        /* \"#utility.yul\":90:208   */\n      pop\n      pop\n      jump\t// out\n        /* \"#utility.yul\":214:436   */\n    tag_8:\n        /* \"#utility.yul\":307:311   */\n      0x00\n        /* \"#utility.yul\":345:347   */\n      0x20\n        /* \"#utility.yul\":334:343   */\n      dup3\n        /* \"#utility.yul\":330:348   */\n      add\n        /* \"#utility.yul\":322:348   */\n      swap1\n      pop\n        /* \"#utility.yul\":358:429   */\n      tag_20\n        /* \"#utility.yul\":426:427   */\n      0x00\n        /* \"#utility.yul\":415:424   */\n      dup4\n        /* \"#utility.yul\":411:428   */\n      add\n        /* \"#utility.yul\":402:408   */\n      dup5\n        /* \"#utility.yul\":358:429   */\n      tag_14\n      jump\t// in\n    tag_20:\n        /* \"#utility.yul\":214:436   */\n      swap3\n      swap2\n      pop\n      pop\n      jump\t// out\n\n    auxdata: 0xa26469706673582212208ccb4856d4ed00e82e0334ff1aecafe2097f32a7ccd2b9a60f94df84f1abf3ac64736f6c634300081a0033\n}\n",
				"bytecode": {
					"linkReferences": {},
					"object": "608060405260045f553480156012575f80fd5b5060ca80601e5f395ff3fe6080604052348015600e575f80fd5b50600436106030575f3560e01c806367e0badb1460345780639b36e88114604e575b5f80fd5b603a6056565b60405160459190607d565b60405180910390f35b6054605e565b005b5f8054905090565b60055f81905550565b5f819050919050565b6077816067565b82525050565b5f602082019050608e5f8301846070565b9291505056fea26469706673582212208ccb4856d4ed00e82e0334ff1aecafe2097f32a7ccd2b9a60f94df84f1abf3ac64736f6c634300081a0033",
					"opcodes": "PUSH1 0x80 PUSH1 0x40 MSTORE PUSH1 0x4 PUSH0 SSTORE CALLVALUE DUP1 ISZERO PUSH1 0x12 JUMPI PUSH0 DUP1 REVERT JUMPDEST POP PUSH1 0xCA DUP1 PUSH1 0x1E PUSH0 CODECOPY PUSH0 RETURN INVALID PUSH1 0x80 PUSH1 0x40 MSTORE CALLVALUE DUP1 ISZERO PUSH1 0xE JUMPI PUSH0 DUP1 REVERT JUMPDEST POP PUSH1 0x4 CALLDATASIZE LT PUSH1 0x30 JUMPI PUSH0 CALLDATALOAD PUSH1 0xE0 SHR DUP1 PUSH4 0x67E0BADB EQ PUSH1 0x34 JUMPI DUP1 PUSH4 0x9B36E881 EQ PUSH1 0x4E JUMPI JUMPDEST PUSH0 DUP1 REVERT JUMPDEST PUSH1 0x3A PUSH1 0x56 JUMP JUMPDEST PUSH1 0x40 MLOAD PUSH1 0x45 SWAP2 SWAP1 PUSH1 0x7D JUMP JUMPDEST PUSH1 0x40 MLOAD DUP1 SWAP2 SUB SWAP1 RETURN JUMPDEST PUSH1 0x54 PUSH1 0x5E JUMP JUMPDEST STOP JUMPDEST PUSH0 DUP1 SLOAD SWAP1 POP SWAP1 JUMP JUMPDEST PUSH1 0x5 PUSH0 DUP2 SWAP1 SSTORE POP JUMP JUMPDEST PUSH0 DUP2 SWAP1 POP SWAP2 SWAP1 POP JUMP JUMPDEST PUSH1 0x77 DUP2 PUSH1 0x67 JUMP JUMPDEST DUP3 MSTORE POP POP JUMP JUMPDEST PUSH0 PUSH1 0x20 DUP3 ADD SWAP1 POP PUSH1 0x8E PUSH0 DUP4 ADD DUP5 PUSH1 0x70 JUMP JUMPDEST SWAP3 SWAP2 POP POP JUMP INVALID LOG2 PUSH5 0x6970667358 0x22 SLT KECCAK256 DUP13 0xCB BASEFEE JUMP 0xD4 0xED STOP 0xE8 0x2E SUB CALLVALUE SELFDESTRUCT BYTE 0xEC 0xAF 0xE2 MULMOD PUSH32 0x32A7CCD2B9A60F94DF84F1ABF3AC64736F6C634300081A003300000000000000 "
				},
				"gasEstimates": {
					"creation": {
						"codeDepositCost": "40400",
						"executionCost": "22196",
						"totalCost": "62596"
					},
					"external": {
						"changeNum5()": "22256",
						"getNum()": "2410"
					}
				},
				"methodIdentifiers": {
					"changeNum5()": "9b36e881",
					"getNum()": "67e0badb"
				}
			},
			"storageLayout": {
				"storage": [
					{
						"astId": 4,
						"contract": "OOP/inh-cap/capsul.sol:Number",
						"label": "num",
						"offset": 0,
						"slot": "0",
						"type": "t_uint256"
					}
				],
				"types": {
					"t_uint256": {
						"encoding": "inplace",
						"label": "uint256",
						"numberOfBytes": "32"
					}
				}
			},
			"userdoc": {
				"kind": "user",
				"methods": {},
				"version": 1
			}
		}
	}
}