{
	"OOP/characteristic/overloading2.sol": {
		"Over": {
			"abi": [
				{
					"inputs": [],
					"name": "getNumbersDefault",
					"outputs": [
						{
							"internalType": "uint256",
							"name": "",
							"type": "uint256"
						},
						{
							"internalType": "uint256",
							"name": "",
							"type": "uint256"
						}
					],
					"stateMutability": "view",
					"type": "function"
				}
			],
			"devdoc": {
				"kind": "dev",
				"methods": {},
				"version": 1
			},
			"evm": {
				"assembly": "    /* \"OOP/characteristic/overloading2.sol\":328:541  contract Over {... */\n  mstore(0x40, 0x80)\n    /* \"OOP/characteristic/overloading2.sol\":381:397  new Calculator() */\n  mload(0x40)\n  tag_1\n  swap1\n  tag_2\n  jump\t// in\ntag_1:\n  mload(0x40)\n  dup1\n  swap2\n  sub\n  swap1\n  0x00\n  create\n  dup1\n  iszero\n  dup1\n  iszero\n  tag_3\n  jumpi\n  returndatasize\n  0x00\n  dup1\n  returndatacopy\n  revert(0x00, returndatasize)\ntag_3:\n  pop\n    /* \"OOP/characteristic/overloading2.sol\":348:397  Calculator internal calculator = new Calculator() */\n  0x00\n  dup1\n  0x0100\n  exp\n  dup2\n  sload\n  dup2\n  0xffffffffffffffffffffffffffffffffffffffff\n  mul\n  not\n  and\n  swap1\n  dup4\n  0xffffffffffffffffffffffffffffffffffffffff\n  and\n  mul\n  or\n  swap1\n  sstore\n  pop\n    /* \"OOP/characteristic/overloading2.sol\":328:541  contract Over {... */\n  callvalue\n  dup1\n  iszero\n  tag_4\n  jumpi\n  0x00\n  dup1\n  revert\ntag_4:\n  pop\n  jump(tag_5)\ntag_2:\n  dataSize(sub_1)\n  dup1\n  dataOffset(sub_1)\n  dup4\n  codecopy\n  add\n  swap1\n  jump\t// out\ntag_5:\n  dataSize(sub_0)\n  dup1\n  dataOffset(sub_0)\n  0x00\n  codecopy\n  0x00\n  return\nstop\n\nsub_0: assembly {\n        /* \"OOP/characteristic/overloading2.sol\":328:541  contract Over {... */\n      mstore(0x40, 0x80)\n      callvalue\n      dup1\n      iszero\n      tag_1\n      jumpi\n      0x00\n      dup1\n      revert\n    tag_1:\n      pop\n      jumpi(tag_2, lt(calldatasize, 0x04))\n      shr(0xe0, calldataload(0x00))\n      dup1\n      0x5a40a8db\n      eq\n      tag_3\n      jumpi\n    tag_2:\n      0x00\n      dup1\n      revert\n        /* \"OOP/characteristic/overloading2.sol\":404:539  function getNumbersDefault() public view returns (uint, uint) {... */\n    tag_3:\n      tag_4\n      tag_5\n      jump\t// in\n    tag_4:\n      mload(0x40)\n      tag_6\n      swap3\n      swap2\n      swap1\n      tag_7\n      jump\t// in\n    tag_6:\n      mload(0x40)\n      dup1\n      swap2\n      sub\n      swap1\n      return\n    tag_5:\n        /* \"OOP/characteristic/overloading2.sol\":454:458  uint */\n      0x00\n        /* \"OOP/characteristic/overloading2.sol\":460:464  uint */\n      dup1\n        /* \"OOP/characteristic/overloading2.sol\":485:495  calculator */\n      0x00\n      dup1\n      sload\n      swap1\n      0x0100\n      exp\n      swap1\n      div\n      0xffffffffffffffffffffffffffffffffffffffff\n      and\n        /* \"OOP/characteristic/overloading2.sol\":485:499  calculator.mul */\n      0xffffffffffffffffffffffffffffffffffffffff\n      and\n      0xc8a4ac9c\n        /* \"OOP/characteristic/overloading2.sol\":500:501  3 */\n      0x03\n        /* \"OOP/characteristic/overloading2.sol\":503:504  5 */\n      0x05\n        /* \"OOP/characteristic/overloading2.sol\":485:505  calculator.mul(3, 5) */\n      mload(0x40)\n      dup4\n      0xffffffff\n      and\n      0xe0\n      shl\n      dup2\n      mstore\n      0x04\n      add\n      tag_9\n      swap3\n      swap2\n      swap1\n      tag_10\n      jump\t// in\n    tag_9:\n      0x20\n      mload(0x40)\n      dup1\n      dup4\n      sub\n      dup2\n      dup7\n      gas\n      staticcall\n      iszero\n      dup1\n      iszero\n      tag_12\n      jumpi\n      returndatasize\n      0x00\n      dup1\n      returndatacopy\n      revert(0x00, returndatasize)\n    tag_12:\n      pop\n      pop\n      pop\n      pop\n      mload(0x40)\n      returndatasize\n      not(0x1f)\n      0x1f\n      dup3\n      add\n      and\n      dup3\n      add\n      dup1\n      0x40\n      mstore\n      pop\n      dup2\n      add\n      swap1\n      tag_13\n      swap2\n      swap1\n      tag_14\n      jump\t// in\n    tag_13:\n        /* \"OOP/characteristic/overloading2.sol\":507:517  calculator */\n      0x00\n      dup1\n      sload\n      swap1\n      0x0100\n      exp\n      swap1\n      div\n      0xffffffffffffffffffffffffffffffffffffffff\n      and\n        /* \"OOP/characteristic/overloading2.sol\":507:521  calculator.mul */\n      0xffffffffffffffffffffffffffffffffffffffff\n      and\n      0xe91cac2d\n        /* \"OOP/characteristic/overloading2.sol\":522:523  2 */\n      0x02\n        /* \"OOP/characteristic/overloading2.sol\":525:526  4 */\n      0x04\n        /* \"OOP/characteristic/overloading2.sol\":528:529  6 */\n      0x06\n        /* \"OOP/characteristic/overloading2.sol\":507:530  calculator.mul(2, 4, 6) */\n      mload(0x40)\n      dup5\n      0xffffffff\n      and\n      0xe0\n      shl\n      dup2\n      mstore\n      0x04\n      add\n      tag_15\n      swap4\n      swap3\n      swap2\n      swap1\n      tag_16\n      jump\t// in\n    tag_15:\n      0x20\n      mload(0x40)\n      dup1\n      dup4\n      sub\n      dup2\n      dup7\n      gas\n      staticcall\n      iszero\n      dup1\n      iszero\n      tag_18\n      jumpi\n      returndatasize\n      0x00\n      dup1\n      returndatacopy\n      revert(0x00, returndatasize)\n    tag_18:\n      pop\n      pop\n      pop\n      pop\n      mload(0x40)\n      returndatasize\n      not(0x1f)\n      0x1f\n      dup3\n      add\n      and\n      dup3\n      add\n      dup1\n      0x40\n      mstore\n      pop\n      dup2\n      add\n      swap1\n      tag_19\n      swap2\n      swap1\n      tag_14\n      jump\t// in\n    tag_19:\n        /* \"OOP/characteristic/overloading2.sol\":476:531  return  (calculator.mul(3, 5), calculator.mul(2, 4, 6)) */\n      swap2\n      pop\n      swap2\n      pop\n        /* \"OOP/characteristic/overloading2.sol\":404:539  function getNumbersDefault() public view returns (uint, uint) {... */\n      swap1\n      swap2\n      jump\t// out\n        /* \"#utility.yul\":7:84   */\n    tag_20:\n        /* \"#utility.yul\":44:51   */\n      0x00\n        /* \"#utility.yul\":73:78   */\n      dup2\n        /* \"#utility.yul\":62:78   */\n      swap1\n      pop\n        /* \"#utility.yul\":7:84   */\n      swap2\n      swap1\n      pop\n      jump\t// out\n        /* \"#utility.yul\":90:208   */\n    tag_21:\n        /* \"#utility.yul\":177:201   */\n      tag_46\n        /* \"#utility.yul\":195:200   */\n      dup2\n        /* \"#utility.yul\":177:201   */\n      tag_20\n      jump\t// in\n    tag_46:\n        /* \"#utility.yul\":172:175   */\n      dup3\n        /* \"#utility.yul\":165:202   */\n      mstore\n        /* \"#utility.yul\":90:208   */\n      pop\n      pop\n      jump\t// out\n        /* \"#utility.yul\":214:546   */\n    tag_7:\n        /* \"#utility.yul\":335:339   */\n      0x00\n        /* \"#utility.yul\":373:375   */\n      0x40\n        /* \"#utility.yul\":362:371   */\n      dup3\n        /* \"#utility.yul\":358:376   */\n      add\n        /* \"#utility.yul\":350:376   */\n      swap1\n      pop\n        /* \"#utility.yul\":386:457   */\n      tag_48\n        /* \"#utility.yul\":454:455   */\n      0x00\n        /* \"#utility.yul\":443:452   */\n      dup4\n        /* \"#utility.yul\":439:456   */\n      add\n        /* \"#utility.yul\":430:436   */\n      dup6\n        /* \"#utility.yul\":386:457   */\n      tag_21\n      jump\t// in\n    tag_48:\n        /* \"#utility.yul\":467:539   */\n      tag_49\n        /* \"#utility.yul\":535:537   */\n      0x20\n        /* \"#utility.yul\":524:533   */\n      dup4\n        /* \"#utility.yul\":520:538   */\n      add\n        /* \"#utility.yul\":511:517   */\n      dup5\n        /* \"#utility.yul\":467:539   */\n      tag_21\n      jump\t// in\n    tag_49:\n        /* \"#utility.yul\":214:546   */\n      swap4\n      swap3\n      pop\n      pop\n      pop\n      jump\t// out\n        /* \"#utility.yul\":552:637   */\n    tag_22:\n        /* \"#utility.yul\":597:604   */\n      0x00\n        /* \"#utility.yul\":626:631   */\n      dup2\n        /* \"#utility.yul\":615:631   */\n      swap1\n      pop\n        /* \"#utility.yul\":552:637   */\n      swap2\n      swap1\n      pop\n      jump\t// out\n        /* \"#utility.yul\":643:703   */\n    tag_23:\n        /* \"#utility.yul\":671:674   */\n      0x00\n        /* \"#utility.yul\":692:697   */\n      dup2\n        /* \"#utility.yul\":685:697   */\n      swap1\n      pop\n        /* \"#utility.yul\":643:703   */\n      swap2\n      swap1\n      pop\n      jump\t// out\n        /* \"#utility.yul\":709:867   */\n    tag_24:\n        /* \"#utility.yul\":767:776   */\n      0x00\n        /* \"#utility.yul\":800:861   */\n      tag_53\n        /* \"#utility.yul\":818:860   */\n      tag_54\n        /* \"#utility.yul\":827:859   */\n      tag_55\n        /* \"#utility.yul\":853:858   */\n      dup5\n        /* \"#utility.yul\":827:859   */\n      tag_22\n      jump\t// in\n    tag_55:\n        /* \"#utility.yul\":818:860   */\n      tag_23\n      jump\t// in\n    tag_54:\n        /* \"#utility.yul\":800:861   */\n      tag_20\n      jump\t// in\n    tag_53:\n        /* \"#utility.yul\":787:861   */\n      swap1\n      pop\n        /* \"#utility.yul\":709:867   */\n      swap2\n      swap1\n      pop\n      jump\t// out\n        /* \"#utility.yul\":873:1020   */\n    tag_25:\n        /* \"#utility.yul\":968:1013   */\n      tag_57\n        /* \"#utility.yul\":1007:1012   */\n      dup2\n        /* \"#utility.yul\":968:1013   */\n      tag_24\n      jump\t// in\n    tag_57:\n        /* \"#utility.yul\":963:966   */\n      dup3\n        /* \"#utility.yul\":956:1014   */\n      mstore\n        /* \"#utility.yul\":873:1020   */\n      pop\n      pop\n      jump\t// out\n        /* \"#utility.yul\":1026:1111   */\n    tag_26:\n        /* \"#utility.yul\":1071:1078   */\n      0x00\n        /* \"#utility.yul\":1100:1105   */\n      dup2\n        /* \"#utility.yul\":1089:1105   */\n      swap1\n      pop\n        /* \"#utility.yul\":1026:1111   */\n      swap2\n      swap1\n      pop\n      jump\t// out\n        /* \"#utility.yul\":1117:1275   */\n    tag_27:\n        /* \"#utility.yul\":1175:1184   */\n      0x00\n        /* \"#utility.yul\":1208:1269   */\n      tag_60\n        /* \"#utility.yul\":1226:1268   */\n      tag_61\n        /* \"#utility.yul\":1235:1267   */\n      tag_62\n        /* \"#utility.yul\":1261:1266   */\n      dup5\n        /* \"#utility.yul\":1235:1267   */\n      tag_26\n      jump\t// in\n    tag_62:\n        /* \"#utility.yul\":1226:1268   */\n      tag_23\n      jump\t// in\n    tag_61:\n        /* \"#utility.yul\":1208:1269   */\n      tag_20\n      jump\t// in\n    tag_60:\n        /* \"#utility.yul\":1195:1269   */\n      swap1\n      pop\n        /* \"#utility.yul\":1117:1275   */\n      swap2\n      swap1\n      pop\n      jump\t// out\n        /* \"#utility.yul\":1281:1428   */\n    tag_28:\n        /* \"#utility.yul\":1376:1421   */\n      tag_64\n        /* \"#utility.yul\":1415:1420   */\n      dup2\n        /* \"#utility.yul\":1376:1421   */\n      tag_27\n      jump\t// in\n    tag_64:\n        /* \"#utility.yul\":1371:1374   */\n      dup3\n        /* \"#utility.yul\":1364:1422   */\n      mstore\n        /* \"#utility.yul\":1281:1428   */\n      pop\n      pop\n      jump\t// out\n        /* \"#utility.yul\":1434:1798   */\n    tag_10:\n        /* \"#utility.yul\":1571:1575   */\n      0x00\n        /* \"#utility.yul\":1609:1611   */\n      0x40\n        /* \"#utility.yul\":1598:1607   */\n      dup3\n        /* \"#utility.yul\":1594:1612   */\n      add\n        /* \"#utility.yul\":1586:1612   */\n      swap1\n      pop\n        /* \"#utility.yul\":1622:1701   */\n      tag_66\n        /* \"#utility.yul\":1698:1699   */\n      0x00\n        /* \"#utility.yul\":1687:1696   */\n      dup4\n        /* \"#utility.yul\":1683:1700   */\n      add\n        /* \"#utility.yul\":1674:1680   */\n      dup6\n        /* \"#utility.yul\":1622:1701   */\n      tag_25\n      jump\t// in\n    tag_66:\n        /* \"#utility.yul\":1711:1791   */\n      tag_67\n        /* \"#utility.yul\":1787:1789   */\n      0x20\n        /* \"#utility.yul\":1776:1785   */\n      dup4\n        /* \"#utility.yul\":1772:1790   */\n      add\n        /* \"#utility.yul\":1763:1769   */\n      dup5\n        /* \"#utility.yul\":1711:1791   */\n      tag_28\n      jump\t// in\n    tag_67:\n        /* \"#utility.yul\":1434:1798   */\n      swap4\n      swap3\n      pop\n      pop\n      pop\n      jump\t// out\n        /* \"#utility.yul\":1885:2002   */\n    tag_30:\n        /* \"#utility.yul\":1994:1995   */\n      0x00\n        /* \"#utility.yul\":1991:1992   */\n      dup1\n        /* \"#utility.yul\":1984:1996   */\n      revert\n        /* \"#utility.yul\":2131:2253   */\n    tag_32:\n        /* \"#utility.yul\":2204:2228   */\n      tag_72\n        /* \"#utility.yul\":2222:2227   */\n      dup2\n        /* \"#utility.yul\":2204:2228   */\n      tag_20\n      jump\t// in\n    tag_72:\n        /* \"#utility.yul\":2197:2202   */\n      dup2\n        /* \"#utility.yul\":2194:2229   */\n      eq\n        /* \"#utility.yul\":2184:2247   */\n      tag_73\n      jumpi\n        /* \"#utility.yul\":2243:2244   */\n      0x00\n        /* \"#utility.yul\":2240:2241   */\n      dup1\n        /* \"#utility.yul\":2233:2245   */\n      revert\n        /* \"#utility.yul\":2184:2247   */\n    tag_73:\n        /* \"#utility.yul\":2131:2253   */\n      pop\n      jump\t// out\n        /* \"#utility.yul\":2259:2402   */\n    tag_33:\n        /* \"#utility.yul\":2316:2321   */\n      0x00\n        /* \"#utility.yul\":2347:2353   */\n      dup2\n        /* \"#utility.yul\":2341:2354   */\n      mload\n        /* \"#utility.yul\":2332:2354   */\n      swap1\n      pop\n        /* \"#utility.yul\":2363:2396   */\n      tag_75\n        /* \"#utility.yul\":2390:2395   */\n      dup2\n        /* \"#utility.yul\":2363:2396   */\n      tag_32\n      jump\t// in\n    tag_75:\n        /* \"#utility.yul\":2259:2402   */\n      swap3\n      swap2\n      pop\n      pop\n      jump\t// out\n        /* \"#utility.yul\":2408:2759   */\n    tag_14:\n        /* \"#utility.yul\":2478:2484   */\n      0x00\n        /* \"#utility.yul\":2527:2529   */\n      0x20\n        /* \"#utility.yul\":2515:2524   */\n      dup3\n        /* \"#utility.yul\":2506:2513   */\n      dup5\n        /* \"#utility.yul\":2502:2525   */\n      sub\n        /* \"#utility.yul\":2498:2530   */\n      slt\n        /* \"#utility.yul\":2495:2614   */\n      iszero\n      tag_77\n      jumpi\n        /* \"#utility.yul\":2533:2612   */\n      tag_78\n      tag_30\n      jump\t// in\n    tag_78:\n        /* \"#utility.yul\":2495:2614   */\n    tag_77:\n        /* \"#utility.yul\":2653:2654   */\n      0x00\n        /* \"#utility.yul\":2678:2742   */\n      tag_79\n        /* \"#utility.yul\":2734:2741   */\n      dup5\n        /* \"#utility.yul\":2725:2731   */\n      dup3\n        /* \"#utility.yul\":2714:2723   */\n      dup6\n        /* \"#utility.yul\":2710:2732   */\n      add\n        /* \"#utility.yul\":2678:2742   */\n      tag_33\n      jump\t// in\n    tag_79:\n        /* \"#utility.yul\":2668:2742   */\n      swap2\n      pop\n        /* \"#utility.yul\":2624:2752   */\n      pop\n        /* \"#utility.yul\":2408:2759   */\n      swap3\n      swap2\n      pop\n      pop\n      jump\t// out\n        /* \"#utility.yul\":2765:2850   */\n    tag_34:\n        /* \"#utility.yul\":2810:2817   */\n      0x00\n        /* \"#utility.yul\":2839:2844   */\n      dup2\n        /* \"#utility.yul\":2828:2844   */\n      swap1\n      pop\n        /* \"#utility.yul\":2765:2850   */\n      swap2\n      swap1\n      pop\n      jump\t// out\n        /* \"#utility.yul\":2856:3014   */\n    tag_35:\n        /* \"#utility.yul\":2914:2923   */\n      0x00\n        /* \"#utility.yul\":2947:3008   */\n      tag_82\n        /* \"#utility.yul\":2965:3007   */\n      tag_83\n        /* \"#utility.yul\":2974:3006   */\n      tag_84\n        /* \"#utility.yul\":3000:3005   */\n      dup5\n        /* \"#utility.yul\":2974:3006   */\n      tag_34\n      jump\t// in\n    tag_84:\n        /* \"#utility.yul\":2965:3007   */\n      tag_23\n      jump\t// in\n    tag_83:\n        /* \"#utility.yul\":2947:3008   */\n      tag_20\n      jump\t// in\n    tag_82:\n        /* \"#utility.yul\":2934:3008   */\n      swap1\n      pop\n        /* \"#utility.yul\":2856:3014   */\n      swap2\n      swap1\n      pop\n      jump\t// out\n        /* \"#utility.yul\":3020:3167   */\n    tag_36:\n        /* \"#utility.yul\":3115:3160   */\n      tag_86\n        /* \"#utility.yul\":3154:3159   */\n      dup2\n        /* \"#utility.yul\":3115:3160   */\n      tag_35\n      jump\t// in\n    tag_86:\n        /* \"#utility.yul\":3110:3113   */\n      dup3\n        /* \"#utility.yul\":3103:3161   */\n      mstore\n        /* \"#utility.yul\":3020:3167   */\n      pop\n      pop\n      jump\t// out\n        /* \"#utility.yul\":3173:3258   */\n    tag_37:\n        /* \"#utility.yul\":3218:3225   */\n      0x00\n        /* \"#utility.yul\":3247:3252   */\n      dup2\n        /* \"#utility.yul\":3236:3252   */\n      swap1\n      pop\n        /* \"#utility.yul\":3173:3258   */\n      swap2\n      swap1\n      pop\n      jump\t// out\n        /* \"#utility.yul\":3264:3422   */\n    tag_38:\n        /* \"#utility.yul\":3322:3331   */\n      0x00\n        /* \"#utility.yul\":3355:3416   */\n      tag_89\n        /* \"#utility.yul\":3373:3415   */\n      tag_90\n        /* \"#utility.yul\":3382:3414   */\n      tag_91\n        /* \"#utility.yul\":3408:3413   */\n      dup5\n        /* \"#utility.yul\":3382:3414   */\n      tag_37\n      jump\t// in\n    tag_91:\n        /* \"#utility.yul\":3373:3415   */\n      tag_23\n      jump\t// in\n    tag_90:\n        /* \"#utility.yul\":3355:3416   */\n      tag_20\n      jump\t// in\n    tag_89:\n        /* \"#utility.yul\":3342:3416   */\n      swap1\n      pop\n        /* \"#utility.yul\":3264:3422   */\n      swap2\n      swap1\n      pop\n      jump\t// out\n        /* \"#utility.yul\":3428:3575   */\n    tag_39:\n        /* \"#utility.yul\":3523:3568   */\n      tag_93\n        /* \"#utility.yul\":3562:3567   */\n      dup2\n        /* \"#utility.yul\":3523:3568   */\n      tag_38\n      jump\t// in\n    tag_93:\n        /* \"#utility.yul\":3518:3521   */\n      dup3\n        /* \"#utility.yul\":3511:3569   */\n      mstore\n        /* \"#utility.yul\":3428:3575   */\n      pop\n      pop\n      jump\t// out\n        /* \"#utility.yul\":3581:3666   */\n    tag_40:\n        /* \"#utility.yul\":3626:3633   */\n      0x00\n        /* \"#utility.yul\":3655:3660   */\n      dup2\n        /* \"#utility.yul\":3644:3660   */\n      swap1\n      pop\n        /* \"#utility.yul\":3581:3666   */\n      swap2\n      swap1\n      pop\n      jump\t// out\n        /* \"#utility.yul\":3672:3830   */\n    tag_41:\n        /* \"#utility.yul\":3730:3739   */\n      0x00\n        /* \"#utility.yul\":3763:3824   */\n      tag_96\n        /* \"#utility.yul\":3781:3823   */\n      tag_97\n        /* \"#utility.yul\":3790:3822   */\n      tag_98\n        /* \"#utility.yul\":3816:3821   */\n      dup5\n        /* \"#utility.yul\":3790:3822   */\n      tag_40\n      jump\t// in\n    tag_98:\n        /* \"#utility.yul\":3781:3823   */\n      tag_23\n      jump\t// in\n    tag_97:\n        /* \"#utility.yul\":3763:3824   */\n      tag_20\n      jump\t// in\n    tag_96:\n        /* \"#utility.yul\":3750:3824   */\n      swap1\n      pop\n        /* \"#utility.yul\":3672:3830   */\n      swap2\n      swap1\n      pop\n      jump\t// out\n        /* \"#utility.yul\":3836:3983   */\n    tag_42:\n        /* \"#utility.yul\":3931:3976   */\n      tag_100\n        /* \"#utility.yul\":3970:3975   */\n      dup2\n        /* \"#utility.yul\":3931:3976   */\n      tag_41\n      jump\t// in\n    tag_100:\n        /* \"#utility.yul\":3926:3929   */\n      dup3\n        /* \"#utility.yul\":3919:3977   */\n      mstore\n        /* \"#utility.yul\":3836:3983   */\n      pop\n      pop\n      jump\t// out\n        /* \"#utility.yul\":3989:4479   */\n    tag_16:\n        /* \"#utility.yul\":4162:4166   */\n      0x00\n        /* \"#utility.yul\":4200:4202   */\n      0x60\n        /* \"#utility.yul\":4189:4198   */\n      dup3\n        /* \"#utility.yul\":4185:4203   */\n      add\n        /* \"#utility.yul\":4177:4203   */\n      swap1\n      pop\n        /* \"#utility.yul\":4213:4292   */\n      tag_102\n        /* \"#utility.yul\":4289:4290   */\n      0x00\n        /* \"#utility.yul\":4278:4287   */\n      dup4\n        /* \"#utility.yul\":4274:4291   */\n      add\n        /* \"#utility.yul\":4265:4271   */\n      dup7\n        /* \"#utility.yul\":4213:4292   */\n      tag_36\n      jump\t// in\n    tag_102:\n        /* \"#utility.yul\":4302:4382   */\n      tag_103\n        /* \"#utility.yul\":4378:4380   */\n      0x20\n        /* \"#utility.yul\":4367:4376   */\n      dup4\n        /* \"#utility.yul\":4363:4381   */\n      add\n        /* \"#utility.yul\":4354:4360   */\n      dup6\n        /* \"#utility.yul\":4302:4382   */\n      tag_39\n      jump\t// in\n    tag_103:\n        /* \"#utility.yul\":4392:4472   */\n      tag_104\n        /* \"#utility.yul\":4468:4470   */\n      0x40\n        /* \"#utility.yul\":4457:4466   */\n      dup4\n        /* \"#utility.yul\":4453:4471   */\n      add\n        /* \"#utility.yul\":4444:4450   */\n      dup5\n        /* \"#utility.yul\":4392:4472   */\n      tag_42\n      jump\t// in\n    tag_104:\n        /* \"#utility.yul\":3989:4479   */\n      swap5\n      swap4\n      pop\n      pop\n      pop\n      pop\n      jump\t// out\n\n    auxdata: 0xa264697066735822122033f8d93b8d9450867897011886a7efc9d3470c672a57ceb8c91d1b0ba5122e0a64736f6c634300081a0033\n}\n\nsub_1: assembly {\n        /* \"OOP/characteristic/overloading2.sol\":67:326  contract Calculator {... */\n      mstore(0x40, 0x80)\n      callvalue\n      dup1\n      iszero\n      tag_1\n      jumpi\n      0x00\n      dup1\n      revert\n    tag_1:\n      pop\n      dataSize(sub_0)\n      dup1\n      dataOffset(sub_0)\n      0x00\n      codecopy\n      0x00\n      return\n    stop\n\n    sub_0: assembly {\n            /* \"OOP/characteristic/overloading2.sol\":67:326  contract Calculator {... */\n          mstore(0x40, 0x80)\n          callvalue\n          dup1\n          iszero\n          tag_1\n          jumpi\n          0x00\n          dup1\n          revert\n        tag_1:\n          pop\n          jumpi(tag_2, lt(calldatasize, 0x04))\n          shr(0xe0, calldataload(0x00))\n          dup1\n          0xc8a4ac9c\n          eq\n          tag_3\n          jumpi\n          dup1\n          0xe91cac2d\n          eq\n          tag_4\n          jumpi\n        tag_2:\n          0x00\n          dup1\n          revert\n            /* \"OOP/characteristic/overloading2.sol\":94:196  function mul(uint _num1, uint _num2) public pure returns (uint) {... */\n        tag_3:\n          tag_5\n          0x04\n          dup1\n          calldatasize\n          sub\n          dup2\n          add\n          swap1\n          tag_6\n          swap2\n          swap1\n          tag_7\n          jump\t// in\n        tag_6:\n          tag_8\n          jump\t// in\n        tag_5:\n          mload(0x40)\n          tag_9\n          swap2\n          swap1\n          tag_10\n          jump\t// in\n        tag_9:\n          mload(0x40)\n          dup1\n          swap2\n          sub\n          swap1\n          return\n            /* \"OOP/characteristic/overloading2.sol\":202:324  function mul(uint _num1, uint _num2, uint _num3) public  pure returns(uint) {... */\n        tag_4:\n          tag_11\n          0x04\n          dup1\n          calldatasize\n          sub\n          dup2\n          add\n          swap1\n          tag_12\n          swap2\n          swap1\n          tag_13\n          jump\t// in\n        tag_12:\n          tag_14\n          jump\t// in\n        tag_11:\n          mload(0x40)\n          tag_15\n          swap2\n          swap1\n          tag_10\n          jump\t// in\n        tag_15:\n          mload(0x40)\n          dup1\n          swap2\n          sub\n          swap1\n          return\n            /* \"OOP/characteristic/overloading2.sol\":94:196  function mul(uint _num1, uint _num2) public pure returns (uint) {... */\n        tag_8:\n            /* \"OOP/characteristic/overloading2.sol\":152:156  uint */\n          0x00\n            /* \"OOP/characteristic/overloading2.sol\":184:189  _num2 */\n          dup2\n            /* \"OOP/characteristic/overloading2.sol\":176:181  _num1 */\n          dup4\n            /* \"OOP/characteristic/overloading2.sol\":176:189  _num1 * _num2 */\n          tag_17\n          swap2\n          swap1\n          tag_18\n          jump\t// in\n        tag_17:\n            /* \"OOP/characteristic/overloading2.sol\":168:189  return  _num1 * _num2 */\n          swap1\n          pop\n            /* \"OOP/characteristic/overloading2.sol\":94:196  function mul(uint _num1, uint _num2) public pure returns (uint) {... */\n          swap3\n          swap2\n          pop\n          pop\n          jump\t// out\n            /* \"OOP/characteristic/overloading2.sol\":202:324  function mul(uint _num1, uint _num2, uint _num3) public  pure returns(uint) {... */\n        tag_14:\n            /* \"OOP/characteristic/overloading2.sol\":272:276  uint */\n          0x00\n            /* \"OOP/characteristic/overloading2.sol\":312:317  _num3 */\n          dup2\n            /* \"OOP/characteristic/overloading2.sol\":304:309  _num2 */\n          dup4\n            /* \"OOP/characteristic/overloading2.sol\":296:301  _num1 */\n          dup6\n            /* \"OOP/characteristic/overloading2.sol\":296:309  _num1 * _num2 */\n          tag_20\n          swap2\n          swap1\n          tag_18\n          jump\t// in\n        tag_20:\n            /* \"OOP/characteristic/overloading2.sol\":296:317  _num1 * _num2 * _num3 */\n          tag_21\n          swap2\n          swap1\n          tag_18\n          jump\t// in\n        tag_21:\n            /* \"OOP/characteristic/overloading2.sol\":288:317  return  _num1 * _num2 * _num3 */\n          swap1\n          pop\n            /* \"OOP/characteristic/overloading2.sol\":202:324  function mul(uint _num1, uint _num2, uint _num3) public  pure returns(uint) {... */\n          swap4\n          swap3\n          pop\n          pop\n          pop\n          jump\t// out\n            /* \"#utility.yul\":88:205   */\n        tag_23:\n            /* \"#utility.yul\":197:198   */\n          0x00\n            /* \"#utility.yul\":194:195   */\n          dup1\n            /* \"#utility.yul\":187:199   */\n          revert\n            /* \"#utility.yul\":334:411   */\n        tag_25:\n            /* \"#utility.yul\":371:378   */\n          0x00\n            /* \"#utility.yul\":400:405   */\n          dup2\n            /* \"#utility.yul\":389:405   */\n          swap1\n          pop\n            /* \"#utility.yul\":334:411   */\n          swap2\n          swap1\n          pop\n          jump\t// out\n            /* \"#utility.yul\":417:539   */\n        tag_26:\n            /* \"#utility.yul\":490:514   */\n          tag_36\n            /* \"#utility.yul\":508:513   */\n          dup2\n            /* \"#utility.yul\":490:514   */\n          tag_25\n          jump\t// in\n        tag_36:\n            /* \"#utility.yul\":483:488   */\n          dup2\n            /* \"#utility.yul\":480:515   */\n          eq\n            /* \"#utility.yul\":470:533   */\n          tag_37\n          jumpi\n            /* \"#utility.yul\":529:530   */\n          0x00\n            /* \"#utility.yul\":526:527   */\n          dup1\n            /* \"#utility.yul\":519:531   */\n          revert\n            /* \"#utility.yul\":470:533   */\n        tag_37:\n            /* \"#utility.yul\":417:539   */\n          pop\n          jump\t// out\n            /* \"#utility.yul\":545:684   */\n        tag_27:\n            /* \"#utility.yul\":591:596   */\n          0x00\n            /* \"#utility.yul\":629:635   */\n          dup2\n            /* \"#utility.yul\":616:636   */\n          calldataload\n            /* \"#utility.yul\":607:636   */\n          swap1\n          pop\n            /* \"#utility.yul\":645:678   */\n          tag_39\n            /* \"#utility.yul\":672:677   */\n          dup2\n            /* \"#utility.yul\":645:678   */\n          tag_26\n          jump\t// in\n        tag_39:\n            /* \"#utility.yul\":545:684   */\n          swap3\n          swap2\n          pop\n          pop\n          jump\t// out\n            /* \"#utility.yul\":690:1164   */\n        tag_7:\n            /* \"#utility.yul\":758:764   */\n          0x00\n            /* \"#utility.yul\":766:772   */\n          dup1\n            /* \"#utility.yul\":815:817   */\n          0x40\n            /* \"#utility.yul\":803:812   */\n          dup4\n            /* \"#utility.yul\":794:801   */\n          dup6\n            /* \"#utility.yul\":790:813   */\n          sub\n            /* \"#utility.yul\":786:818   */\n          slt\n            /* \"#utility.yul\":783:902   */\n          iszero\n          tag_41\n          jumpi\n            /* \"#utility.yul\":821:900   */\n          tag_42\n          tag_23\n          jump\t// in\n        tag_42:\n            /* \"#utility.yul\":783:902   */\n        tag_41:\n            /* \"#utility.yul\":941:942   */\n          0x00\n            /* \"#utility.yul\":966:1019   */\n          tag_43\n            /* \"#utility.yul\":1011:1018   */\n          dup6\n            /* \"#utility.yul\":1002:1008   */\n          dup3\n            /* \"#utility.yul\":991:1000   */\n          dup7\n            /* \"#utility.yul\":987:1009   */\n          add\n            /* \"#utility.yul\":966:1019   */\n          tag_27\n          jump\t// in\n        tag_43:\n            /* \"#utility.yul\":956:1019   */\n          swap3\n          pop\n            /* \"#utility.yul\":912:1029   */\n          pop\n            /* \"#utility.yul\":1068:1070   */\n          0x20\n            /* \"#utility.yul\":1094:1147   */\n          tag_44\n            /* \"#utility.yul\":1139:1146   */\n          dup6\n            /* \"#utility.yul\":1130:1136   */\n          dup3\n            /* \"#utility.yul\":1119:1128   */\n          dup7\n            /* \"#utility.yul\":1115:1137   */\n          add\n            /* \"#utility.yul\":1094:1147   */\n          tag_27\n          jump\t// in\n        tag_44:\n            /* \"#utility.yul\":1084:1147   */\n          swap2\n          pop\n            /* \"#utility.yul\":1039:1157   */\n          pop\n            /* \"#utility.yul\":690:1164   */\n          swap3\n          pop\n          swap3\n          swap1\n          pop\n          jump\t// out\n            /* \"#utility.yul\":1170:1288   */\n        tag_28:\n            /* \"#utility.yul\":1257:1281   */\n          tag_46\n            /* \"#utility.yul\":1275:1280   */\n          dup2\n            /* \"#utility.yul\":1257:1281   */\n          tag_25\n          jump\t// in\n        tag_46:\n            /* \"#utility.yul\":1252:1255   */\n          dup3\n            /* \"#utility.yul\":1245:1282   */\n          mstore\n            /* \"#utility.yul\":1170:1288   */\n          pop\n          pop\n          jump\t// out\n            /* \"#utility.yul\":1294:1516   */\n        tag_10:\n            /* \"#utility.yul\":1387:1391   */\n          0x00\n            /* \"#utility.yul\":1425:1427   */\n          0x20\n            /* \"#utility.yul\":1414:1423   */\n          dup3\n            /* \"#utility.yul\":1410:1428   */\n          add\n            /* \"#utility.yul\":1402:1428   */\n          swap1\n          pop\n            /* \"#utility.yul\":1438:1509   */\n          tag_48\n            /* \"#utility.yul\":1506:1507   */\n          0x00\n            /* \"#utility.yul\":1495:1504   */\n          dup4\n            /* \"#utility.yul\":1491:1508   */\n          add\n            /* \"#utility.yul\":1482:1488   */\n          dup5\n            /* \"#utility.yul\":1438:1509   */\n          tag_28\n          jump\t// in\n        tag_48:\n            /* \"#utility.yul\":1294:1516   */\n          swap3\n          swap2\n          pop\n          pop\n          jump\t// out\n            /* \"#utility.yul\":1522:2141   */\n        tag_13:\n            /* \"#utility.yul\":1599:1605   */\n          0x00\n            /* \"#utility.yul\":1607:1613   */\n          dup1\n            /* \"#utility.yul\":1615:1621   */\n          0x00\n            /* \"#utility.yul\":1664:1666   */\n          0x60\n            /* \"#utility.yul\":1652:1661   */\n          dup5\n            /* \"#utility.yul\":1643:1650   */\n          dup7\n            /* \"#utility.yul\":1639:1662   */\n          sub\n            /* \"#utility.yul\":1635:1667   */\n          slt\n            /* \"#utility.yul\":1632:1751   */\n          iszero\n          tag_50\n          jumpi\n            /* \"#utility.yul\":1670:1749   */\n          tag_51\n          tag_23\n          jump\t// in\n        tag_51:\n            /* \"#utility.yul\":1632:1751   */\n        tag_50:\n            /* \"#utility.yul\":1790:1791   */\n          0x00\n            /* \"#utility.yul\":1815:1868   */\n          tag_52\n            /* \"#utility.yul\":1860:1867   */\n          dup7\n            /* \"#utility.yul\":1851:1857   */\n          dup3\n            /* \"#utility.yul\":1840:1849   */\n          dup8\n            /* \"#utility.yul\":1836:1858   */\n          add\n            /* \"#utility.yul\":1815:1868   */\n          tag_27\n          jump\t// in\n        tag_52:\n            /* \"#utility.yul\":1805:1868   */\n          swap4\n          pop\n            /* \"#utility.yul\":1761:1878   */\n          pop\n            /* \"#utility.yul\":1917:1919   */\n          0x20\n            /* \"#utility.yul\":1943:1996   */\n          tag_53\n            /* \"#utility.yul\":1988:1995   */\n          dup7\n            /* \"#utility.yul\":1979:1985   */\n          dup3\n            /* \"#utility.yul\":1968:1977   */\n          dup8\n            /* \"#utility.yul\":1964:1986   */\n          add\n            /* \"#utility.yul\":1943:1996   */\n          tag_27\n          jump\t// in\n        tag_53:\n            /* \"#utility.yul\":1933:1996   */\n          swap3\n          pop\n            /* \"#utility.yul\":1888:2006   */\n          pop\n            /* \"#utility.yul\":2045:2047   */\n          0x40\n            /* \"#utility.yul\":2071:2124   */\n          tag_54\n            /* \"#utility.yul\":2116:2123   */\n          dup7\n            /* \"#utility.yul\":2107:2113   */\n          dup3\n            /* \"#utility.yul\":2096:2105   */\n          dup8\n            /* \"#utility.yul\":2092:2114   */\n          add\n            /* \"#utility.yul\":2071:2124   */\n          tag_27\n          jump\t// in\n        tag_54:\n            /* \"#utility.yul\":2061:2124   */\n          swap2\n          pop\n            /* \"#utility.yul\":2016:2134   */\n          pop\n            /* \"#utility.yul\":1522:2141   */\n          swap3\n          pop\n          swap3\n          pop\n          swap3\n          jump\t// out\n            /* \"#utility.yul\":2147:2327   */\n        tag_29:\n            /* \"#utility.yul\":2195:2272   */\n          0x4e487b7100000000000000000000000000000000000000000000000000000000\n            /* \"#utility.yul\":2192:2193   */\n          0x00\n            /* \"#utility.yul\":2185:2273   */\n          mstore\n            /* \"#utility.yul\":2292:2296   */\n          0x11\n            /* \"#utility.yul\":2289:2290   */\n          0x04\n            /* \"#utility.yul\":2282:2297   */\n          mstore\n            /* \"#utility.yul\":2316:2320   */\n          0x24\n            /* \"#utility.yul\":2313:2314   */\n          0x00\n            /* \"#utility.yul\":2306:2321   */\n          revert\n            /* \"#utility.yul\":2333:2743   */\n        tag_18:\n            /* \"#utility.yul\":2373:2380   */\n          0x00\n            /* \"#utility.yul\":2396:2416   */\n          tag_57\n            /* \"#utility.yul\":2414:2415   */\n          dup3\n            /* \"#utility.yul\":2396:2416   */\n          tag_25\n          jump\t// in\n        tag_57:\n            /* \"#utility.yul\":2391:2416   */\n          swap2\n          pop\n            /* \"#utility.yul\":2430:2450   */\n          tag_58\n            /* \"#utility.yul\":2448:2449   */\n          dup4\n            /* \"#utility.yul\":2430:2450   */\n          tag_25\n          jump\t// in\n        tag_58:\n            /* \"#utility.yul\":2425:2450   */\n          swap3\n          pop\n            /* \"#utility.yul\":2485:2486   */\n          dup3\n            /* \"#utility.yul\":2482:2483   */\n          dup3\n            /* \"#utility.yul\":2478:2487   */\n          mul\n            /* \"#utility.yul\":2507:2537   */\n          tag_59\n            /* \"#utility.yul\":2525:2536   */\n          dup2\n            /* \"#utility.yul\":2507:2537   */\n          tag_25\n          jump\t// in\n        tag_59:\n            /* \"#utility.yul\":2496:2537   */\n          swap2\n          pop\n            /* \"#utility.yul\":2686:2687   */\n          dup3\n            /* \"#utility.yul\":2677:2684   */\n          dup3\n            /* \"#utility.yul\":2673:2688   */\n          div\n            /* \"#utility.yul\":2670:2671   */\n          dup5\n            /* \"#utility.yul\":2667:2689   */\n          eq\n            /* \"#utility.yul\":2647:2648   */\n          dup4\n            /* \"#utility.yul\":2640:2649   */\n          iszero\n            /* \"#utility.yul\":2620:2703   */\n          or\n            /* \"#utility.yul\":2597:2736   */\n          tag_60\n          jumpi\n            /* \"#utility.yul\":2716:2734   */\n          tag_61\n          tag_29\n          jump\t// in\n        tag_61:\n            /* \"#utility.yul\":2597:2736   */\n        tag_60:\n            /* \"#utility.yul\":2381:2743   */\n          pop\n            /* \"#utility.yul\":2333:2743   */\n          swap3\n          swap2\n          pop\n          pop\n          jump\t// out\n\n        auxdata: 0xa26469706673582212204733c552f4fb3f549a9c8985896e017c730d449cefc632fd5831659a2494389264736f6c634300081a0033\n    }\n}\n",
				"bytecode": {
					"linkReferences": {},
					"object": "6080604052604051600e906074565b604051809103905ff0801580156026573d5f803e3d5ffd5b505f806101000a81548173ffffffffffffffffffffffffffffffffffffffff021916908373ffffffffffffffffffffffffffffffffffffffff160217905550348015606f575f80fd5b506081565b61027b8061046d83390190565b6103df8061008e5f395ff3fe608060405234801561000f575f80fd5b5060043610610029575f3560e01c80635a40a8db1461002d575b5f80fd5b61003561004c565b6040516100439291906101a7565b60405180910390f35b5f805f8054906101000a900473ffffffffffffffffffffffffffffffffffffffff1673ffffffffffffffffffffffffffffffffffffffff1663c8a4ac9c600360056040518363ffffffff1660e01b81526004016100aa929190610249565b602060405180830381865afa1580156100c5573d5f803e3d5ffd5b505050506040513d601f19601f820116820180604052508101906100e9919061029e565b5f8054906101000a900473ffffffffffffffffffffffffffffffffffffffff1673ffffffffffffffffffffffffffffffffffffffff1663e91cac2d6002600460066040518463ffffffff1660e01b815260040161014893929190610374565b602060405180830381865afa158015610163573d5f803e3d5ffd5b505050506040513d601f19601f82011682018060405250810190610187919061029e565b915091509091565b5f819050919050565b6101a18161018f565b82525050565b5f6040820190506101ba5f830185610198565b6101c76020830184610198565b9392505050565b5f819050919050565b5f819050919050565b5f6101fa6101f56101f0846101ce565b6101d7565b61018f565b9050919050565b61020a816101e0565b82525050565b5f819050919050565b5f61023361022e61022984610210565b6101d7565b61018f565b9050919050565b61024381610219565b82525050565b5f60408201905061025c5f830185610201565b610269602083018461023a565b9392505050565b5f80fd5b61027d8161018f565b8114610287575f80fd5b50565b5f8151905061029881610274565b92915050565b5f602082840312156102b3576102b2610270565b5b5f6102c08482850161028a565b91505092915050565b5f819050919050565b5f6102ec6102e76102e2846102c9565b6101d7565b61018f565b9050919050565b6102fc816102d2565b82525050565b5f819050919050565b5f61032561032061031b84610302565b6101d7565b61018f565b9050919050565b6103358161030b565b82525050565b5f819050919050565b5f61035e6103596103548461033b565b6101d7565b61018f565b9050919050565b61036e81610344565b82525050565b5f6060820190506103875f8301866102f3565b610394602083018561032c565b6103a16040830184610365565b94935050505056fea264697066735822122033f8d93b8d9450867897011886a7efc9d3470c672a57ceb8c91d1b0ba5122e0a64736f6c634300081a00336080604052348015600e575f80fd5b5061025f8061001c5f395ff3fe608060405234801561000f575f80fd5b5060043610610034575f3560e01c8063c8a4ac9c14610038578063e91cac2d14610068575b5f80fd5b610052600480360381019061004d9190610105565b610098565b60405161005f9190610152565b60405180910390f35b610082600480360381019061007d919061016b565b6100ad565b60405161008f9190610152565b60405180910390f35b5f81836100a591906101e8565b905092915050565b5f8183856100bb91906101e8565b6100c591906101e8565b90509392505050565b5f80fd5b5f819050919050565b6100e4816100d2565b81146100ee575f80fd5b50565b5f813590506100ff816100db565b92915050565b5f806040838503121561011b5761011a6100ce565b5b5f610128858286016100f1565b9250506020610139858286016100f1565b9150509250929050565b61014c816100d2565b82525050565b5f6020820190506101655f830184610143565b92915050565b5f805f60608486031215610182576101816100ce565b5b5f61018f868287016100f1565b93505060206101a0868287016100f1565b92505060406101b1868287016100f1565b9150509250925092565b7f4e487b71000000000000000000000000000000000000000000000000000000005f52601160045260245ffd5b5f6101f2826100d2565b91506101fd836100d2565b925082820261020b816100d2565b91508282048414831517610222576102216101bb565b5b509291505056fea26469706673582212204733c552f4fb3f549a9c8985896e017c730d449cefc632fd5831659a2494389264736f6c634300081a0033",
					"opcodes": "PUSH1 0x80 PUSH1 0x40 MSTORE PUSH1 0x40 MLOAD PUSH1 0xE SWAP1 PUSH1 0x74 JUMP JUMPDEST PUSH1 0x40 MLOAD DUP1 SWAP2 SUB SWAP1 PUSH0 CREATE DUP1 ISZERO DUP1 ISZERO PUSH1 0x26 JUMPI RETURNDATASIZE PUSH0 DUP1 RETURNDATACOPY RETURNDATASIZE PUSH0 REVERT JUMPDEST POP PUSH0 DUP1 PUSH2 0x100 EXP DUP2 SLOAD DUP2 PUSH20 0xFFFFFFFFFFFFFFFFFFFFFFFFFFFFFFFFFFFFFFFF MUL NOT AND SWAP1 DUP4 PUSH20 0xFFFFFFFFFFFFFFFFFFFFFFFFFFFFFFFFFFFFFFFF AND MUL OR SWAP1 SSTORE POP CALLVALUE DUP1 ISZERO PUSH1 0x6F JUMPI PUSH0 DUP1 REVERT JUMPDEST POP PUSH1 0x81 JUMP JUMPDEST PUSH2 0x27B DUP1 PUSH2 0x46D DUP4 CODECOPY ADD SWAP1 JUMP JUMPDEST PUSH2 0x3DF DUP1 PUSH2 0x8E PUSH0 CODECOPY PUSH0 RETURN INVALID PUSH1 0x80 PUSH1 0x40 MSTORE CALLVALUE DUP1 ISZERO PUSH2 0xF JUMPI PUSH0 DUP1 REVERT JUMPDEST POP PUSH1 0x4 CALLDATASIZE LT PUSH2 0x29 JUMPI PUSH0 CALLDATALOAD PUSH1 0xE0 SHR DUP1 PUSH4 0x5A40A8DB EQ PUSH2 0x2D JUMPI JUMPDEST PUSH0 DUP1 REVERT JUMPDEST PUSH2 0x35 PUSH2 0x4C JUMP JUMPDEST PUSH1 0x40 MLOAD PUSH2 0x43 SWAP3 SWAP2 SWAP1 PUSH2 0x1A7 JUMP JUMPDEST PUSH1 0x40 MLOAD DUP1 SWAP2 SUB SWAP1 RETURN JUMPDEST PUSH0 DUP1 PUSH0 DUP1 SLOAD SWAP1 PUSH2 0x100 EXP SWAP1 DIV PUSH20 0xFFFFFFFFFFFFFFFFFFFFFFFFFFFFFFFFFFFFFFFF AND PUSH20 0xFFFFFFFFFFFFFFFFFFFFFFFFFFFFFFFFFFFFFFFF AND PUSH4 0xC8A4AC9C PUSH1 0x3 PUSH1 0x5 PUSH1 0x40 MLOAD DUP4 PUSH4 0xFFFFFFFF AND PUSH1 0xE0 SHL DUP2 MSTORE PUSH1 0x4 ADD PUSH2 0xAA SWAP3 SWAP2 SWAP1 PUSH2 0x249 JUMP JUMPDEST PUSH1 0x20 PUSH1 0x40 MLOAD DUP1 DUP4 SUB DUP2 DUP7 GAS STATICCALL ISZERO DUP1 ISZERO PUSH2 0xC5 JUMPI RETURNDATASIZE PUSH0 DUP1 RETURNDATACOPY RETURNDATASIZE PUSH0 REVERT JUMPDEST POP POP POP POP PUSH1 0x40 MLOAD RETURNDATASIZE PUSH1 0x1F NOT PUSH1 0x1F DUP3 ADD AND DUP3 ADD DUP1 PUSH1 0x40 MSTORE POP DUP2 ADD SWAP1 PUSH2 0xE9 SWAP2 SWAP1 PUSH2 0x29E JUMP JUMPDEST PUSH0 DUP1 SLOAD SWAP1 PUSH2 0x100 EXP SWAP1 DIV PUSH20 0xFFFFFFFFFFFFFFFFFFFFFFFFFFFFFFFFFFFFFFFF AND PUSH20 0xFFFFFFFFFFFFFFFFFFFFFFFFFFFFFFFFFFFFFFFF AND PUSH4 0xE91CAC2D PUSH1 0x2 PUSH1 0x4 PUSH1 0x6 PUSH1 0x40 MLOAD DUP5 PUSH4 0xFFFFFFFF AND PUSH1 0xE0 SHL DUP2 MSTORE PUSH1 0x4 ADD PUSH2 0x148 SWAP4 SWAP3 SWAP2 SWAP1 PUSH2 0x374 JUMP JUMPDEST PUSH1 0x20 PUSH1 0x40 MLOAD DUP1 DUP4 SUB DUP2 DUP7 GAS STATICCALL ISZERO DUP1 ISZERO PUSH2 0x163 JUMPI RETURNDATASIZE PUSH0 DUP1 RETURNDATACOPY RETURNDATASIZE PUSH0 REVERT JUMPDEST POP POP POP POP PUSH1 0x40 MLOAD RETURNDATASIZE PUSH1 0x1F NOT PUSH1 0x1F DUP3 ADD AND DUP3 ADD DUP1 PUSH1 0x40 MSTORE POP DUP2 ADD SWAP1 PUSH2 0x187 SWAP2 SWAP1 PUSH2 0x29E JUMP JUMPDEST SWAP2 POP SWAP2 POP SWAP1 SWAP2 JUMP JUMPDEST PUSH0 DUP2 SWAP1 POP SWAP2 SWAP1 POP JUMP JUMPDEST PUSH2 0x1A1 DUP2 PUSH2 0x18F JUMP JUMPDEST DUP3 MSTORE POP POP JUMP JUMPDEST PUSH0 PUSH1 0x40 DUP3 ADD SWAP1 POP PUSH2 0x1BA PUSH0 DUP4 ADD DUP6 PUSH2 0x198 JUMP JUMPDEST PUSH2 0x1C7 PUSH1 0x20 DUP4 ADD DUP5 PUSH2 0x198 JUMP JUMPDEST SWAP4 SWAP3 POP POP POP JUMP JUMPDEST PUSH0 DUP2 SWAP1 POP SWAP2 SWAP1 POP JUMP JUMPDEST PUSH0 DUP2 SWAP1 POP SWAP2 SWAP1 POP JUMP JUMPDEST PUSH0 PUSH2 0x1FA PUSH2 0x1F5 PUSH2 0x1F0 DUP5 PUSH2 0x1CE JUMP JUMPDEST PUSH2 0x1D7 JUMP JUMPDEST PUSH2 0x18F JUMP JUMPDEST SWAP1 POP SWAP2 SWAP1 POP JUMP JUMPDEST PUSH2 0x20A DUP2 PUSH2 0x1E0 JUMP JUMPDEST DUP3 MSTORE POP POP JUMP JUMPDEST PUSH0 DUP2 SWAP1 POP SWAP2 SWAP1 POP JUMP JUMPDEST PUSH0 PUSH2 0x233 PUSH2 0x22E PUSH2 0x229 DUP5 PUSH2 0x210 JUMP JUMPDEST PUSH2 0x1D7 JUMP JUMPDEST PUSH2 0x18F JUMP JUMPDEST SWAP1 POP SWAP2 SWAP1 POP JUMP JUMPDEST PUSH2 0x243 DUP2 PUSH2 0x219 JUMP JUMPDEST DUP3 MSTORE POP POP JUMP JUMPDEST PUSH0 PUSH1 0x40 DUP3 ADD SWAP1 POP PUSH2 0x25C PUSH0 DUP4 ADD DUP6 PUSH2 0x201 JUMP JUMPDEST PUSH2 0x269 PUSH1 0x20 DUP4 ADD DUP5 PUSH2 0x23A JUMP JUMPDEST SWAP4 SWAP3 POP POP POP JUMP JUMPDEST PUSH0 DUP1 REVERT JUMPDEST PUSH2 0x27D DUP2 PUSH2 0x18F JUMP JUMPDEST DUP2 EQ PUSH2 0x287 JUMPI PUSH0 DUP1 REVERT JUMPDEST POP JUMP JUMPDEST PUSH0 DUP2 MLOAD SWAP1 POP PUSH2 0x298 DUP2 PUSH2 0x274 JUMP JUMPDEST SWAP3 SWAP2 POP POP JUMP JUMPDEST PUSH0 PUSH1 0x20 DUP3 DUP5 SUB SLT ISZERO PUSH2 0x2B3 JUMPI PUSH2 0x2B2 PUSH2 0x270 JUMP JUMPDEST JUMPDEST PUSH0 PUSH2 0x2C0 DUP5 DUP3 DUP6 ADD PUSH2 0x28A JUMP JUMPDEST SWAP2 POP POP SWAP3 SWAP2 POP POP JUMP JUMPDEST PUSH0 DUP2 SWAP1 POP SWAP2 SWAP1 POP JUMP JUMPDEST PUSH0 PUSH2 0x2EC PUSH2 0x2E7 PUSH2 0x2E2 DUP5 PUSH2 0x2C9 JUMP JUMPDEST PUSH2 0x1D7 JUMP JUMPDEST PUSH2 0x18F JUMP JUMPDEST SWAP1 POP SWAP2 SWAP1 POP JUMP JUMPDEST PUSH2 0x2FC DUP2 PUSH2 0x2D2 JUMP JUMPDEST DUP3 MSTORE POP POP JUMP JUMPDEST PUSH0 DUP2 SWAP1 POP SWAP2 SWAP1 POP JUMP JUMPDEST PUSH0 PUSH2 0x325 PUSH2 0x320 PUSH2 0x31B DUP5 PUSH2 0x302 JUMP JUMPDEST PUSH2 0x1D7 JUMP JUMPDEST PUSH2 0x18F JUMP JUMPDEST SWAP1 POP SWAP2 SWAP1 POP JUMP JUMPDEST PUSH2 0x335 DUP2 PUSH2 0x30B JUMP JUMPDEST DUP3 MSTORE POP POP JUMP JUMPDEST PUSH0 DUP2 SWAP1 POP SWAP2 SWAP1 POP JUMP JUMPDEST PUSH0 PUSH2 0x35E PUSH2 0x359 PUSH2 0x354 DUP5 PUSH2 0x33B JUMP JUMPDEST PUSH2 0x1D7 JUMP JUMPDEST PUSH2 0x18F JUMP JUMPDEST SWAP1 POP SWAP2 SWAP1 POP JUMP JUMPDEST PUSH2 0x36E DUP2 PUSH2 0x344 JUMP JUMPDEST DUP3 MSTORE POP POP JUMP JUMPDEST PUSH0 PUSH1 0x60 DUP3 ADD SWAP1 POP PUSH2 0x387 PUSH0 DUP4 ADD DUP7 PUSH2 0x2F3 JUMP JUMPDEST PUSH2 0x394 PUSH1 0x20 DUP4 ADD DUP6 PUSH2 0x32C JUMP JUMPDEST PUSH2 0x3A1 PUSH1 0x40 DUP4 ADD DUP5 PUSH2 0x365 JUMP JUMPDEST SWAP5 SWAP4 POP POP POP POP JUMP INVALID LOG2 PUSH5 0x6970667358 0x22 SLT KECCAK256 CALLER 0xF8 0xD9 EXTCODESIZE DUP14 SWAP5 POP DUP7 PUSH25 0x97011886A7EFC9D3470C672A57CEB8C91D1B0BA5122E0A6473 PUSH16 0x6C634300081A00336080604052348015 PUSH1 0xE JUMPI PUSH0 DUP1 REVERT JUMPDEST POP PUSH2 0x25F DUP1 PUSH2 0x1C PUSH0 CODECOPY PUSH0 RETURN INVALID PUSH1 0x80 PUSH1 0x40 MSTORE CALLVALUE DUP1 ISZERO PUSH2 0xF JUMPI PUSH0 DUP1 REVERT JUMPDEST POP PUSH1 0x4 CALLDATASIZE LT PUSH2 0x34 JUMPI PUSH0 CALLDATALOAD PUSH1 0xE0 SHR DUP1 PUSH4 0xC8A4AC9C EQ PUSH2 0x38 JUMPI DUP1 PUSH4 0xE91CAC2D EQ PUSH2 0x68 JUMPI JUMPDEST PUSH0 DUP1 REVERT JUMPDEST PUSH2 0x52 PUSH1 0x4 DUP1 CALLDATASIZE SUB DUP2 ADD SWAP1 PUSH2 0x4D SWAP2 SWAP1 PUSH2 0x105 JUMP JUMPDEST PUSH2 0x98 JUMP JUMPDEST PUSH1 0x40 MLOAD PUSH2 0x5F SWAP2 SWAP1 PUSH2 0x152 JUMP JUMPDEST PUSH1 0x40 MLOAD DUP1 SWAP2 SUB SWAP1 RETURN JUMPDEST PUSH2 0x82 PUSH1 0x4 DUP1 CALLDATASIZE SUB DUP2 ADD SWAP1 PUSH2 0x7D SWAP2 SWAP1 PUSH2 0x16B JUMP JUMPDEST PUSH2 0xAD JUMP JUMPDEST PUSH1 0x40 MLOAD PUSH2 0x8F SWAP2 SWAP1 PUSH2 0x152 JUMP JUMPDEST PUSH1 0x40 MLOAD DUP1 SWAP2 SUB SWAP1 RETURN JUMPDEST PUSH0 DUP2 DUP4 PUSH2 0xA5 SWAP2 SWAP1 PUSH2 0x1E8 JUMP JUMPDEST SWAP1 POP SWAP3 SWAP2 POP POP JUMP JUMPDEST PUSH0 DUP2 DUP4 DUP6 PUSH2 0xBB SWAP2 SWAP1 PUSH2 0x1E8 JUMP JUMPDEST PUSH2 0xC5 SWAP2 SWAP1 PUSH2 0x1E8 JUMP JUMPDEST SWAP1 POP SWAP4 SWAP3 POP POP POP JUMP JUMPDEST PUSH0 DUP1 REVERT JUMPDEST PUSH0 DUP2 SWAP1 POP SWAP2 SWAP1 POP JUMP JUMPDEST PUSH2 0xE4 DUP2 PUSH2 0xD2 JUMP JUMPDEST DUP2 EQ PUSH2 0xEE JUMPI PUSH0 DUP1 REVERT JUMPDEST POP JUMP JUMPDEST PUSH0 DUP2 CALLDATALOAD SWAP1 POP PUSH2 0xFF DUP2 PUSH2 0xDB JUMP JUMPDEST SWAP3 SWAP2 POP POP JUMP JUMPDEST PUSH0 DUP1 PUSH1 0x40 DUP4 DUP6 SUB SLT ISZERO PUSH2 0x11B JUMPI PUSH2 0x11A PUSH2 0xCE JUMP JUMPDEST JUMPDEST PUSH0 PUSH2 0x128 DUP6 DUP3 DUP7 ADD PUSH2 0xF1 JUMP JUMPDEST SWAP3 POP POP PUSH1 0x20 PUSH2 0x139 DUP6 DUP3 DUP7 ADD PUSH2 0xF1 JUMP JUMPDEST SWAP2 POP POP SWAP3 POP SWAP3 SWAP1 POP JUMP JUMPDEST PUSH2 0x14C DUP2 PUSH2 0xD2 JUMP JUMPDEST DUP3 MSTORE POP POP JUMP JUMPDEST PUSH0 PUSH1 0x20 DUP3 ADD SWAP1 POP PUSH2 0x165 PUSH0 DUP4 ADD DUP5 PUSH2 0x143 JUMP JUMPDEST SWAP3 SWAP2 POP POP JUMP JUMPDEST PUSH0 DUP1 PUSH0 PUSH1 0x60 DUP5 DUP7 SUB SLT ISZERO PUSH2 0x182 JUMPI PUSH2 0x181 PUSH2 0xCE JUMP JUMPDEST JUMPDEST PUSH0 PUSH2 0x18F DUP7 DUP3 DUP8 ADD PUSH2 0xF1 JUMP JUMPDEST SWAP4 POP POP PUSH1 0x20 PUSH2 0x1A0 DUP7 DUP3 DUP8 ADD PUSH2 0xF1 JUMP JUMPDEST SWAP3 POP POP PUSH1 0x40 PUSH2 0x1B1 DUP7 DUP3 DUP8 ADD PUSH2 0xF1 JUMP JUMPDEST SWAP2 POP POP SWAP3 POP SWAP3 POP SWAP3 JUMP JUMPDEST PUSH32 0x4E487B7100000000000000000000000000000000000000000000000000000000 PUSH0 MSTORE PUSH1 0x11 PUSH1 0x4 MSTORE PUSH1 0x24 PUSH0 REVERT JUMPDEST PUSH0 PUSH2 0x1F2 DUP3 PUSH2 0xD2 JUMP JUMPDEST SWAP2 POP PUSH2 0x1FD DUP4 PUSH2 0xD2 JUMP JUMPDEST SWAP3 POP DUP3 DUP3 MUL PUSH2 0x20B DUP2 PUSH2 0xD2 JUMP JUMPDEST SWAP2 POP DUP3 DUP3 DIV DUP5 EQ DUP4 ISZERO OR PUSH2 0x222 JUMPI PUSH2 0x221 PUSH2 0x1BB JUMP JUMPDEST JUMPDEST POP SWAP3 SWAP2 POP POP JUMP INVALID LOG2 PUSH5 0x6970667358 0x22 SLT KECCAK256 SELFBALANCE CALLER 0xC5 MSTORE DELEGATECALL 0xFB EXTCODEHASH SLOAD SWAP11 SWAP13 DUP10 DUP6 DUP10 PUSH15 0x17C730D449CEFC632FD5831659A24 SWAP5 CODESIZE SWAP3 PUSH5 0x736F6C6343 STOP ADDMOD BYTE STOP CALLER "
				},
				"gasEstimates": {
					"creation": {
						"codeDepositCost": "198200",
						"executionCost": "infinite",
						"totalCost": "infinite"
					},
					"external": {
						"getNumbersDefault()": "infinite"
					}
				},
				"methodIdentifiers": {
					"getNumbersDefault()": "5a40a8db"
				}
			},
			"storageLayout": {
				"storage": [
					{
						"astId": 41,
						"contract": "OOP/characteristic/overloading2.sol:Over",
						"label": "calculator",
						"offset": 0,
						"slot": "0",
						"type": "t_contract(Calculator)34"
					}
				],
				"types": {
					"t_contract(Calculator)34": {
						"encoding": "inplace",
						"label": "contract Calculator",
						"numberOfBytes": "20"
					}
				}
			},
			"userdoc": {
				"kind": "user",
				"methods": {},
				"version": 1
			}
		}
	}
}