{
	"OOP/characteristic/overloading2.sol": {
		"Calculator": {
			"abi": [
				{
					"inputs": [
						{
							"internalType": "uint256",
							"name": "_num1",
							"type": "uint256"
						},
						{
							"internalType": "uint256",
							"name": "_num2",
							"type": "uint256"
						}
					],
					"name": "mul",
					"outputs": [
						{
							"internalType": "uint256",
							"name": "",
							"type": "uint256"
						}
					],
					"stateMutability": "pure",
					"type": "function"
				},
				{
					"inputs": [
						{
							"internalType": "uint256",
							"name": "_num1",
							"type": "uint256"
						},
						{
							"internalType": "uint256",
							"name": "_num2",
							"type": "uint256"
						},
						{
							"internalType": "uint256",
							"name": "_num3",
							"type": "uint256"
						}
					],
					"name": "mul",
					"outputs": [
						{
							"internalType": "uint256",
							"name": "",
							"type": "uint256"
						}
					],
					"stateMutability": "pure",
					"type": "function"
				}
			],
			"devdoc": {
				"kind": "dev",
				"methods": {},
				"version": 1
			},
			"evm": {
				"assembly": "    /* \"OOP/characteristic/overloading2.sol\":67:326  contract Calculator {... */\n  mstore(0x40, 0x80)\n  callvalue\n  dup1\n  iszero\n  tag_1\n  jumpi\n  0x00\n  dup1\n  revert\ntag_1:\n  pop\n  dataSize(sub_0)\n  dup1\n  dataOffset(sub_0)\n  0x00\n  codecopy\n  0x00\n  return\nstop\n\nsub_0: assembly {\n        /* \"OOP/characteristic/overloading2.sol\":67:326  contract Calculator {... */\n      mstore(0x40, 0x80)\n      callvalue\n      dup1\n      iszero\n      tag_1\n      jumpi\n      0x00\n      dup1\n      revert\n    tag_1:\n      pop\n      jumpi(tag_2, lt(calldatasize, 0x04))\n      shr(0xe0, calldataload(0x00))\n      dup1\n      0xc8a4ac9c\n      eq\n      tag_3\n      jumpi\n      dup1\n      0xe91cac2d\n      eq\n      tag_4\n      jumpi\n    tag_2:\n      0x00\n      dup1\n      revert\n        /* \"OOP/characteristic/overloading2.sol\":94:196  function mul(uint _num1, uint _num2) public pure returns (uint) {... */\n    tag_3:\n      tag_5\n      0x04\n      dup1\n      calldatasize\n      sub\n      dup2\n      add\n      swap1\n      tag_6\n      swap2\n      swap1\n      tag_7\n      jump\t// in\n    tag_6:\n      tag_8\n      jump\t// in\n    tag_5:\n      mload(0x40)\n      tag_9\n      swap2\n      swap1\n      tag_10\n      jump\t// in\n    tag_9:\n      mload(0x40)\n      dup1\n      swap2\n      sub\n      swap1\n      return\n        /* \"OOP/characteristic/overloading2.sol\":202:324  function mul(uint _num1, uint _num2, uint _num3) public  pure returns(uint) {... */\n    tag_4:\n      tag_11\n      0x04\n      dup1\n      calldatasize\n      sub\n      dup2\n      add\n      swap1\n      tag_12\n      swap2\n      swap1\n      tag_13\n      jump\t// in\n    tag_12:\n      tag_14\n      jump\t// in\n    tag_11:\n      mload(0x40)\n      tag_15\n      swap2\n      swap1\n      tag_10\n      jump\t// in\n    tag_15:\n      mload(0x40)\n      dup1\n      swap2\n      sub\n      swap1\n      return\n        /* \"OOP/characteristic/overloading2.sol\":94:196  function mul(uint _num1, uint _num2) public pure returns (uint) {... */\n    tag_8:\n        /* \"OOP/characteristic/overloading2.sol\":152:156  uint */\n      0x00\n        /* \"OOP/characteristic/overloading2.sol\":184:189  _num2 */\n      dup2\n        /* \"OOP/characteristic/overloading2.sol\":176:181  _num1 */\n      dup4\n        /* \"OOP/characteristic/overloading2.sol\":176:189  _num1 * _num2 */\n      tag_17\n      swap2\n      swap1\n      tag_18\n      jump\t// in\n    tag_17:\n        /* \"OOP/characteristic/overloading2.sol\":168:189  return  _num1 * _num2 */\n      swap1\n      pop\n        /* \"OOP/characteristic/overloading2.sol\":94:196  function mul(uint _num1, uint _num2) public pure returns (uint) {... */\n      swap3\n      swap2\n      pop\n      pop\n      jump\t// out\n        /* \"OOP/characteristic/overloading2.sol\":202:324  function mul(uint _num1, uint _num2, uint _num3) public  pure returns(uint) {... */\n    tag_14:\n        /* \"OOP/characteristic/overloading2.sol\":272:276  uint */\n      0x00\n        /* \"OOP/characteristic/overloading2.sol\":312:317  _num3 */\n      dup2\n        /* \"OOP/characteristic/overloading2.sol\":304:309  _num2 */\n      dup4\n        /* \"OOP/characteristic/overloading2.sol\":296:301  _num1 */\n      dup6\n        /* \"OOP/characteristic/overloading2.sol\":296:309  _num1 * _num2 */\n      tag_20\n      swap2\n      swap1\n      tag_18\n      jump\t// in\n    tag_20:\n        /* \"OOP/characteristic/overloading2.sol\":296:317  _num1 * _num2 * _num3 */\n      tag_21\n      swap2\n      swap1\n      tag_18\n      jump\t// in\n    tag_21:\n        /* \"OOP/characteristic/overloading2.sol\":288:317  return  _num1 * _num2 * _num3 */\n      swap1\n      pop\n        /* \"OOP/characteristic/overloading2.sol\":202:324  function mul(uint _num1, uint _num2, uint _num3) public  pure returns(uint) {... */\n      swap4\n      swap3\n      pop\n      pop\n      pop\n      jump\t// out\n        /* \"#utility.yul\":88:205   */\n    tag_23:\n        /* \"#utility.yul\":197:198   */\n      0x00\n        /* \"#utility.yul\":194:195   */\n      dup1\n        /* \"#utility.yul\":187:199   */\n      revert\n        /* \"#utility.yul\":334:411   */\n    tag_25:\n        /* \"#utility.yul\":371:378   */\n      0x00\n        /* \"#utility.yul\":400:405   */\n      dup2\n        /* \"#utility.yul\":389:405   */\n      swap1\n      pop\n        /* \"#utility.yul\":334:411   */\n      swap2\n      swap1\n      pop\n      jump\t// out\n        /* \"#utility.yul\":417:539   */\n    tag_26:\n        /* \"#utility.yul\":490:514   */\n      tag_36\n        /* \"#utility.yul\":508:513   */\n      dup2\n        /* \"#utility.yul\":490:514   */\n      tag_25\n      jump\t// in\n    tag_36:\n        /* \"#utility.yul\":483:488   */\n      dup2\n        /* \"#utility.yul\":480:515   */\n      eq\n        /* \"#utility.yul\":470:533   */\n      tag_37\n      jumpi\n        /* \"#utility.yul\":529:530   */\n      0x00\n        /* \"#utility.yul\":526:527   */\n      dup1\n        /* \"#utility.yul\":519:531   */\n      revert\n        /* \"#utility.yul\":470:533   */\n    tag_37:\n        /* \"#utility.yul\":417:539   */\n      pop\n      jump\t// out\n        /* \"#utility.yul\":545:684   */\n    tag_27:\n        /* \"#utility.yul\":591:596   */\n      0x00\n        /* \"#utility.yul\":629:635   */\n      dup2\n        /* \"#utility.yul\":616:636   */\n      calldataload\n        /* \"#utility.yul\":607:636   */\n      swap1\n      pop\n        /* \"#utility.yul\":645:678   */\n      tag_39\n        /* \"#utility.yul\":672:677   */\n      dup2\n        /* \"#utility.yul\":645:678   */\n      tag_26\n      jump\t// in\n    tag_39:\n        /* \"#utility.yul\":545:684   */\n      swap3\n      swap2\n      pop\n      pop\n      jump\t// out\n        /* \"#utility.yul\":690:1164   */\n    tag_7:\n        /* \"#utility.yul\":758:764   */\n      0x00\n        /* \"#utility.yul\":766:772   */\n      dup1\n        /* \"#utility.yul\":815:817   */\n      0x40\n        /* \"#utility.yul\":803:812   */\n      dup4\n        /* \"#utility.yul\":794:801   */\n      dup6\n        /* \"#utility.yul\":790:813   */\n      sub\n        /* \"#utility.yul\":786:818   */\n      slt\n        /* \"#utility.yul\":783:902   */\n      iszero\n      tag_41\n      jumpi\n        /* \"#utility.yul\":821:900   */\n      tag_42\n      tag_23\n      jump\t// in\n    tag_42:\n        /* \"#utility.yul\":783:902   */\n    tag_41:\n        /* \"#utility.yul\":941:942   */\n      0x00\n        /* \"#utility.yul\":966:1019   */\n      tag_43\n        /* \"#utility.yul\":1011:1018   */\n      dup6\n        /* \"#utility.yul\":1002:1008   */\n      dup3\n        /* \"#utility.yul\":991:1000   */\n      dup7\n        /* \"#utility.yul\":987:1009   */\n      add\n        /* \"#utility.yul\":966:1019   */\n      tag_27\n      jump\t// in\n    tag_43:\n        /* \"#utility.yul\":956:1019   */\n      swap3\n      pop\n        /* \"#utility.yul\":912:1029   */\n      pop\n        /* \"#utility.yul\":1068:1070   */\n      0x20\n        /* \"#utility.yul\":1094:1147   */\n      tag_44\n        /* \"#utility.yul\":1139:1146   */\n      dup6\n        /* \"#utility.yul\":1130:1136   */\n      dup3\n        /* \"#utility.yul\":1119:1128   */\n      dup7\n        /* \"#utility.yul\":1115:1137   */\n      add\n        /* \"#utility.yul\":1094:1147   */\n      tag_27\n      jump\t// in\n    tag_44:\n        /* \"#utility.yul\":1084:1147   */\n      swap2\n      pop\n        /* \"#utility.yul\":1039:1157   */\n      pop\n        /* \"#utility.yul\":690:1164   */\n      swap3\n      pop\n      swap3\n      swap1\n      pop\n      jump\t// out\n        /* \"#utility.yul\":1170:1288   */\n    tag_28:\n        /* \"#utility.yul\":1257:1281   */\n      tag_46\n        /* \"#utility.yul\":1275:1280   */\n      dup2\n        /* \"#utility.yul\":1257:1281   */\n      tag_25\n      jump\t// in\n    tag_46:\n        /* \"#utility.yul\":1252:1255   */\n      dup3\n        /* \"#utility.yul\":1245:1282   */\n      mstore\n        /* \"#utility.yul\":1170:1288   */\n      pop\n      pop\n      jump\t// out\n        /* \"#utility.yul\":1294:1516   */\n    tag_10:\n        /* \"#utility.yul\":1387:1391   */\n      0x00\n        /* \"#utility.yul\":1425:1427   */\n      0x20\n        /* \"#utility.yul\":1414:1423   */\n      dup3\n        /* \"#utility.yul\":1410:1428   */\n      add\n        /* \"#utility.yul\":1402:1428   */\n      swap1\n      pop\n        /* \"#utility.yul\":1438:1509   */\n      tag_48\n        /* \"#utility.yul\":1506:1507   */\n      0x00\n        /* \"#utility.yul\":1495:1504   */\n      dup4\n        /* \"#utility.yul\":1491:1508   */\n      add\n        /* \"#utility.yul\":1482:1488   */\n      dup5\n        /* \"#utility.yul\":1438:1509   */\n      tag_28\n      jump\t// in\n    tag_48:\n        /* \"#utility.yul\":1294:1516   */\n      swap3\n      swap2\n      pop\n      pop\n      jump\t// out\n        /* \"#utility.yul\":1522:2141   */\n    tag_13:\n        /* \"#utility.yul\":1599:1605   */\n      0x00\n        /* \"#utility.yul\":1607:1613   */\n      dup1\n        /* \"#utility.yul\":1615:1621   */\n      0x00\n        /* \"#utility.yul\":1664:1666   */\n      0x60\n        /* \"#utility.yul\":1652:1661   */\n      dup5\n        /* \"#utility.yul\":1643:1650   */\n      dup7\n        /* \"#utility.yul\":1639:1662   */\n      sub\n        /* \"#utility.yul\":1635:1667   */\n      slt\n        /* \"#utility.yul\":1632:1751   */\n      iszero\n      tag_50\n      jumpi\n        /* \"#utility.yul\":1670:1749   */\n      tag_51\n      tag_23\n      jump\t// in\n    tag_51:\n        /* \"#utility.yul\":1632:1751   */\n    tag_50:\n        /* \"#utility.yul\":1790:1791   */\n      0x00\n        /* \"#utility.yul\":1815:1868   */\n      tag_52\n        /* \"#utility.yul\":1860:1867   */\n      dup7\n        /* \"#utility.yul\":1851:1857   */\n      dup3\n        /* \"#utility.yul\":1840:1849   */\n      dup8\n        /* \"#utility.yul\":1836:1858   */\n      add\n        /* \"#utility.yul\":1815:1868   */\n      tag_27\n      jump\t// in\n    tag_52:\n        /* \"#utility.yul\":1805:1868   */\n      swap4\n      pop\n        /* \"#utility.yul\":1761:1878   */\n      pop\n        /* \"#utility.yul\":1917:1919   */\n      0x20\n        /* \"#utility.yul\":1943:1996   */\n      tag_53\n        /* \"#utility.yul\":1988:1995   */\n      dup7\n        /* \"#utility.yul\":1979:1985   */\n      dup3\n        /* \"#utility.yul\":1968:1977   */\n      dup8\n        /* \"#utility.yul\":1964:1986   */\n      add\n        /* \"#utility.yul\":1943:1996   */\n      tag_27\n      jump\t// in\n    tag_53:\n        /* \"#utility.yul\":1933:1996   */\n      swap3\n      pop\n        /* \"#utility.yul\":1888:2006   */\n      pop\n        /* \"#utility.yul\":2045:2047   */\n      0x40\n        /* \"#utility.yul\":2071:2124   */\n      tag_54\n        /* \"#utility.yul\":2116:2123   */\n      dup7\n        /* \"#utility.yul\":2107:2113   */\n      dup3\n        /* \"#utility.yul\":2096:2105   */\n      dup8\n        /* \"#utility.yul\":2092:2114   */\n      add\n        /* \"#utility.yul\":2071:2124   */\n      tag_27\n      jump\t// in\n    tag_54:\n        /* \"#utility.yul\":2061:2124   */\n      swap2\n      pop\n        /* \"#utility.yul\":2016:2134   */\n      pop\n        /* \"#utility.yul\":1522:2141   */\n      swap3\n      pop\n      swap3\n      pop\n      swap3\n      jump\t// out\n        /* \"#utility.yul\":2147:2327   */\n    tag_29:\n        /* \"#utility.yul\":2195:2272   */\n      0x4e487b7100000000000000000000000000000000000000000000000000000000\n        /* \"#utility.yul\":2192:2193   */\n      0x00\n        /* \"#utility.yul\":2185:2273   */\n      mstore\n        /* \"#utility.yul\":2292:2296   */\n      0x11\n        /* \"#utility.yul\":2289:2290   */\n      0x04\n        /* \"#utility.yul\":2282:2297   */\n      mstore\n        /* \"#utility.yul\":2316:2320   */\n      0x24\n        /* \"#utility.yul\":2313:2314   */\n      0x00\n        /* \"#utility.yul\":2306:2321   */\n      revert\n        /* \"#utility.yul\":2333:2743   */\n    tag_18:\n        /* \"#utility.yul\":2373:2380   */\n      0x00\n        /* \"#utility.yul\":2396:2416   */\n      tag_57\n        /* \"#utility.yul\":2414:2415   */\n      dup3\n        /* \"#utility.yul\":2396:2416   */\n      tag_25\n      jump\t// in\n    tag_57:\n        /* \"#utility.yul\":2391:2416   */\n      swap2\n      pop\n        /* \"#utility.yul\":2430:2450   */\n      tag_58\n        /* \"#utility.yul\":2448:2449   */\n      dup4\n        /* \"#utility.yul\":2430:2450   */\n      tag_25\n      jump\t// in\n    tag_58:\n        /* \"#utility.yul\":2425:2450   */\n      swap3\n      pop\n        /* \"#utility.yul\":2485:2486   */\n      dup3\n        /* \"#utility.yul\":2482:2483   */\n      dup3\n        /* \"#utility.yul\":2478:2487   */\n      mul\n        /* \"#utility.yul\":2507:2537   */\n      tag_59\n        /* \"#utility.yul\":2525:2536   */\n      dup2\n        /* \"#utility.yul\":2507:2537   */\n      tag_25\n      jump\t// in\n    tag_59:\n        /* \"#utility.yul\":2496:2537   */\n      swap2\n      pop\n        /* \"#utility.yul\":2686:2687   */\n      dup3\n        /* \"#utility.yul\":2677:2684   */\n      dup3\n        /* \"#utility.yul\":2673:2688   */\n      div\n        /* \"#utility.yul\":2670:2671   */\n      dup5\n        /* \"#utility.yul\":2667:2689   */\n      eq\n        /* \"#utility.yul\":2647:2648   */\n      dup4\n        /* \"#utility.yul\":2640:2649   */\n      iszero\n        /* \"#utility.yul\":2620:2703   */\n      or\n        /* \"#utility.yul\":2597:2736   */\n      tag_60\n      jumpi\n        /* \"#utility.yul\":2716:2734   */\n      tag_61\n      tag_29\n      jump\t// in\n    tag_61:\n        /* \"#utility.yul\":2597:2736   */\n    tag_60:\n        /* \"#utility.yul\":2381:2743   */\n      pop\n        /* \"#utility.yul\":2333:2743   */\n      swap3\n      swap2\n      pop\n      pop\n      jump\t// out\n\n    auxdata: 0xa26469706673582212204733c552f4fb3f549a9c8985896e017c730d449cefc632fd5831659a2494389264736f6c634300081a0033\n}\n",
				"bytecode": {
					"linkReferences": {},
					"object": "6080604052348015600e575f80fd5b5061025f8061001c5f395ff3fe608060405234801561000f575f80fd5b5060043610610034575f3560e01c8063c8a4ac9c14610038578063e91cac2d14610068575b5f80fd5b610052600480360381019061004d9190610105565b610098565b60405161005f9190610152565b60405180910390f35b610082600480360381019061007d919061016b565b6100ad565b60405161008f9190610152565b60405180910390f35b5f81836100a591906101e8565b905092915050565b5f8183856100bb91906101e8565b6100c591906101e8565b90509392505050565b5f80fd5b5f819050919050565b6100e4816100d2565b81146100ee575f80fd5b50565b5f813590506100ff816100db565b92915050565b5f806040838503121561011b5761011a6100ce565b5b5f610128858286016100f1565b9250506020610139858286016100f1565b9150509250929050565b61014c816100d2565b82525050565b5f6020820190506101655f830184610143565b92915050565b5f805f60608486031215610182576101816100ce565b5b5f61018f868287016100f1565b93505060206101a0868287016100f1565b92505060406101b1868287016100f1565b9150509250925092565b7f4e487b71000000000000000000000000000000000000000000000000000000005f52601160045260245ffd5b5f6101f2826100d2565b91506101fd836100d2565b925082820261020b816100d2565b91508282048414831517610222576102216101bb565b5b509291505056fea26469706673582212204733c552f4fb3f549a9c8985896e017c730d449cefc632fd5831659a2494389264736f6c634300081a0033",
					"opcodes": "PUSH1 0x80 PUSH1 0x40 MSTORE CALLVALUE DUP1 ISZERO PUSH1 0xE JUMPI PUSH0 DUP1 REVERT JUMPDEST POP PUSH2 0x25F DUP1 PUSH2 0x1C PUSH0 CODECOPY PUSH0 RETURN INVALID PUSH1 0x80 PUSH1 0x40 MSTORE CALLVALUE DUP1 ISZERO PUSH2 0xF JUMPI PUSH0 DUP1 REVERT JUMPDEST POP PUSH1 0x4 CALLDATASIZE LT PUSH2 0x34 JUMPI PUSH0 CALLDATALOAD PUSH1 0xE0 SHR DUP1 PUSH4 0xC8A4AC9C EQ PUSH2 0x38 JUMPI DUP1 PUSH4 0xE91CAC2D EQ PUSH2 0x68 JUMPI JUMPDEST PUSH0 DUP1 REVERT JUMPDEST PUSH2 0x52 PUSH1 0x4 DUP1 CALLDATASIZE SUB DUP2 ADD SWAP1 PUSH2 0x4D SWAP2 SWAP1 PUSH2 0x105 JUMP JUMPDEST PUSH2 0x98 JUMP JUMPDEST PUSH1 0x40 MLOAD PUSH2 0x5F SWAP2 SWAP1 PUSH2 0x152 JUMP JUMPDEST PUSH1 0x40 MLOAD DUP1 SWAP2 SUB SWAP1 RETURN JUMPDEST PUSH2 0x82 PUSH1 0x4 DUP1 CALLDATASIZE SUB DUP2 ADD SWAP1 PUSH2 0x7D SWAP2 SWAP1 PUSH2 0x16B JUMP JUMPDEST PUSH2 0xAD JUMP JUMPDEST PUSH1 0x40 MLOAD PUSH2 0x8F SWAP2 SWAP1 PUSH2 0x152 JUMP JUMPDEST PUSH1 0x40 MLOAD DUP1 SWAP2 SUB SWAP1 RETURN JUMPDEST PUSH0 DUP2 DUP4 PUSH2 0xA5 SWAP2 SWAP1 PUSH2 0x1E8 JUMP JUMPDEST SWAP1 POP SWAP3 SWAP2 POP POP JUMP JUMPDEST PUSH0 DUP2 DUP4 DUP6 PUSH2 0xBB SWAP2 SWAP1 PUSH2 0x1E8 JUMP JUMPDEST PUSH2 0xC5 SWAP2 SWAP1 PUSH2 0x1E8 JUMP JUMPDEST SWAP1 POP SWAP4 SWAP3 POP POP POP JUMP JUMPDEST PUSH0 DUP1 REVERT JUMPDEST PUSH0 DUP2 SWAP1 POP SWAP2 SWAP1 POP JUMP JUMPDEST PUSH2 0xE4 DUP2 PUSH2 0xD2 JUMP JUMPDEST DUP2 EQ PUSH2 0xEE JUMPI PUSH0 DUP1 REVERT JUMPDEST POP JUMP JUMPDEST PUSH0 DUP2 CALLDATALOAD SWAP1 POP PUSH2 0xFF DUP2 PUSH2 0xDB JUMP JUMPDEST SWAP3 SWAP2 POP POP JUMP JUMPDEST PUSH0 DUP1 PUSH1 0x40 DUP4 DUP6 SUB SLT ISZERO PUSH2 0x11B JUMPI PUSH2 0x11A PUSH2 0xCE JUMP JUMPDEST JUMPDEST PUSH0 PUSH2 0x128 DUP6 DUP3 DUP7 ADD PUSH2 0xF1 JUMP JUMPDEST SWAP3 POP POP PUSH1 0x20 PUSH2 0x139 DUP6 DUP3 DUP7 ADD PUSH2 0xF1 JUMP JUMPDEST SWAP2 POP POP SWAP3 POP SWAP3 SWAP1 POP JUMP JUMPDEST PUSH2 0x14C DUP2 PUSH2 0xD2 JUMP JUMPDEST DUP3 MSTORE POP POP JUMP JUMPDEST PUSH0 PUSH1 0x20 DUP3 ADD SWAP1 POP PUSH2 0x165 PUSH0 DUP4 ADD DUP5 PUSH2 0x143 JUMP JUMPDEST SWAP3 SWAP2 POP POP JUMP JUMPDEST PUSH0 DUP1 PUSH0 PUSH1 0x60 DUP5 DUP7 SUB SLT ISZERO PUSH2 0x182 JUMPI PUSH2 0x181 PUSH2 0xCE JUMP JUMPDEST JUMPDEST PUSH0 PUSH2 0x18F DUP7 DUP3 DUP8 ADD PUSH2 0xF1 JUMP JUMPDEST SWAP4 POP POP PUSH1 0x20 PUSH2 0x1A0 DUP7 DUP3 DUP8 ADD PUSH2 0xF1 JUMP JUMPDEST SWAP3 POP POP PUSH1 0x40 PUSH2 0x1B1 DUP7 DUP3 DUP8 ADD PUSH2 0xF1 JUMP JUMPDEST SWAP2 POP POP SWAP3 POP SWAP3 POP SWAP3 JUMP JUMPDEST PUSH32 0x4E487B7100000000000000000000000000000000000000000000000000000000 PUSH0 MSTORE PUSH1 0x11 PUSH1 0x4 MSTORE PUSH1 0x24 PUSH0 REVERT JUMPDEST PUSH0 PUSH2 0x1F2 DUP3 PUSH2 0xD2 JUMP JUMPDEST SWAP2 POP PUSH2 0x1FD DUP4 PUSH2 0xD2 JUMP JUMPDEST SWAP3 POP DUP3 DUP3 MUL PUSH2 0x20B DUP2 PUSH2 0xD2 JUMP JUMPDEST SWAP2 POP DUP3 DUP3 DIV DUP5 EQ DUP4 ISZERO OR PUSH2 0x222 JUMPI PUSH2 0x221 PUSH2 0x1BB JUMP JUMPDEST JUMPDEST POP SWAP3 SWAP2 POP POP JUMP INVALID LOG2 PUSH5 0x6970667358 0x22 SLT KECCAK256 SELFBALANCE CALLER 0xC5 MSTORE DELEGATECALL 0xFB EXTCODEHASH SLOAD SWAP11 SWAP13 DUP10 DUP6 DUP10 PUSH15 0x17C730D449CEFC632FD5831659A24 SWAP5 CODESIZE SWAP3 PUSH5 0x736F6C6343 STOP ADDMOD BYTE STOP CALLER "
				},
				"gasEstimates": {
					"creation": {
						"codeDepositCost": "121400",
						"executionCost": "163",
						"totalCost": "121563"
					},
					"external": {
						"mul(uint256,uint256)": "infinite",
						"mul(uint256,uint256,uint256)": "infinite"
					}
				},
				"methodIdentifiers": {
					"mul(uint256,uint256)": "c8a4ac9c",
					"mul(uint256,uint256,uint256)": "e91cac2d"
				}
			},
			"storageLayout": {
				"storage": [],
				"types": null
			},
			"userdoc": {
				"kind": "user",
				"methods": {},
				"version": 1
			}
		}
	}
}