{
	"OOP/characteristic/contractPoly.sol": {
		"DeveloperSet": {
			"abi": [
				{
					"inputs": [],
					"name": "blockchain",
					"outputs": [
						{
							"internalType": "contract Developer",
							"name": "",
							"type": "address"
						}
					],
					"stateMutability": "view",
					"type": "function"
				},
				{
					"inputs": [],
					"name": "getAllNames",
					"outputs": [
						{
							"internalType": "string",
							"name": "",
							"type": "string"
						},
						{
							"internalType": "string",
							"name": "",
							"type": "string"
						}
					],
					"stateMutability": "view",
					"type": "function"
				},
				{
					"inputs": [],
					"name": "web",
					"outputs": [
						{
							"internalType": "contract Developer",
							"name": "",
							"type": "address"
						}
					],
					"stateMutability": "view",
					"type": "function"
				},
				{
					"inputs": [
						{
							"internalType": "contract Developer",
							"name": "_developer",
							"type": "address"
						}
					],
					"name": "whatIsTheName",
					"outputs": [
						{
							"internalType": "string",
							"name": "",
							"type": "string"
						}
					],
					"stateMutability": "pure",
					"type": "function"
				}
			],
			"devdoc": {
				"kind": "dev",
				"methods": {},
				"version": 1
			},
			"evm": {
				"assembly": "    /* \"OOP/characteristic/contractPoly.sol\":516:926  contract DeveloperSet {... */\n  mstore(0x40, 0x80)\n    /* \"OOP/characteristic/contractPoly.sol\":574:599  new BlockChainDeveloper() */\n  mload(0x40)\n  tag_1\n  swap1\n  tag_2\n  jump\t// in\ntag_1:\n  mload(0x40)\n  dup1\n  swap2\n  sub\n  swap1\n  0x00\n  create\n  dup1\n  iszero\n  dup1\n  iszero\n  tag_3\n  jumpi\n  returndatasize\n  0x00\n  dup1\n  returndatacopy\n  revert(0x00, returndatasize)\ntag_3:\n  pop\n    /* \"OOP/characteristic/contractPoly.sol\":544:599  Developer public blockchain = new BlockChainDeveloper() */\n  0x00\n  dup1\n  0x0100\n  exp\n  dup2\n  sload\n  dup2\n  0xffffffffffffffffffffffffffffffffffffffff\n  mul\n  not\n  and\n  swap1\n  dup4\n  0xffffffffffffffffffffffffffffffffffffffff\n  and\n  mul\n  or\n  swap1\n  sstore\n  pop\n    /* \"OOP/characteristic/contractPoly.sol\":628:646  new WebDeveloper() */\n  mload(0x40)\n  tag_4\n  swap1\n  tag_5\n  jump\t// in\ntag_4:\n  mload(0x40)\n  dup1\n  swap2\n  sub\n  swap1\n  0x00\n  create\n  dup1\n  iszero\n  dup1\n  iszero\n  tag_6\n  jumpi\n  returndatasize\n  0x00\n  dup1\n  returndatacopy\n  revert(0x00, returndatasize)\ntag_6:\n  pop\n    /* \"OOP/characteristic/contractPoly.sol\":605:646  Developer public web = new WebDeveloper() */\n  0x01\n  exp(0x0100, 0x00)\n  dup2\n  sload\n  dup2\n  0xffffffffffffffffffffffffffffffffffffffff\n  mul\n  not\n  and\n  swap1\n  dup4\n  0xffffffffffffffffffffffffffffffffffffffff\n  and\n  mul\n  or\n  swap1\n  sstore\n  pop\n    /* \"OOP/characteristic/contractPoly.sol\":516:926  contract DeveloperSet {... */\n  callvalue\n  dup1\n  iszero\n  tag_7\n  jumpi\n  0x00\n  dup1\n  revert\ntag_7:\n  pop\n  jump(tag_8)\ntag_2:\n  dataSize(sub_1)\n  dup1\n  dataOffset(sub_1)\n  dup4\n  codecopy\n  add\n  swap1\n  jump\t// out\ntag_5:\n  dataSize(sub_2)\n  dup1\n  dataOffset(sub_2)\n  dup4\n  codecopy\n  add\n  swap1\n  jump\t// out\ntag_8:\n  dataSize(sub_0)\n  dup1\n  dataOffset(sub_0)\n  0x00\n  codecopy\n  0x00\n  return\nstop\n\nsub_0: assembly {\n        /* \"OOP/characteristic/contractPoly.sol\":516:926  contract DeveloperSet {... */\n      mstore(0x40, 0x80)\n      callvalue\n      dup1\n      iszero\n      tag_1\n      jumpi\n      0x00\n      dup1\n      revert\n    tag_1:\n      pop\n      jumpi(tag_2, lt(calldatasize, 0x04))\n      shr(0xe0, calldataload(0x00))\n      dup1\n      0x64a0b126\n      eq\n      tag_3\n      jumpi\n      dup1\n      0x73680b03\n      eq\n      tag_4\n      jumpi\n      dup1\n      0x9266ad16\n      eq\n      tag_5\n      jumpi\n      dup1\n      0xfb825e5f\n      eq\n      tag_6\n      jumpi\n    tag_2:\n      0x00\n      dup1\n      revert\n        /* \"OOP/characteristic/contractPoly.sol\":544:599  Developer public blockchain = new BlockChainDeveloper() */\n    tag_3:\n      tag_7\n      tag_8\n      jump\t// in\n    tag_7:\n      mload(0x40)\n      tag_9\n      swap2\n      swap1\n      tag_10\n      jump\t// in\n    tag_9:\n      mload(0x40)\n      dup1\n      swap2\n      sub\n      swap1\n      return\n        /* \"OOP/characteristic/contractPoly.sol\":605:646  Developer public web = new WebDeveloper() */\n    tag_4:\n      tag_11\n      tag_12\n      jump\t// in\n    tag_11:\n      mload(0x40)\n      tag_13\n      swap2\n      swap1\n      tag_10\n      jump\t// in\n    tag_13:\n      mload(0x40)\n      dup1\n      swap2\n      sub\n      swap1\n      return\n        /* \"OOP/characteristic/contractPoly.sol\":798:924  function whatIsTheName(Developer _developer) public pure returns(string memory) {... */\n    tag_5:\n      tag_14\n      0x04\n      dup1\n      calldatasize\n      sub\n      dup2\n      add\n      swap1\n      tag_15\n      swap2\n      swap1\n      tag_16\n      jump\t// in\n    tag_15:\n      tag_17\n      jump\t// in\n    tag_14:\n      mload(0x40)\n      tag_18\n      swap2\n      swap1\n      tag_19\n      jump\t// in\n    tag_18:\n      mload(0x40)\n      dup1\n      swap2\n      sub\n      swap1\n      return\n        /* \"OOP/characteristic/contractPoly.sol\":657:792  function getAllNames() public view returns (string memory, string memory) {... */\n    tag_6:\n      tag_20\n      tag_21\n      jump\t// in\n    tag_20:\n      mload(0x40)\n      tag_22\n      swap3\n      swap2\n      swap1\n      tag_23\n      jump\t// in\n    tag_22:\n      mload(0x40)\n      dup1\n      swap2\n      sub\n      swap1\n      return\n        /* \"OOP/characteristic/contractPoly.sol\":544:599  Developer public blockchain = new BlockChainDeveloper() */\n    tag_8:\n      0x00\n      dup1\n      sload\n      swap1\n      0x0100\n      exp\n      swap1\n      div\n      0xffffffffffffffffffffffffffffffffffffffff\n      and\n      dup2\n      jump\t// out\n        /* \"OOP/characteristic/contractPoly.sol\":605:646  Developer public web = new WebDeveloper() */\n    tag_12:\n      0x01\n      0x00\n      swap1\n      sload\n      swap1\n      0x0100\n      exp\n      swap1\n      div\n      0xffffffffffffffffffffffffffffffffffffffff\n      and\n      dup2\n      jump\t// out\n        /* \"OOP/characteristic/contractPoly.sol\":798:924  function whatIsTheName(Developer _developer) public pure returns(string memory) {... */\n    tag_17:\n        /* \"OOP/characteristic/contractPoly.sol\":863:876  string memory */\n      0x60\n        /* \"OOP/characteristic/contractPoly.sol\":896:906  _developer */\n      dup2\n        /* \"OOP/characteristic/contractPoly.sol\":896:914  _developer.getName */\n      0xffffffffffffffffffffffffffffffffffffffff\n      and\n      0x17d7de7c\n        /* \"OOP/characteristic/contractPoly.sol\":896:916  _developer.getName() */\n      mload(0x40)\n      dup2\n      0xffffffff\n      and\n      0xe0\n      shl\n      dup2\n      mstore\n      0x04\n      add\n      0x00\n      mload(0x40)\n      dup1\n      dup4\n      sub\n      dup2\n      dup7\n      gas\n      staticcall\n      iszero\n      dup1\n      iszero\n      tag_26\n      jumpi\n      returndatasize\n      0x00\n      dup1\n      returndatacopy\n      revert(0x00, returndatasize)\n    tag_26:\n      pop\n      pop\n      pop\n      pop\n      mload(0x40)\n      returndatasize\n      0x00\n      dup3\n      returndatacopy\n      returndatasize\n      not(0x1f)\n      0x1f\n      dup3\n      add\n      and\n      dup3\n      add\n      dup1\n      0x40\n      mstore\n      pop\n      dup2\n      add\n      swap1\n      tag_27\n      swap2\n      swap1\n      tag_28\n      jump\t// in\n    tag_27:\n        /* \"OOP/characteristic/contractPoly.sol\":888:917  return (_developer.getName()) */\n      swap1\n      pop\n        /* \"OOP/characteristic/contractPoly.sol\":798:924  function whatIsTheName(Developer _developer) public pure returns(string memory) {... */\n      swap2\n      swap1\n      pop\n      jump\t// out\n        /* \"OOP/characteristic/contractPoly.sol\":657:792  function getAllNames() public view returns (string memory, string memory) {... */\n    tag_21:\n        /* \"OOP/characteristic/contractPoly.sol\":701:714  string memory */\n      0x60\n        /* \"OOP/characteristic/contractPoly.sol\":716:729  string memory */\n      dup1\n        /* \"OOP/characteristic/contractPoly.sol\":749:759  blockchain */\n      0x00\n      dup1\n      sload\n      swap1\n      0x0100\n      exp\n      swap1\n      div\n      0xffffffffffffffffffffffffffffffffffffffff\n      and\n        /* \"OOP/characteristic/contractPoly.sol\":749:767  blockchain.getName */\n      0xffffffffffffffffffffffffffffffffffffffff\n      and\n      0x17d7de7c\n        /* \"OOP/characteristic/contractPoly.sol\":749:769  blockchain.getName() */\n      mload(0x40)\n      dup2\n      0xffffffff\n      and\n      0xe0\n      shl\n      dup2\n      mstore\n      0x04\n      add\n      0x00\n      mload(0x40)\n      dup1\n      dup4\n      sub\n      dup2\n      dup7\n      gas\n      staticcall\n      iszero\n      dup1\n      iszero\n      tag_31\n      jumpi\n      returndatasize\n      0x00\n      dup1\n      returndatacopy\n      revert(0x00, returndatasize)\n    tag_31:\n      pop\n      pop\n      pop\n      pop\n      mload(0x40)\n      returndatasize\n      0x00\n      dup3\n      returndatacopy\n      returndatasize\n      not(0x1f)\n      0x1f\n      dup3\n      add\n      and\n      dup3\n      add\n      dup1\n      0x40\n      mstore\n      pop\n      dup2\n      add\n      swap1\n      tag_32\n      swap2\n      swap1\n      tag_28\n      jump\t// in\n    tag_32:\n        /* \"OOP/characteristic/contractPoly.sol\":771:774  web */\n      0x01\n      0x00\n      swap1\n      sload\n      swap1\n      0x0100\n      exp\n      swap1\n      div\n      0xffffffffffffffffffffffffffffffffffffffff\n      and\n        /* \"OOP/characteristic/contractPoly.sol\":771:782  web.getName */\n      0xffffffffffffffffffffffffffffffffffffffff\n      and\n      0x17d7de7c\n        /* \"OOP/characteristic/contractPoly.sol\":771:784  web.getName() */\n      mload(0x40)\n      dup2\n      0xffffffff\n      and\n      0xe0\n      shl\n      dup2\n      mstore\n      0x04\n      add\n      0x00\n      mload(0x40)\n      dup1\n      dup4\n      sub\n      dup2\n      dup7\n      gas\n      staticcall\n      iszero\n      dup1\n      iszero\n      tag_34\n      jumpi\n      returndatasize\n      0x00\n      dup1\n      returndatacopy\n      revert(0x00, returndatasize)\n    tag_34:\n      pop\n      pop\n      pop\n      pop\n      mload(0x40)\n      returndatasize\n      0x00\n      dup3\n      returndatacopy\n      returndatasize\n      not(0x1f)\n      0x1f\n      dup3\n      add\n      and\n      dup3\n      add\n      dup1\n      0x40\n      mstore\n      pop\n      dup2\n      add\n      swap1\n      tag_35\n      swap2\n      swap1\n      tag_28\n      jump\t// in\n    tag_35:\n        /* \"OOP/characteristic/contractPoly.sol\":741:785  return (blockchain.getName(), web.getName()) */\n      swap2\n      pop\n      swap2\n      pop\n        /* \"OOP/characteristic/contractPoly.sol\":657:792  function getAllNames() public view returns (string memory, string memory) {... */\n      swap1\n      swap2\n      jump\t// out\n        /* \"#utility.yul\":7:133   */\n    tag_36:\n        /* \"#utility.yul\":44:51   */\n      0x00\n        /* \"#utility.yul\":84:126   */\n      0xffffffffffffffffffffffffffffffffffffffff\n        /* \"#utility.yul\":77:82   */\n      dup3\n        /* \"#utility.yul\":73:127   */\n      and\n        /* \"#utility.yul\":62:127   */\n      swap1\n      pop\n        /* \"#utility.yul\":7:133   */\n      swap2\n      swap1\n      pop\n      jump\t// out\n        /* \"#utility.yul\":139:199   */\n    tag_37:\n        /* \"#utility.yul\":167:170   */\n      0x00\n        /* \"#utility.yul\":188:193   */\n      dup2\n        /* \"#utility.yul\":181:193   */\n      swap1\n      pop\n        /* \"#utility.yul\":139:199   */\n      swap2\n      swap1\n      pop\n      jump\t// out\n        /* \"#utility.yul\":205:347   */\n    tag_38:\n        /* \"#utility.yul\":255:264   */\n      0x00\n        /* \"#utility.yul\":288:341   */\n      tag_66\n        /* \"#utility.yul\":306:340   */\n      tag_67\n        /* \"#utility.yul\":315:339   */\n      tag_68\n        /* \"#utility.yul\":333:338   */\n      dup5\n        /* \"#utility.yul\":315:339   */\n      tag_36\n      jump\t// in\n    tag_68:\n        /* \"#utility.yul\":306:340   */\n      tag_37\n      jump\t// in\n    tag_67:\n        /* \"#utility.yul\":288:341   */\n      tag_36\n      jump\t// in\n    tag_66:\n        /* \"#utility.yul\":275:341   */\n      swap1\n      pop\n        /* \"#utility.yul\":205:347   */\n      swap2\n      swap1\n      pop\n      jump\t// out\n        /* \"#utility.yul\":353:479   */\n    tag_39:\n        /* \"#utility.yul\":403:412   */\n      0x00\n        /* \"#utility.yul\":436:473   */\n      tag_70\n        /* \"#utility.yul\":467:472   */\n      dup3\n        /* \"#utility.yul\":436:473   */\n      tag_38\n      jump\t// in\n    tag_70:\n        /* \"#utility.yul\":423:473   */\n      swap1\n      pop\n        /* \"#utility.yul\":353:479   */\n      swap2\n      swap1\n      pop\n      jump\t// out\n        /* \"#utility.yul\":485:627   */\n    tag_40:\n        /* \"#utility.yul\":551:560   */\n      0x00\n        /* \"#utility.yul\":584:621   */\n      tag_72\n        /* \"#utility.yul\":615:620   */\n      dup3\n        /* \"#utility.yul\":584:621   */\n      tag_39\n      jump\t// in\n    tag_72:\n        /* \"#utility.yul\":571:621   */\n      swap1\n      pop\n        /* \"#utility.yul\":485:627   */\n      swap2\n      swap1\n      pop\n      jump\t// out\n        /* \"#utility.yul\":633:796   */\n    tag_41:\n        /* \"#utility.yul\":736:789   */\n      tag_74\n        /* \"#utility.yul\":783:788   */\n      dup2\n        /* \"#utility.yul\":736:789   */\n      tag_40\n      jump\t// in\n    tag_74:\n        /* \"#utility.yul\":731:734   */\n      dup3\n        /* \"#utility.yul\":724:790   */\n      mstore\n        /* \"#utility.yul\":633:796   */\n      pop\n      pop\n      jump\t// out\n        /* \"#utility.yul\":802:1056   */\n    tag_10:\n        /* \"#utility.yul\":911:915   */\n      0x00\n        /* \"#utility.yul\":949:951   */\n      0x20\n        /* \"#utility.yul\":938:947   */\n      dup3\n        /* \"#utility.yul\":934:952   */\n      add\n        /* \"#utility.yul\":926:952   */\n      swap1\n      pop\n        /* \"#utility.yul\":962:1049   */\n      tag_76\n        /* \"#utility.yul\":1046:1047   */\n      0x00\n        /* \"#utility.yul\":1035:1044   */\n      dup4\n        /* \"#utility.yul\":1031:1048   */\n      add\n        /* \"#utility.yul\":1022:1028   */\n      dup5\n        /* \"#utility.yul\":962:1049   */\n      tag_41\n      jump\t// in\n    tag_76:\n        /* \"#utility.yul\":802:1056   */\n      swap3\n      swap2\n      pop\n      pop\n      jump\t// out\n        /* \"#utility.yul\":1062:1137   */\n    tag_42:\n        /* \"#utility.yul\":1095:1101   */\n      0x00\n        /* \"#utility.yul\":1128:1130   */\n      0x40\n        /* \"#utility.yul\":1122:1131   */\n      mload\n        /* \"#utility.yul\":1112:1131   */\n      swap1\n      pop\n        /* \"#utility.yul\":1062:1137   */\n      swap1\n      jump\t// out\n        /* \"#utility.yul\":1143:1260   */\n    tag_43:\n        /* \"#utility.yul\":1252:1253   */\n      0x00\n        /* \"#utility.yul\":1249:1250   */\n      dup1\n        /* \"#utility.yul\":1242:1254   */\n      revert\n        /* \"#utility.yul\":1266:1383   */\n    tag_44:\n        /* \"#utility.yul\":1375:1376   */\n      0x00\n        /* \"#utility.yul\":1372:1373   */\n      dup1\n        /* \"#utility.yul\":1365:1377   */\n      revert\n        /* \"#utility.yul\":1389:1485   */\n    tag_45:\n        /* \"#utility.yul\":1426:1433   */\n      0x00\n        /* \"#utility.yul\":1455:1479   */\n      tag_81\n        /* \"#utility.yul\":1473:1478   */\n      dup3\n        /* \"#utility.yul\":1455:1479   */\n      tag_36\n      jump\t// in\n    tag_81:\n        /* \"#utility.yul\":1444:1479   */\n      swap1\n      pop\n        /* \"#utility.yul\":1389:1485   */\n      swap2\n      swap1\n      pop\n      jump\t// out\n        /* \"#utility.yul\":1491:1603   */\n    tag_46:\n        /* \"#utility.yul\":1544:1551   */\n      0x00\n        /* \"#utility.yul\":1573:1597   */\n      tag_83\n        /* \"#utility.yul\":1591:1596   */\n      dup3\n        /* \"#utility.yul\":1573:1597   */\n      tag_45\n      jump\t// in\n    tag_83:\n        /* \"#utility.yul\":1562:1597   */\n      swap1\n      pop\n        /* \"#utility.yul\":1491:1603   */\n      swap2\n      swap1\n      pop\n      jump\t// out\n        /* \"#utility.yul\":1609:1763   */\n    tag_47:\n        /* \"#utility.yul\":1698:1738   */\n      tag_85\n        /* \"#utility.yul\":1732:1737   */\n      dup2\n        /* \"#utility.yul\":1698:1738   */\n      tag_46\n      jump\t// in\n    tag_85:\n        /* \"#utility.yul\":1691:1696   */\n      dup2\n        /* \"#utility.yul\":1688:1739   */\n      eq\n        /* \"#utility.yul\":1678:1757   */\n      tag_86\n      jumpi\n        /* \"#utility.yul\":1753:1754   */\n      0x00\n        /* \"#utility.yul\":1750:1751   */\n      dup1\n        /* \"#utility.yul\":1743:1755   */\n      revert\n        /* \"#utility.yul\":1678:1757   */\n    tag_86:\n        /* \"#utility.yul\":1609:1763   */\n      pop\n      jump\t// out\n        /* \"#utility.yul\":1769:1940   */\n    tag_48:\n        /* \"#utility.yul\":1831:1836   */\n      0x00\n        /* \"#utility.yul\":1869:1875   */\n      dup2\n        /* \"#utility.yul\":1856:1876   */\n      calldataload\n        /* \"#utility.yul\":1847:1876   */\n      swap1\n      pop\n        /* \"#utility.yul\":1885:1934   */\n      tag_88\n        /* \"#utility.yul\":1928:1933   */\n      dup2\n        /* \"#utility.yul\":1885:1934   */\n      tag_47\n      jump\t// in\n    tag_88:\n        /* \"#utility.yul\":1769:1940   */\n      swap3\n      swap2\n      pop\n      pop\n      jump\t// out\n        /* \"#utility.yul\":1946:2307   */\n    tag_16:\n        /* \"#utility.yul\":2021:2027   */\n      0x00\n        /* \"#utility.yul\":2070:2072   */\n      0x20\n        /* \"#utility.yul\":2058:2067   */\n      dup3\n        /* \"#utility.yul\":2049:2056   */\n      dup5\n        /* \"#utility.yul\":2045:2068   */\n      sub\n        /* \"#utility.yul\":2041:2073   */\n      slt\n        /* \"#utility.yul\":2038:2157   */\n      iszero\n      tag_90\n      jumpi\n        /* \"#utility.yul\":2076:2155   */\n      tag_91\n      tag_43\n      jump\t// in\n    tag_91:\n        /* \"#utility.yul\":2038:2157   */\n    tag_90:\n        /* \"#utility.yul\":2196:2197   */\n      0x00\n        /* \"#utility.yul\":2221:2290   */\n      tag_92\n        /* \"#utility.yul\":2282:2289   */\n      dup5\n        /* \"#utility.yul\":2273:2279   */\n      dup3\n        /* \"#utility.yul\":2262:2271   */\n      dup6\n        /* \"#utility.yul\":2258:2280   */\n      add\n        /* \"#utility.yul\":2221:2290   */\n      tag_48\n      jump\t// in\n    tag_92:\n        /* \"#utility.yul\":2211:2290   */\n      swap2\n      pop\n        /* \"#utility.yul\":2167:2300   */\n      pop\n        /* \"#utility.yul\":1946:2307   */\n      swap3\n      swap2\n      pop\n      pop\n      jump\t// out\n        /* \"#utility.yul\":2313:2412   */\n    tag_49:\n        /* \"#utility.yul\":2365:2371   */\n      0x00\n        /* \"#utility.yul\":2399:2404   */\n      dup2\n        /* \"#utility.yul\":2393:2405   */\n      mload\n        /* \"#utility.yul\":2383:2405   */\n      swap1\n      pop\n        /* \"#utility.yul\":2313:2412   */\n      swap2\n      swap1\n      pop\n      jump\t// out\n        /* \"#utility.yul\":2418:2587   */\n    tag_50:\n        /* \"#utility.yul\":2502:2513   */\n      0x00\n        /* \"#utility.yul\":2536:2542   */\n      dup3\n        /* \"#utility.yul\":2531:2534   */\n      dup3\n        /* \"#utility.yul\":2524:2543   */\n      mstore\n        /* \"#utility.yul\":2576:2580   */\n      0x20\n        /* \"#utility.yul\":2571:2574   */\n      dup3\n        /* \"#utility.yul\":2567:2581   */\n      add\n        /* \"#utility.yul\":2552:2581   */\n      swap1\n      pop\n        /* \"#utility.yul\":2418:2587   */\n      swap3\n      swap2\n      pop\n      pop\n      jump\t// out\n        /* \"#utility.yul\":2593:2732   */\n    tag_51:\n        /* \"#utility.yul\":2682:2688   */\n      dup3\n        /* \"#utility.yul\":2677:2680   */\n      dup2\n        /* \"#utility.yul\":2672:2675   */\n      dup4\n        /* \"#utility.yul\":2666:2689   */\n      mcopy\n        /* \"#utility.yul\":2723:2724   */\n      0x00\n        /* \"#utility.yul\":2714:2720   */\n      dup4\n        /* \"#utility.yul\":2709:2712   */\n      dup4\n        /* \"#utility.yul\":2705:2721   */\n      add\n        /* \"#utility.yul\":2698:2725   */\n      mstore\n        /* \"#utility.yul\":2593:2732   */\n      pop\n      pop\n      pop\n      jump\t// out\n        /* \"#utility.yul\":2738:2840   */\n    tag_52:\n        /* \"#utility.yul\":2779:2785   */\n      0x00\n        /* \"#utility.yul\":2830:2832   */\n      0x1f\n        /* \"#utility.yul\":2826:2833   */\n      not\n        /* \"#utility.yul\":2821:2823   */\n      0x1f\n        /* \"#utility.yul\":2814:2819   */\n      dup4\n        /* \"#utility.yul\":2810:2824   */\n      add\n        /* \"#utility.yul\":2806:2834   */\n      and\n        /* \"#utility.yul\":2796:2834   */\n      swap1\n      pop\n        /* \"#utility.yul\":2738:2840   */\n      swap2\n      swap1\n      pop\n      jump\t// out\n        /* \"#utility.yul\":2846:3223   */\n    tag_53:\n        /* \"#utility.yul\":2934:2937   */\n      0x00\n        /* \"#utility.yul\":2962:3001   */\n      tag_98\n        /* \"#utility.yul\":2995:3000   */\n      dup3\n        /* \"#utility.yul\":2962:3001   */\n      tag_49\n      jump\t// in\n    tag_98:\n        /* \"#utility.yul\":3017:3088   */\n      tag_99\n        /* \"#utility.yul\":3081:3087   */\n      dup2\n        /* \"#utility.yul\":3076:3079   */\n      dup6\n        /* \"#utility.yul\":3017:3088   */\n      tag_50\n      jump\t// in\n    tag_99:\n        /* \"#utility.yul\":3010:3088   */\n      swap4\n      pop\n        /* \"#utility.yul\":3097:3162   */\n      tag_100\n        /* \"#utility.yul\":3155:3161   */\n      dup2\n        /* \"#utility.yul\":3150:3153   */\n      dup6\n        /* \"#utility.yul\":3143:3147   */\n      0x20\n        /* \"#utility.yul\":3136:3141   */\n      dup7\n        /* \"#utility.yul\":3132:3148   */\n      add\n        /* \"#utility.yul\":3097:3162   */\n      tag_51\n      jump\t// in\n    tag_100:\n        /* \"#utility.yul\":3187:3216   */\n      tag_101\n        /* \"#utility.yul\":3209:3215   */\n      dup2\n        /* \"#utility.yul\":3187:3216   */\n      tag_52\n      jump\t// in\n    tag_101:\n        /* \"#utility.yul\":3182:3185   */\n      dup5\n        /* \"#utility.yul\":3178:3217   */\n      add\n        /* \"#utility.yul\":3171:3217   */\n      swap2\n      pop\n        /* \"#utility.yul\":2938:3223   */\n      pop\n        /* \"#utility.yul\":2846:3223   */\n      swap3\n      swap2\n      pop\n      pop\n      jump\t// out\n        /* \"#utility.yul\":3229:3542   */\n    tag_19:\n        /* \"#utility.yul\":3342:3346   */\n      0x00\n        /* \"#utility.yul\":3380:3382   */\n      0x20\n        /* \"#utility.yul\":3369:3378   */\n      dup3\n        /* \"#utility.yul\":3365:3383   */\n      add\n        /* \"#utility.yul\":3357:3383   */\n      swap1\n      pop\n        /* \"#utility.yul\":3429:3438   */\n      dup2\n        /* \"#utility.yul\":3423:3427   */\n      dup2\n        /* \"#utility.yul\":3419:3439   */\n      sub\n        /* \"#utility.yul\":3415:3416   */\n      0x00\n        /* \"#utility.yul\":3404:3413   */\n      dup4\n        /* \"#utility.yul\":3400:3417   */\n      add\n        /* \"#utility.yul\":3393:3440   */\n      mstore\n        /* \"#utility.yul\":3457:3535   */\n      tag_103\n        /* \"#utility.yul\":3530:3534   */\n      dup2\n        /* \"#utility.yul\":3521:3527   */\n      dup5\n        /* \"#utility.yul\":3457:3535   */\n      tag_53\n      jump\t// in\n    tag_103:\n        /* \"#utility.yul\":3449:3535   */\n      swap1\n      pop\n        /* \"#utility.yul\":3229:3542   */\n      swap3\n      swap2\n      pop\n      pop\n      jump\t// out\n        /* \"#utility.yul\":3548:4062   */\n    tag_23:\n        /* \"#utility.yul\":3709:3713   */\n      0x00\n        /* \"#utility.yul\":3747:3749   */\n      0x40\n        /* \"#utility.yul\":3736:3745   */\n      dup3\n        /* \"#utility.yul\":3732:3750   */\n      add\n        /* \"#utility.yul\":3724:3750   */\n      swap1\n      pop\n        /* \"#utility.yul\":3796:3805   */\n      dup2\n        /* \"#utility.yul\":3790:3794   */\n      dup2\n        /* \"#utility.yul\":3786:3806   */\n      sub\n        /* \"#utility.yul\":3782:3783   */\n      0x00\n        /* \"#utility.yul\":3771:3780   */\n      dup4\n        /* \"#utility.yul\":3767:3784   */\n      add\n        /* \"#utility.yul\":3760:3807   */\n      mstore\n        /* \"#utility.yul\":3824:3902   */\n      tag_105\n        /* \"#utility.yul\":3897:3901   */\n      dup2\n        /* \"#utility.yul\":3888:3894   */\n      dup6\n        /* \"#utility.yul\":3824:3902   */\n      tag_53\n      jump\t// in\n    tag_105:\n        /* \"#utility.yul\":3816:3902   */\n      swap1\n      pop\n        /* \"#utility.yul\":3949:3958   */\n      dup2\n        /* \"#utility.yul\":3943:3947   */\n      dup2\n        /* \"#utility.yul\":3939:3959   */\n      sub\n        /* \"#utility.yul\":3934:3936   */\n      0x20\n        /* \"#utility.yul\":3923:3932   */\n      dup4\n        /* \"#utility.yul\":3919:3937   */\n      add\n        /* \"#utility.yul\":3912:3960   */\n      mstore\n        /* \"#utility.yul\":3977:4055   */\n      tag_106\n        /* \"#utility.yul\":4050:4054   */\n      dup2\n        /* \"#utility.yul\":4041:4047   */\n      dup5\n        /* \"#utility.yul\":3977:4055   */\n      tag_53\n      jump\t// in\n    tag_106:\n        /* \"#utility.yul\":3969:4055   */\n      swap1\n      pop\n        /* \"#utility.yul\":3548:4062   */\n      swap4\n      swap3\n      pop\n      pop\n      pop\n      jump\t// out\n        /* \"#utility.yul\":4068:4185   */\n    tag_54:\n        /* \"#utility.yul\":4177:4178   */\n      0x00\n        /* \"#utility.yul\":4174:4175   */\n      dup1\n        /* \"#utility.yul\":4167:4179   */\n      revert\n        /* \"#utility.yul\":4191:4308   */\n    tag_55:\n        /* \"#utility.yul\":4300:4301   */\n      0x00\n        /* \"#utility.yul\":4297:4298   */\n      dup1\n        /* \"#utility.yul\":4290:4302   */\n      revert\n        /* \"#utility.yul\":4314:4494   */\n    tag_56:\n        /* \"#utility.yul\":4362:4439   */\n      0x4e487b7100000000000000000000000000000000000000000000000000000000\n        /* \"#utility.yul\":4359:4360   */\n      0x00\n        /* \"#utility.yul\":4352:4440   */\n      mstore\n        /* \"#utility.yul\":4459:4463   */\n      0x41\n        /* \"#utility.yul\":4456:4457   */\n      0x04\n        /* \"#utility.yul\":4449:4464   */\n      mstore\n        /* \"#utility.yul\":4483:4487   */\n      0x24\n        /* \"#utility.yul\":4480:4481   */\n      0x00\n        /* \"#utility.yul\":4473:4488   */\n      revert\n        /* \"#utility.yul\":4500:4781   */\n    tag_57:\n        /* \"#utility.yul\":4583:4610   */\n      tag_111\n        /* \"#utility.yul\":4605:4609   */\n      dup3\n        /* \"#utility.yul\":4583:4610   */\n      tag_52\n      jump\t// in\n    tag_111:\n        /* \"#utility.yul\":4575:4581   */\n      dup2\n        /* \"#utility.yul\":4571:4611   */\n      add\n        /* \"#utility.yul\":4713:4719   */\n      dup2\n        /* \"#utility.yul\":4701:4711   */\n      dup2\n        /* \"#utility.yul\":4698:4720   */\n      lt\n        /* \"#utility.yul\":4677:4695   */\n      0xffffffffffffffff\n        /* \"#utility.yul\":4665:4675   */\n      dup3\n        /* \"#utility.yul\":4662:4696   */\n      gt\n        /* \"#utility.yul\":4659:4721   */\n      or\n        /* \"#utility.yul\":4656:4744   */\n      iszero\n      tag_112\n      jumpi\n        /* \"#utility.yul\":4724:4742   */\n      tag_113\n      tag_56\n      jump\t// in\n    tag_113:\n        /* \"#utility.yul\":4656:4744   */\n    tag_112:\n        /* \"#utility.yul\":4764:4774   */\n      dup1\n        /* \"#utility.yul\":4760:4762   */\n      0x40\n        /* \"#utility.yul\":4753:4775   */\n      mstore\n        /* \"#utility.yul\":4543:4781   */\n      pop\n        /* \"#utility.yul\":4500:4781   */\n      pop\n      pop\n      jump\t// out\n        /* \"#utility.yul\":4787:4916   */\n    tag_58:\n        /* \"#utility.yul\":4821:4827   */\n      0x00\n        /* \"#utility.yul\":4848:4868   */\n      tag_115\n      tag_42\n      jump\t// in\n    tag_115:\n        /* \"#utility.yul\":4838:4868   */\n      swap1\n      pop\n        /* \"#utility.yul\":4877:4910   */\n      tag_116\n        /* \"#utility.yul\":4905:4909   */\n      dup3\n        /* \"#utility.yul\":4897:4903   */\n      dup3\n        /* \"#utility.yul\":4877:4910   */\n      tag_57\n      jump\t// in\n    tag_116:\n        /* \"#utility.yul\":4787:4916   */\n      swap2\n      swap1\n      pop\n      jump\t// out\n        /* \"#utility.yul\":4922:5230   */\n    tag_59:\n        /* \"#utility.yul\":4984:4988   */\n      0x00\n        /* \"#utility.yul\":5074:5092   */\n      0xffffffffffffffff\n        /* \"#utility.yul\":5066:5072   */\n      dup3\n        /* \"#utility.yul\":5063:5093   */\n      gt\n        /* \"#utility.yul\":5060:5116   */\n      iszero\n      tag_118\n      jumpi\n        /* \"#utility.yul\":5096:5114   */\n      tag_119\n      tag_56\n      jump\t// in\n    tag_119:\n        /* \"#utility.yul\":5060:5116   */\n    tag_118:\n        /* \"#utility.yul\":5134:5163   */\n      tag_120\n        /* \"#utility.yul\":5156:5162   */\n      dup3\n        /* \"#utility.yul\":5134:5163   */\n      tag_52\n      jump\t// in\n    tag_120:\n        /* \"#utility.yul\":5126:5163   */\n      swap1\n      pop\n        /* \"#utility.yul\":5218:5222   */\n      0x20\n        /* \"#utility.yul\":5212:5216   */\n      dup2\n        /* \"#utility.yul\":5208:5223   */\n      add\n        /* \"#utility.yul\":5200:5223   */\n      swap1\n      pop\n        /* \"#utility.yul\":4922:5230   */\n      swap2\n      swap1\n      pop\n      jump\t// out\n        /* \"#utility.yul\":5236:5670   */\n    tag_60:\n        /* \"#utility.yul\":5325:5330   */\n      0x00\n        /* \"#utility.yul\":5350:5416   */\n      tag_122\n        /* \"#utility.yul\":5366:5415   */\n      tag_123\n        /* \"#utility.yul\":5408:5414   */\n      dup5\n        /* \"#utility.yul\":5366:5415   */\n      tag_59\n      jump\t// in\n    tag_123:\n        /* \"#utility.yul\":5350:5416   */\n      tag_58\n      jump\t// in\n    tag_122:\n        /* \"#utility.yul\":5341:5416   */\n      swap1\n      pop\n        /* \"#utility.yul\":5439:5445   */\n      dup3\n        /* \"#utility.yul\":5432:5437   */\n      dup2\n        /* \"#utility.yul\":5425:5446   */\n      mstore\n        /* \"#utility.yul\":5477:5481   */\n      0x20\n        /* \"#utility.yul\":5470:5475   */\n      dup2\n        /* \"#utility.yul\":5466:5482   */\n      add\n        /* \"#utility.yul\":5515:5518   */\n      dup5\n        /* \"#utility.yul\":5506:5512   */\n      dup5\n        /* \"#utility.yul\":5501:5504   */\n      dup5\n        /* \"#utility.yul\":5497:5513   */\n      add\n        /* \"#utility.yul\":5494:5519   */\n      gt\n        /* \"#utility.yul\":5491:5603   */\n      iszero\n      tag_124\n      jumpi\n        /* \"#utility.yul\":5522:5601   */\n      tag_125\n      tag_55\n      jump\t// in\n    tag_125:\n        /* \"#utility.yul\":5491:5603   */\n    tag_124:\n        /* \"#utility.yul\":5612:5664   */\n      tag_126\n        /* \"#utility.yul\":5657:5663   */\n      dup5\n        /* \"#utility.yul\":5652:5655   */\n      dup3\n        /* \"#utility.yul\":5647:5650   */\n      dup6\n        /* \"#utility.yul\":5612:5664   */\n      tag_51\n      jump\t// in\n    tag_126:\n        /* \"#utility.yul\":5331:5670   */\n      pop\n        /* \"#utility.yul\":5236:5670   */\n      swap4\n      swap3\n      pop\n      pop\n      pop\n      jump\t// out\n        /* \"#utility.yul\":5690:6045   */\n    tag_61:\n        /* \"#utility.yul\":5757:5762   */\n      0x00\n        /* \"#utility.yul\":5806:5809   */\n      dup3\n        /* \"#utility.yul\":5799:5803   */\n      0x1f\n        /* \"#utility.yul\":5791:5797   */\n      dup4\n        /* \"#utility.yul\":5787:5804   */\n      add\n        /* \"#utility.yul\":5783:5810   */\n      slt\n        /* \"#utility.yul\":5773:5895   */\n      tag_128\n      jumpi\n        /* \"#utility.yul\":5814:5893   */\n      tag_129\n      tag_54\n      jump\t// in\n    tag_129:\n        /* \"#utility.yul\":5773:5895   */\n    tag_128:\n        /* \"#utility.yul\":5924:5930   */\n      dup2\n        /* \"#utility.yul\":5918:5931   */\n      mload\n        /* \"#utility.yul\":5949:6039   */\n      tag_130\n        /* \"#utility.yul\":6035:6038   */\n      dup5\n        /* \"#utility.yul\":6027:6033   */\n      dup3\n        /* \"#utility.yul\":6020:6024   */\n      0x20\n        /* \"#utility.yul\":6012:6018   */\n      dup7\n        /* \"#utility.yul\":6008:6025   */\n      add\n        /* \"#utility.yul\":5949:6039   */\n      tag_60\n      jump\t// in\n    tag_130:\n        /* \"#utility.yul\":5940:6039   */\n      swap2\n      pop\n        /* \"#utility.yul\":5763:6045   */\n      pop\n        /* \"#utility.yul\":5690:6045   */\n      swap3\n      swap2\n      pop\n      pop\n      jump\t// out\n        /* \"#utility.yul\":6051:6575   */\n    tag_28:\n        /* \"#utility.yul\":6131:6137   */\n      0x00\n        /* \"#utility.yul\":6180:6182   */\n      0x20\n        /* \"#utility.yul\":6168:6177   */\n      dup3\n        /* \"#utility.yul\":6159:6166   */\n      dup5\n        /* \"#utility.yul\":6155:6178   */\n      sub\n        /* \"#utility.yul\":6151:6183   */\n      slt\n        /* \"#utility.yul\":6148:6267   */\n      iszero\n      tag_132\n      jumpi\n        /* \"#utility.yul\":6186:6265   */\n      tag_133\n      tag_43\n      jump\t// in\n    tag_133:\n        /* \"#utility.yul\":6148:6267   */\n    tag_132:\n        /* \"#utility.yul\":6327:6328   */\n      0x00\n        /* \"#utility.yul\":6316:6325   */\n      dup3\n        /* \"#utility.yul\":6312:6329   */\n      add\n        /* \"#utility.yul\":6306:6330   */\n      mload\n        /* \"#utility.yul\":6357:6375   */\n      0xffffffffffffffff\n        /* \"#utility.yul\":6349:6355   */\n      dup2\n        /* \"#utility.yul\":6346:6376   */\n      gt\n        /* \"#utility.yul\":6343:6460   */\n      iszero\n      tag_134\n      jumpi\n        /* \"#utility.yul\":6379:6458   */\n      tag_135\n      tag_44\n      jump\t// in\n    tag_135:\n        /* \"#utility.yul\":6343:6460   */\n    tag_134:\n        /* \"#utility.yul\":6484:6558   */\n      tag_136\n        /* \"#utility.yul\":6550:6557   */\n      dup5\n        /* \"#utility.yul\":6541:6547   */\n      dup3\n        /* \"#utility.yul\":6530:6539   */\n      dup6\n        /* \"#utility.yul\":6526:6548   */\n      add\n        /* \"#utility.yul\":6484:6558   */\n      tag_61\n      jump\t// in\n    tag_136:\n        /* \"#utility.yul\":6474:6558   */\n      swap2\n      pop\n        /* \"#utility.yul\":6277:6568   */\n      pop\n        /* \"#utility.yul\":6051:6575   */\n      swap3\n      swap2\n      pop\n      pop\n      jump\t// out\n\n    auxdata: 0xa264697066735822122062a4f17dd62e5403d989e5221b0e434c268672e8dab6e50e171fa5bae9535bc064736f6c634300081a0033\n}\n\nsub_1: assembly {\n        /* \"OOP/characteristic/contractPoly.sol\":198:359  contract BlockChainDeveloper is Developer {... */\n      mstore(0x40, 0x80)\n      callvalue\n      dup1\n      iszero\n      tag_1\n      jumpi\n      0x00\n      dup1\n      revert\n    tag_1:\n      pop\n      dataSize(sub_0)\n      dup1\n      dataOffset(sub_0)\n      0x00\n      codecopy\n      0x00\n      return\n    stop\n\n    sub_0: assembly {\n            /* \"OOP/characteristic/contractPoly.sol\":198:359  contract BlockChainDeveloper is Developer {... */\n          mstore(0x40, 0x80)\n          callvalue\n          dup1\n          iszero\n          tag_1\n          jumpi\n          0x00\n          dup1\n          revert\n        tag_1:\n          pop\n          jumpi(tag_2, lt(calldatasize, 0x04))\n          shr(0xe0, calldataload(0x00))\n          dup1\n          0x17d7de7c\n          eq\n          tag_3\n          jumpi\n        tag_2:\n          0x00\n          dup1\n          revert\n            /* \"OOP/characteristic/contractPoly.sol\":247:357  function getName() public pure override returns (string memory) {... */\n        tag_3:\n          tag_4\n          tag_5\n          jump\t// in\n        tag_4:\n          mload(0x40)\n          tag_6\n          swap2\n          swap1\n          tag_7\n          jump\t// in\n        tag_6:\n          mload(0x40)\n          dup1\n          swap2\n          sub\n          swap1\n          return\n        tag_5:\n            /* \"OOP/characteristic/contractPoly.sol\":296:309  string memory */\n          0x60\n            /* \"OOP/characteristic/contractPoly.sol\":321:350  return \"Blockchain Developer\" */\n          mload(0x40)\n          dup1\n          0x40\n          add\n          0x40\n          mstore\n          dup1\n          0x14\n          dup2\n          mstore\n          0x20\n          add\n          0x426c6f636b636861696e20446576656c6f706572000000000000000000000000\n          dup2\n          mstore\n          pop\n          swap1\n          pop\n            /* \"OOP/characteristic/contractPoly.sol\":247:357  function getName() public pure override returns (string memory) {... */\n          swap1\n          jump\t// out\n            /* \"#utility.yul\":7:106   */\n        tag_9:\n            /* \"#utility.yul\":59:65   */\n          0x00\n            /* \"#utility.yul\":93:98   */\n          dup2\n            /* \"#utility.yul\":87:99   */\n          mload\n            /* \"#utility.yul\":77:99   */\n          swap1\n          pop\n            /* \"#utility.yul\":7:106   */\n          swap2\n          swap1\n          pop\n          jump\t// out\n            /* \"#utility.yul\":112:281   */\n        tag_10:\n            /* \"#utility.yul\":196:207   */\n          0x00\n            /* \"#utility.yul\":230:236   */\n          dup3\n            /* \"#utility.yul\":225:228   */\n          dup3\n            /* \"#utility.yul\":218:237   */\n          mstore\n            /* \"#utility.yul\":270:274   */\n          0x20\n            /* \"#utility.yul\":265:268   */\n          dup3\n            /* \"#utility.yul\":261:275   */\n          add\n            /* \"#utility.yul\":246:275   */\n          swap1\n          pop\n            /* \"#utility.yul\":112:281   */\n          swap3\n          swap2\n          pop\n          pop\n          jump\t// out\n            /* \"#utility.yul\":287:426   */\n        tag_11:\n            /* \"#utility.yul\":376:382   */\n          dup3\n            /* \"#utility.yul\":371:374   */\n          dup2\n            /* \"#utility.yul\":366:369   */\n          dup4\n            /* \"#utility.yul\":360:383   */\n          mcopy\n            /* \"#utility.yul\":417:418   */\n          0x00\n            /* \"#utility.yul\":408:414   */\n          dup4\n            /* \"#utility.yul\":403:406   */\n          dup4\n            /* \"#utility.yul\":399:415   */\n          add\n            /* \"#utility.yul\":392:419   */\n          mstore\n            /* \"#utility.yul\":287:426   */\n          pop\n          pop\n          pop\n          jump\t// out\n            /* \"#utility.yul\":432:534   */\n        tag_12:\n            /* \"#utility.yul\":473:479   */\n          0x00\n            /* \"#utility.yul\":524:526   */\n          0x1f\n            /* \"#utility.yul\":520:527   */\n          not\n            /* \"#utility.yul\":515:517   */\n          0x1f\n            /* \"#utility.yul\":508:513   */\n          dup4\n            /* \"#utility.yul\":504:518   */\n          add\n            /* \"#utility.yul\":500:528   */\n          and\n            /* \"#utility.yul\":490:528   */\n          swap1\n          pop\n            /* \"#utility.yul\":432:534   */\n          swap2\n          swap1\n          pop\n          jump\t// out\n            /* \"#utility.yul\":540:917   */\n        tag_13:\n            /* \"#utility.yul\":628:631   */\n          0x00\n            /* \"#utility.yul\":656:695   */\n          tag_20\n            /* \"#utility.yul\":689:694   */\n          dup3\n            /* \"#utility.yul\":656:695   */\n          tag_9\n          jump\t// in\n        tag_20:\n            /* \"#utility.yul\":711:782   */\n          tag_21\n            /* \"#utility.yul\":775:781   */\n          dup2\n            /* \"#utility.yul\":770:773   */\n          dup6\n            /* \"#utility.yul\":711:782   */\n          tag_10\n          jump\t// in\n        tag_21:\n            /* \"#utility.yul\":704:782   */\n          swap4\n          pop\n            /* \"#utility.yul\":791:856   */\n          tag_22\n            /* \"#utility.yul\":849:855   */\n          dup2\n            /* \"#utility.yul\":844:847   */\n          dup6\n            /* \"#utility.yul\":837:841   */\n          0x20\n            /* \"#utility.yul\":830:835   */\n          dup7\n            /* \"#utility.yul\":826:842   */\n          add\n            /* \"#utility.yul\":791:856   */\n          tag_11\n          jump\t// in\n        tag_22:\n            /* \"#utility.yul\":881:910   */\n          tag_23\n            /* \"#utility.yul\":903:909   */\n          dup2\n            /* \"#utility.yul\":881:910   */\n          tag_12\n          jump\t// in\n        tag_23:\n            /* \"#utility.yul\":876:879   */\n          dup5\n            /* \"#utility.yul\":872:911   */\n          add\n            /* \"#utility.yul\":865:911   */\n          swap2\n          pop\n            /* \"#utility.yul\":632:917   */\n          pop\n            /* \"#utility.yul\":540:917   */\n          swap3\n          swap2\n          pop\n          pop\n          jump\t// out\n            /* \"#utility.yul\":923:1236   */\n        tag_7:\n            /* \"#utility.yul\":1036:1040   */\n          0x00\n            /* \"#utility.yul\":1074:1076   */\n          0x20\n            /* \"#utility.yul\":1063:1072   */\n          dup3\n            /* \"#utility.yul\":1059:1077   */\n          add\n            /* \"#utility.yul\":1051:1077   */\n          swap1\n          pop\n            /* \"#utility.yul\":1123:1132   */\n          dup2\n            /* \"#utility.yul\":1117:1121   */\n          dup2\n            /* \"#utility.yul\":1113:1133   */\n          sub\n            /* \"#utility.yul\":1109:1110   */\n          0x00\n            /* \"#utility.yul\":1098:1107   */\n          dup4\n            /* \"#utility.yul\":1094:1111   */\n          add\n            /* \"#utility.yul\":1087:1134   */\n          mstore\n            /* \"#utility.yul\":1151:1229   */\n          tag_25\n            /* \"#utility.yul\":1224:1228   */\n          dup2\n            /* \"#utility.yul\":1215:1221   */\n          dup5\n            /* \"#utility.yul\":1151:1229   */\n          tag_13\n          jump\t// in\n        tag_25:\n            /* \"#utility.yul\":1143:1229   */\n          swap1\n          pop\n            /* \"#utility.yul\":923:1236   */\n          swap3\n          swap2\n          pop\n          pop\n          jump\t// out\n\n        auxdata: 0xa26469706673582212206c3da71487e216a2a27b8f7c589b7eb3bc0f39267cf724ad20b333ac60a4851164736f6c634300081a0033\n    }\n}\n\nsub_2: assembly {\n        /* \"OOP/characteristic/contractPoly.sol\":362:513  contract WebDeveloper is Developer {... */\n      mstore(0x40, 0x80)\n      callvalue\n      dup1\n      iszero\n      tag_1\n      jumpi\n      0x00\n      dup1\n      revert\n    tag_1:\n      pop\n      dataSize(sub_0)\n      dup1\n      dataOffset(sub_0)\n      0x00\n      codecopy\n      0x00\n      return\n    stop\n\n    sub_0: assembly {\n            /* \"OOP/characteristic/contractPoly.sol\":362:513  contract WebDeveloper is Developer {... */\n          mstore(0x40, 0x80)\n          callvalue\n          dup1\n          iszero\n          tag_1\n          jumpi\n          0x00\n          dup1\n          revert\n        tag_1:\n          pop\n          jumpi(tag_2, lt(calldatasize, 0x04))\n          shr(0xe0, calldataload(0x00))\n          dup1\n          0x17d7de7c\n          eq\n          tag_3\n          jumpi\n        tag_2:\n          0x00\n          dup1\n          revert\n            /* \"OOP/characteristic/contractPoly.sol\":408:511  function getName() public pure override returns (string memory) {... */\n        tag_3:\n          tag_4\n          tag_5\n          jump\t// in\n        tag_4:\n          mload(0x40)\n          tag_6\n          swap2\n          swap1\n          tag_7\n          jump\t// in\n        tag_6:\n          mload(0x40)\n          dup1\n          swap2\n          sub\n          swap1\n          return\n        tag_5:\n            /* \"OOP/characteristic/contractPoly.sol\":457:470  string memory */\n          0x60\n            /* \"OOP/characteristic/contractPoly.sol\":482:504  return \"Web Developer\" */\n          mload(0x40)\n          dup1\n          0x40\n          add\n          0x40\n          mstore\n          dup1\n          0x0d\n          dup2\n          mstore\n          0x20\n          add\n          0x57656220446576656c6f70657200000000000000000000000000000000000000\n          dup2\n          mstore\n          pop\n          swap1\n          pop\n            /* \"OOP/characteristic/contractPoly.sol\":408:511  function getName() public pure override returns (string memory) {... */\n          swap1\n          jump\t// out\n            /* \"#utility.yul\":7:106   */\n        tag_9:\n            /* \"#utility.yul\":59:65   */\n          0x00\n            /* \"#utility.yul\":93:98   */\n          dup2\n            /* \"#utility.yul\":87:99   */\n          mload\n            /* \"#utility.yul\":77:99   */\n          swap1\n          pop\n            /* \"#utility.yul\":7:106   */\n          swap2\n          swap1\n          pop\n          jump\t// out\n            /* \"#utility.yul\":112:281   */\n        tag_10:\n            /* \"#utility.yul\":196:207   */\n          0x00\n            /* \"#utility.yul\":230:236   */\n          dup3\n            /* \"#utility.yul\":225:228   */\n          dup3\n            /* \"#utility.yul\":218:237   */\n          mstore\n            /* \"#utility.yul\":270:274   */\n          0x20\n            /* \"#utility.yul\":265:268   */\n          dup3\n            /* \"#utility.yul\":261:275   */\n          add\n            /* \"#utility.yul\":246:275   */\n          swap1\n          pop\n            /* \"#utility.yul\":112:281   */\n          swap3\n          swap2\n          pop\n          pop\n          jump\t// out\n            /* \"#utility.yul\":287:426   */\n        tag_11:\n            /* \"#utility.yul\":376:382   */\n          dup3\n            /* \"#utility.yul\":371:374   */\n          dup2\n            /* \"#utility.yul\":366:369   */\n          dup4\n            /* \"#utility.yul\":360:383   */\n          mcopy\n            /* \"#utility.yul\":417:418   */\n          0x00\n            /* \"#utility.yul\":408:414   */\n          dup4\n            /* \"#utility.yul\":403:406   */\n          dup4\n            /* \"#utility.yul\":399:415   */\n          add\n            /* \"#utility.yul\":392:419   */\n          mstore\n            /* \"#utility.yul\":287:426   */\n          pop\n          pop\n          pop\n          jump\t// out\n            /* \"#utility.yul\":432:534   */\n        tag_12:\n            /* \"#utility.yul\":473:479   */\n          0x00\n            /* \"#utility.yul\":524:526   */\n          0x1f\n            /* \"#utility.yul\":520:527   */\n          not\n            /* \"#utility.yul\":515:517   */\n          0x1f\n            /* \"#utility.yul\":508:513   */\n          dup4\n            /* \"#utility.yul\":504:518   */\n          add\n            /* \"#utility.yul\":500:528   */\n          and\n            /* \"#utility.yul\":490:528   */\n          swap1\n          pop\n            /* \"#utility.yul\":432:534   */\n          swap2\n          swap1\n          pop\n          jump\t// out\n            /* \"#utility.yul\":540:917   */\n        tag_13:\n            /* \"#utility.yul\":628:631   */\n          0x00\n            /* \"#utility.yul\":656:695   */\n          tag_20\n            /* \"#utility.yul\":689:694   */\n          dup3\n            /* \"#utility.yul\":656:695   */\n          tag_9\n          jump\t// in\n        tag_20:\n            /* \"#utility.yul\":711:782   */\n          tag_21\n            /* \"#utility.yul\":775:781   */\n          dup2\n            /* \"#utility.yul\":770:773   */\n          dup6\n            /* \"#utility.yul\":711:782   */\n          tag_10\n          jump\t// in\n        tag_21:\n            /* \"#utility.yul\":704:782   */\n          swap4\n          pop\n            /* \"#utility.yul\":791:856   */\n          tag_22\n            /* \"#utility.yul\":849:855   */\n          dup2\n            /* \"#utility.yul\":844:847   */\n          dup6\n            /* \"#utility.yul\":837:841   */\n          0x20\n            /* \"#utility.yul\":830:835   */\n          dup7\n            /* \"#utility.yul\":826:842   */\n          add\n            /* \"#utility.yul\":791:856   */\n          tag_11\n          jump\t// in\n        tag_22:\n            /* \"#utility.yul\":881:910   */\n          tag_23\n            /* \"#utility.yul\":903:909   */\n          dup2\n            /* \"#utility.yul\":881:910   */\n          tag_12\n          jump\t// in\n        tag_23:\n            /* \"#utility.yul\":876:879   */\n          dup5\n            /* \"#utility.yul\":872:911   */\n          add\n            /* \"#utility.yul\":865:911   */\n          swap2\n          pop\n            /* \"#utility.yul\":632:917   */\n          pop\n            /* \"#utility.yul\":540:917   */\n          swap3\n          swap2\n          pop\n          pop\n          jump\t// out\n            /* \"#utility.yul\":923:1236   */\n        tag_7:\n            /* \"#utility.yul\":1036:1040   */\n          0x00\n            /* \"#utility.yul\":1074:1076   */\n          0x20\n            /* \"#utility.yul\":1063:1072   */\n          dup3\n            /* \"#utility.yul\":1059:1077   */\n          add\n            /* \"#utility.yul\":1051:1077   */\n          swap1\n          pop\n            /* \"#utility.yul\":1123:1132   */\n          dup2\n            /* \"#utility.yul\":1117:1121   */\n          dup2\n            /* \"#utility.yul\":1113:1133   */\n          sub\n            /* \"#utility.yul\":1109:1110   */\n          0x00\n            /* \"#utility.yul\":1098:1107   */\n          dup4\n            /* \"#utility.yul\":1094:1111   */\n          add\n            /* \"#utility.yul\":1087:1134   */\n          mstore\n            /* \"#utility.yul\":1151:1229   */\n          tag_25\n            /* \"#utility.yul\":1224:1228   */\n          dup2\n            /* \"#utility.yul\":1215:1221   */\n          dup5\n            /* \"#utility.yul\":1151:1229   */\n          tag_13\n          jump\t// in\n        tag_25:\n            /* \"#utility.yul\":1143:1229   */\n          swap1\n          pop\n            /* \"#utility.yul\":923:1236   */\n          swap3\n          swap2\n          pop\n          pop\n          jump\t// out\n\n        auxdata: 0xa26469706673582212206f402c5134fb415f6626896f6a2a7108ab4fb60d874afa162744b39cfe4883c964736f6c634300081a0033\n    }\n}\n",
				"bytecode": {
					"linkReferences": {},
					"object": "6080604052604051610010906100de565b604051809103905ff080158015610029573d5f803e3d5ffd5b505f806101000a81548173ffffffffffffffffffffffffffffffffffffffff021916908373ffffffffffffffffffffffffffffffffffffffff160217905550604051610074906100eb565b604051809103905ff08015801561008d573d5f803e3d5ffd5b5060015f6101000a81548173ffffffffffffffffffffffffffffffffffffffff021916908373ffffffffffffffffffffffffffffffffffffffff1602179055503480156100d8575f80fd5b506100f8565b61016a8061074583390190565b61016a806108af83390190565b610640806101055f395ff3fe608060405234801561000f575f80fd5b506004361061004a575f3560e01c806364a0b1261461004e57806373680b031461006c5780639266ad161461008a578063fb825e5f146100ba575b5f80fd5b6100566100d9565b604051610063919061033f565b60405180910390f35b6100746100fc565b604051610081919061033f565b60405180910390f35b6100a4600480360381019061009f91906103b5565b610121565b6040516100b19190610450565b60405180910390f35b6100c261019a565b6040516100d0929190610470565b60405180910390f35b5f8054906101000a900473ffffffffffffffffffffffffffffffffffffffff1681565b60015f9054906101000a900473ffffffffffffffffffffffffffffffffffffffff1681565b60608173ffffffffffffffffffffffffffffffffffffffff166317d7de7c6040518163ffffffff1660e01b81526004015f60405180830381865afa15801561016b573d5f803e3d5ffd5b505050506040513d5f823e3d601f19601f8201168201806040525081019061019391906105c3565b9050919050565b6060805f8054906101000a900473ffffffffffffffffffffffffffffffffffffffff1673ffffffffffffffffffffffffffffffffffffffff166317d7de7c6040518163ffffffff1660e01b81526004015f60405180830381865afa158015610204573d5f803e3d5ffd5b505050506040513d5f823e3d601f19601f8201168201806040525081019061022c91906105c3565b60015f9054906101000a900473ffffffffffffffffffffffffffffffffffffffff1673ffffffffffffffffffffffffffffffffffffffff166317d7de7c6040518163ffffffff1660e01b81526004015f60405180830381865afa158015610295573d5f803e3d5ffd5b505050506040513d5f823e3d601f19601f820116820180604052508101906102bd91906105c3565b915091509091565b5f73ffffffffffffffffffffffffffffffffffffffff82169050919050565b5f819050919050565b5f6103076103026102fd846102c5565b6102e4565b6102c5565b9050919050565b5f610318826102ed565b9050919050565b5f6103298261030e565b9050919050565b6103398161031f565b82525050565b5f6020820190506103525f830184610330565b92915050565b5f604051905090565b5f80fd5b5f80fd5b5f610373826102c5565b9050919050565b5f61038482610369565b9050919050565b6103948161037a565b811461039e575f80fd5b50565b5f813590506103af8161038b565b92915050565b5f602082840312156103ca576103c9610361565b5b5f6103d7848285016103a1565b91505092915050565b5f81519050919050565b5f82825260208201905092915050565b8281835e5f83830152505050565b5f601f19601f8301169050919050565b5f610422826103e0565b61042c81856103ea565b935061043c8185602086016103fa565b61044581610408565b840191505092915050565b5f6020820190508181035f8301526104688184610418565b905092915050565b5f6040820190508181035f8301526104888185610418565b9050818103602083015261049c8184610418565b90509392505050565b5f80fd5b5f80fd5b7f4e487b71000000000000000000000000000000000000000000000000000000005f52604160045260245ffd5b6104e382610408565b810181811067ffffffffffffffff82111715610502576105016104ad565b5b80604052505050565b5f610514610358565b905061052082826104da565b919050565b5f67ffffffffffffffff82111561053f5761053e6104ad565b5b61054882610408565b9050602081019050919050565b5f61056761056284610525565b61050b565b905082815260208101848484011115610583576105826104a9565b5b61058e8482856103fa565b509392505050565b5f82601f8301126105aa576105a96104a5565b5b81516105ba848260208601610555565b91505092915050565b5f602082840312156105d8576105d7610361565b5b5f82015167ffffffffffffffff8111156105f5576105f4610365565b5b61060184828501610596565b9150509291505056fea264697066735822122062a4f17dd62e5403d989e5221b0e434c268672e8dab6e50e171fa5bae9535bc064736f6c634300081a00336080604052348015600e575f80fd5b5061014e8061001c5f395ff3fe608060405234801561000f575f80fd5b5060043610610029575f3560e01c806317d7de7c1461002d575b5f80fd5b61003561004b565b60405161004291906100f8565b60405180910390f35b60606040518060400160405280601481526020017f426c6f636b636861696e20446576656c6f706572000000000000000000000000815250905090565b5f81519050919050565b5f82825260208201905092915050565b8281835e5f83830152505050565b5f601f19601f8301169050919050565b5f6100ca82610088565b6100d48185610092565b93506100e48185602086016100a2565b6100ed816100b0565b840191505092915050565b5f6020820190508181035f83015261011081846100c0565b90509291505056fea26469706673582212206c3da71487e216a2a27b8f7c589b7eb3bc0f39267cf724ad20b333ac60a4851164736f6c634300081a00336080604052348015600e575f80fd5b5061014e8061001c5f395ff3fe608060405234801561000f575f80fd5b5060043610610029575f3560e01c806317d7de7c1461002d575b5f80fd5b61003561004b565b60405161004291906100f8565b60405180910390f35b60606040518060400160405280600d81526020017f57656220446576656c6f70657200000000000000000000000000000000000000815250905090565b5f81519050919050565b5f82825260208201905092915050565b8281835e5f83830152505050565b5f601f19601f8301169050919050565b5f6100ca82610088565b6100d48185610092565b93506100e48185602086016100a2565b6100ed816100b0565b840191505092915050565b5f6020820190508181035f83015261011081846100c0565b90509291505056fea26469706673582212206f402c5134fb415f6626896f6a2a7108ab4fb60d874afa162744b39cfe4883c964736f6c634300081a0033",
					"opcodes": "PUSH1 0x80 PUSH1 0x40 MSTORE PUSH1 0x40 MLOAD PUSH2 0x10 SWAP1 PUSH2 0xDE JUMP JUMPDEST PUSH1 0x40 MLOAD DUP1 SWAP2 SUB SWAP1 PUSH0 CREATE DUP1 ISZERO DUP1 ISZERO PUSH2 0x29 JUMPI RETURNDATASIZE PUSH0 DUP1 RETURNDATACOPY RETURNDATASIZE PUSH0 REVERT JUMPDEST POP PUSH0 DUP1 PUSH2 0x100 EXP DUP2 SLOAD DUP2 PUSH20 0xFFFFFFFFFFFFFFFFFFFFFFFFFFFFFFFFFFFFFFFF MUL NOT AND SWAP1 DUP4 PUSH20 0xFFFFFFFFFFFFFFFFFFFFFFFFFFFFFFFFFFFFFFFF AND MUL OR SWAP1 SSTORE POP PUSH1 0x40 MLOAD PUSH2 0x74 SWAP1 PUSH2 0xEB JUMP JUMPDEST PUSH1 0x40 MLOAD DUP1 SWAP2 SUB SWAP1 PUSH0 CREATE DUP1 ISZERO DUP1 ISZERO PUSH2 0x8D JUMPI RETURNDATASIZE PUSH0 DUP1 RETURNDATACOPY RETURNDATASIZE PUSH0 REVERT JUMPDEST POP PUSH1 0x1 PUSH0 PUSH2 0x100 EXP DUP2 SLOAD DUP2 PUSH20 0xFFFFFFFFFFFFFFFFFFFFFFFFFFFFFFFFFFFFFFFF MUL NOT AND SWAP1 DUP4 PUSH20 0xFFFFFFFFFFFFFFFFFFFFFFFFFFFFFFFFFFFFFFFF AND MUL OR SWAP1 SSTORE POP CALLVALUE DUP1 ISZERO PUSH2 0xD8 JUMPI PUSH0 DUP1 REVERT JUMPDEST POP PUSH2 0xF8 JUMP JUMPDEST PUSH2 0x16A DUP1 PUSH2 0x745 DUP4 CODECOPY ADD SWAP1 JUMP JUMPDEST PUSH2 0x16A DUP1 PUSH2 0x8AF DUP4 CODECOPY ADD SWAP1 JUMP JUMPDEST PUSH2 0x640 DUP1 PUSH2 0x105 PUSH0 CODECOPY PUSH0 RETURN INVALID PUSH1 0x80 PUSH1 0x40 MSTORE CALLVALUE DUP1 ISZERO PUSH2 0xF JUMPI PUSH0 DUP1 REVERT JUMPDEST POP PUSH1 0x4 CALLDATASIZE LT PUSH2 0x4A JUMPI PUSH0 CALLDATALOAD PUSH1 0xE0 SHR DUP1 PUSH4 0x64A0B126 EQ PUSH2 0x4E JUMPI DUP1 PUSH4 0x73680B03 EQ PUSH2 0x6C JUMPI DUP1 PUSH4 0x9266AD16 EQ PUSH2 0x8A JUMPI DUP1 PUSH4 0xFB825E5F EQ PUSH2 0xBA JUMPI JUMPDEST PUSH0 DUP1 REVERT JUMPDEST PUSH2 0x56 PUSH2 0xD9 JUMP JUMPDEST PUSH1 0x40 MLOAD PUSH2 0x63 SWAP2 SWAP1 PUSH2 0x33F JUMP JUMPDEST PUSH1 0x40 MLOAD DUP1 SWAP2 SUB SWAP1 RETURN JUMPDEST PUSH2 0x74 PUSH2 0xFC JUMP JUMPDEST PUSH1 0x40 MLOAD PUSH2 0x81 SWAP2 SWAP1 PUSH2 0x33F JUMP JUMPDEST PUSH1 0x40 MLOAD DUP1 SWAP2 SUB SWAP1 RETURN JUMPDEST PUSH2 0xA4 PUSH1 0x4 DUP1 CALLDATASIZE SUB DUP2 ADD SWAP1 PUSH2 0x9F SWAP2 SWAP1 PUSH2 0x3B5 JUMP JUMPDEST PUSH2 0x121 JUMP JUMPDEST PUSH1 0x40 MLOAD PUSH2 0xB1 SWAP2 SWAP1 PUSH2 0x450 JUMP JUMPDEST PUSH1 0x40 MLOAD DUP1 SWAP2 SUB SWAP1 RETURN JUMPDEST PUSH2 0xC2 PUSH2 0x19A JUMP JUMPDEST PUSH1 0x40 MLOAD PUSH2 0xD0 SWAP3 SWAP2 SWAP1 PUSH2 0x470 JUMP JUMPDEST PUSH1 0x40 MLOAD DUP1 SWAP2 SUB SWAP1 RETURN JUMPDEST PUSH0 DUP1 SLOAD SWAP1 PUSH2 0x100 EXP SWAP1 DIV PUSH20 0xFFFFFFFFFFFFFFFFFFFFFFFFFFFFFFFFFFFFFFFF AND DUP2 JUMP JUMPDEST PUSH1 0x1 PUSH0 SWAP1 SLOAD SWAP1 PUSH2 0x100 EXP SWAP1 DIV PUSH20 0xFFFFFFFFFFFFFFFFFFFFFFFFFFFFFFFFFFFFFFFF AND DUP2 JUMP JUMPDEST PUSH1 0x60 DUP2 PUSH20 0xFFFFFFFFFFFFFFFFFFFFFFFFFFFFFFFFFFFFFFFF AND PUSH4 0x17D7DE7C PUSH1 0x40 MLOAD DUP2 PUSH4 0xFFFFFFFF AND PUSH1 0xE0 SHL DUP2 MSTORE PUSH1 0x4 ADD PUSH0 PUSH1 0x40 MLOAD DUP1 DUP4 SUB DUP2 DUP7 GAS STATICCALL ISZERO DUP1 ISZERO PUSH2 0x16B JUMPI RETURNDATASIZE PUSH0 DUP1 RETURNDATACOPY RETURNDATASIZE PUSH0 REVERT JUMPDEST POP POP POP POP PUSH1 0x40 MLOAD RETURNDATASIZE PUSH0 DUP3 RETURNDATACOPY RETURNDATASIZE PUSH1 0x1F NOT PUSH1 0x1F DUP3 ADD AND DUP3 ADD DUP1 PUSH1 0x40 MSTORE POP DUP2 ADD SWAP1 PUSH2 0x193 SWAP2 SWAP1 PUSH2 0x5C3 JUMP JUMPDEST SWAP1 POP SWAP2 SWAP1 POP JUMP JUMPDEST PUSH1 0x60 DUP1 PUSH0 DUP1 SLOAD SWAP1 PUSH2 0x100 EXP SWAP1 DIV PUSH20 0xFFFFFFFFFFFFFFFFFFFFFFFFFFFFFFFFFFFFFFFF AND PUSH20 0xFFFFFFFFFFFFFFFFFFFFFFFFFFFFFFFFFFFFFFFF AND PUSH4 0x17D7DE7C PUSH1 0x40 MLOAD DUP2 PUSH4 0xFFFFFFFF AND PUSH1 0xE0 SHL DUP2 MSTORE PUSH1 0x4 ADD PUSH0 PUSH1 0x40 MLOAD DUP1 DUP4 SUB DUP2 DUP7 GAS STATICCALL ISZERO DUP1 ISZERO PUSH2 0x204 JUMPI RETURNDATASIZE PUSH0 DUP1 RETURNDATACOPY RETURNDATASIZE PUSH0 REVERT JUMPDEST POP POP POP POP PUSH1 0x40 MLOAD RETURNDATASIZE PUSH0 DUP3 RETURNDATACOPY RETURNDATASIZE PUSH1 0x1F NOT PUSH1 0x1F DUP3 ADD AND DUP3 ADD DUP1 PUSH1 0x40 MSTORE POP DUP2 ADD SWAP1 PUSH2 0x22C SWAP2 SWAP1 PUSH2 0x5C3 JUMP JUMPDEST PUSH1 0x1 PUSH0 SWAP1 SLOAD SWAP1 PUSH2 0x100 EXP SWAP1 DIV PUSH20 0xFFFFFFFFFFFFFFFFFFFFFFFFFFFFFFFFFFFFFFFF AND PUSH20 0xFFFFFFFFFFFFFFFFFFFFFFFFFFFFFFFFFFFFFFFF AND PUSH4 0x17D7DE7C PUSH1 0x40 MLOAD DUP2 PUSH4 0xFFFFFFFF AND PUSH1 0xE0 SHL DUP2 MSTORE PUSH1 0x4 ADD PUSH0 PUSH1 0x40 MLOAD DUP1 DUP4 SUB DUP2 DUP7 GAS STATICCALL ISZERO DUP1 ISZERO PUSH2 0x295 JUMPI RETURNDATASIZE PUSH0 DUP1 RETURNDATACOPY RETURNDATASIZE PUSH0 REVERT JUMPDEST POP POP POP POP PUSH1 0x40 MLOAD RETURNDATASIZE PUSH0 DUP3 RETURNDATACOPY RETURNDATASIZE PUSH1 0x1F NOT PUSH1 0x1F DUP3 ADD AND DUP3 ADD DUP1 PUSH1 0x40 MSTORE POP DUP2 ADD SWAP1 PUSH2 0x2BD SWAP2 SWAP1 PUSH2 0x5C3 JUMP JUMPDEST SWAP2 POP SWAP2 POP SWAP1 SWAP2 JUMP JUMPDEST PUSH0 PUSH20 0xFFFFFFFFFFFFFFFFFFFFFFFFFFFFFFFFFFFFFFFF DUP3 AND SWAP1 POP SWAP2 SWAP1 POP JUMP JUMPDEST PUSH0 DUP2 SWAP1 POP SWAP2 SWAP1 POP JUMP JUMPDEST PUSH0 PUSH2 0x307 PUSH2 0x302 PUSH2 0x2FD DUP5 PUSH2 0x2C5 JUMP JUMPDEST PUSH2 0x2E4 JUMP JUMPDEST PUSH2 0x2C5 JUMP JUMPDEST SWAP1 POP SWAP2 SWAP1 POP JUMP JUMPDEST PUSH0 PUSH2 0x318 DUP3 PUSH2 0x2ED JUMP JUMPDEST SWAP1 POP SWAP2 SWAP1 POP JUMP JUMPDEST PUSH0 PUSH2 0x329 DUP3 PUSH2 0x30E JUMP JUMPDEST SWAP1 POP SWAP2 SWAP1 POP JUMP JUMPDEST PUSH2 0x339 DUP2 PUSH2 0x31F JUMP JUMPDEST DUP3 MSTORE POP POP JUMP JUMPDEST PUSH0 PUSH1 0x20 DUP3 ADD SWAP1 POP PUSH2 0x352 PUSH0 DUP4 ADD DUP5 PUSH2 0x330 JUMP JUMPDEST SWAP3 SWAP2 POP POP JUMP JUMPDEST PUSH0 PUSH1 0x40 MLOAD SWAP1 POP SWAP1 JUMP JUMPDEST PUSH0 DUP1 REVERT JUMPDEST PUSH0 DUP1 REVERT JUMPDEST PUSH0 PUSH2 0x373 DUP3 PUSH2 0x2C5 JUMP JUMPDEST SWAP1 POP SWAP2 SWAP1 POP JUMP JUMPDEST PUSH0 PUSH2 0x384 DUP3 PUSH2 0x369 JUMP JUMPDEST SWAP1 POP SWAP2 SWAP1 POP JUMP JUMPDEST PUSH2 0x394 DUP2 PUSH2 0x37A JUMP JUMPDEST DUP2 EQ PUSH2 0x39E JUMPI PUSH0 DUP1 REVERT JUMPDEST POP JUMP JUMPDEST PUSH0 DUP2 CALLDATALOAD SWAP1 POP PUSH2 0x3AF DUP2 PUSH2 0x38B JUMP JUMPDEST SWAP3 SWAP2 POP POP JUMP JUMPDEST PUSH0 PUSH1 0x20 DUP3 DUP5 SUB SLT ISZERO PUSH2 0x3CA JUMPI PUSH2 0x3C9 PUSH2 0x361 JUMP JUMPDEST JUMPDEST PUSH0 PUSH2 0x3D7 DUP5 DUP3 DUP6 ADD PUSH2 0x3A1 JUMP JUMPDEST SWAP2 POP POP SWAP3 SWAP2 POP POP JUMP JUMPDEST PUSH0 DUP2 MLOAD SWAP1 POP SWAP2 SWAP1 POP JUMP JUMPDEST PUSH0 DUP3 DUP3 MSTORE PUSH1 0x20 DUP3 ADD SWAP1 POP SWAP3 SWAP2 POP POP JUMP JUMPDEST DUP3 DUP2 DUP4 MCOPY PUSH0 DUP4 DUP4 ADD MSTORE POP POP POP JUMP JUMPDEST PUSH0 PUSH1 0x1F NOT PUSH1 0x1F DUP4 ADD AND SWAP1 POP SWAP2 SWAP1 POP JUMP JUMPDEST PUSH0 PUSH2 0x422 DUP3 PUSH2 0x3E0 JUMP JUMPDEST PUSH2 0x42C DUP2 DUP6 PUSH2 0x3EA JUMP JUMPDEST SWAP4 POP PUSH2 0x43C DUP2 DUP6 PUSH1 0x20 DUP7 ADD PUSH2 0x3FA JUMP JUMPDEST PUSH2 0x445 DUP2 PUSH2 0x408 JUMP JUMPDEST DUP5 ADD SWAP2 POP POP SWAP3 SWAP2 POP POP JUMP JUMPDEST PUSH0 PUSH1 0x20 DUP3 ADD SWAP1 POP DUP2 DUP2 SUB PUSH0 DUP4 ADD MSTORE PUSH2 0x468 DUP2 DUP5 PUSH2 0x418 JUMP JUMPDEST SWAP1 POP SWAP3 SWAP2 POP POP JUMP JUMPDEST PUSH0 PUSH1 0x40 DUP3 ADD SWAP1 POP DUP2 DUP2 SUB PUSH0 DUP4 ADD MSTORE PUSH2 0x488 DUP2 DUP6 PUSH2 0x418 JUMP JUMPDEST SWAP1 POP DUP2 DUP2 SUB PUSH1 0x20 DUP4 ADD MSTORE PUSH2 0x49C DUP2 DUP5 PUSH2 0x418 JUMP JUMPDEST SWAP1 POP SWAP4 SWAP3 POP POP POP JUMP JUMPDEST PUSH0 DUP1 REVERT JUMPDEST PUSH0 DUP1 REVERT JUMPDEST PUSH32 0x4E487B7100000000000000000000000000000000000000000000000000000000 PUSH0 MSTORE PUSH1 0x41 PUSH1 0x4 MSTORE PUSH1 0x24 PUSH0 REVERT JUMPDEST PUSH2 0x4E3 DUP3 PUSH2 0x408 JUMP JUMPDEST DUP2 ADD DUP2 DUP2 LT PUSH8 0xFFFFFFFFFFFFFFFF DUP3 GT OR ISZERO PUSH2 0x502 JUMPI PUSH2 0x501 PUSH2 0x4AD JUMP JUMPDEST JUMPDEST DUP1 PUSH1 0x40 MSTORE POP POP POP JUMP JUMPDEST PUSH0 PUSH2 0x514 PUSH2 0x358 JUMP JUMPDEST SWAP1 POP PUSH2 0x520 DUP3 DUP3 PUSH2 0x4DA JUMP JUMPDEST SWAP2 SWAP1 POP JUMP JUMPDEST PUSH0 PUSH8 0xFFFFFFFFFFFFFFFF DUP3 GT ISZERO PUSH2 0x53F JUMPI PUSH2 0x53E PUSH2 0x4AD JUMP JUMPDEST JUMPDEST PUSH2 0x548 DUP3 PUSH2 0x408 JUMP JUMPDEST SWAP1 POP PUSH1 0x20 DUP2 ADD SWAP1 POP SWAP2 SWAP1 POP JUMP JUMPDEST PUSH0 PUSH2 0x567 PUSH2 0x562 DUP5 PUSH2 0x525 JUMP JUMPDEST PUSH2 0x50B JUMP JUMPDEST SWAP1 POP DUP3 DUP2 MSTORE PUSH1 0x20 DUP2 ADD DUP5 DUP5 DUP5 ADD GT ISZERO PUSH2 0x583 JUMPI PUSH2 0x582 PUSH2 0x4A9 JUMP JUMPDEST JUMPDEST PUSH2 0x58E DUP5 DUP3 DUP6 PUSH2 0x3FA JUMP JUMPDEST POP SWAP4 SWAP3 POP POP POP JUMP JUMPDEST PUSH0 DUP3 PUSH1 0x1F DUP4 ADD SLT PUSH2 0x5AA JUMPI PUSH2 0x5A9 PUSH2 0x4A5 JUMP JUMPDEST JUMPDEST DUP2 MLOAD PUSH2 0x5BA DUP5 DUP3 PUSH1 0x20 DUP7 ADD PUSH2 0x555 JUMP JUMPDEST SWAP2 POP POP SWAP3 SWAP2 POP POP JUMP JUMPDEST PUSH0 PUSH1 0x20 DUP3 DUP5 SUB SLT ISZERO PUSH2 0x5D8 JUMPI PUSH2 0x5D7 PUSH2 0x361 JUMP JUMPDEST JUMPDEST PUSH0 DUP3 ADD MLOAD PUSH8 0xFFFFFFFFFFFFFFFF DUP2 GT ISZERO PUSH2 0x5F5 JUMPI PUSH2 0x5F4 PUSH2 0x365 JUMP JUMPDEST JUMPDEST PUSH2 0x601 DUP5 DUP3 DUP6 ADD PUSH2 0x596 JUMP JUMPDEST SWAP2 POP POP SWAP3 SWAP2 POP POP JUMP INVALID LOG2 PUSH5 0x6970667358 0x22 SLT KECCAK256 PUSH3 0xA4F17D 0xD6 0x2E SLOAD SUB 0xD9 DUP10 0xE5 0x22 SHL 0xE NUMBER 0x4C 0x26 DUP7 PUSH19 0xE8DAB6E50E171FA5BAE9535BC064736F6C6343 STOP ADDMOD BYTE STOP CALLER PUSH1 0x80 PUSH1 0x40 MSTORE CALLVALUE DUP1 ISZERO PUSH1 0xE JUMPI PUSH0 DUP1 REVERT JUMPDEST POP PUSH2 0x14E DUP1 PUSH2 0x1C PUSH0 CODECOPY PUSH0 RETURN INVALID PUSH1 0x80 PUSH1 0x40 MSTORE CALLVALUE DUP1 ISZERO PUSH2 0xF JUMPI PUSH0 DUP1 REVERT JUMPDEST POP PUSH1 0x4 CALLDATASIZE LT PUSH2 0x29 JUMPI PUSH0 CALLDATALOAD PUSH1 0xE0 SHR DUP1 PUSH4 0x17D7DE7C EQ PUSH2 0x2D JUMPI JUMPDEST PUSH0 DUP1 REVERT JUMPDEST PUSH2 0x35 PUSH2 0x4B JUMP JUMPDEST PUSH1 0x40 MLOAD PUSH2 0x42 SWAP2 SWAP1 PUSH2 0xF8 JUMP JUMPDEST PUSH1 0x40 MLOAD DUP1 SWAP2 SUB SWAP1 RETURN JUMPDEST PUSH1 0x60 PUSH1 0x40 MLOAD DUP1 PUSH1 0x40 ADD PUSH1 0x40 MSTORE DUP1 PUSH1 0x14 DUP2 MSTORE PUSH1 0x20 ADD PUSH32 0x426C6F636B636861696E20446576656C6F706572000000000000000000000000 DUP2 MSTORE POP SWAP1 POP SWAP1 JUMP JUMPDEST PUSH0 DUP2 MLOAD SWAP1 POP SWAP2 SWAP1 POP JUMP JUMPDEST PUSH0 DUP3 DUP3 MSTORE PUSH1 0x20 DUP3 ADD SWAP1 POP SWAP3 SWAP2 POP POP JUMP JUMPDEST DUP3 DUP2 DUP4 MCOPY PUSH0 DUP4 DUP4 ADD MSTORE POP POP POP JUMP JUMPDEST PUSH0 PUSH1 0x1F NOT PUSH1 0x1F DUP4 ADD AND SWAP1 POP SWAP2 SWAP1 POP JUMP JUMPDEST PUSH0 PUSH2 0xCA DUP3 PUSH2 0x88 JUMP JUMPDEST PUSH2 0xD4 DUP2 DUP6 PUSH2 0x92 JUMP JUMPDEST SWAP4 POP PUSH2 0xE4 DUP2 DUP6 PUSH1 0x20 DUP7 ADD PUSH2 0xA2 JUMP JUMPDEST PUSH2 0xED DUP2 PUSH2 0xB0 JUMP JUMPDEST DUP5 ADD SWAP2 POP POP SWAP3 SWAP2 POP POP JUMP JUMPDEST PUSH0 PUSH1 0x20 DUP3 ADD SWAP1 POP DUP2 DUP2 SUB PUSH0 DUP4 ADD MSTORE PUSH2 0x110 DUP2 DUP5 PUSH2 0xC0 JUMP JUMPDEST SWAP1 POP SWAP3 SWAP2 POP POP JUMP INVALID LOG2 PUSH5 0x6970667358 0x22 SLT KECCAK256 PUSH13 0x3DA71487E216A2A27B8F7C589B PUSH31 0xB3BC0F39267CF724AD20B333AC60A4851164736F6C634300081A0033608060 BLOCKHASH MSTORE CALLVALUE DUP1 ISZERO PUSH1 0xE JUMPI PUSH0 DUP1 REVERT JUMPDEST POP PUSH2 0x14E DUP1 PUSH2 0x1C PUSH0 CODECOPY PUSH0 RETURN INVALID PUSH1 0x80 PUSH1 0x40 MSTORE CALLVALUE DUP1 ISZERO PUSH2 0xF JUMPI PUSH0 DUP1 REVERT JUMPDEST POP PUSH1 0x4 CALLDATASIZE LT PUSH2 0x29 JUMPI PUSH0 CALLDATALOAD PUSH1 0xE0 SHR DUP1 PUSH4 0x17D7DE7C EQ PUSH2 0x2D JUMPI JUMPDEST PUSH0 DUP1 REVERT JUMPDEST PUSH2 0x35 PUSH2 0x4B JUMP JUMPDEST PUSH1 0x40 MLOAD PUSH2 0x42 SWAP2 SWAP1 PUSH2 0xF8 JUMP JUMPDEST PUSH1 0x40 MLOAD DUP1 SWAP2 SUB SWAP1 RETURN JUMPDEST PUSH1 0x60 PUSH1 0x40 MLOAD DUP1 PUSH1 0x40 ADD PUSH1 0x40 MSTORE DUP1 PUSH1 0xD DUP2 MSTORE PUSH1 0x20 ADD PUSH32 0x57656220446576656C6F70657200000000000000000000000000000000000000 DUP2 MSTORE POP SWAP1 POP SWAP1 JUMP JUMPDEST PUSH0 DUP2 MLOAD SWAP1 POP SWAP2 SWAP1 POP JUMP JUMPDEST PUSH0 DUP3 DUP3 MSTORE PUSH1 0x20 DUP3 ADD SWAP1 POP SWAP3 SWAP2 POP POP JUMP JUMPDEST DUP3 DUP2 DUP4 MCOPY PUSH0 DUP4 DUP4 ADD MSTORE POP POP POP JUMP JUMPDEST PUSH0 PUSH1 0x1F NOT PUSH1 0x1F DUP4 ADD AND SWAP1 POP SWAP2 SWAP1 POP JUMP JUMPDEST PUSH0 PUSH2 0xCA DUP3 PUSH2 0x88 JUMP JUMPDEST PUSH2 0xD4 DUP2 DUP6 PUSH2 0x92 JUMP JUMPDEST SWAP4 POP PUSH2 0xE4 DUP2 DUP6 PUSH1 0x20 DUP7 ADD PUSH2 0xA2 JUMP JUMPDEST PUSH2 0xED DUP2 PUSH2 0xB0 JUMP JUMPDEST DUP5 ADD SWAP2 POP POP SWAP3 SWAP2 POP POP JUMP JUMPDEST PUSH0 PUSH1 0x20 DUP3 ADD SWAP1 POP DUP2 DUP2 SUB PUSH0 DUP4 ADD MSTORE PUSH2 0x110 DUP2 DUP5 PUSH2 0xC0 JUMP JUMPDEST SWAP1 POP SWAP3 SWAP2 POP POP JUMP INVALID LOG2 PUSH5 0x6970667358 0x22 SLT KECCAK256 PUSH16 0x402C5134FB415F6626896F6A2A7108AB 0x4F 0xB6 0xD DUP8 BLOBBASEFEE STATICCALL AND 0x27 PREVRANDAO 0xB3 SWAP13 INVALID BASEFEE DUP4 0xC9 PUSH5 0x736F6C6343 STOP ADDMOD BYTE STOP CALLER "
				},
				"gasEstimates": {
					"creation": {
						"codeDepositCost": "320000",
						"executionCost": "infinite",
						"totalCost": "infinite"
					},
					"external": {
						"blockchain()": "infinite",
						"getAllNames()": "infinite",
						"web()": "infinite",
						"whatIsTheName(address)": "infinite"
					}
				},
				"methodIdentifiers": {
					"blockchain()": "64a0b126",
					"getAllNames()": "fb825e5f",
					"web()": "73680b03",
					"whatIsTheName(address)": "9266ad16"
				}
			},
			"storageLayout": {
				"storage": [
					{
						"astId": 41,
						"contract": "OOP/characteristic/contractPoly.sol:DeveloperSet",
						"label": "blockchain",
						"offset": 0,
						"slot": "0",
						"type": "t_contract(Developer)10"
					},
					{
						"astId": 48,
						"contract": "OOP/characteristic/contractPoly.sol:DeveloperSet",
						"label": "web",
						"offset": 0,
						"slot": "1",
						"type": "t_contract(Developer)10"
					}
				],
				"types": {
					"t_contract(Developer)10": {
						"encoding": "inplace",
						"label": "contract Developer",
						"numberOfBytes": "20"
					}
				}
			},
			"userdoc": {
				"kind": "user",
				"methods": {},
				"version": 1
			}
		}
	}
}