{
	"OOP/characteristic/super.sol": {
		"Student": {
			"abi": [
				{
					"inputs": [],
					"name": "showCourses",
					"outputs": [
						{
							"internalType": "string[]",
							"name": "",
							"type": "string[]"
						}
					],
					"stateMutability": "nonpayable",
					"type": "function"
				}
			],
			"devdoc": {
				"kind": "dev",
				"methods": {},
				"version": 1
			},
			"evm": {
				"assembly": "    /* \"OOP/characteristic/super.sol\":67:312  contract Student {... */\n  mstore(0x40, 0x80)\n  callvalue\n  dup1\n  iszero\n  tag_1\n  jumpi\n  0x00\n  dup1\n  revert\ntag_1:\n  pop\n  dataSize(sub_0)\n  dup1\n  dataOffset(sub_0)\n  0x00\n  codecopy\n  0x00\n  return\nstop\n\nsub_0: assembly {\n        /* \"OOP/characteristic/super.sol\":67:312  contract Student {... */\n      mstore(0x40, 0x80)\n      callvalue\n      dup1\n      iszero\n      tag_1\n      jumpi\n      0x00\n      dup1\n      revert\n    tag_1:\n      pop\n      jumpi(tag_2, lt(calldatasize, 0x04))\n      shr(0xe0, calldataload(0x00))\n      dup1\n      0x44a034cd\n      eq\n      tag_3\n      jumpi\n    tag_2:\n      0x00\n      dup1\n      revert\n        /* \"OOP/characteristic/super.sol\":127:309  function showCourses() public virtual returns(string[] memory) {... */\n    tag_3:\n      tag_4\n      tag_5\n      jump\t// in\n    tag_4:\n      mload(0x40)\n      tag_6\n      swap2\n      swap1\n      tag_7\n      jump\t// in\n    tag_6:\n      mload(0x40)\n      dup1\n      swap2\n      sub\n      swap1\n      return\n    tag_5:\n        /* \"OOP/characteristic/super.sol\":173:188  string[] memory */\n      0x60\n        /* \"OOP/characteristic/super.sol\":207:214  cources */\n      0x00\n      dup1\n        /* \"OOP/characteristic/super.sol\":200:214  delete cources */\n      tag_9\n      swap2\n      swap1\n      tag_10\n      jump\t// in\n    tag_9:\n        /* \"OOP/characteristic/super.sol\":224:231  cources */\n      0x00\n        /* \"OOP/characteristic/super.sol\":224:247  cources.push(\"English\") */\n      dup1\n      0x01\n      dup2\n      sload\n      add\n      dup1\n      dup3\n      sstore\n      dup1\n      swap2\n      pop\n      pop\n      0x01\n      swap1\n      sub\n      swap1\n      0x00\n      mstore\n      keccak256(0x00, 0x20)\n      add\n      0x00\n      mload(0x40)\n      dup1\n      0x40\n      add\n      0x40\n      mstore\n      dup1\n      0x07\n      dup2\n      mstore\n      0x20\n      add\n      0x456e676c69736800000000000000000000000000000000000000000000000000\n      dup2\n      mstore\n      pop\n      swap1\n      swap2\n      swap1\n      swap2\n      pop\n      swap1\n      dup2\n      tag_12\n      swap2\n      swap1\n      tag_13\n      jump\t// in\n    tag_12:\n      pop\n        /* \"OOP/characteristic/super.sol\":257:264  cources */\n      0x00\n        /* \"OOP/characteristic/super.sol\":257:278  cources.push(\"Music\") */\n      dup1\n      0x01\n      dup2\n      sload\n      add\n      dup1\n      dup3\n      sstore\n      dup1\n      swap2\n      pop\n      pop\n      0x01\n      swap1\n      sub\n      swap1\n      0x00\n      mstore\n      keccak256(0x00, 0x20)\n      add\n      0x00\n      mload(0x40)\n      dup1\n      0x40\n      add\n      0x40\n      mstore\n      dup1\n      0x05\n      dup2\n      mstore\n      0x20\n      add\n      0x4d75736963000000000000000000000000000000000000000000000000000000\n      dup2\n      mstore\n      pop\n      swap1\n      swap2\n      swap1\n      swap2\n      pop\n      swap1\n      dup2\n      tag_15\n      swap2\n      swap1\n      tag_13\n      jump\t// in\n    tag_15:\n      pop\n        /* \"OOP/characteristic/super.sol\":295:302  cources */\n      0x00\n        /* \"OOP/characteristic/super.sol\":288:302  return cources */\n      dup1\n      sload\n      dup1\n      0x20\n      mul\n      0x20\n      add\n      mload(0x40)\n      swap1\n      dup2\n      add\n      0x40\n      mstore\n      dup1\n      swap3\n      swap2\n      swap1\n      dup2\n      dup2\n      mstore\n      0x20\n      add\n      0x00\n      swap1\n    tag_16:\n      dup3\n      dup3\n      lt\n      iszero\n      tag_17\n      jumpi\n      dup4\n      dup3\n      swap1\n      0x00\n      mstore\n      keccak256(0x00, 0x20)\n      add\n      dup1\n      sload\n      tag_19\n      swap1\n      tag_20\n      jump\t// in\n    tag_19:\n      dup1\n      0x1f\n      add\n      0x20\n      dup1\n      swap2\n      div\n      mul\n      0x20\n      add\n      mload(0x40)\n      swap1\n      dup2\n      add\n      0x40\n      mstore\n      dup1\n      swap3\n      swap2\n      swap1\n      dup2\n      dup2\n      mstore\n      0x20\n      add\n      dup3\n      dup1\n      sload\n      tag_21\n      swap1\n      tag_20\n      jump\t// in\n    tag_21:\n      dup1\n      iszero\n      tag_22\n      jumpi\n      dup1\n      0x1f\n      lt\n      tag_23\n      jumpi\n      0x0100\n      dup1\n      dup4\n      sload\n      div\n      mul\n      dup4\n      mstore\n      swap2\n      0x20\n      add\n      swap2\n      jump(tag_22)\n    tag_23:\n      dup3\n      add\n      swap2\n      swap1\n      0x00\n      mstore\n      keccak256(0x00, 0x20)\n      swap1\n    tag_24:\n      dup2\n      sload\n      dup2\n      mstore\n      swap1\n      0x01\n      add\n      swap1\n      0x20\n      add\n      dup1\n      dup4\n      gt\n      tag_24\n      jumpi\n      dup3\n      swap1\n      sub\n      0x1f\n      and\n      dup3\n      add\n      swap2\n    tag_22:\n      pop\n      pop\n      pop\n      pop\n      pop\n      dup2\n      mstore\n      0x20\n      add\n      swap1\n      0x01\n      add\n      swap1\n      jump(tag_16)\n    tag_17:\n      pop\n      pop\n      pop\n      pop\n      swap1\n      pop\n        /* \"OOP/characteristic/super.sol\":127:309  function showCourses() public virtual returns(string[] memory) {... */\n      swap1\n      jump\t// out\n    tag_10:\n      pop\n      dup1\n      sload\n      0x00\n      dup3\n      sstore\n      swap1\n      0x00\n      mstore\n      keccak256(0x00, 0x20)\n      swap1\n      dup2\n      add\n      swap1\n      tag_26\n      swap2\n      swap1\n      tag_27\n      jump\t// in\n    tag_26:\n      pop\n      jump\t// out\n    tag_27:\n    tag_28:\n      dup1\n      dup3\n      gt\n      iszero\n      tag_29\n      jumpi\n      0x00\n      dup2\n      dup2\n      tag_30\n      swap2\n      swap1\n      tag_31\n      jump\t// in\n    tag_30:\n      pop\n      0x01\n      add\n      jump(tag_28)\n    tag_29:\n      pop\n      swap1\n      jump\t// out\n    tag_31:\n      pop\n      dup1\n      sload\n      tag_32\n      swap1\n      tag_20\n      jump\t// in\n    tag_32:\n      0x00\n      dup3\n      sstore\n      dup1\n      0x1f\n      lt\n      tag_34\n      jumpi\n      pop\n      jump(tag_33)\n    tag_34:\n      0x1f\n      add\n      0x20\n      swap1\n      div\n      swap1\n      0x00\n      mstore\n      keccak256(0x00, 0x20)\n      swap1\n      dup2\n      add\n      swap1\n      tag_35\n      swap2\n      swap1\n      tag_36\n      jump\t// in\n    tag_35:\n    tag_33:\n      pop\n      jump\t// out\n    tag_36:\n    tag_37:\n      dup1\n      dup3\n      gt\n      iszero\n      tag_38\n      jumpi\n      0x00\n      dup2\n      0x00\n      swap1\n      sstore\n      pop\n      0x01\n      add\n      jump(tag_37)\n    tag_38:\n      pop\n      swap1\n      jump\t// out\n        /* \"#utility.yul\":7:131   */\n    tag_39:\n        /* \"#utility.yul\":84:90   */\n      0x00\n        /* \"#utility.yul\":118:123   */\n      dup2\n        /* \"#utility.yul\":112:124   */\n      mload\n        /* \"#utility.yul\":102:124   */\n      swap1\n      pop\n        /* \"#utility.yul\":7:131   */\n      swap2\n      swap1\n      pop\n      jump\t// out\n        /* \"#utility.yul\":137:331   */\n    tag_40:\n        /* \"#utility.yul\":246:257   */\n      0x00\n        /* \"#utility.yul\":280:286   */\n      dup3\n        /* \"#utility.yul\":275:278   */\n      dup3\n        /* \"#utility.yul\":268:287   */\n      mstore\n        /* \"#utility.yul\":320:324   */\n      0x20\n        /* \"#utility.yul\":315:318   */\n      dup3\n        /* \"#utility.yul\":311:325   */\n      add\n        /* \"#utility.yul\":296:325   */\n      swap1\n      pop\n        /* \"#utility.yul\":137:331   */\n      swap3\n      swap2\n      pop\n      pop\n      jump\t// out\n        /* \"#utility.yul\":337:479   */\n    tag_41:\n        /* \"#utility.yul\":414:418   */\n      0x00\n        /* \"#utility.yul\":437:440   */\n      dup2\n        /* \"#utility.yul\":429:440   */\n      swap1\n      pop\n        /* \"#utility.yul\":467:471   */\n      0x20\n        /* \"#utility.yul\":462:465   */\n      dup3\n        /* \"#utility.yul\":458:472   */\n      add\n        /* \"#utility.yul\":450:472   */\n      swap1\n      pop\n        /* \"#utility.yul\":337:479   */\n      swap2\n      swap1\n      pop\n      jump\t// out\n        /* \"#utility.yul\":485:584   */\n    tag_42:\n        /* \"#utility.yul\":537:543   */\n      0x00\n        /* \"#utility.yul\":571:576   */\n      dup2\n        /* \"#utility.yul\":565:577   */\n      mload\n        /* \"#utility.yul\":555:577   */\n      swap1\n      pop\n        /* \"#utility.yul\":485:584   */\n      swap2\n      swap1\n      pop\n      jump\t// out\n        /* \"#utility.yul\":590:749   */\n    tag_43:\n        /* \"#utility.yul\":664:675   */\n      0x00\n        /* \"#utility.yul\":698:704   */\n      dup3\n        /* \"#utility.yul\":693:696   */\n      dup3\n        /* \"#utility.yul\":686:705   */\n      mstore\n        /* \"#utility.yul\":738:742   */\n      0x20\n        /* \"#utility.yul\":733:736   */\n      dup3\n        /* \"#utility.yul\":729:743   */\n      add\n        /* \"#utility.yul\":714:743   */\n      swap1\n      pop\n        /* \"#utility.yul\":590:749   */\n      swap3\n      swap2\n      pop\n      pop\n      jump\t// out\n        /* \"#utility.yul\":755:894   */\n    tag_44:\n        /* \"#utility.yul\":844:850   */\n      dup3\n        /* \"#utility.yul\":839:842   */\n      dup2\n        /* \"#utility.yul\":834:837   */\n      dup4\n        /* \"#utility.yul\":828:851   */\n      mcopy\n        /* \"#utility.yul\":885:886   */\n      0x00\n        /* \"#utility.yul\":876:882   */\n      dup4\n        /* \"#utility.yul\":871:874   */\n      dup4\n        /* \"#utility.yul\":867:883   */\n      add\n        /* \"#utility.yul\":860:887   */\n      mstore\n        /* \"#utility.yul\":755:894   */\n      pop\n      pop\n      pop\n      jump\t// out\n        /* \"#utility.yul\":900:1002   */\n    tag_45:\n        /* \"#utility.yul\":941:947   */\n      0x00\n        /* \"#utility.yul\":992:994   */\n      0x1f\n        /* \"#utility.yul\":988:995   */\n      not\n        /* \"#utility.yul\":983:985   */\n      0x1f\n        /* \"#utility.yul\":976:981   */\n      dup4\n        /* \"#utility.yul\":972:986   */\n      add\n        /* \"#utility.yul\":968:996   */\n      and\n        /* \"#utility.yul\":958:996   */\n      swap1\n      pop\n        /* \"#utility.yul\":900:1002   */\n      swap2\n      swap1\n      pop\n      jump\t// out\n        /* \"#utility.yul\":1008:1365   */\n    tag_46:\n        /* \"#utility.yul\":1086:1089   */\n      0x00\n        /* \"#utility.yul\":1114:1153   */\n      tag_77\n        /* \"#utility.yul\":1147:1152   */\n      dup3\n        /* \"#utility.yul\":1114:1153   */\n      tag_42\n      jump\t// in\n    tag_77:\n        /* \"#utility.yul\":1169:1230   */\n      tag_78\n        /* \"#utility.yul\":1223:1229   */\n      dup2\n        /* \"#utility.yul\":1218:1221   */\n      dup6\n        /* \"#utility.yul\":1169:1230   */\n      tag_43\n      jump\t// in\n    tag_78:\n        /* \"#utility.yul\":1162:1230   */\n      swap4\n      pop\n        /* \"#utility.yul\":1239:1304   */\n      tag_79\n        /* \"#utility.yul\":1297:1303   */\n      dup2\n        /* \"#utility.yul\":1292:1295   */\n      dup6\n        /* \"#utility.yul\":1285:1289   */\n      0x20\n        /* \"#utility.yul\":1278:1283   */\n      dup7\n        /* \"#utility.yul\":1274:1290   */\n      add\n        /* \"#utility.yul\":1239:1304   */\n      tag_44\n      jump\t// in\n    tag_79:\n        /* \"#utility.yul\":1329:1358   */\n      tag_80\n        /* \"#utility.yul\":1351:1357   */\n      dup2\n        /* \"#utility.yul\":1329:1358   */\n      tag_45\n      jump\t// in\n    tag_80:\n        /* \"#utility.yul\":1324:1327   */\n      dup5\n        /* \"#utility.yul\":1320:1359   */\n      add\n        /* \"#utility.yul\":1313:1359   */\n      swap2\n      pop\n        /* \"#utility.yul\":1090:1365   */\n      pop\n        /* \"#utility.yul\":1008:1365   */\n      swap3\n      swap2\n      pop\n      pop\n      jump\t// out\n        /* \"#utility.yul\":1371:1567   */\n    tag_47:\n        /* \"#utility.yul\":1460:1470   */\n      0x00\n        /* \"#utility.yul\":1495:1561   */\n      tag_82\n        /* \"#utility.yul\":1557:1560   */\n      dup4\n        /* \"#utility.yul\":1549:1555   */\n      dup4\n        /* \"#utility.yul\":1495:1561   */\n      tag_46\n      jump\t// in\n    tag_82:\n        /* \"#utility.yul\":1481:1561   */\n      swap1\n      pop\n        /* \"#utility.yul\":1371:1567   */\n      swap3\n      swap2\n      pop\n      pop\n      jump\t// out\n        /* \"#utility.yul\":1573:1696   */\n    tag_48:\n        /* \"#utility.yul\":1653:1657   */\n      0x00\n        /* \"#utility.yul\":1685:1689   */\n      0x20\n        /* \"#utility.yul\":1680:1683   */\n      dup3\n        /* \"#utility.yul\":1676:1690   */\n      add\n        /* \"#utility.yul\":1668:1690   */\n      swap1\n      pop\n        /* \"#utility.yul\":1573:1696   */\n      swap2\n      swap1\n      pop\n      jump\t// out\n        /* \"#utility.yul\":1730:2721   */\n    tag_49:\n        /* \"#utility.yul\":1869:1872   */\n      0x00\n        /* \"#utility.yul\":1898:1962   */\n      tag_85\n        /* \"#utility.yul\":1956:1961   */\n      dup3\n        /* \"#utility.yul\":1898:1962   */\n      tag_39\n      jump\t// in\n    tag_85:\n        /* \"#utility.yul\":1978:2074   */\n      tag_86\n        /* \"#utility.yul\":2067:2073   */\n      dup2\n        /* \"#utility.yul\":2062:2065   */\n      dup6\n        /* \"#utility.yul\":1978:2074   */\n      tag_40\n      jump\t// in\n    tag_86:\n        /* \"#utility.yul\":1971:2074   */\n      swap4\n      pop\n        /* \"#utility.yul\":2100:2103   */\n      dup4\n        /* \"#utility.yul\":2145:2149   */\n      0x20\n        /* \"#utility.yul\":2137:2143   */\n      dup3\n        /* \"#utility.yul\":2133:2150   */\n      mul\n        /* \"#utility.yul\":2128:2131   */\n      dup6\n        /* \"#utility.yul\":2124:2151   */\n      add\n        /* \"#utility.yul\":2175:2241   */\n      tag_87\n        /* \"#utility.yul\":2235:2240   */\n      dup6\n        /* \"#utility.yul\":2175:2241   */\n      tag_41\n      jump\t// in\n    tag_87:\n        /* \"#utility.yul\":2264:2271   */\n      dup1\n        /* \"#utility.yul\":2295:2296   */\n      0x00\n        /* \"#utility.yul\":2280:2676   */\n    tag_88:\n        /* \"#utility.yul\":2305:2311   */\n      dup6\n        /* \"#utility.yul\":2302:2303   */\n      dup2\n        /* \"#utility.yul\":2299:2312   */\n      lt\n        /* \"#utility.yul\":2280:2676   */\n      iszero\n      tag_90\n      jumpi\n        /* \"#utility.yul\":2376:2385   */\n      dup5\n        /* \"#utility.yul\":2370:2374   */\n      dup5\n        /* \"#utility.yul\":2366:2386   */\n      sub\n        /* \"#utility.yul\":2361:2364   */\n      dup10\n        /* \"#utility.yul\":2354:2387   */\n      mstore\n        /* \"#utility.yul\":2427:2433   */\n      dup2\n        /* \"#utility.yul\":2421:2434   */\n      mload\n        /* \"#utility.yul\":2455:2539   */\n      tag_91\n        /* \"#utility.yul\":2534:2538   */\n      dup6\n        /* \"#utility.yul\":2519:2532   */\n      dup3\n        /* \"#utility.yul\":2455:2539   */\n      tag_47\n      jump\t// in\n    tag_91:\n        /* \"#utility.yul\":2447:2539   */\n      swap5\n      pop\n        /* \"#utility.yul\":2562:2632   */\n      tag_92\n        /* \"#utility.yul\":2625:2631   */\n      dup4\n        /* \"#utility.yul\":2562:2632   */\n      tag_48\n      jump\t// in\n    tag_92:\n        /* \"#utility.yul\":2552:2632   */\n      swap3\n      pop\n        /* \"#utility.yul\":2661:2665   */\n      0x20\n        /* \"#utility.yul\":2656:2659   */\n      dup11\n        /* \"#utility.yul\":2652:2666   */\n      add\n        /* \"#utility.yul\":2645:2666   */\n      swap10\n      pop\n        /* \"#utility.yul\":2340:2676   */\n      pop\n        /* \"#utility.yul\":2327:2328   */\n      0x01\n        /* \"#utility.yul\":2324:2325   */\n      dup2\n        /* \"#utility.yul\":2320:2329   */\n      add\n        /* \"#utility.yul\":2315:2329   */\n      swap1\n      pop\n        /* \"#utility.yul\":2280:2676   */\n      jump(tag_88)\n    tag_90:\n        /* \"#utility.yul\":2284:2298   */\n      pop\n        /* \"#utility.yul\":2692:2696   */\n      dup3\n        /* \"#utility.yul\":2685:2696   */\n      swap8\n      pop\n        /* \"#utility.yul\":2712:2715   */\n      dup8\n        /* \"#utility.yul\":2705:2715   */\n      swap6\n      pop\n        /* \"#utility.yul\":1874:2721   */\n      pop\n      pop\n      pop\n      pop\n      pop\n        /* \"#utility.yul\":1730:2721   */\n      swap3\n      swap2\n      pop\n      pop\n      jump\t// out\n        /* \"#utility.yul\":2727:3140   */\n    tag_7:\n        /* \"#utility.yul\":2890:2894   */\n      0x00\n        /* \"#utility.yul\":2928:2930   */\n      0x20\n        /* \"#utility.yul\":2917:2926   */\n      dup3\n        /* \"#utility.yul\":2913:2931   */\n      add\n        /* \"#utility.yul\":2905:2931   */\n      swap1\n      pop\n        /* \"#utility.yul\":2977:2986   */\n      dup2\n        /* \"#utility.yul\":2971:2975   */\n      dup2\n        /* \"#utility.yul\":2967:2987   */\n      sub\n        /* \"#utility.yul\":2963:2964   */\n      0x00\n        /* \"#utility.yul\":2952:2961   */\n      dup4\n        /* \"#utility.yul\":2948:2965   */\n      add\n        /* \"#utility.yul\":2941:2988   */\n      mstore\n        /* \"#utility.yul\":3005:3133   */\n      tag_94\n        /* \"#utility.yul\":3128:3132   */\n      dup2\n        /* \"#utility.yul\":3119:3125   */\n      dup5\n        /* \"#utility.yul\":3005:3133   */\n      tag_49\n      jump\t// in\n    tag_94:\n        /* \"#utility.yul\":2997:3133   */\n      swap1\n      pop\n        /* \"#utility.yul\":2727:3140   */\n      swap3\n      swap2\n      pop\n      pop\n      jump\t// out\n        /* \"#utility.yul\":3146:3326   */\n    tag_50:\n        /* \"#utility.yul\":3194:3271   */\n      0x4e487b7100000000000000000000000000000000000000000000000000000000\n        /* \"#utility.yul\":3191:3192   */\n      0x00\n        /* \"#utility.yul\":3184:3272   */\n      mstore\n        /* \"#utility.yul\":3291:3295   */\n      0x41\n        /* \"#utility.yul\":3288:3289   */\n      0x04\n        /* \"#utility.yul\":3281:3296   */\n      mstore\n        /* \"#utility.yul\":3315:3319   */\n      0x24\n        /* \"#utility.yul\":3312:3313   */\n      0x00\n        /* \"#utility.yul\":3305:3320   */\n      revert\n        /* \"#utility.yul\":3332:3512   */\n    tag_51:\n        /* \"#utility.yul\":3380:3457   */\n      0x4e487b7100000000000000000000000000000000000000000000000000000000\n        /* \"#utility.yul\":3377:3378   */\n      0x00\n        /* \"#utility.yul\":3370:3458   */\n      mstore\n        /* \"#utility.yul\":3477:3481   */\n      0x22\n        /* \"#utility.yul\":3474:3475   */\n      0x04\n        /* \"#utility.yul\":3467:3482   */\n      mstore\n        /* \"#utility.yul\":3501:3505   */\n      0x24\n        /* \"#utility.yul\":3498:3499   */\n      0x00\n        /* \"#utility.yul\":3491:3506   */\n      revert\n        /* \"#utility.yul\":3518:3838   */\n    tag_20:\n        /* \"#utility.yul\":3562:3568   */\n      0x00\n        /* \"#utility.yul\":3599:3600   */\n      0x02\n        /* \"#utility.yul\":3593:3597   */\n      dup3\n        /* \"#utility.yul\":3589:3601   */\n      div\n        /* \"#utility.yul\":3579:3601   */\n      swap1\n      pop\n        /* \"#utility.yul\":3646:3647   */\n      0x01\n        /* \"#utility.yul\":3640:3644   */\n      dup3\n        /* \"#utility.yul\":3636:3648   */\n      and\n        /* \"#utility.yul\":3667:3685   */\n      dup1\n        /* \"#utility.yul\":3657:3738   */\n      tag_98\n      jumpi\n        /* \"#utility.yul\":3723:3727   */\n      0x7f\n        /* \"#utility.yul\":3715:3721   */\n      dup3\n        /* \"#utility.yul\":3711:3728   */\n      and\n        /* \"#utility.yul\":3701:3728   */\n      swap2\n      pop\n        /* \"#utility.yul\":3657:3738   */\n    tag_98:\n        /* \"#utility.yul\":3785:3787   */\n      0x20\n        /* \"#utility.yul\":3777:3783   */\n      dup3\n        /* \"#utility.yul\":3774:3788   */\n      lt\n        /* \"#utility.yul\":3754:3772   */\n      dup2\n        /* \"#utility.yul\":3751:3789   */\n      sub\n        /* \"#utility.yul\":3748:3832   */\n      tag_99\n      jumpi\n        /* \"#utility.yul\":3804:3822   */\n      tag_100\n      tag_51\n      jump\t// in\n    tag_100:\n        /* \"#utility.yul\":3748:3832   */\n    tag_99:\n        /* \"#utility.yul\":3569:3838   */\n      pop\n        /* \"#utility.yul\":3518:3838   */\n      swap2\n      swap1\n      pop\n      jump\t// out\n        /* \"#utility.yul\":3844:3985   */\n    tag_52:\n        /* \"#utility.yul\":3893:3897   */\n      0x00\n        /* \"#utility.yul\":3916:3919   */\n      dup2\n        /* \"#utility.yul\":3908:3919   */\n      swap1\n      pop\n        /* \"#utility.yul\":3939:3942   */\n      dup2\n        /* \"#utility.yul\":3936:3937   */\n      0x00\n        /* \"#utility.yul\":3929:3943   */\n      mstore\n        /* \"#utility.yul\":3973:3977   */\n      0x20\n        /* \"#utility.yul\":3970:3971   */\n      0x00\n        /* \"#utility.yul\":3960:3978   */\n      keccak256\n        /* \"#utility.yul\":3952:3978   */\n      swap1\n      pop\n        /* \"#utility.yul\":3844:3985   */\n      swap2\n      swap1\n      pop\n      jump\t// out\n        /* \"#utility.yul\":3991:4084   */\n    tag_53:\n        /* \"#utility.yul\":4028:4034   */\n      0x00\n        /* \"#utility.yul\":4075:4077   */\n      0x20\n        /* \"#utility.yul\":4070:4072   */\n      0x1f\n        /* \"#utility.yul\":4063:4068   */\n      dup4\n        /* \"#utility.yul\":4059:4073   */\n      add\n        /* \"#utility.yul\":4055:4078   */\n      div\n        /* \"#utility.yul\":4045:4078   */\n      swap1\n      pop\n        /* \"#utility.yul\":3991:4084   */\n      swap2\n      swap1\n      pop\n      jump\t// out\n        /* \"#utility.yul\":4090:4197   */\n    tag_54:\n        /* \"#utility.yul\":4134:4142   */\n      0x00\n        /* \"#utility.yul\":4184:4189   */\n      dup3\n        /* \"#utility.yul\":4178:4182   */\n      dup3\n        /* \"#utility.yul\":4174:4190   */\n      shl\n        /* \"#utility.yul\":4153:4190   */\n      swap1\n      pop\n        /* \"#utility.yul\":4090:4197   */\n      swap3\n      swap2\n      pop\n      pop\n      jump\t// out\n        /* \"#utility.yul\":4203:4596   */\n    tag_55:\n        /* \"#utility.yul\":4272:4278   */\n      0x00\n        /* \"#utility.yul\":4322:4323   */\n      0x08\n        /* \"#utility.yul\":4310:4320   */\n      dup4\n        /* \"#utility.yul\":4306:4324   */\n      mul\n        /* \"#utility.yul\":4345:4442   */\n      tag_105\n        /* \"#utility.yul\":4375:4441   */\n      0xffffffffffffffffffffffffffffffffffffffffffffffffffffffffffffffff\n        /* \"#utility.yul\":4364:4373   */\n      dup3\n        /* \"#utility.yul\":4345:4442   */\n      tag_54\n      jump\t// in\n    tag_105:\n        /* \"#utility.yul\":4463:4502   */\n      tag_106\n        /* \"#utility.yul\":4493:4501   */\n      dup7\n        /* \"#utility.yul\":4482:4491   */\n      dup4\n        /* \"#utility.yul\":4463:4502   */\n      tag_54\n      jump\t// in\n    tag_106:\n        /* \"#utility.yul\":4451:4502   */\n      swap6\n      pop\n        /* \"#utility.yul\":4535:4539   */\n      dup1\n        /* \"#utility.yul\":4531:4540   */\n      not\n        /* \"#utility.yul\":4524:4529   */\n      dup5\n        /* \"#utility.yul\":4520:4541   */\n      and\n        /* \"#utility.yul\":4511:4541   */\n      swap4\n      pop\n        /* \"#utility.yul\":4584:4588   */\n      dup1\n        /* \"#utility.yul\":4574:4582   */\n      dup7\n        /* \"#utility.yul\":4570:4589   */\n      and\n        /* \"#utility.yul\":4563:4568   */\n      dup5\n        /* \"#utility.yul\":4560:4590   */\n      or\n        /* \"#utility.yul\":4550:4590   */\n      swap3\n      pop\n        /* \"#utility.yul\":4279:4596   */\n      pop\n      pop\n        /* \"#utility.yul\":4203:4596   */\n      swap4\n      swap3\n      pop\n      pop\n      pop\n      jump\t// out\n        /* \"#utility.yul\":4602:4679   */\n    tag_56:\n        /* \"#utility.yul\":4639:4646   */\n      0x00\n        /* \"#utility.yul\":4668:4673   */\n      dup2\n        /* \"#utility.yul\":4657:4673   */\n      swap1\n      pop\n        /* \"#utility.yul\":4602:4679   */\n      swap2\n      swap1\n      pop\n      jump\t// out\n        /* \"#utility.yul\":4685:4745   */\n    tag_57:\n        /* \"#utility.yul\":4713:4716   */\n      0x00\n        /* \"#utility.yul\":4734:4739   */\n      dup2\n        /* \"#utility.yul\":4727:4739   */\n      swap1\n      pop\n        /* \"#utility.yul\":4685:4745   */\n      swap2\n      swap1\n      pop\n      jump\t// out\n        /* \"#utility.yul\":4751:4893   */\n    tag_58:\n        /* \"#utility.yul\":4801:4810   */\n      0x00\n        /* \"#utility.yul\":4834:4887   */\n      tag_110\n        /* \"#utility.yul\":4852:4886   */\n      tag_111\n        /* \"#utility.yul\":4861:4885   */\n      tag_112\n        /* \"#utility.yul\":4879:4884   */\n      dup5\n        /* \"#utility.yul\":4861:4885   */\n      tag_56\n      jump\t// in\n    tag_112:\n        /* \"#utility.yul\":4852:4886   */\n      tag_57\n      jump\t// in\n    tag_111:\n        /* \"#utility.yul\":4834:4887   */\n      tag_56\n      jump\t// in\n    tag_110:\n        /* \"#utility.yul\":4821:4887   */\n      swap1\n      pop\n        /* \"#utility.yul\":4751:4893   */\n      swap2\n      swap1\n      pop\n      jump\t// out\n        /* \"#utility.yul\":4899:4974   */\n    tag_59:\n        /* \"#utility.yul\":4942:4945   */\n      0x00\n        /* \"#utility.yul\":4963:4968   */\n      dup2\n        /* \"#utility.yul\":4956:4968   */\n      swap1\n      pop\n        /* \"#utility.yul\":4899:4974   */\n      swap2\n      swap1\n      pop\n      jump\t// out\n        /* \"#utility.yul\":4980:5249   */\n    tag_60:\n        /* \"#utility.yul\":5090:5129   */\n      tag_115\n        /* \"#utility.yul\":5121:5128   */\n      dup4\n        /* \"#utility.yul\":5090:5129   */\n      tag_58\n      jump\t// in\n    tag_115:\n        /* \"#utility.yul\":5151:5242   */\n      tag_116\n        /* \"#utility.yul\":5200:5241   */\n      tag_117\n        /* \"#utility.yul\":5224:5240   */\n      dup3\n        /* \"#utility.yul\":5200:5241   */\n      tag_59\n      jump\t// in\n    tag_117:\n        /* \"#utility.yul\":5192:5198   */\n      dup5\n        /* \"#utility.yul\":5185:5189   */\n      dup5\n        /* \"#utility.yul\":5179:5190   */\n      sload\n        /* \"#utility.yul\":5151:5242   */\n      tag_55\n      jump\t// in\n    tag_116:\n        /* \"#utility.yul\":5145:5149   */\n      dup3\n        /* \"#utility.yul\":5138:5243   */\n      sstore\n        /* \"#utility.yul\":5056:5249   */\n      pop\n        /* \"#utility.yul\":4980:5249   */\n      pop\n      pop\n      pop\n      jump\t// out\n        /* \"#utility.yul\":5255:5328   */\n    tag_61:\n        /* \"#utility.yul\":5300:5303   */\n      0x00\n        /* \"#utility.yul\":5255:5328   */\n      swap1\n      jump\t// out\n        /* \"#utility.yul\":5334:5523   */\n    tag_62:\n        /* \"#utility.yul\":5411:5443   */\n      tag_120\n      tag_61\n      jump\t// in\n    tag_120:\n        /* \"#utility.yul\":5452:5517   */\n      tag_121\n        /* \"#utility.yul\":5510:5516   */\n      dup2\n        /* \"#utility.yul\":5502:5508   */\n      dup5\n        /* \"#utility.yul\":5496:5500   */\n      dup5\n        /* \"#utility.yul\":5452:5517   */\n      tag_60\n      jump\t// in\n    tag_121:\n        /* \"#utility.yul\":5387:5523   */\n      pop\n        /* \"#utility.yul\":5334:5523   */\n      pop\n      pop\n      jump\t// out\n        /* \"#utility.yul\":5529:5715   */\n    tag_63:\n        /* \"#utility.yul\":5589:5709   */\n    tag_123:\n        /* \"#utility.yul\":5606:5609   */\n      dup2\n        /* \"#utility.yul\":5599:5604   */\n      dup2\n        /* \"#utility.yul\":5596:5610   */\n      lt\n        /* \"#utility.yul\":5589:5709   */\n      iszero\n      tag_125\n      jumpi\n        /* \"#utility.yul\":5660:5699   */\n      tag_126\n        /* \"#utility.yul\":5697:5698   */\n      0x00\n        /* \"#utility.yul\":5690:5695   */\n      dup3\n        /* \"#utility.yul\":5660:5699   */\n      tag_62\n      jump\t// in\n    tag_126:\n        /* \"#utility.yul\":5633:5634   */\n      0x01\n        /* \"#utility.yul\":5626:5631   */\n      dup2\n        /* \"#utility.yul\":5622:5635   */\n      add\n        /* \"#utility.yul\":5613:5635   */\n      swap1\n      pop\n        /* \"#utility.yul\":5589:5709   */\n      jump(tag_123)\n    tag_125:\n        /* \"#utility.yul\":5529:5715   */\n      pop\n      pop\n      jump\t// out\n        /* \"#utility.yul\":5721:6264   */\n    tag_64:\n        /* \"#utility.yul\":5822:5824   */\n      0x1f\n        /* \"#utility.yul\":5817:5820   */\n      dup3\n        /* \"#utility.yul\":5814:5825   */\n      gt\n        /* \"#utility.yul\":5811:6257   */\n      iszero\n      tag_128\n      jumpi\n        /* \"#utility.yul\":5856:5894   */\n      tag_129\n        /* \"#utility.yul\":5888:5893   */\n      dup2\n        /* \"#utility.yul\":5856:5894   */\n      tag_52\n      jump\t// in\n    tag_129:\n        /* \"#utility.yul\":5940:5969   */\n      tag_130\n        /* \"#utility.yul\":5958:5968   */\n      dup5\n        /* \"#utility.yul\":5940:5969   */\n      tag_53\n      jump\t// in\n    tag_130:\n        /* \"#utility.yul\":5930:5938   */\n      dup2\n        /* \"#utility.yul\":5926:5970   */\n      add\n        /* \"#utility.yul\":6123:6125   */\n      0x20\n        /* \"#utility.yul\":6111:6121   */\n      dup6\n        /* \"#utility.yul\":6108:6126   */\n      lt\n        /* \"#utility.yul\":6105:6154   */\n      iszero\n      tag_131\n      jumpi\n        /* \"#utility.yul\":6144:6152   */\n      dup2\n        /* \"#utility.yul\":6129:6152   */\n      swap1\n      pop\n        /* \"#utility.yul\":6105:6154   */\n    tag_131:\n        /* \"#utility.yul\":6167:6247   */\n      tag_132\n        /* \"#utility.yul\":6223:6245   */\n      tag_133\n        /* \"#utility.yul\":6241:6244   */\n      dup6\n        /* \"#utility.yul\":6223:6245   */\n      tag_53\n      jump\t// in\n    tag_133:\n        /* \"#utility.yul\":6213:6221   */\n      dup4\n        /* \"#utility.yul\":6209:6246   */\n      add\n        /* \"#utility.yul\":6196:6207   */\n      dup3\n        /* \"#utility.yul\":6167:6247   */\n      tag_63\n      jump\t// in\n    tag_132:\n        /* \"#utility.yul\":5826:6257   */\n      pop\n      pop\n        /* \"#utility.yul\":5811:6257   */\n    tag_128:\n        /* \"#utility.yul\":5721:6264   */\n      pop\n      pop\n      pop\n      jump\t// out\n        /* \"#utility.yul\":6270:6387   */\n    tag_65:\n        /* \"#utility.yul\":6324:6332   */\n      0x00\n        /* \"#utility.yul\":6374:6379   */\n      dup3\n        /* \"#utility.yul\":6368:6372   */\n      dup3\n        /* \"#utility.yul\":6364:6380   */\n      shr\n        /* \"#utility.yul\":6343:6380   */\n      swap1\n      pop\n        /* \"#utility.yul\":6270:6387   */\n      swap3\n      swap2\n      pop\n      pop\n      jump\t// out\n        /* \"#utility.yul\":6393:6562   */\n    tag_66:\n        /* \"#utility.yul\":6437:6443   */\n      0x00\n        /* \"#utility.yul\":6470:6521   */\n      tag_136\n        /* \"#utility.yul\":6518:6519   */\n      0x00\n        /* \"#utility.yul\":6514:6520   */\n      not\n        /* \"#utility.yul\":6506:6511   */\n      dup5\n        /* \"#utility.yul\":6503:6504   */\n      0x08\n        /* \"#utility.yul\":6499:6512   */\n      mul\n        /* \"#utility.yul\":6470:6521   */\n      tag_65\n      jump\t// in\n    tag_136:\n        /* \"#utility.yul\":6466:6522   */\n      not\n        /* \"#utility.yul\":6551:6555   */\n      dup1\n        /* \"#utility.yul\":6545:6549   */\n      dup4\n        /* \"#utility.yul\":6541:6556   */\n      and\n        /* \"#utility.yul\":6531:6556   */\n      swap2\n      pop\n        /* \"#utility.yul\":6444:6562   */\n      pop\n        /* \"#utility.yul\":6393:6562   */\n      swap3\n      swap2\n      pop\n      pop\n      jump\t// out\n        /* \"#utility.yul\":6567:6862   */\n    tag_67:\n        /* \"#utility.yul\":6643:6647   */\n      0x00\n        /* \"#utility.yul\":6789:6818   */\n      tag_138\n        /* \"#utility.yul\":6814:6817   */\n      dup4\n        /* \"#utility.yul\":6808:6812   */\n      dup4\n        /* \"#utility.yul\":6789:6818   */\n      tag_66\n      jump\t// in\n    tag_138:\n        /* \"#utility.yul\":6781:6818   */\n      swap2\n      pop\n        /* \"#utility.yul\":6851:6854   */\n      dup3\n        /* \"#utility.yul\":6848:6849   */\n      0x02\n        /* \"#utility.yul\":6844:6855   */\n      mul\n        /* \"#utility.yul\":6838:6842   */\n      dup3\n        /* \"#utility.yul\":6835:6856   */\n      or\n        /* \"#utility.yul\":6827:6856   */\n      swap1\n      pop\n        /* \"#utility.yul\":6567:6862   */\n      swap3\n      swap2\n      pop\n      pop\n      jump\t// out\n        /* \"#utility.yul\":6867:8262   */\n    tag_13:\n        /* \"#utility.yul\":6984:7021   */\n      tag_140\n        /* \"#utility.yul\":7017:7020   */\n      dup3\n        /* \"#utility.yul\":6984:7021   */\n      tag_42\n      jump\t// in\n    tag_140:\n        /* \"#utility.yul\":7086:7104   */\n      0xffffffffffffffff\n        /* \"#utility.yul\":7078:7084   */\n      dup2\n        /* \"#utility.yul\":7075:7105   */\n      gt\n        /* \"#utility.yul\":7072:7128   */\n      iszero\n      tag_141\n      jumpi\n        /* \"#utility.yul\":7108:7126   */\n      tag_142\n      tag_50\n      jump\t// in\n    tag_142:\n        /* \"#utility.yul\":7072:7128   */\n    tag_141:\n        /* \"#utility.yul\":7152:7190   */\n      tag_143\n        /* \"#utility.yul\":7184:7188   */\n      dup3\n        /* \"#utility.yul\":7178:7189   */\n      sload\n        /* \"#utility.yul\":7152:7190   */\n      tag_20\n      jump\t// in\n    tag_143:\n        /* \"#utility.yul\":7237:7304   */\n      tag_144\n        /* \"#utility.yul\":7297:7303   */\n      dup3\n        /* \"#utility.yul\":7289:7295   */\n      dup3\n        /* \"#utility.yul\":7283:7287   */\n      dup6\n        /* \"#utility.yul\":7237:7304   */\n      tag_64\n      jump\t// in\n    tag_144:\n        /* \"#utility.yul\":7331:7332   */\n      0x00\n        /* \"#utility.yul\":7355:7359   */\n      0x20\n        /* \"#utility.yul\":7342:7359   */\n      swap1\n      pop\n        /* \"#utility.yul\":7387:7389   */\n      0x1f\n        /* \"#utility.yul\":7379:7385   */\n      dup4\n        /* \"#utility.yul\":7376:7390   */\n      gt\n        /* \"#utility.yul\":7404:7405   */\n      0x01\n        /* \"#utility.yul\":7399:8017   */\n      dup2\n      eq\n      tag_146\n      jumpi\n        /* \"#utility.yul\":8061:8062   */\n      0x00\n        /* \"#utility.yul\":8078:8084   */\n      dup5\n        /* \"#utility.yul\":8075:8152   */\n      iszero\n      tag_147\n      jumpi\n        /* \"#utility.yul\":8127:8136   */\n      dup3\n        /* \"#utility.yul\":8122:8125   */\n      dup8\n        /* \"#utility.yul\":8118:8137   */\n      add\n        /* \"#utility.yul\":8112:8138   */\n      mload\n        /* \"#utility.yul\":8103:8138   */\n      swap1\n      pop\n        /* \"#utility.yul\":8075:8152   */\n    tag_147:\n        /* \"#utility.yul\":8178:8245   */\n      tag_148\n        /* \"#utility.yul\":8238:8244   */\n      dup6\n        /* \"#utility.yul\":8231:8236   */\n      dup3\n        /* \"#utility.yul\":8178:8245   */\n      tag_67\n      jump\t// in\n    tag_148:\n        /* \"#utility.yul\":8172:8176   */\n      dup7\n        /* \"#utility.yul\":8165:8246   */\n      sstore\n        /* \"#utility.yul\":8034:8256   */\n      pop\n        /* \"#utility.yul\":7369:8256   */\n      jump(tag_145)\n        /* \"#utility.yul\":7399:8017   */\n    tag_146:\n        /* \"#utility.yul\":7451:7455   */\n      0x1f\n        /* \"#utility.yul\":7447:7456   */\n      not\n        /* \"#utility.yul\":7439:7445   */\n      dup5\n        /* \"#utility.yul\":7435:7457   */\n      and\n        /* \"#utility.yul\":7485:7522   */\n      tag_149\n        /* \"#utility.yul\":7517:7521   */\n      dup7\n        /* \"#utility.yul\":7485:7522   */\n      tag_52\n      jump\t// in\n    tag_149:\n        /* \"#utility.yul\":7544:7545   */\n      0x00\n        /* \"#utility.yul\":7558:7766   */\n    tag_150:\n        /* \"#utility.yul\":7572:7579   */\n      dup3\n        /* \"#utility.yul\":7569:7570   */\n      dup2\n        /* \"#utility.yul\":7566:7580   */\n      lt\n        /* \"#utility.yul\":7558:7766   */\n      iszero\n      tag_152\n      jumpi\n        /* \"#utility.yul\":7651:7660   */\n      dup5\n        /* \"#utility.yul\":7646:7649   */\n      dup10\n        /* \"#utility.yul\":7642:7661   */\n      add\n        /* \"#utility.yul\":7636:7662   */\n      mload\n        /* \"#utility.yul\":7628:7634   */\n      dup3\n        /* \"#utility.yul\":7621:7663   */\n      sstore\n        /* \"#utility.yul\":7702:7703   */\n      0x01\n        /* \"#utility.yul\":7694:7700   */\n      dup3\n        /* \"#utility.yul\":7690:7704   */\n      add\n        /* \"#utility.yul\":7680:7704   */\n      swap2\n      pop\n        /* \"#utility.yul\":7749:7751   */\n      0x20\n        /* \"#utility.yul\":7738:7747   */\n      dup6\n        /* \"#utility.yul\":7734:7752   */\n      add\n        /* \"#utility.yul\":7721:7752   */\n      swap5\n      pop\n        /* \"#utility.yul\":7595:7599   */\n      0x20\n        /* \"#utility.yul\":7592:7593   */\n      dup2\n        /* \"#utility.yul\":7588:7600   */\n      add\n        /* \"#utility.yul\":7583:7600   */\n      swap1\n      pop\n        /* \"#utility.yul\":7558:7766   */\n      jump(tag_150)\n    tag_152:\n        /* \"#utility.yul\":7794:7800   */\n      dup7\n        /* \"#utility.yul\":7785:7792   */\n      dup4\n        /* \"#utility.yul\":7782:7801   */\n      lt\n        /* \"#utility.yul\":7779:7958   */\n      iszero\n      tag_153\n      jumpi\n        /* \"#utility.yul\":7852:7861   */\n      dup5\n        /* \"#utility.yul\":7847:7850   */\n      dup10\n        /* \"#utility.yul\":7843:7862   */\n      add\n        /* \"#utility.yul\":7837:7863   */\n      mload\n        /* \"#utility.yul\":7895:7943   */\n      tag_154\n        /* \"#utility.yul\":7937:7941   */\n      0x1f\n        /* \"#utility.yul\":7929:7935   */\n      dup10\n        /* \"#utility.yul\":7925:7942   */\n      and\n        /* \"#utility.yul\":7914:7923   */\n      dup3\n        /* \"#utility.yul\":7895:7943   */\n      tag_66\n      jump\t// in\n    tag_154:\n        /* \"#utility.yul\":7887:7893   */\n      dup4\n        /* \"#utility.yul\":7880:7944   */\n      sstore\n        /* \"#utility.yul\":7802:7958   */\n      pop\n        /* \"#utility.yul\":7779:7958   */\n    tag_153:\n        /* \"#utility.yul\":8004:8005   */\n      0x01\n        /* \"#utility.yul\":8000:8001   */\n      0x02\n        /* \"#utility.yul\":7992:7998   */\n      dup9\n        /* \"#utility.yul\":7988:8002   */\n      mul\n        /* \"#utility.yul\":7984:8006   */\n      add\n        /* \"#utility.yul\":7978:7982   */\n      dup9\n        /* \"#utility.yul\":7971:8007   */\n      sstore\n        /* \"#utility.yul\":7406:8017   */\n      pop\n      pop\n      pop\n        /* \"#utility.yul\":7369:8256   */\n    tag_145:\n      pop\n        /* \"#utility.yul\":6959:8262   */\n      pop\n      pop\n      pop\n        /* \"#utility.yul\":6867:8262   */\n      pop\n      pop\n      jump\t// out\n\n    auxdata: 0xa264697066735822122041571bfb91ff9909a366356b3245b51a40d434e8c15b01c6b4f028b9b99695bf64736f6c634300081a0033\n}\n",
				"bytecode": {
					"linkReferences": {},
					"object": "6080604052348015600e575f80fd5b506107098061001c5f395ff3fe608060405234801561000f575f80fd5b5060043610610029575f3560e01c806344a034cd1461002d575b5f80fd5b61003561004b565b60405161004291906103b4565b60405180910390f35b60605f8061005991906101f0565b5f8060018154018082558091505060019003905f5260205f20015f6040518060400160405280600781526020017f456e676c69736800000000000000000000000000000000000000000000000000815250909190915090816100bb9190610604565b505f8060018154018082558091505060019003905f5260205f20015f6040518060400160405280600581526020017f4d757369630000000000000000000000000000000000000000000000000000008152509091909150908161011e9190610604565b505f805480602002602001604051908101604052809291908181526020015f905b828210156101e7578382905f5260205f2001805461015c9061042e565b80601f01602080910402602001604051908101604052809291908181526020018280546101889061042e565b80156101d35780601f106101aa576101008083540402835291602001916101d3565b820191905f5260205f20905b8154815290600101906020018083116101b657829003601f168201915b50505050508152602001906001019061013f565b50505050905090565b5080545f8255905f5260205f209081019061020b919061020e565b50565b5b8082111561022d575f81816102249190610231565b5060010161020f565b5090565b50805461023d9061042e565b5f825580601f1061024e575061026b565b601f0160209004905f5260205f209081019061026a919061026e565b5b50565b5b80821115610285575f815f90555060010161026f565b5090565b5f81519050919050565b5f82825260208201905092915050565b5f819050602082019050919050565b5f81519050919050565b5f82825260208201905092915050565b8281835e5f83830152505050565b5f601f19601f8301169050919050565b5f6102f4826102b2565b6102fe81856102bc565b935061030e8185602086016102cc565b610317816102da565b840191505092915050565b5f61032d83836102ea565b905092915050565b5f602082019050919050565b5f61034b82610289565b6103558185610293565b935083602082028501610367856102a3565b805f5b858110156103a257848403895281516103838582610322565b945061038e83610335565b925060208a0199505060018101905061036a565b50829750879550505050505092915050565b5f6020820190508181035f8301526103cc8184610341565b905092915050565b7f4e487b71000000000000000000000000000000000000000000000000000000005f52604160045260245ffd5b7f4e487b71000000000000000000000000000000000000000000000000000000005f52602260045260245ffd5b5f600282049050600182168061044557607f821691505b60208210810361045857610457610401565b5b50919050565b5f819050815f5260205f209050919050565b5f6020601f8301049050919050565b5f82821b905092915050565b5f600883026104ba7fffffffffffffffffffffffffffffffffffffffffffffffffffffffffffffffff8261047f565b6104c4868361047f565b95508019841693508086168417925050509392505050565b5f819050919050565b5f819050919050565b5f6105086105036104fe846104dc565b6104e5565b6104dc565b9050919050565b5f819050919050565b610521836104ee565b61053561052d8261050f565b84845461048b565b825550505050565b5f90565b61054961053d565b610554818484610518565b505050565b5b818110156105775761056c5f82610541565b60018101905061055a565b5050565b601f8211156105bc5761058d8161045e565b61059684610470565b810160208510156105a5578190505b6105b96105b185610470565b830182610559565b50505b505050565b5f82821c905092915050565b5f6105dc5f19846008026105c1565b1980831691505092915050565b5f6105f483836105cd565b9150826002028217905092915050565b61060d826102b2565b67ffffffffffffffff811115610626576106256103d4565b5b610630825461042e565b61063b82828561057b565b5f60209050601f83116001811461066c575f841561065a578287015190505b61066485826105e9565b8655506106cb565b601f19841661067a8661045e565b5f5b828110156106a15784890151825560018201915060208501945060208101905061067c565b868310156106be57848901516106ba601f8916826105cd565b8355505b6001600288020188555050505b50505050505056fea264697066735822122041571bfb91ff9909a366356b3245b51a40d434e8c15b01c6b4f028b9b99695bf64736f6c634300081a0033",
					"opcodes": "PUSH1 0x80 PUSH1 0x40 MSTORE CALLVALUE DUP1 ISZERO PUSH1 0xE JUMPI PUSH0 DUP1 REVERT JUMPDEST POP PUSH2 0x709 DUP1 PUSH2 0x1C PUSH0 CODECOPY PUSH0 RETURN INVALID PUSH1 0x80 PUSH1 0x40 MSTORE CALLVALUE DUP1 ISZERO PUSH2 0xF JUMPI PUSH0 DUP1 REVERT JUMPDEST POP PUSH1 0x4 CALLDATASIZE LT PUSH2 0x29 JUMPI PUSH0 CALLDATALOAD PUSH1 0xE0 SHR DUP1 PUSH4 0x44A034CD EQ PUSH2 0x2D JUMPI JUMPDEST PUSH0 DUP1 REVERT JUMPDEST PUSH2 0x35 PUSH2 0x4B JUMP JUMPDEST PUSH1 0x40 MLOAD PUSH2 0x42 SWAP2 SWAP1 PUSH2 0x3B4 JUMP JUMPDEST PUSH1 0x40 MLOAD DUP1 SWAP2 SUB SWAP1 RETURN JUMPDEST PUSH1 0x60 PUSH0 DUP1 PUSH2 0x59 SWAP2 SWAP1 PUSH2 0x1F0 JUMP JUMPDEST PUSH0 DUP1 PUSH1 0x1 DUP2 SLOAD ADD DUP1 DUP3 SSTORE DUP1 SWAP2 POP POP PUSH1 0x1 SWAP1 SUB SWAP1 PUSH0 MSTORE PUSH1 0x20 PUSH0 KECCAK256 ADD PUSH0 PUSH1 0x40 MLOAD DUP1 PUSH1 0x40 ADD PUSH1 0x40 MSTORE DUP1 PUSH1 0x7 DUP2 MSTORE PUSH1 0x20 ADD PUSH32 0x456E676C69736800000000000000000000000000000000000000000000000000 DUP2 MSTORE POP SWAP1 SWAP2 SWAP1 SWAP2 POP SWAP1 DUP2 PUSH2 0xBB SWAP2 SWAP1 PUSH2 0x604 JUMP JUMPDEST POP PUSH0 DUP1 PUSH1 0x1 DUP2 SLOAD ADD DUP1 DUP3 SSTORE DUP1 SWAP2 POP POP PUSH1 0x1 SWAP1 SUB SWAP1 PUSH0 MSTORE PUSH1 0x20 PUSH0 KECCAK256 ADD PUSH0 PUSH1 0x40 MLOAD DUP1 PUSH1 0x40 ADD PUSH1 0x40 MSTORE DUP1 PUSH1 0x5 DUP2 MSTORE PUSH1 0x20 ADD PUSH32 0x4D75736963000000000000000000000000000000000000000000000000000000 DUP2 MSTORE POP SWAP1 SWAP2 SWAP1 SWAP2 POP SWAP1 DUP2 PUSH2 0x11E SWAP2 SWAP1 PUSH2 0x604 JUMP JUMPDEST POP PUSH0 DUP1 SLOAD DUP1 PUSH1 0x20 MUL PUSH1 0x20 ADD PUSH1 0x40 MLOAD SWAP1 DUP2 ADD PUSH1 0x40 MSTORE DUP1 SWAP3 SWAP2 SWAP1 DUP2 DUP2 MSTORE PUSH1 0x20 ADD PUSH0 SWAP1 JUMPDEST DUP3 DUP3 LT ISZERO PUSH2 0x1E7 JUMPI DUP4 DUP3 SWAP1 PUSH0 MSTORE PUSH1 0x20 PUSH0 KECCAK256 ADD DUP1 SLOAD PUSH2 0x15C SWAP1 PUSH2 0x42E JUMP JUMPDEST DUP1 PUSH1 0x1F ADD PUSH1 0x20 DUP1 SWAP2 DIV MUL PUSH1 0x20 ADD PUSH1 0x40 MLOAD SWAP1 DUP2 ADD PUSH1 0x40 MSTORE DUP1 SWAP3 SWAP2 SWAP1 DUP2 DUP2 MSTORE PUSH1 0x20 ADD DUP3 DUP1 SLOAD PUSH2 0x188 SWAP1 PUSH2 0x42E JUMP JUMPDEST DUP1 ISZERO PUSH2 0x1D3 JUMPI DUP1 PUSH1 0x1F LT PUSH2 0x1AA JUMPI PUSH2 0x100 DUP1 DUP4 SLOAD DIV MUL DUP4 MSTORE SWAP2 PUSH1 0x20 ADD SWAP2 PUSH2 0x1D3 JUMP JUMPDEST DUP3 ADD SWAP2 SWAP1 PUSH0 MSTORE PUSH1 0x20 PUSH0 KECCAK256 SWAP1 JUMPDEST DUP2 SLOAD DUP2 MSTORE SWAP1 PUSH1 0x1 ADD SWAP1 PUSH1 0x20 ADD DUP1 DUP4 GT PUSH2 0x1B6 JUMPI DUP3 SWAP1 SUB PUSH1 0x1F AND DUP3 ADD SWAP2 JUMPDEST POP POP POP POP POP DUP2 MSTORE PUSH1 0x20 ADD SWAP1 PUSH1 0x1 ADD SWAP1 PUSH2 0x13F JUMP JUMPDEST POP POP POP POP SWAP1 POP SWAP1 JUMP JUMPDEST POP DUP1 SLOAD PUSH0 DUP3 SSTORE SWAP1 PUSH0 MSTORE PUSH1 0x20 PUSH0 KECCAK256 SWAP1 DUP2 ADD SWAP1 PUSH2 0x20B SWAP2 SWAP1 PUSH2 0x20E JUMP JUMPDEST POP JUMP JUMPDEST JUMPDEST DUP1 DUP3 GT ISZERO PUSH2 0x22D JUMPI PUSH0 DUP2 DUP2 PUSH2 0x224 SWAP2 SWAP1 PUSH2 0x231 JUMP JUMPDEST POP PUSH1 0x1 ADD PUSH2 0x20F JUMP JUMPDEST POP SWAP1 JUMP JUMPDEST POP DUP1 SLOAD PUSH2 0x23D SWAP1 PUSH2 0x42E JUMP JUMPDEST PUSH0 DUP3 SSTORE DUP1 PUSH1 0x1F LT PUSH2 0x24E JUMPI POP PUSH2 0x26B JUMP JUMPDEST PUSH1 0x1F ADD PUSH1 0x20 SWAP1 DIV SWAP1 PUSH0 MSTORE PUSH1 0x20 PUSH0 KECCAK256 SWAP1 DUP2 ADD SWAP1 PUSH2 0x26A SWAP2 SWAP1 PUSH2 0x26E JUMP JUMPDEST JUMPDEST POP JUMP JUMPDEST JUMPDEST DUP1 DUP3 GT ISZERO PUSH2 0x285 JUMPI PUSH0 DUP2 PUSH0 SWAP1 SSTORE POP PUSH1 0x1 ADD PUSH2 0x26F JUMP JUMPDEST POP SWAP1 JUMP JUMPDEST PUSH0 DUP2 MLOAD SWAP1 POP SWAP2 SWAP1 POP JUMP JUMPDEST PUSH0 DUP3 DUP3 MSTORE PUSH1 0x20 DUP3 ADD SWAP1 POP SWAP3 SWAP2 POP POP JUMP JUMPDEST PUSH0 DUP2 SWAP1 POP PUSH1 0x20 DUP3 ADD SWAP1 POP SWAP2 SWAP1 POP JUMP JUMPDEST PUSH0 DUP2 MLOAD SWAP1 POP SWAP2 SWAP1 POP JUMP JUMPDEST PUSH0 DUP3 DUP3 MSTORE PUSH1 0x20 DUP3 ADD SWAP1 POP SWAP3 SWAP2 POP POP JUMP JUMPDEST DUP3 DUP2 DUP4 MCOPY PUSH0 DUP4 DUP4 ADD MSTORE POP POP POP JUMP JUMPDEST PUSH0 PUSH1 0x1F NOT PUSH1 0x1F DUP4 ADD AND SWAP1 POP SWAP2 SWAP1 POP JUMP JUMPDEST PUSH0 PUSH2 0x2F4 DUP3 PUSH2 0x2B2 JUMP JUMPDEST PUSH2 0x2FE DUP2 DUP6 PUSH2 0x2BC JUMP JUMPDEST SWAP4 POP PUSH2 0x30E DUP2 DUP6 PUSH1 0x20 DUP7 ADD PUSH2 0x2CC JUMP JUMPDEST PUSH2 0x317 DUP2 PUSH2 0x2DA JUMP JUMPDEST DUP5 ADD SWAP2 POP POP SWAP3 SWAP2 POP POP JUMP JUMPDEST PUSH0 PUSH2 0x32D DUP4 DUP4 PUSH2 0x2EA JUMP JUMPDEST SWAP1 POP SWAP3 SWAP2 POP POP JUMP JUMPDEST PUSH0 PUSH1 0x20 DUP3 ADD SWAP1 POP SWAP2 SWAP1 POP JUMP JUMPDEST PUSH0 PUSH2 0x34B DUP3 PUSH2 0x289 JUMP JUMPDEST PUSH2 0x355 DUP2 DUP6 PUSH2 0x293 JUMP JUMPDEST SWAP4 POP DUP4 PUSH1 0x20 DUP3 MUL DUP6 ADD PUSH2 0x367 DUP6 PUSH2 0x2A3 JUMP JUMPDEST DUP1 PUSH0 JUMPDEST DUP6 DUP2 LT ISZERO PUSH2 0x3A2 JUMPI DUP5 DUP5 SUB DUP10 MSTORE DUP2 MLOAD PUSH2 0x383 DUP6 DUP3 PUSH2 0x322 JUMP JUMPDEST SWAP5 POP PUSH2 0x38E DUP4 PUSH2 0x335 JUMP JUMPDEST SWAP3 POP PUSH1 0x20 DUP11 ADD SWAP10 POP POP PUSH1 0x1 DUP2 ADD SWAP1 POP PUSH2 0x36A JUMP JUMPDEST POP DUP3 SWAP8 POP DUP8 SWAP6 POP POP POP POP POP POP SWAP3 SWAP2 POP POP JUMP JUMPDEST PUSH0 PUSH1 0x20 DUP3 ADD SWAP1 POP DUP2 DUP2 SUB PUSH0 DUP4 ADD MSTORE PUSH2 0x3CC DUP2 DUP5 PUSH2 0x341 JUMP JUMPDEST SWAP1 POP SWAP3 SWAP2 POP POP JUMP JUMPDEST PUSH32 0x4E487B7100000000000000000000000000000000000000000000000000000000 PUSH0 MSTORE PUSH1 0x41 PUSH1 0x4 MSTORE PUSH1 0x24 PUSH0 REVERT JUMPDEST PUSH32 0x4E487B7100000000000000000000000000000000000000000000000000000000 PUSH0 MSTORE PUSH1 0x22 PUSH1 0x4 MSTORE PUSH1 0x24 PUSH0 REVERT JUMPDEST PUSH0 PUSH1 0x2 DUP3 DIV SWAP1 POP PUSH1 0x1 DUP3 AND DUP1 PUSH2 0x445 JUMPI PUSH1 0x7F DUP3 AND SWAP2 POP JUMPDEST PUSH1 0x20 DUP3 LT DUP2 SUB PUSH2 0x458 JUMPI PUSH2 0x457 PUSH2 0x401 JUMP JUMPDEST JUMPDEST POP SWAP2 SWAP1 POP JUMP JUMPDEST PUSH0 DUP2 SWAP1 POP DUP2 PUSH0 MSTORE PUSH1 0x20 PUSH0 KECCAK256 SWAP1 POP SWAP2 SWAP1 POP JUMP JUMPDEST PUSH0 PUSH1 0x20 PUSH1 0x1F DUP4 ADD DIV SWAP1 POP SWAP2 SWAP1 POP JUMP JUMPDEST PUSH0 DUP3 DUP3 SHL SWAP1 POP SWAP3 SWAP2 POP POP JUMP JUMPDEST PUSH0 PUSH1 0x8 DUP4 MUL PUSH2 0x4BA PUSH32 0xFFFFFFFFFFFFFFFFFFFFFFFFFFFFFFFFFFFFFFFFFFFFFFFFFFFFFFFFFFFFFFFF DUP3 PUSH2 0x47F JUMP JUMPDEST PUSH2 0x4C4 DUP7 DUP4 PUSH2 0x47F JUMP JUMPDEST SWAP6 POP DUP1 NOT DUP5 AND SWAP4 POP DUP1 DUP7 AND DUP5 OR SWAP3 POP POP POP SWAP4 SWAP3 POP POP POP JUMP JUMPDEST PUSH0 DUP2 SWAP1 POP SWAP2 SWAP1 POP JUMP JUMPDEST PUSH0 DUP2 SWAP1 POP SWAP2 SWAP1 POP JUMP JUMPDEST PUSH0 PUSH2 0x508 PUSH2 0x503 PUSH2 0x4FE DUP5 PUSH2 0x4DC JUMP JUMPDEST PUSH2 0x4E5 JUMP JUMPDEST PUSH2 0x4DC JUMP JUMPDEST SWAP1 POP SWAP2 SWAP1 POP JUMP JUMPDEST PUSH0 DUP2 SWAP1 POP SWAP2 SWAP1 POP JUMP JUMPDEST PUSH2 0x521 DUP4 PUSH2 0x4EE JUMP JUMPDEST PUSH2 0x535 PUSH2 0x52D DUP3 PUSH2 0x50F JUMP JUMPDEST DUP5 DUP5 SLOAD PUSH2 0x48B JUMP JUMPDEST DUP3 SSTORE POP POP POP POP JUMP JUMPDEST PUSH0 SWAP1 JUMP JUMPDEST PUSH2 0x549 PUSH2 0x53D JUMP JUMPDEST PUSH2 0x554 DUP2 DUP5 DUP5 PUSH2 0x518 JUMP JUMPDEST POP POP POP JUMP JUMPDEST JUMPDEST DUP2 DUP2 LT ISZERO PUSH2 0x577 JUMPI PUSH2 0x56C PUSH0 DUP3 PUSH2 0x541 JUMP JUMPDEST PUSH1 0x1 DUP2 ADD SWAP1 POP PUSH2 0x55A JUMP JUMPDEST POP POP JUMP JUMPDEST PUSH1 0x1F DUP3 GT ISZERO PUSH2 0x5BC JUMPI PUSH2 0x58D DUP2 PUSH2 0x45E JUMP JUMPDEST PUSH2 0x596 DUP5 PUSH2 0x470 JUMP JUMPDEST DUP2 ADD PUSH1 0x20 DUP6 LT ISZERO PUSH2 0x5A5 JUMPI DUP2 SWAP1 POP JUMPDEST PUSH2 0x5B9 PUSH2 0x5B1 DUP6 PUSH2 0x470 JUMP JUMPDEST DUP4 ADD DUP3 PUSH2 0x559 JUMP JUMPDEST POP POP JUMPDEST POP POP POP JUMP JUMPDEST PUSH0 DUP3 DUP3 SHR SWAP1 POP SWAP3 SWAP2 POP POP JUMP JUMPDEST PUSH0 PUSH2 0x5DC PUSH0 NOT DUP5 PUSH1 0x8 MUL PUSH2 0x5C1 JUMP JUMPDEST NOT DUP1 DUP4 AND SWAP2 POP POP SWAP3 SWAP2 POP POP JUMP JUMPDEST PUSH0 PUSH2 0x5F4 DUP4 DUP4 PUSH2 0x5CD JUMP JUMPDEST SWAP2 POP DUP3 PUSH1 0x2 MUL DUP3 OR SWAP1 POP SWAP3 SWAP2 POP POP JUMP JUMPDEST PUSH2 0x60D DUP3 PUSH2 0x2B2 JUMP JUMPDEST PUSH8 0xFFFFFFFFFFFFFFFF DUP2 GT ISZERO PUSH2 0x626 JUMPI PUSH2 0x625 PUSH2 0x3D4 JUMP JUMPDEST JUMPDEST PUSH2 0x630 DUP3 SLOAD PUSH2 0x42E JUMP JUMPDEST PUSH2 0x63B DUP3 DUP3 DUP6 PUSH2 0x57B JUMP JUMPDEST PUSH0 PUSH1 0x20 SWAP1 POP PUSH1 0x1F DUP4 GT PUSH1 0x1 DUP2 EQ PUSH2 0x66C JUMPI PUSH0 DUP5 ISZERO PUSH2 0x65A JUMPI DUP3 DUP8 ADD MLOAD SWAP1 POP JUMPDEST PUSH2 0x664 DUP6 DUP3 PUSH2 0x5E9 JUMP JUMPDEST DUP7 SSTORE POP PUSH2 0x6CB JUMP JUMPDEST PUSH1 0x1F NOT DUP5 AND PUSH2 0x67A DUP7 PUSH2 0x45E JUMP JUMPDEST PUSH0 JUMPDEST DUP3 DUP2 LT ISZERO PUSH2 0x6A1 JUMPI DUP5 DUP10 ADD MLOAD DUP3 SSTORE PUSH1 0x1 DUP3 ADD SWAP2 POP PUSH1 0x20 DUP6 ADD SWAP5 POP PUSH1 0x20 DUP2 ADD SWAP1 POP PUSH2 0x67C JUMP JUMPDEST DUP7 DUP4 LT ISZERO PUSH2 0x6BE JUMPI DUP5 DUP10 ADD MLOAD PUSH2 0x6BA PUSH1 0x1F DUP10 AND DUP3 PUSH2 0x5CD JUMP JUMPDEST DUP4 SSTORE POP JUMPDEST PUSH1 0x1 PUSH1 0x2 DUP9 MUL ADD DUP9 SSTORE POP POP POP JUMPDEST POP POP POP POP POP POP JUMP INVALID LOG2 PUSH5 0x6970667358 0x22 SLT KECCAK256 COINBASE JUMPI SHL 0xFB SWAP2 SELFDESTRUCT SWAP10 MULMOD LOG3 PUSH7 0x356B3245B51A40 0xD4 CALLVALUE 0xE8 0xC1 JUMPDEST ADD 0xC6 0xB4 CREATE 0x28 0xB9 0xB9 SWAP7 SWAP6 0xBF PUSH5 0x736F6C6343 STOP ADDMOD BYTE STOP CALLER "
				},
				"gasEstimates": {
					"creation": {
						"codeDepositCost": "360200",
						"executionCost": "397",
						"totalCost": "360597"
					},
					"external": {
						"showCourses()": "infinite"
					}
				},
				"methodIdentifiers": {
					"showCourses()": "44a034cd"
				}
			},
			"storageLayout": {
				"storage": [
					{
						"astId": 4,
						"contract": "OOP/characteristic/super.sol:Student",
						"label": "cources",
						"offset": 0,
						"slot": "0",
						"type": "t_array(t_string_storage)dyn_storage"
					}
				],
				"types": {
					"t_array(t_string_storage)dyn_storage": {
						"base": "t_string_storage",
						"encoding": "dynamic_array",
						"label": "string[]",
						"numberOfBytes": "32"
					},
					"t_string_storage": {
						"encoding": "bytes",
						"label": "string",
						"numberOfBytes": "32"
					}
				}
			},
			"userdoc": {
				"kind": "user",
				"methods": {},
				"version": 1
			}
		}
	}
}