{
	"loop/loop.sol": {
		"Loop": {
			"abi": [
				{
					"inputs": [],
					"name": "doWhileLoop",
					"outputs": [],
					"stateMutability": "nonpayable",
					"type": "function"
				},
				{
					"inputs": [],
					"name": "forLoop",
					"outputs": [],
					"stateMutability": "nonpayable",
					"type": "function"
				},
				{
					"inputs": [
						{
							"internalType": "uint256",
							"name": "",
							"type": "uint256"
						}
					],
					"name": "num",
					"outputs": [
						{
							"internalType": "uint256",
							"name": "",
							"type": "uint256"
						}
					],
					"stateMutability": "view",
					"type": "function"
				},
				{
					"inputs": [],
					"name": "whileLoop",
					"outputs": [],
					"stateMutability": "nonpayable",
					"type": "function"
				}
			],
			"devdoc": {
				"kind": "dev",
				"methods": {},
				"version": 1
			},
			"evm": {
				"assembly": "    /* \"loop/loop.sol\":67:509  contract Loop {... */\n  mstore(0x40, 0x80)\n  callvalue\n  dup1\n  iszero\n  tag_1\n  jumpi\n  0x00\n  dup1\n  revert\ntag_1:\n  pop\n  dataSize(sub_0)\n  dup1\n  dataOffset(sub_0)\n  0x00\n  codecopy\n  0x00\n  return\nstop\n\nsub_0: assembly {\n        /* \"loop/loop.sol\":67:509  contract Loop {... */\n      mstore(0x40, 0x80)\n      callvalue\n      dup1\n      iszero\n      tag_1\n      jumpi\n      0x00\n      dup1\n      revert\n    tag_1:\n      pop\n      jumpi(tag_2, lt(calldatasize, 0x04))\n      shr(0xe0, calldataload(0x00))\n      dup1\n      0x174c9c7e\n      eq\n      tag_3\n      jumpi\n      dup1\n      0xaa228b75\n      eq\n      tag_4\n      jumpi\n      dup1\n      0xe7c898ef\n      eq\n      tag_5\n      jumpi\n      dup1\n      0xfc0e6008\n      eq\n      tag_6\n      jumpi\n    tag_2:\n      0x00\n      dup1\n      revert\n        /* \"loop/loop.sol\":112:250  function doWhileLoop() public {... */\n    tag_3:\n      tag_7\n      tag_8\n      jump\t// in\n    tag_7:\n      stop\n        /* \"loop/loop.sol\":87:105  uint [] public num */\n    tag_4:\n      tag_9\n      0x04\n      dup1\n      calldatasize\n      sub\n      dup2\n      add\n      swap1\n      tag_10\n      swap2\n      swap1\n      tag_11\n      jump\t// in\n    tag_10:\n      tag_12\n      jump\t// in\n    tag_9:\n      mload(0x40)\n      tag_13\n      swap2\n      swap1\n      tag_14\n      jump\t// in\n    tag_13:\n      mload(0x40)\n      dup1\n      swap2\n      sub\n      swap1\n      return\n        /* \"loop/loop.sol\":256:394  function whileLoop() public  {... */\n    tag_5:\n      tag_15\n      tag_16\n      jump\t// in\n    tag_15:\n      stop\n        /* \"loop/loop.sol\":400:507  function forLoop() public {... */\n    tag_6:\n      tag_17\n      tag_18\n      jump\t// in\n    tag_17:\n      stop\n        /* \"loop/loop.sol\":112:250  function doWhileLoop() public {... */\n    tag_8:\n        /* \"loop/loop.sol\":152:158  uint x */\n      0x00\n        /* \"loop/loop.sol\":172:244  do {... */\n    tag_20:\n        /* \"loop/loop.sol\":189:192  num */\n      0x00\n        /* \"loop/loop.sol\":198:199  x */\n      dup2\n        /* \"loop/loop.sol\":189:200  num.push(x) */\n      swap1\n      dup1\n      0x01\n      dup2\n      sload\n      add\n      dup1\n      dup3\n      sstore\n      dup1\n      swap2\n      pop\n      pop\n      0x01\n      swap1\n      sub\n      swap1\n      0x00\n      mstore\n      keccak256(0x00, 0x20)\n      add\n      0x00\n      swap1\n      swap2\n      swap1\n      swap2\n      swap1\n      swap2\n      pop\n      sstore\n        /* \"loop/loop.sol\":214:217  x++ */\n      dup1\n      dup1\n      tag_24\n      swap1\n      tag_25\n      jump\t// in\n    tag_24:\n      swap2\n      pop\n      pop\n        /* \"loop/loop.sol\":241:242  5 */\n      0x05\n        /* \"loop/loop.sol\":236:237  x */\n      dup2\n        /* \"loop/loop.sol\":236:242  x != 5 */\n      sub\n        /* \"loop/loop.sol\":172:244  do {... */\n      tag_20\n      jumpi\n        /* \"loop/loop.sol\":142:250  {... */\n      pop\n        /* \"loop/loop.sol\":112:250  function doWhileLoop() public {... */\n      jump\t// out\n        /* \"loop/loop.sol\":87:105  uint [] public num */\n    tag_12:\n      0x00\n      dup2\n      dup2\n      sload\n      dup2\n      lt\n      tag_26\n      jumpi\n      0x00\n      dup1\n      revert\n    tag_26:\n      swap1\n      0x00\n      mstore\n      keccak256(0x00, 0x20)\n      add\n      0x00\n      swap2\n      pop\n      swap1\n      pop\n      sload\n      dup2\n      jump\t// out\n        /* \"loop/loop.sol\":256:394  function whileLoop() public  {... */\n    tag_16:\n        /* \"loop/loop.sol\":295:301  uint x */\n      0x00\n        /* \"loop/loop.sol\":316:388  while (x != 5) {... */\n    tag_29:\n        /* \"loop/loop.sol\":328:329  5 */\n      0x05\n        /* \"loop/loop.sol\":323:324  x */\n      dup2\n        /* \"loop/loop.sol\":323:329  x != 5 */\n      eq\n        /* \"loop/loop.sol\":316:388  while (x != 5) {... */\n      tag_30\n      jumpi\n        /* \"loop/loop.sol\":345:348  num */\n      0x00\n        /* \"loop/loop.sol\":358:359  2 */\n      0x02\n        /* \"loop/loop.sol\":354:355  x */\n      dup3\n        /* \"loop/loop.sol\":354:359  x * 2 */\n      tag_31\n      swap2\n      swap1\n      tag_32\n      jump\t// in\n    tag_31:\n        /* \"loop/loop.sol\":345:360  num.push(x * 2) */\n      swap1\n      dup1\n      0x01\n      dup2\n      sload\n      add\n      dup1\n      dup3\n      sstore\n      dup1\n      swap2\n      pop\n      pop\n      0x01\n      swap1\n      sub\n      swap1\n      0x00\n      mstore\n      keccak256(0x00, 0x20)\n      add\n      0x00\n      swap1\n      swap2\n      swap1\n      swap2\n      swap1\n      swap2\n      pop\n      sstore\n        /* \"loop/loop.sol\":374:377  x++ */\n      dup1\n      dup1\n      tag_34\n      swap1\n      tag_25\n      jump\t// in\n    tag_34:\n      swap2\n      pop\n      pop\n        /* \"loop/loop.sol\":316:388  while (x != 5) {... */\n      jump(tag_29)\n    tag_30:\n        /* \"loop/loop.sol\":285:394  {... */\n      pop\n        /* \"loop/loop.sol\":256:394  function whileLoop() public  {... */\n      jump\t// out\n        /* \"loop/loop.sol\":400:507  function forLoop() public {... */\n    tag_18:\n        /* \"loop/loop.sol\":441:447  uint i */\n      0x00\n        /* \"loop/loop.sol\":436:501  for (uint i; i < 5; i++) {... */\n    tag_36:\n        /* \"loop/loop.sol\":453:454  5 */\n      0x05\n        /* \"loop/loop.sol\":449:450  i */\n      dup2\n        /* \"loop/loop.sol\":449:454  i < 5 */\n      lt\n        /* \"loop/loop.sol\":436:501  for (uint i; i < 5; i++) {... */\n      iszero\n      tag_37\n      jumpi\n        /* \"loop/loop.sol\":475:478  num */\n      0x00\n        /* \"loop/loop.sol\":488:489  3 */\n      0x03\n        /* \"loop/loop.sol\":484:485  i */\n      dup3\n        /* \"loop/loop.sol\":484:489  i * 3 */\n      tag_39\n      swap2\n      swap1\n      tag_32\n      jump\t// in\n    tag_39:\n        /* \"loop/loop.sol\":475:490  num.push(i * 3) */\n      swap1\n      dup1\n      0x01\n      dup2\n      sload\n      add\n      dup1\n      dup3\n      sstore\n      dup1\n      swap2\n      pop\n      pop\n      0x01\n      swap1\n      sub\n      swap1\n      0x00\n      mstore\n      keccak256(0x00, 0x20)\n      add\n      0x00\n      swap1\n      swap2\n      swap1\n      swap2\n      swap1\n      swap2\n      pop\n      sstore\n        /* \"loop/loop.sol\":456:459  i++ */\n      dup1\n      dup1\n      0x01\n      add\n      swap2\n      pop\n      pop\n        /* \"loop/loop.sol\":436:501  for (uint i; i < 5; i++) {... */\n      jump(tag_36)\n    tag_37:\n      pop\n        /* \"loop/loop.sol\":400:507  function forLoop() public {... */\n      jump\t// out\n        /* \"#utility.yul\":88:205   */\n    tag_42:\n        /* \"#utility.yul\":197:198   */\n      0x00\n        /* \"#utility.yul\":194:195   */\n      dup1\n        /* \"#utility.yul\":187:199   */\n      revert\n        /* \"#utility.yul\":334:411   */\n    tag_44:\n        /* \"#utility.yul\":371:378   */\n      0x00\n        /* \"#utility.yul\":400:405   */\n      dup2\n        /* \"#utility.yul\":389:405   */\n      swap1\n      pop\n        /* \"#utility.yul\":334:411   */\n      swap2\n      swap1\n      pop\n      jump\t// out\n        /* \"#utility.yul\":417:539   */\n    tag_45:\n        /* \"#utility.yul\":490:514   */\n      tag_55\n        /* \"#utility.yul\":508:513   */\n      dup2\n        /* \"#utility.yul\":490:514   */\n      tag_44\n      jump\t// in\n    tag_55:\n        /* \"#utility.yul\":483:488   */\n      dup2\n        /* \"#utility.yul\":480:515   */\n      eq\n        /* \"#utility.yul\":470:533   */\n      tag_56\n      jumpi\n        /* \"#utility.yul\":529:530   */\n      0x00\n        /* \"#utility.yul\":526:527   */\n      dup1\n        /* \"#utility.yul\":519:531   */\n      revert\n        /* \"#utility.yul\":470:533   */\n    tag_56:\n        /* \"#utility.yul\":417:539   */\n      pop\n      jump\t// out\n        /* \"#utility.yul\":545:684   */\n    tag_46:\n        /* \"#utility.yul\":591:596   */\n      0x00\n        /* \"#utility.yul\":629:635   */\n      dup2\n        /* \"#utility.yul\":616:636   */\n      calldataload\n        /* \"#utility.yul\":607:636   */\n      swap1\n      pop\n        /* \"#utility.yul\":645:678   */\n      tag_58\n        /* \"#utility.yul\":672:677   */\n      dup2\n        /* \"#utility.yul\":645:678   */\n      tag_45\n      jump\t// in\n    tag_58:\n        /* \"#utility.yul\":545:684   */\n      swap3\n      swap2\n      pop\n      pop\n      jump\t// out\n        /* \"#utility.yul\":690:1019   */\n    tag_11:\n        /* \"#utility.yul\":749:755   */\n      0x00\n        /* \"#utility.yul\":798:800   */\n      0x20\n        /* \"#utility.yul\":786:795   */\n      dup3\n        /* \"#utility.yul\":777:784   */\n      dup5\n        /* \"#utility.yul\":773:796   */\n      sub\n        /* \"#utility.yul\":769:801   */\n      slt\n        /* \"#utility.yul\":766:885   */\n      iszero\n      tag_60\n      jumpi\n        /* \"#utility.yul\":804:883   */\n      tag_61\n      tag_42\n      jump\t// in\n    tag_61:\n        /* \"#utility.yul\":766:885   */\n    tag_60:\n        /* \"#utility.yul\":924:925   */\n      0x00\n        /* \"#utility.yul\":949:1002   */\n      tag_62\n        /* \"#utility.yul\":994:1001   */\n      dup5\n        /* \"#utility.yul\":985:991   */\n      dup3\n        /* \"#utility.yul\":974:983   */\n      dup6\n        /* \"#utility.yul\":970:992   */\n      add\n        /* \"#utility.yul\":949:1002   */\n      tag_46\n      jump\t// in\n    tag_62:\n        /* \"#utility.yul\":939:1002   */\n      swap2\n      pop\n        /* \"#utility.yul\":895:1012   */\n      pop\n        /* \"#utility.yul\":690:1019   */\n      swap3\n      swap2\n      pop\n      pop\n      jump\t// out\n        /* \"#utility.yul\":1025:1143   */\n    tag_47:\n        /* \"#utility.yul\":1112:1136   */\n      tag_64\n        /* \"#utility.yul\":1130:1135   */\n      dup2\n        /* \"#utility.yul\":1112:1136   */\n      tag_44\n      jump\t// in\n    tag_64:\n        /* \"#utility.yul\":1107:1110   */\n      dup3\n        /* \"#utility.yul\":1100:1137   */\n      mstore\n        /* \"#utility.yul\":1025:1143   */\n      pop\n      pop\n      jump\t// out\n        /* \"#utility.yul\":1149:1371   */\n    tag_14:\n        /* \"#utility.yul\":1242:1246   */\n      0x00\n        /* \"#utility.yul\":1280:1282   */\n      0x20\n        /* \"#utility.yul\":1269:1278   */\n      dup3\n        /* \"#utility.yul\":1265:1283   */\n      add\n        /* \"#utility.yul\":1257:1283   */\n      swap1\n      pop\n        /* \"#utility.yul\":1293:1364   */\n      tag_66\n        /* \"#utility.yul\":1361:1362   */\n      0x00\n        /* \"#utility.yul\":1350:1359   */\n      dup4\n        /* \"#utility.yul\":1346:1363   */\n      add\n        /* \"#utility.yul\":1337:1343   */\n      dup5\n        /* \"#utility.yul\":1293:1364   */\n      tag_47\n      jump\t// in\n    tag_66:\n        /* \"#utility.yul\":1149:1371   */\n      swap3\n      swap2\n      pop\n      pop\n      jump\t// out\n        /* \"#utility.yul\":1377:1557   */\n    tag_48:\n        /* \"#utility.yul\":1425:1502   */\n      0x4e487b7100000000000000000000000000000000000000000000000000000000\n        /* \"#utility.yul\":1422:1423   */\n      0x00\n        /* \"#utility.yul\":1415:1503   */\n      mstore\n        /* \"#utility.yul\":1522:1526   */\n      0x11\n        /* \"#utility.yul\":1519:1520   */\n      0x04\n        /* \"#utility.yul\":1512:1527   */\n      mstore\n        /* \"#utility.yul\":1546:1550   */\n      0x24\n        /* \"#utility.yul\":1543:1544   */\n      0x00\n        /* \"#utility.yul\":1536:1551   */\n      revert\n        /* \"#utility.yul\":1563:1796   */\n    tag_25:\n        /* \"#utility.yul\":1602:1605   */\n      0x00\n        /* \"#utility.yul\":1625:1649   */\n      tag_69\n        /* \"#utility.yul\":1643:1648   */\n      dup3\n        /* \"#utility.yul\":1625:1649   */\n      tag_44\n      jump\t// in\n    tag_69:\n        /* \"#utility.yul\":1616:1649   */\n      swap2\n      pop\n        /* \"#utility.yul\":1671:1737   */\n      0xffffffffffffffffffffffffffffffffffffffffffffffffffffffffffffffff\n        /* \"#utility.yul\":1664:1669   */\n      dup3\n        /* \"#utility.yul\":1661:1738   */\n      sub\n        /* \"#utility.yul\":1658:1761   */\n      tag_70\n      jumpi\n        /* \"#utility.yul\":1741:1759   */\n      tag_71\n      tag_48\n      jump\t// in\n    tag_71:\n        /* \"#utility.yul\":1658:1761   */\n    tag_70:\n        /* \"#utility.yul\":1788:1789   */\n      0x01\n        /* \"#utility.yul\":1781:1786   */\n      dup3\n        /* \"#utility.yul\":1777:1790   */\n      add\n        /* \"#utility.yul\":1770:1790   */\n      swap1\n      pop\n        /* \"#utility.yul\":1563:1796   */\n      swap2\n      swap1\n      pop\n      jump\t// out\n        /* \"#utility.yul\":1802:2212   */\n    tag_32:\n        /* \"#utility.yul\":1842:1849   */\n      0x00\n        /* \"#utility.yul\":1865:1885   */\n      tag_73\n        /* \"#utility.yul\":1883:1884   */\n      dup3\n        /* \"#utility.yul\":1865:1885   */\n      tag_44\n      jump\t// in\n    tag_73:\n        /* \"#utility.yul\":1860:1885   */\n      swap2\n      pop\n        /* \"#utility.yul\":1899:1919   */\n      tag_74\n        /* \"#utility.yul\":1917:1918   */\n      dup4\n        /* \"#utility.yul\":1899:1919   */\n      tag_44\n      jump\t// in\n    tag_74:\n        /* \"#utility.yul\":1894:1919   */\n      swap3\n      pop\n        /* \"#utility.yul\":1954:1955   */\n      dup3\n        /* \"#utility.yul\":1951:1952   */\n      dup3\n        /* \"#utility.yul\":1947:1956   */\n      mul\n        /* \"#utility.yul\":1976:2006   */\n      tag_75\n        /* \"#utility.yul\":1994:2005   */\n      dup2\n        /* \"#utility.yul\":1976:2006   */\n      tag_44\n      jump\t// in\n    tag_75:\n        /* \"#utility.yul\":1965:2006   */\n      swap2\n      pop\n        /* \"#utility.yul\":2155:2156   */\n      dup3\n        /* \"#utility.yul\":2146:2153   */\n      dup3\n        /* \"#utility.yul\":2142:2157   */\n      div\n        /* \"#utility.yul\":2139:2140   */\n      dup5\n        /* \"#utility.yul\":2136:2158   */\n      eq\n        /* \"#utility.yul\":2116:2117   */\n      dup4\n        /* \"#utility.yul\":2109:2118   */\n      iszero\n        /* \"#utility.yul\":2089:2172   */\n      or\n        /* \"#utility.yul\":2066:2205   */\n      tag_76\n      jumpi\n        /* \"#utility.yul\":2185:2203   */\n      tag_77\n      tag_48\n      jump\t// in\n    tag_77:\n        /* \"#utility.yul\":2066:2205   */\n    tag_76:\n        /* \"#utility.yul\":1850:2212   */\n      pop\n        /* \"#utility.yul\":1802:2212   */\n      swap3\n      swap2\n      pop\n      pop\n      jump\t// out\n\n    auxdata: 0xa26469706673582212206e5afe782ca6f0828208d30796c1659790243b3348f349dd7b2feccd152b61f164736f6c634300081a0033\n}\n",
				"bytecode": {
					"linkReferences": {},
					"object": "6080604052348015600e575f80fd5b5061030d8061001c5f395ff3fe608060405234801561000f575f80fd5b506004361061004a575f3560e01c8063174c9c7e1461004e578063aa228b7514610058578063e7c898ef14610088578063fc0e600814610092575b5f80fd5b61005661009c565b005b610072600480360381019061006d91906101cf565b6100dc565b60405161007f9190610209565b60405180910390f35b6100906100fb565b005b61009a61014c565b005b5f5b5f81908060018154018082558091505060019003905f5260205f20015f909190919091505580806100ce9061024f565b9150506005810361009e5750565b5f81815481106100ea575f80fd5b905f5260205f20015f915090505481565b5f5b60058114610149575f6002826101139190610296565b908060018154018082558091505060019003905f5260205f20015f909190919091505580806101419061024f565b9150506100fd565b50565b5f5b6005811015610195575f6003826101659190610296565b908060018154018082558091505060019003905f5260205f20015f9091909190915055808060010191505061014e565b50565b5f80fd5b5f819050919050565b6101ae8161019c565b81146101b8575f80fd5b50565b5f813590506101c9816101a5565b92915050565b5f602082840312156101e4576101e3610198565b5b5f6101f1848285016101bb565b91505092915050565b6102038161019c565b82525050565b5f60208201905061021c5f8301846101fa565b92915050565b7f4e487b71000000000000000000000000000000000000000000000000000000005f52601160045260245ffd5b5f6102598261019c565b91507fffffffffffffffffffffffffffffffffffffffffffffffffffffffffffffffff820361028b5761028a610222565b5b600182019050919050565b5f6102a08261019c565b91506102ab8361019c565b92508282026102b98161019c565b915082820484148315176102d0576102cf610222565b5b509291505056fea26469706673582212206e5afe782ca6f0828208d30796c1659790243b3348f349dd7b2feccd152b61f164736f6c634300081a0033",
					"opcodes": "PUSH1 0x80 PUSH1 0x40 MSTORE CALLVALUE DUP1 ISZERO PUSH1 0xE JUMPI PUSH0 DUP1 REVERT JUMPDEST POP PUSH2 0x30D DUP1 PUSH2 0x1C PUSH0 CODECOPY PUSH0 RETURN INVALID PUSH1 0x80 PUSH1 0x40 MSTORE CALLVALUE DUP1 ISZERO PUSH2 0xF JUMPI PUSH0 DUP1 REVERT JUMPDEST POP PUSH1 0x4 CALLDATASIZE LT PUSH2 0x4A JUMPI PUSH0 CALLDATALOAD PUSH1 0xE0 SHR DUP1 PUSH4 0x174C9C7E EQ PUSH2 0x4E JUMPI DUP1 PUSH4 0xAA228B75 EQ PUSH2 0x58 JUMPI DUP1 PUSH4 0xE7C898EF EQ PUSH2 0x88 JUMPI DUP1 PUSH4 0xFC0E6008 EQ PUSH2 0x92 JUMPI JUMPDEST PUSH0 DUP1 REVERT JUMPDEST PUSH2 0x56 PUSH2 0x9C JUMP JUMPDEST STOP JUMPDEST PUSH2 0x72 PUSH1 0x4 DUP1 CALLDATASIZE SUB DUP2 ADD SWAP1 PUSH2 0x6D SWAP2 SWAP1 PUSH2 0x1CF JUMP JUMPDEST PUSH2 0xDC JUMP JUMPDEST PUSH1 0x40 MLOAD PUSH2 0x7F SWAP2 SWAP1 PUSH2 0x209 JUMP JUMPDEST PUSH1 0x40 MLOAD DUP1 SWAP2 SUB SWAP1 RETURN JUMPDEST PUSH2 0x90 PUSH2 0xFB JUMP JUMPDEST STOP JUMPDEST PUSH2 0x9A PUSH2 0x14C JUMP JUMPDEST STOP JUMPDEST PUSH0 JUMPDEST PUSH0 DUP2 SWAP1 DUP1 PUSH1 0x1 DUP2 SLOAD ADD DUP1 DUP3 SSTORE DUP1 SWAP2 POP POP PUSH1 0x1 SWAP1 SUB SWAP1 PUSH0 MSTORE PUSH1 0x20 PUSH0 KECCAK256 ADD PUSH0 SWAP1 SWAP2 SWAP1 SWAP2 SWAP1 SWAP2 POP SSTORE DUP1 DUP1 PUSH2 0xCE SWAP1 PUSH2 0x24F JUMP JUMPDEST SWAP2 POP POP PUSH1 0x5 DUP2 SUB PUSH2 0x9E JUMPI POP JUMP JUMPDEST PUSH0 DUP2 DUP2 SLOAD DUP2 LT PUSH2 0xEA JUMPI PUSH0 DUP1 REVERT JUMPDEST SWAP1 PUSH0 MSTORE PUSH1 0x20 PUSH0 KECCAK256 ADD PUSH0 SWAP2 POP SWAP1 POP SLOAD DUP2 JUMP JUMPDEST PUSH0 JUMPDEST PUSH1 0x5 DUP2 EQ PUSH2 0x149 JUMPI PUSH0 PUSH1 0x2 DUP3 PUSH2 0x113 SWAP2 SWAP1 PUSH2 0x296 JUMP JUMPDEST SWAP1 DUP1 PUSH1 0x1 DUP2 SLOAD ADD DUP1 DUP3 SSTORE DUP1 SWAP2 POP POP PUSH1 0x1 SWAP1 SUB SWAP1 PUSH0 MSTORE PUSH1 0x20 PUSH0 KECCAK256 ADD PUSH0 SWAP1 SWAP2 SWAP1 SWAP2 SWAP1 SWAP2 POP SSTORE DUP1 DUP1 PUSH2 0x141 SWAP1 PUSH2 0x24F JUMP JUMPDEST SWAP2 POP POP PUSH2 0xFD JUMP JUMPDEST POP JUMP JUMPDEST PUSH0 JUMPDEST PUSH1 0x5 DUP2 LT ISZERO PUSH2 0x195 JUMPI PUSH0 PUSH1 0x3 DUP3 PUSH2 0x165 SWAP2 SWAP1 PUSH2 0x296 JUMP JUMPDEST SWAP1 DUP1 PUSH1 0x1 DUP2 SLOAD ADD DUP1 DUP3 SSTORE DUP1 SWAP2 POP POP PUSH1 0x1 SWAP1 SUB SWAP1 PUSH0 MSTORE PUSH1 0x20 PUSH0 KECCAK256 ADD PUSH0 SWAP1 SWAP2 SWAP1 SWAP2 SWAP1 SWAP2 POP SSTORE DUP1 DUP1 PUSH1 0x1 ADD SWAP2 POP POP PUSH2 0x14E JUMP JUMPDEST POP JUMP JUMPDEST PUSH0 DUP1 REVERT JUMPDEST PUSH0 DUP2 SWAP1 POP SWAP2 SWAP1 POP JUMP JUMPDEST PUSH2 0x1AE DUP2 PUSH2 0x19C JUMP JUMPDEST DUP2 EQ PUSH2 0x1B8 JUMPI PUSH0 DUP1 REVERT JUMPDEST POP JUMP JUMPDEST PUSH0 DUP2 CALLDATALOAD SWAP1 POP PUSH2 0x1C9 DUP2 PUSH2 0x1A5 JUMP JUMPDEST SWAP3 SWAP2 POP POP JUMP JUMPDEST PUSH0 PUSH1 0x20 DUP3 DUP5 SUB SLT ISZERO PUSH2 0x1E4 JUMPI PUSH2 0x1E3 PUSH2 0x198 JUMP JUMPDEST JUMPDEST PUSH0 PUSH2 0x1F1 DUP5 DUP3 DUP6 ADD PUSH2 0x1BB JUMP JUMPDEST SWAP2 POP POP SWAP3 SWAP2 POP POP JUMP JUMPDEST PUSH2 0x203 DUP2 PUSH2 0x19C JUMP JUMPDEST DUP3 MSTORE POP POP JUMP JUMPDEST PUSH0 PUSH1 0x20 DUP3 ADD SWAP1 POP PUSH2 0x21C PUSH0 DUP4 ADD DUP5 PUSH2 0x1FA JUMP JUMPDEST SWAP3 SWAP2 POP POP JUMP JUMPDEST PUSH32 0x4E487B7100000000000000000000000000000000000000000000000000000000 PUSH0 MSTORE PUSH1 0x11 PUSH1 0x4 MSTORE PUSH1 0x24 PUSH0 REVERT JUMPDEST PUSH0 PUSH2 0x259 DUP3 PUSH2 0x19C JUMP JUMPDEST SWAP2 POP PUSH32 0xFFFFFFFFFFFFFFFFFFFFFFFFFFFFFFFFFFFFFFFFFFFFFFFFFFFFFFFFFFFFFFFF DUP3 SUB PUSH2 0x28B JUMPI PUSH2 0x28A PUSH2 0x222 JUMP JUMPDEST JUMPDEST PUSH1 0x1 DUP3 ADD SWAP1 POP SWAP2 SWAP1 POP JUMP JUMPDEST PUSH0 PUSH2 0x2A0 DUP3 PUSH2 0x19C JUMP JUMPDEST SWAP2 POP PUSH2 0x2AB DUP4 PUSH2 0x19C JUMP JUMPDEST SWAP3 POP DUP3 DUP3 MUL PUSH2 0x2B9 DUP2 PUSH2 0x19C JUMP JUMPDEST SWAP2 POP DUP3 DUP3 DIV DUP5 EQ DUP4 ISZERO OR PUSH2 0x2D0 JUMPI PUSH2 0x2CF PUSH2 0x222 JUMP JUMPDEST JUMPDEST POP SWAP3 SWAP2 POP POP JUMP INVALID LOG2 PUSH5 0x6970667358 0x22 SLT KECCAK256 PUSH15 0x5AFE782CA6F0828208D30796C16597 SWAP1 0x24 EXTCODESIZE CALLER BASEFEE RETURN BLOBHASH 0xDD PUSH28 0x2FECCD152B61F164736F6C634300081A003300000000000000000000 "
				},
				"gasEstimates": {
					"creation": {
						"codeDepositCost": "156200",
						"executionCost": "200",
						"totalCost": "156400"
					},
					"external": {
						"doWhileLoop()": "infinite",
						"forLoop()": "infinite",
						"num(uint256)": "infinite",
						"whileLoop()": "infinite"
					}
				},
				"methodIdentifiers": {
					"doWhileLoop()": "174c9c7e",
					"forLoop()": "fc0e6008",
					"num(uint256)": "aa228b75",
					"whileLoop()": "e7c898ef"
				}
			},
			"storageLayout": {
				"storage": [
					{
						"astId": 4,
						"contract": "loop/loop.sol:Loop",
						"label": "num",
						"offset": 0,
						"slot": "0",
						"type": "t_array(t_uint256)dyn_storage"
					}
				],
				"types": {
					"t_array(t_uint256)dyn_storage": {
						"base": "t_uint256",
						"encoding": "dynamic_array",
						"label": "uint256[]",
						"numberOfBytes": "32"
					},
					"t_uint256": {
						"encoding": "inplace",
						"label": "uint256",
						"numberOfBytes": "32"
					}
				}
			},
			"userdoc": {
				"kind": "user",
				"methods": {},
				"version": 1
			}
		}
	}
}