{
	"RandomGame/game.sol": {
		"Random": {
			"abi": [
				{
					"inputs": [
						{
							"internalType": "string",
							"name": "_key1",
							"type": "string"
						},
						{
							"internalType": "uint256",
							"name": "_key2",
							"type": "uint256"
						}
					],
					"stateMutability": "nonpayable",
					"type": "constructor"
				},
				{
					"anonymous": false,
					"inputs": [
						{
							"indexed": true,
							"internalType": "address",
							"name": "sender",
							"type": "address"
						},
						{
							"indexed": false,
							"internalType": "uint256",
							"name": "payment",
							"type": "uint256"
						}
					],
					"name": "paidAddress",
					"type": "event"
				},
				{
					"anonymous": false,
					"inputs": [
						{
							"indexed": true,
							"internalType": "address",
							"name": "winner",
							"type": "address"
						}
					],
					"name": "winnerAddress",
					"type": "event"
				},
				{
					"inputs": [],
					"name": "getBalance",
					"outputs": [
						{
							"internalType": "uint256",
							"name": "",
							"type": "uint256"
						}
					],
					"stateMutability": "view",
					"type": "function"
				},
				{
					"inputs": [],
					"name": "getRound",
					"outputs": [
						{
							"internalType": "uint256",
							"name": "",
							"type": "uint256"
						}
					],
					"stateMutability": "view",
					"type": "function"
				},
				{
					"inputs": [],
					"name": "getSecretKey",
					"outputs": [
						{
							"internalType": "string",
							"name": "_key1",
							"type": "string"
						},
						{
							"internalType": "uint256",
							"name": "_key2",
							"type": "uint256"
						}
					],
					"stateMutability": "view",
					"type": "function"
				},
				{
					"inputs": [],
					"name": "getWinnerNumber",
					"outputs": [
						{
							"internalType": "uint256",
							"name": "",
							"type": "uint256"
						}
					],
					"stateMutability": "view",
					"type": "function"
				},
				{
					"inputs": [],
					"name": "owner",
					"outputs": [
						{
							"internalType": "address",
							"name": "",
							"type": "address"
						}
					],
					"stateMutability": "view",
					"type": "function"
				},
				{
					"inputs": [
						{
							"internalType": "uint256",
							"name": "",
							"type": "uint256"
						},
						{
							"internalType": "address",
							"name": "",
							"type": "address"
						}
					],
					"name": "paidAddressList",
					"outputs": [
						{
							"internalType": "bool",
							"name": "",
							"type": "bool"
						}
					],
					"stateMutability": "view",
					"type": "function"
				},
				{
					"inputs": [],
					"name": "playNumber",
					"outputs": [
						{
							"internalType": "uint256",
							"name": "",
							"type": "uint256"
						}
					],
					"stateMutability": "view",
					"type": "function"
				},
				{
					"inputs": [],
					"name": "round",
					"outputs": [
						{
							"internalType": "uint256",
							"name": "",
							"type": "uint256"
						}
					],
					"stateMutability": "view",
					"type": "function"
				},
				{
					"inputs": [
						{
							"internalType": "string",
							"name": "_key1",
							"type": "string"
						},
						{
							"internalType": "uint256",
							"name": "_key2",
							"type": "uint256"
						}
					],
					"name": "setSecretKey",
					"outputs": [],
					"stateMutability": "nonpayable",
					"type": "function"
				},
				{
					"stateMutability": "payable",
					"type": "receive"
				}
			],
			"devdoc": {
				"kind": "dev",
				"methods": {},
				"version": 1
			},
			"evm": {
				"assembly": "    /* \"RandomGame/game.sol\":67:3708  contract Random {... */\n  mstore(0x40, 0x80)\n    /* \"RandomGame/game.sol\":1150:1151  0 */\n  0x00\n    /* \"RandomGame/game.sol\":1122:1151  uint private winnerNumber = 0 */\n  0x02\n  sstore\n    /* \"RandomGame/game.sol\":1329:1330  1 */\n  0x01\n    /* \"RandomGame/game.sol\":1309:1330  uint public round = 1 */\n  0x05\n  sstore\n    /* \"RandomGame/game.sol\":1411:1412  0 */\n  0x00\n    /* \"RandomGame/game.sol\":1386:1412  uint public playNumber = 0 */\n  0x06\n  sstore\n    /* \"RandomGame/game.sol\":1454:1703  constructor(string memory _key1, uint _key2) ... */\n  callvalue\n  dup1\n  iszero\n  tag_1\n  jumpi\n  0x00\n  dup1\n  revert\ntag_1:\n  pop\n  mload(0x40)\n  sub(codesize, bytecodeSize)\n  dup1\n  bytecodeSize\n  dup4\n  codecopy\n  dup2\n  dup2\n  add\n  0x40\n  mstore\n  dup2\n  add\n  swap1\n  tag_2\n  swap2\n  swap1\n  tag_3\n  jump\t// in\ntag_2:\n    /* \"RandomGame/game.sol\":1522:1532  msg.sender */\n  caller\n    /* \"RandomGame/game.sol\":1514:1519  owner */\n  0x01\n  0x00\n    /* \"RandomGame/game.sol\":1514:1532  owner = msg.sender */\n  0x0100\n  exp\n  dup2\n  sload\n  dup2\n  0xffffffffffffffffffffffffffffffffffffffff\n  mul\n  not\n  and\n  swap1\n  dup4\n  0xffffffffffffffffffffffffffffffffffffffff\n  and\n  mul\n  or\n  swap1\n  sstore\n  pop\n    /* \"RandomGame/game.sol\":1600:1605  _key1 */\n  dup2\n    /* \"RandomGame/game.sol\":1593:1597  key1 */\n  0x03\n    /* \"RandomGame/game.sol\":1593:1605  key1 = _key1 */\n  swap1\n  dup2\n  tag_6\n  swap2\n  swap1\n  tag_7\n  jump\t// in\ntag_6:\n  pop\n    /* \"RandomGame/game.sol\":1622:1627  _key2 */\n  dup1\n    /* \"RandomGame/game.sol\":1615:1619  key2 */\n  0x04\n    /* \"RandomGame/game.sol\":1615:1627  key2 = _key2 */\n  dup2\n  swap1\n  sstore\n  pop\n    /* \"RandomGame/game.sol\":1652:1666  randomNumber() */\n  tag_8\n    /* \"RandomGame/game.sol\":1652:1664  randomNumber */\n  shl(0x20, tag_9)\n    /* \"RandomGame/game.sol\":1652:1666  randomNumber() */\n  0x20\n  shr\n  jump\t// in\ntag_8:\n    /* \"RandomGame/game.sol\":1637:1649  winnerNumber */\n  0x02\n    /* \"RandomGame/game.sol\":1637:1666  winnerNumber = randomNumber() */\n  dup2\n  swap1\n  sstore\n  pop\n    /* \"RandomGame/game.sol\":1454:1703  constructor(string memory _key1, uint _key2) ... */\n  pop\n  pop\n    /* \"RandomGame/game.sol\":67:3708  contract Random {... */\n  jump(tag_10)\n    /* \"RandomGame/game.sol\":2839:3056  function randomNumber()... */\ntag_9:\n    /* \"RandomGame/game.sol\":2897:2901  uint */\n  0x00\n    /* \"RandomGame/game.sol\":2917:2925  uint num */\n  dup1\n    /* \"RandomGame/game.sol\":2992:3004  block.number */\n  number\n    /* \"RandomGame/game.sol\":2972:2987  block.timestamp */\n  timestamp\n    /* \"RandomGame/game.sol\":2964:2968  key2 */\n  sload(0x04)\n    /* \"RandomGame/game.sol\":2954:2958  key1 */\n  0x03\n    /* \"RandomGame/game.sol\":2943:2959  abi.encode(key1) */\n  add(0x20, mload(0x40))\n  tag_12\n  swap2\n  swap1\n  tag_13\n  jump\t// in\ntag_12:\n  mload(0x40)\n  0x20\n  dup2\n  dup4\n  sub\n  sub\n  dup2\n  mstore\n  swap1\n  0x40\n  mstore\n    /* \"RandomGame/game.sol\":2933:2960  keccak256(abi.encode(key1)) */\n  dup1\n  mload\n  swap1\n  0x20\n  add\n  keccak256\n    /* \"RandomGame/game.sol\":2928:2961  uint(keccak256(abi.encode(key1))) */\n  0x00\n  shr\n    /* \"RandomGame/game.sol\":2928:2968  uint(keccak256(abi.encode(key1))) + key2 */\n  tag_14\n  swap2\n  swap1\n  tag_15\n  jump\t// in\ntag_14:\n    /* \"RandomGame/game.sol\":2928:2988  uint(keccak256(abi.encode(key1))) + key2 + (block.timestamp) */\n  tag_16\n  swap2\n  swap1\n  tag_15\n  jump\t// in\ntag_16:\n    /* \"RandomGame/game.sol\":2928:3005  uint(keccak256(abi.encode(key1))) + key2 + (block.timestamp) + (block.number) */\n  tag_17\n  swap2\n  swap1\n  tag_15\n  jump\t// in\ntag_17:\n    /* \"RandomGame/game.sol\":2917:3005  uint num = uint(keccak256(abi.encode(key1))) + key2 + (block.timestamp) + (block.number) */\n  swap1\n  pop\n    /* \"RandomGame/game.sol\":3048:3049  1 */\n  0x01\n    /* \"RandomGame/game.sol\":3042:3044  10 */\n  0x0a\n    /* \"RandomGame/game.sol\":3036:3038  10 */\n  dup1\n    /* \"RandomGame/game.sol\":3030:3033  num */\n  dup4\n    /* \"RandomGame/game.sol\":3030:3038  num / 10 */\n  tag_18\n  swap2\n  swap1\n  tag_19\n  jump\t// in\ntag_18:\n    /* \"RandomGame/game.sol\":3029:3044  (num / 10) * 10 */\n  tag_20\n  swap2\n  swap1\n  tag_21\n  jump\t// in\ntag_20:\n    /* \"RandomGame/game.sol\":3023:3026  num */\n  dup3\n    /* \"RandomGame/game.sol\":3023:3044  num - (num / 10) * 10 */\n  tag_22\n  swap2\n  swap1\n  tag_23\n  jump\t// in\ntag_22:\n    /* \"RandomGame/game.sol\":3022:3049  (num - (num / 10) * 10) + 1 */\n  tag_24\n  swap2\n  swap1\n  tag_15\n  jump\t// in\ntag_24:\n    /* \"RandomGame/game.sol\":3015:3049  return (num - (num / 10) * 10) + 1 */\n  swap2\n  pop\n  pop\n    /* \"RandomGame/game.sol\":2839:3056  function randomNumber()... */\n  swap1\n  jump\t// out\n    /* \"#utility.yul\":7:82   */\ntag_25:\n    /* \"#utility.yul\":40:46   */\n  0x00\n    /* \"#utility.yul\":73:75   */\n  0x40\n    /* \"#utility.yul\":67:76   */\n  mload\n    /* \"#utility.yul\":57:76   */\n  swap1\n  pop\n    /* \"#utility.yul\":7:82   */\n  swap1\n  jump\t// out\n    /* \"#utility.yul\":88:205   */\ntag_26:\n    /* \"#utility.yul\":197:198   */\n  0x00\n    /* \"#utility.yul\":194:195   */\n  dup1\n    /* \"#utility.yul\":187:199   */\n  revert\n    /* \"#utility.yul\":211:328   */\ntag_27:\n    /* \"#utility.yul\":320:321   */\n  0x00\n    /* \"#utility.yul\":317:318   */\n  dup1\n    /* \"#utility.yul\":310:322   */\n  revert\n    /* \"#utility.yul\":334:451   */\ntag_28:\n    /* \"#utility.yul\":443:444   */\n  0x00\n    /* \"#utility.yul\":440:441   */\n  dup1\n    /* \"#utility.yul\":433:445   */\n  revert\n    /* \"#utility.yul\":457:574   */\ntag_29:\n    /* \"#utility.yul\":566:567   */\n  0x00\n    /* \"#utility.yul\":563:564   */\n  dup1\n    /* \"#utility.yul\":556:568   */\n  revert\n    /* \"#utility.yul\":580:682   */\ntag_30:\n    /* \"#utility.yul\":621:627   */\n  0x00\n    /* \"#utility.yul\":672:674   */\n  0x1f\n    /* \"#utility.yul\":668:675   */\n  not\n    /* \"#utility.yul\":663:665   */\n  0x1f\n    /* \"#utility.yul\":656:661   */\n  dup4\n    /* \"#utility.yul\":652:666   */\n  add\n    /* \"#utility.yul\":648:676   */\n  and\n    /* \"#utility.yul\":638:676   */\n  swap1\n  pop\n    /* \"#utility.yul\":580:682   */\n  swap2\n  swap1\n  pop\n  jump\t// out\n    /* \"#utility.yul\":688:868   */\ntag_31:\n    /* \"#utility.yul\":736:813   */\n  0x4e487b7100000000000000000000000000000000000000000000000000000000\n    /* \"#utility.yul\":733:734   */\n  0x00\n    /* \"#utility.yul\":726:814   */\n  mstore\n    /* \"#utility.yul\":833:837   */\n  0x41\n    /* \"#utility.yul\":830:831   */\n  0x04\n    /* \"#utility.yul\":823:838   */\n  mstore\n    /* \"#utility.yul\":857:861   */\n  0x24\n    /* \"#utility.yul\":854:855   */\n  0x00\n    /* \"#utility.yul\":847:862   */\n  revert\n    /* \"#utility.yul\":874:1155   */\ntag_32:\n    /* \"#utility.yul\":957:984   */\n  tag_72\n    /* \"#utility.yul\":979:983   */\n  dup3\n    /* \"#utility.yul\":957:984   */\n  tag_30\n  jump\t// in\ntag_72:\n    /* \"#utility.yul\":949:955   */\n  dup2\n    /* \"#utility.yul\":945:985   */\n  add\n    /* \"#utility.yul\":1087:1093   */\n  dup2\n    /* \"#utility.yul\":1075:1085   */\n  dup2\n    /* \"#utility.yul\":1072:1094   */\n  lt\n    /* \"#utility.yul\":1051:1069   */\n  0xffffffffffffffff\n    /* \"#utility.yul\":1039:1049   */\n  dup3\n    /* \"#utility.yul\":1036:1070   */\n  gt\n    /* \"#utility.yul\":1033:1095   */\n  or\n    /* \"#utility.yul\":1030:1118   */\n  iszero\n  tag_73\n  jumpi\n    /* \"#utility.yul\":1098:1116   */\n  tag_74\n  tag_31\n  jump\t// in\ntag_74:\n    /* \"#utility.yul\":1030:1118   */\ntag_73:\n    /* \"#utility.yul\":1138:1148   */\n  dup1\n    /* \"#utility.yul\":1134:1136   */\n  0x40\n    /* \"#utility.yul\":1127:1149   */\n  mstore\n    /* \"#utility.yul\":917:1155   */\n  pop\n    /* \"#utility.yul\":874:1155   */\n  pop\n  pop\n  jump\t// out\n    /* \"#utility.yul\":1161:1290   */\ntag_33:\n    /* \"#utility.yul\":1195:1201   */\n  0x00\n    /* \"#utility.yul\":1222:1242   */\n  tag_76\n  tag_25\n  jump\t// in\ntag_76:\n    /* \"#utility.yul\":1212:1242   */\n  swap1\n  pop\n    /* \"#utility.yul\":1251:1284   */\n  tag_77\n    /* \"#utility.yul\":1279:1283   */\n  dup3\n    /* \"#utility.yul\":1271:1277   */\n  dup3\n    /* \"#utility.yul\":1251:1284   */\n  tag_32\n  jump\t// in\ntag_77:\n    /* \"#utility.yul\":1161:1290   */\n  swap2\n  swap1\n  pop\n  jump\t// out\n    /* \"#utility.yul\":1296:1604   */\ntag_34:\n    /* \"#utility.yul\":1358:1362   */\n  0x00\n    /* \"#utility.yul\":1448:1466   */\n  0xffffffffffffffff\n    /* \"#utility.yul\":1440:1446   */\n  dup3\n    /* \"#utility.yul\":1437:1467   */\n  gt\n    /* \"#utility.yul\":1434:1490   */\n  iszero\n  tag_79\n  jumpi\n    /* \"#utility.yul\":1470:1488   */\n  tag_80\n  tag_31\n  jump\t// in\ntag_80:\n    /* \"#utility.yul\":1434:1490   */\ntag_79:\n    /* \"#utility.yul\":1508:1537   */\n  tag_81\n    /* \"#utility.yul\":1530:1536   */\n  dup3\n    /* \"#utility.yul\":1508:1537   */\n  tag_30\n  jump\t// in\ntag_81:\n    /* \"#utility.yul\":1500:1537   */\n  swap1\n  pop\n    /* \"#utility.yul\":1592:1596   */\n  0x20\n    /* \"#utility.yul\":1586:1590   */\n  dup2\n    /* \"#utility.yul\":1582:1597   */\n  add\n    /* \"#utility.yul\":1574:1597   */\n  swap1\n  pop\n    /* \"#utility.yul\":1296:1604   */\n  swap2\n  swap1\n  pop\n  jump\t// out\n    /* \"#utility.yul\":1610:1749   */\ntag_35:\n    /* \"#utility.yul\":1699:1705   */\n  dup3\n    /* \"#utility.yul\":1694:1697   */\n  dup2\n    /* \"#utility.yul\":1689:1692   */\n  dup4\n    /* \"#utility.yul\":1683:1706   */\n  mcopy\n    /* \"#utility.yul\":1740:1741   */\n  0x00\n    /* \"#utility.yul\":1731:1737   */\n  dup4\n    /* \"#utility.yul\":1726:1729   */\n  dup4\n    /* \"#utility.yul\":1722:1738   */\n  add\n    /* \"#utility.yul\":1715:1742   */\n  mstore\n    /* \"#utility.yul\":1610:1749   */\n  pop\n  pop\n  pop\n  jump\t// out\n    /* \"#utility.yul\":1755:2189   */\ntag_36:\n    /* \"#utility.yul\":1844:1849   */\n  0x00\n    /* \"#utility.yul\":1869:1935   */\n  tag_84\n    /* \"#utility.yul\":1885:1934   */\n  tag_85\n    /* \"#utility.yul\":1927:1933   */\n  dup5\n    /* \"#utility.yul\":1885:1934   */\n  tag_34\n  jump\t// in\ntag_85:\n    /* \"#utility.yul\":1869:1935   */\n  tag_33\n  jump\t// in\ntag_84:\n    /* \"#utility.yul\":1860:1935   */\n  swap1\n  pop\n    /* \"#utility.yul\":1958:1964   */\n  dup3\n    /* \"#utility.yul\":1951:1956   */\n  dup2\n    /* \"#utility.yul\":1944:1965   */\n  mstore\n    /* \"#utility.yul\":1996:2000   */\n  0x20\n    /* \"#utility.yul\":1989:1994   */\n  dup2\n    /* \"#utility.yul\":1985:2001   */\n  add\n    /* \"#utility.yul\":2034:2037   */\n  dup5\n    /* \"#utility.yul\":2025:2031   */\n  dup5\n    /* \"#utility.yul\":2020:2023   */\n  dup5\n    /* \"#utility.yul\":2016:2032   */\n  add\n    /* \"#utility.yul\":2013:2038   */\n  gt\n    /* \"#utility.yul\":2010:2122   */\n  iszero\n  tag_86\n  jumpi\n    /* \"#utility.yul\":2041:2120   */\n  tag_87\n  tag_29\n  jump\t// in\ntag_87:\n    /* \"#utility.yul\":2010:2122   */\ntag_86:\n    /* \"#utility.yul\":2131:2183   */\n  tag_88\n    /* \"#utility.yul\":2176:2182   */\n  dup5\n    /* \"#utility.yul\":2171:2174   */\n  dup3\n    /* \"#utility.yul\":2166:2169   */\n  dup6\n    /* \"#utility.yul\":2131:2183   */\n  tag_35\n  jump\t// in\ntag_88:\n    /* \"#utility.yul\":1850:2189   */\n  pop\n    /* \"#utility.yul\":1755:2189   */\n  swap4\n  swap3\n  pop\n  pop\n  pop\n  jump\t// out\n    /* \"#utility.yul\":2209:2564   */\ntag_37:\n    /* \"#utility.yul\":2276:2281   */\n  0x00\n    /* \"#utility.yul\":2325:2328   */\n  dup3\n    /* \"#utility.yul\":2318:2322   */\n  0x1f\n    /* \"#utility.yul\":2310:2316   */\n  dup4\n    /* \"#utility.yul\":2306:2323   */\n  add\n    /* \"#utility.yul\":2302:2329   */\n  slt\n    /* \"#utility.yul\":2292:2414   */\n  tag_90\n  jumpi\n    /* \"#utility.yul\":2333:2412   */\n  tag_91\n  tag_28\n  jump\t// in\ntag_91:\n    /* \"#utility.yul\":2292:2414   */\ntag_90:\n    /* \"#utility.yul\":2443:2449   */\n  dup2\n    /* \"#utility.yul\":2437:2450   */\n  mload\n    /* \"#utility.yul\":2468:2558   */\n  tag_92\n    /* \"#utility.yul\":2554:2557   */\n  dup5\n    /* \"#utility.yul\":2546:2552   */\n  dup3\n    /* \"#utility.yul\":2539:2543   */\n  0x20\n    /* \"#utility.yul\":2531:2537   */\n  dup7\n    /* \"#utility.yul\":2527:2544   */\n  add\n    /* \"#utility.yul\":2468:2558   */\n  tag_36\n  jump\t// in\ntag_92:\n    /* \"#utility.yul\":2459:2558   */\n  swap2\n  pop\n    /* \"#utility.yul\":2282:2564   */\n  pop\n    /* \"#utility.yul\":2209:2564   */\n  swap3\n  swap2\n  pop\n  pop\n  jump\t// out\n    /* \"#utility.yul\":2570:2647   */\ntag_38:\n    /* \"#utility.yul\":2607:2614   */\n  0x00\n    /* \"#utility.yul\":2636:2641   */\n  dup2\n    /* \"#utility.yul\":2625:2641   */\n  swap1\n  pop\n    /* \"#utility.yul\":2570:2647   */\n  swap2\n  swap1\n  pop\n  jump\t// out\n    /* \"#utility.yul\":2653:2775   */\ntag_39:\n    /* \"#utility.yul\":2726:2750   */\n  tag_95\n    /* \"#utility.yul\":2744:2749   */\n  dup2\n    /* \"#utility.yul\":2726:2750   */\n  tag_38\n  jump\t// in\ntag_95:\n    /* \"#utility.yul\":2719:2724   */\n  dup2\n    /* \"#utility.yul\":2716:2751   */\n  eq\n    /* \"#utility.yul\":2706:2769   */\n  tag_96\n  jumpi\n    /* \"#utility.yul\":2765:2766   */\n  0x00\n    /* \"#utility.yul\":2762:2763   */\n  dup1\n    /* \"#utility.yul\":2755:2767   */\n  revert\n    /* \"#utility.yul\":2706:2769   */\ntag_96:\n    /* \"#utility.yul\":2653:2775   */\n  pop\n  jump\t// out\n    /* \"#utility.yul\":2781:2924   */\ntag_40:\n    /* \"#utility.yul\":2838:2843   */\n  0x00\n    /* \"#utility.yul\":2869:2875   */\n  dup2\n    /* \"#utility.yul\":2863:2876   */\n  mload\n    /* \"#utility.yul\":2854:2876   */\n  swap1\n  pop\n    /* \"#utility.yul\":2885:2918   */\n  tag_98\n    /* \"#utility.yul\":2912:2917   */\n  dup2\n    /* \"#utility.yul\":2885:2918   */\n  tag_39\n  jump\t// in\ntag_98:\n    /* \"#utility.yul\":2781:2924   */\n  swap3\n  swap2\n  pop\n  pop\n  jump\t// out\n    /* \"#utility.yul\":2930:3610   */\ntag_3:\n    /* \"#utility.yul\":3019:3025   */\n  0x00\n    /* \"#utility.yul\":3027:3033   */\n  dup1\n    /* \"#utility.yul\":3076:3078   */\n  0x40\n    /* \"#utility.yul\":3064:3073   */\n  dup4\n    /* \"#utility.yul\":3055:3062   */\n  dup6\n    /* \"#utility.yul\":3051:3074   */\n  sub\n    /* \"#utility.yul\":3047:3079   */\n  slt\n    /* \"#utility.yul\":3044:3163   */\n  iszero\n  tag_100\n  jumpi\n    /* \"#utility.yul\":3082:3161   */\n  tag_101\n  tag_26\n  jump\t// in\ntag_101:\n    /* \"#utility.yul\":3044:3163   */\ntag_100:\n    /* \"#utility.yul\":3223:3224   */\n  0x00\n    /* \"#utility.yul\":3212:3221   */\n  dup4\n    /* \"#utility.yul\":3208:3225   */\n  add\n    /* \"#utility.yul\":3202:3226   */\n  mload\n    /* \"#utility.yul\":3253:3271   */\n  0xffffffffffffffff\n    /* \"#utility.yul\":3245:3251   */\n  dup2\n    /* \"#utility.yul\":3242:3272   */\n  gt\n    /* \"#utility.yul\":3239:3356   */\n  iszero\n  tag_102\n  jumpi\n    /* \"#utility.yul\":3275:3354   */\n  tag_103\n  tag_27\n  jump\t// in\ntag_103:\n    /* \"#utility.yul\":3239:3356   */\ntag_102:\n    /* \"#utility.yul\":3380:3454   */\n  tag_104\n    /* \"#utility.yul\":3446:3453   */\n  dup6\n    /* \"#utility.yul\":3437:3443   */\n  dup3\n    /* \"#utility.yul\":3426:3435   */\n  dup7\n    /* \"#utility.yul\":3422:3444   */\n  add\n    /* \"#utility.yul\":3380:3454   */\n  tag_37\n  jump\t// in\ntag_104:\n    /* \"#utility.yul\":3370:3454   */\n  swap3\n  pop\n    /* \"#utility.yul\":3173:3464   */\n  pop\n    /* \"#utility.yul\":3503:3505   */\n  0x20\n    /* \"#utility.yul\":3529:3593   */\n  tag_105\n    /* \"#utility.yul\":3585:3592   */\n  dup6\n    /* \"#utility.yul\":3576:3582   */\n  dup3\n    /* \"#utility.yul\":3565:3574   */\n  dup7\n    /* \"#utility.yul\":3561:3583   */\n  add\n    /* \"#utility.yul\":3529:3593   */\n  tag_40\n  jump\t// in\ntag_105:\n    /* \"#utility.yul\":3519:3593   */\n  swap2\n  pop\n    /* \"#utility.yul\":3474:3603   */\n  pop\n    /* \"#utility.yul\":2930:3610   */\n  swap3\n  pop\n  swap3\n  swap1\n  pop\n  jump\t// out\n    /* \"#utility.yul\":3616:3715   */\ntag_41:\n    /* \"#utility.yul\":3668:3674   */\n  0x00\n    /* \"#utility.yul\":3702:3707   */\n  dup2\n    /* \"#utility.yul\":3696:3708   */\n  mload\n    /* \"#utility.yul\":3686:3708   */\n  swap1\n  pop\n    /* \"#utility.yul\":3616:3715   */\n  swap2\n  swap1\n  pop\n  jump\t// out\n    /* \"#utility.yul\":3721:3901   */\ntag_42:\n    /* \"#utility.yul\":3769:3846   */\n  0x4e487b7100000000000000000000000000000000000000000000000000000000\n    /* \"#utility.yul\":3766:3767   */\n  0x00\n    /* \"#utility.yul\":3759:3847   */\n  mstore\n    /* \"#utility.yul\":3866:3870   */\n  0x22\n    /* \"#utility.yul\":3863:3864   */\n  0x04\n    /* \"#utility.yul\":3856:3871   */\n  mstore\n    /* \"#utility.yul\":3890:3894   */\n  0x24\n    /* \"#utility.yul\":3887:3888   */\n  0x00\n    /* \"#utility.yul\":3880:3895   */\n  revert\n    /* \"#utility.yul\":3907:4227   */\ntag_43:\n    /* \"#utility.yul\":3951:3957   */\n  0x00\n    /* \"#utility.yul\":3988:3989   */\n  0x02\n    /* \"#utility.yul\":3982:3986   */\n  dup3\n    /* \"#utility.yul\":3978:3990   */\n  div\n    /* \"#utility.yul\":3968:3990   */\n  swap1\n  pop\n    /* \"#utility.yul\":4035:4036   */\n  0x01\n    /* \"#utility.yul\":4029:4033   */\n  dup3\n    /* \"#utility.yul\":4025:4037   */\n  and\n    /* \"#utility.yul\":4056:4074   */\n  dup1\n    /* \"#utility.yul\":4046:4127   */\n  tag_109\n  jumpi\n    /* \"#utility.yul\":4112:4116   */\n  0x7f\n    /* \"#utility.yul\":4104:4110   */\n  dup3\n    /* \"#utility.yul\":4100:4117   */\n  and\n    /* \"#utility.yul\":4090:4117   */\n  swap2\n  pop\n    /* \"#utility.yul\":4046:4127   */\ntag_109:\n    /* \"#utility.yul\":4174:4176   */\n  0x20\n    /* \"#utility.yul\":4166:4172   */\n  dup3\n    /* \"#utility.yul\":4163:4177   */\n  lt\n    /* \"#utility.yul\":4143:4161   */\n  dup2\n    /* \"#utility.yul\":4140:4178   */\n  sub\n    /* \"#utility.yul\":4137:4221   */\n  tag_110\n  jumpi\n    /* \"#utility.yul\":4193:4211   */\n  tag_111\n  tag_42\n  jump\t// in\ntag_111:\n    /* \"#utility.yul\":4137:4221   */\ntag_110:\n    /* \"#utility.yul\":3958:4227   */\n  pop\n    /* \"#utility.yul\":3907:4227   */\n  swap2\n  swap1\n  pop\n  jump\t// out\n    /* \"#utility.yul\":4233:4374   */\ntag_44:\n    /* \"#utility.yul\":4282:4286   */\n  0x00\n    /* \"#utility.yul\":4305:4308   */\n  dup2\n    /* \"#utility.yul\":4297:4308   */\n  swap1\n  pop\n    /* \"#utility.yul\":4328:4331   */\n  dup2\n    /* \"#utility.yul\":4325:4326   */\n  0x00\n    /* \"#utility.yul\":4318:4332   */\n  mstore\n    /* \"#utility.yul\":4362:4366   */\n  0x20\n    /* \"#utility.yul\":4359:4360   */\n  0x00\n    /* \"#utility.yul\":4349:4367   */\n  keccak256\n    /* \"#utility.yul\":4341:4367   */\n  swap1\n  pop\n    /* \"#utility.yul\":4233:4374   */\n  swap2\n  swap1\n  pop\n  jump\t// out\n    /* \"#utility.yul\":4380:4473   */\ntag_45:\n    /* \"#utility.yul\":4417:4423   */\n  0x00\n    /* \"#utility.yul\":4464:4466   */\n  0x20\n    /* \"#utility.yul\":4459:4461   */\n  0x1f\n    /* \"#utility.yul\":4452:4457   */\n  dup4\n    /* \"#utility.yul\":4448:4462   */\n  add\n    /* \"#utility.yul\":4444:4467   */\n  div\n    /* \"#utility.yul\":4434:4467   */\n  swap1\n  pop\n    /* \"#utility.yul\":4380:4473   */\n  swap2\n  swap1\n  pop\n  jump\t// out\n    /* \"#utility.yul\":4479:4586   */\ntag_46:\n    /* \"#utility.yul\":4523:4531   */\n  0x00\n    /* \"#utility.yul\":4573:4578   */\n  dup3\n    /* \"#utility.yul\":4567:4571   */\n  dup3\n    /* \"#utility.yul\":4563:4579   */\n  shl\n    /* \"#utility.yul\":4542:4579   */\n  swap1\n  pop\n    /* \"#utility.yul\":4479:4586   */\n  swap3\n  swap2\n  pop\n  pop\n  jump\t// out\n    /* \"#utility.yul\":4592:4985   */\ntag_47:\n    /* \"#utility.yul\":4661:4667   */\n  0x00\n    /* \"#utility.yul\":4711:4712   */\n  0x08\n    /* \"#utility.yul\":4699:4709   */\n  dup4\n    /* \"#utility.yul\":4695:4713   */\n  mul\n    /* \"#utility.yul\":4734:4831   */\n  tag_116\n    /* \"#utility.yul\":4764:4830   */\n  0xffffffffffffffffffffffffffffffffffffffffffffffffffffffffffffffff\n    /* \"#utility.yul\":4753:4762   */\n  dup3\n    /* \"#utility.yul\":4734:4831   */\n  tag_46\n  jump\t// in\ntag_116:\n    /* \"#utility.yul\":4852:4891   */\n  tag_117\n    /* \"#utility.yul\":4882:4890   */\n  dup7\n    /* \"#utility.yul\":4871:4880   */\n  dup4\n    /* \"#utility.yul\":4852:4891   */\n  tag_46\n  jump\t// in\ntag_117:\n    /* \"#utility.yul\":4840:4891   */\n  swap6\n  pop\n    /* \"#utility.yul\":4924:4928   */\n  dup1\n    /* \"#utility.yul\":4920:4929   */\n  not\n    /* \"#utility.yul\":4913:4918   */\n  dup5\n    /* \"#utility.yul\":4909:4930   */\n  and\n    /* \"#utility.yul\":4900:4930   */\n  swap4\n  pop\n    /* \"#utility.yul\":4973:4977   */\n  dup1\n    /* \"#utility.yul\":4963:4971   */\n  dup7\n    /* \"#utility.yul\":4959:4978   */\n  and\n    /* \"#utility.yul\":4952:4957   */\n  dup5\n    /* \"#utility.yul\":4949:4979   */\n  or\n    /* \"#utility.yul\":4939:4979   */\n  swap3\n  pop\n    /* \"#utility.yul\":4668:4985   */\n  pop\n  pop\n    /* \"#utility.yul\":4592:4985   */\n  swap4\n  swap3\n  pop\n  pop\n  pop\n  jump\t// out\n    /* \"#utility.yul\":4991:5051   */\ntag_48:\n    /* \"#utility.yul\":5019:5022   */\n  0x00\n    /* \"#utility.yul\":5040:5045   */\n  dup2\n    /* \"#utility.yul\":5033:5045   */\n  swap1\n  pop\n    /* \"#utility.yul\":4991:5051   */\n  swap2\n  swap1\n  pop\n  jump\t// out\n    /* \"#utility.yul\":5057:5199   */\ntag_49:\n    /* \"#utility.yul\":5107:5116   */\n  0x00\n    /* \"#utility.yul\":5140:5193   */\n  tag_120\n    /* \"#utility.yul\":5158:5192   */\n  tag_121\n    /* \"#utility.yul\":5167:5191   */\n  tag_122\n    /* \"#utility.yul\":5185:5190   */\n  dup5\n    /* \"#utility.yul\":5167:5191   */\n  tag_38\n  jump\t// in\ntag_122:\n    /* \"#utility.yul\":5158:5192   */\n  tag_48\n  jump\t// in\ntag_121:\n    /* \"#utility.yul\":5140:5193   */\n  tag_38\n  jump\t// in\ntag_120:\n    /* \"#utility.yul\":5127:5193   */\n  swap1\n  pop\n    /* \"#utility.yul\":5057:5199   */\n  swap2\n  swap1\n  pop\n  jump\t// out\n    /* \"#utility.yul\":5205:5280   */\ntag_50:\n    /* \"#utility.yul\":5248:5251   */\n  0x00\n    /* \"#utility.yul\":5269:5274   */\n  dup2\n    /* \"#utility.yul\":5262:5274   */\n  swap1\n  pop\n    /* \"#utility.yul\":5205:5280   */\n  swap2\n  swap1\n  pop\n  jump\t// out\n    /* \"#utility.yul\":5286:5555   */\ntag_51:\n    /* \"#utility.yul\":5396:5435   */\n  tag_125\n    /* \"#utility.yul\":5427:5434   */\n  dup4\n    /* \"#utility.yul\":5396:5435   */\n  tag_49\n  jump\t// in\ntag_125:\n    /* \"#utility.yul\":5457:5548   */\n  tag_126\n    /* \"#utility.yul\":5506:5547   */\n  tag_127\n    /* \"#utility.yul\":5530:5546   */\n  dup3\n    /* \"#utility.yul\":5506:5547   */\n  tag_50\n  jump\t// in\ntag_127:\n    /* \"#utility.yul\":5498:5504   */\n  dup5\n    /* \"#utility.yul\":5491:5495   */\n  dup5\n    /* \"#utility.yul\":5485:5496   */\n  sload\n    /* \"#utility.yul\":5457:5548   */\n  tag_47\n  jump\t// in\ntag_126:\n    /* \"#utility.yul\":5451:5455   */\n  dup3\n    /* \"#utility.yul\":5444:5549   */\n  sstore\n    /* \"#utility.yul\":5362:5555   */\n  pop\n    /* \"#utility.yul\":5286:5555   */\n  pop\n  pop\n  pop\n  jump\t// out\n    /* \"#utility.yul\":5561:5634   */\ntag_52:\n    /* \"#utility.yul\":5606:5609   */\n  0x00\n    /* \"#utility.yul\":5561:5634   */\n  swap1\n  jump\t// out\n    /* \"#utility.yul\":5640:5829   */\ntag_53:\n    /* \"#utility.yul\":5717:5749   */\n  tag_130\n  tag_52\n  jump\t// in\ntag_130:\n    /* \"#utility.yul\":5758:5823   */\n  tag_131\n    /* \"#utility.yul\":5816:5822   */\n  dup2\n    /* \"#utility.yul\":5808:5814   */\n  dup5\n    /* \"#utility.yul\":5802:5806   */\n  dup5\n    /* \"#utility.yul\":5758:5823   */\n  tag_51\n  jump\t// in\ntag_131:\n    /* \"#utility.yul\":5693:5829   */\n  pop\n    /* \"#utility.yul\":5640:5829   */\n  pop\n  pop\n  jump\t// out\n    /* \"#utility.yul\":5835:6021   */\ntag_54:\n    /* \"#utility.yul\":5895:6015   */\ntag_133:\n    /* \"#utility.yul\":5912:5915   */\n  dup2\n    /* \"#utility.yul\":5905:5910   */\n  dup2\n    /* \"#utility.yul\":5902:5916   */\n  lt\n    /* \"#utility.yul\":5895:6015   */\n  iszero\n  tag_135\n  jumpi\n    /* \"#utility.yul\":5966:6005   */\n  tag_136\n    /* \"#utility.yul\":6003:6004   */\n  0x00\n    /* \"#utility.yul\":5996:6001   */\n  dup3\n    /* \"#utility.yul\":5966:6005   */\n  tag_53\n  jump\t// in\ntag_136:\n    /* \"#utility.yul\":5939:5940   */\n  0x01\n    /* \"#utility.yul\":5932:5937   */\n  dup2\n    /* \"#utility.yul\":5928:5941   */\n  add\n    /* \"#utility.yul\":5919:5941   */\n  swap1\n  pop\n    /* \"#utility.yul\":5895:6015   */\n  jump(tag_133)\ntag_135:\n    /* \"#utility.yul\":5835:6021   */\n  pop\n  pop\n  jump\t// out\n    /* \"#utility.yul\":6027:6570   */\ntag_55:\n    /* \"#utility.yul\":6128:6130   */\n  0x1f\n    /* \"#utility.yul\":6123:6126   */\n  dup3\n    /* \"#utility.yul\":6120:6131   */\n  gt\n    /* \"#utility.yul\":6117:6563   */\n  iszero\n  tag_138\n  jumpi\n    /* \"#utility.yul\":6162:6200   */\n  tag_139\n    /* \"#utility.yul\":6194:6199   */\n  dup2\n    /* \"#utility.yul\":6162:6200   */\n  tag_44\n  jump\t// in\ntag_139:\n    /* \"#utility.yul\":6246:6275   */\n  tag_140\n    /* \"#utility.yul\":6264:6274   */\n  dup5\n    /* \"#utility.yul\":6246:6275   */\n  tag_45\n  jump\t// in\ntag_140:\n    /* \"#utility.yul\":6236:6244   */\n  dup2\n    /* \"#utility.yul\":6232:6276   */\n  add\n    /* \"#utility.yul\":6429:6431   */\n  0x20\n    /* \"#utility.yul\":6417:6427   */\n  dup6\n    /* \"#utility.yul\":6414:6432   */\n  lt\n    /* \"#utility.yul\":6411:6460   */\n  iszero\n  tag_141\n  jumpi\n    /* \"#utility.yul\":6450:6458   */\n  dup2\n    /* \"#utility.yul\":6435:6458   */\n  swap1\n  pop\n    /* \"#utility.yul\":6411:6460   */\ntag_141:\n    /* \"#utility.yul\":6473:6553   */\n  tag_142\n    /* \"#utility.yul\":6529:6551   */\n  tag_143\n    /* \"#utility.yul\":6547:6550   */\n  dup6\n    /* \"#utility.yul\":6529:6551   */\n  tag_45\n  jump\t// in\ntag_143:\n    /* \"#utility.yul\":6519:6527   */\n  dup4\n    /* \"#utility.yul\":6515:6552   */\n  add\n    /* \"#utility.yul\":6502:6513   */\n  dup3\n    /* \"#utility.yul\":6473:6553   */\n  tag_54\n  jump\t// in\ntag_142:\n    /* \"#utility.yul\":6132:6563   */\n  pop\n  pop\n    /* \"#utility.yul\":6117:6563   */\ntag_138:\n    /* \"#utility.yul\":6027:6570   */\n  pop\n  pop\n  pop\n  jump\t// out\n    /* \"#utility.yul\":6576:6693   */\ntag_56:\n    /* \"#utility.yul\":6630:6638   */\n  0x00\n    /* \"#utility.yul\":6680:6685   */\n  dup3\n    /* \"#utility.yul\":6674:6678   */\n  dup3\n    /* \"#utility.yul\":6670:6686   */\n  shr\n    /* \"#utility.yul\":6649:6686   */\n  swap1\n  pop\n    /* \"#utility.yul\":6576:6693   */\n  swap3\n  swap2\n  pop\n  pop\n  jump\t// out\n    /* \"#utility.yul\":6699:6868   */\ntag_57:\n    /* \"#utility.yul\":6743:6749   */\n  0x00\n    /* \"#utility.yul\":6776:6827   */\n  tag_146\n    /* \"#utility.yul\":6824:6825   */\n  0x00\n    /* \"#utility.yul\":6820:6826   */\n  not\n    /* \"#utility.yul\":6812:6817   */\n  dup5\n    /* \"#utility.yul\":6809:6810   */\n  0x08\n    /* \"#utility.yul\":6805:6818   */\n  mul\n    /* \"#utility.yul\":6776:6827   */\n  tag_56\n  jump\t// in\ntag_146:\n    /* \"#utility.yul\":6772:6828   */\n  not\n    /* \"#utility.yul\":6857:6861   */\n  dup1\n    /* \"#utility.yul\":6851:6855   */\n  dup4\n    /* \"#utility.yul\":6847:6862   */\n  and\n    /* \"#utility.yul\":6837:6862   */\n  swap2\n  pop\n    /* \"#utility.yul\":6750:6868   */\n  pop\n    /* \"#utility.yul\":6699:6868   */\n  swap3\n  swap2\n  pop\n  pop\n  jump\t// out\n    /* \"#utility.yul\":6873:7168   */\ntag_58:\n    /* \"#utility.yul\":6949:6953   */\n  0x00\n    /* \"#utility.yul\":7095:7124   */\n  tag_148\n    /* \"#utility.yul\":7120:7123   */\n  dup4\n    /* \"#utility.yul\":7114:7118   */\n  dup4\n    /* \"#utility.yul\":7095:7124   */\n  tag_57\n  jump\t// in\ntag_148:\n    /* \"#utility.yul\":7087:7124   */\n  swap2\n  pop\n    /* \"#utility.yul\":7157:7160   */\n  dup3\n    /* \"#utility.yul\":7154:7155   */\n  0x02\n    /* \"#utility.yul\":7150:7161   */\n  mul\n    /* \"#utility.yul\":7144:7148   */\n  dup3\n    /* \"#utility.yul\":7141:7162   */\n  or\n    /* \"#utility.yul\":7133:7162   */\n  swap1\n  pop\n    /* \"#utility.yul\":6873:7168   */\n  swap3\n  swap2\n  pop\n  pop\n  jump\t// out\n    /* \"#utility.yul\":7173:8568   */\ntag_7:\n    /* \"#utility.yul\":7290:7327   */\n  tag_150\n    /* \"#utility.yul\":7323:7326   */\n  dup3\n    /* \"#utility.yul\":7290:7327   */\n  tag_41\n  jump\t// in\ntag_150:\n    /* \"#utility.yul\":7392:7410   */\n  0xffffffffffffffff\n    /* \"#utility.yul\":7384:7390   */\n  dup2\n    /* \"#utility.yul\":7381:7411   */\n  gt\n    /* \"#utility.yul\":7378:7434   */\n  iszero\n  tag_151\n  jumpi\n    /* \"#utility.yul\":7414:7432   */\n  tag_152\n  tag_31\n  jump\t// in\ntag_152:\n    /* \"#utility.yul\":7378:7434   */\ntag_151:\n    /* \"#utility.yul\":7458:7496   */\n  tag_153\n    /* \"#utility.yul\":7490:7494   */\n  dup3\n    /* \"#utility.yul\":7484:7495   */\n  sload\n    /* \"#utility.yul\":7458:7496   */\n  tag_43\n  jump\t// in\ntag_153:\n    /* \"#utility.yul\":7543:7610   */\n  tag_154\n    /* \"#utility.yul\":7603:7609   */\n  dup3\n    /* \"#utility.yul\":7595:7601   */\n  dup3\n    /* \"#utility.yul\":7589:7593   */\n  dup6\n    /* \"#utility.yul\":7543:7610   */\n  tag_55\n  jump\t// in\ntag_154:\n    /* \"#utility.yul\":7637:7638   */\n  0x00\n    /* \"#utility.yul\":7661:7665   */\n  0x20\n    /* \"#utility.yul\":7648:7665   */\n  swap1\n  pop\n    /* \"#utility.yul\":7693:7695   */\n  0x1f\n    /* \"#utility.yul\":7685:7691   */\n  dup4\n    /* \"#utility.yul\":7682:7696   */\n  gt\n    /* \"#utility.yul\":7710:7711   */\n  0x01\n    /* \"#utility.yul\":7705:8323   */\n  dup2\n  eq\n  tag_156\n  jumpi\n    /* \"#utility.yul\":8367:8368   */\n  0x00\n    /* \"#utility.yul\":8384:8390   */\n  dup5\n    /* \"#utility.yul\":8381:8458   */\n  iszero\n  tag_157\n  jumpi\n    /* \"#utility.yul\":8433:8442   */\n  dup3\n    /* \"#utility.yul\":8428:8431   */\n  dup8\n    /* \"#utility.yul\":8424:8443   */\n  add\n    /* \"#utility.yul\":8418:8444   */\n  mload\n    /* \"#utility.yul\":8409:8444   */\n  swap1\n  pop\n    /* \"#utility.yul\":8381:8458   */\ntag_157:\n    /* \"#utility.yul\":8484:8551   */\n  tag_158\n    /* \"#utility.yul\":8544:8550   */\n  dup6\n    /* \"#utility.yul\":8537:8542   */\n  dup3\n    /* \"#utility.yul\":8484:8551   */\n  tag_58\n  jump\t// in\ntag_158:\n    /* \"#utility.yul\":8478:8482   */\n  dup7\n    /* \"#utility.yul\":8471:8552   */\n  sstore\n    /* \"#utility.yul\":8340:8562   */\n  pop\n    /* \"#utility.yul\":7675:8562   */\n  jump(tag_155)\n    /* \"#utility.yul\":7705:8323   */\ntag_156:\n    /* \"#utility.yul\":7757:7761   */\n  0x1f\n    /* \"#utility.yul\":7753:7762   */\n  not\n    /* \"#utility.yul\":7745:7751   */\n  dup5\n    /* \"#utility.yul\":7741:7763   */\n  and\n    /* \"#utility.yul\":7791:7828   */\n  tag_159\n    /* \"#utility.yul\":7823:7827   */\n  dup7\n    /* \"#utility.yul\":7791:7828   */\n  tag_44\n  jump\t// in\ntag_159:\n    /* \"#utility.yul\":7850:7851   */\n  0x00\n    /* \"#utility.yul\":7864:8072   */\ntag_160:\n    /* \"#utility.yul\":7878:7885   */\n  dup3\n    /* \"#utility.yul\":7875:7876   */\n  dup2\n    /* \"#utility.yul\":7872:7886   */\n  lt\n    /* \"#utility.yul\":7864:8072   */\n  iszero\n  tag_162\n  jumpi\n    /* \"#utility.yul\":7957:7966   */\n  dup5\n    /* \"#utility.yul\":7952:7955   */\n  dup10\n    /* \"#utility.yul\":7948:7967   */\n  add\n    /* \"#utility.yul\":7942:7968   */\n  mload\n    /* \"#utility.yul\":7934:7940   */\n  dup3\n    /* \"#utility.yul\":7927:7969   */\n  sstore\n    /* \"#utility.yul\":8008:8009   */\n  0x01\n    /* \"#utility.yul\":8000:8006   */\n  dup3\n    /* \"#utility.yul\":7996:8010   */\n  add\n    /* \"#utility.yul\":7986:8010   */\n  swap2\n  pop\n    /* \"#utility.yul\":8055:8057   */\n  0x20\n    /* \"#utility.yul\":8044:8053   */\n  dup6\n    /* \"#utility.yul\":8040:8058   */\n  add\n    /* \"#utility.yul\":8027:8058   */\n  swap5\n  pop\n    /* \"#utility.yul\":7901:7905   */\n  0x20\n    /* \"#utility.yul\":7898:7899   */\n  dup2\n    /* \"#utility.yul\":7894:7906   */\n  add\n    /* \"#utility.yul\":7889:7906   */\n  swap1\n  pop\n    /* \"#utility.yul\":7864:8072   */\n  jump(tag_160)\ntag_162:\n    /* \"#utility.yul\":8100:8106   */\n  dup7\n    /* \"#utility.yul\":8091:8098   */\n  dup4\n    /* \"#utility.yul\":8088:8107   */\n  lt\n    /* \"#utility.yul\":8085:8264   */\n  iszero\n  tag_163\n  jumpi\n    /* \"#utility.yul\":8158:8167   */\n  dup5\n    /* \"#utility.yul\":8153:8156   */\n  dup10\n    /* \"#utility.yul\":8149:8168   */\n  add\n    /* \"#utility.yul\":8143:8169   */\n  mload\n    /* \"#utility.yul\":8201:8249   */\n  tag_164\n    /* \"#utility.yul\":8243:8247   */\n  0x1f\n    /* \"#utility.yul\":8235:8241   */\n  dup10\n    /* \"#utility.yul\":8231:8248   */\n  and\n    /* \"#utility.yul\":8220:8229   */\n  dup3\n    /* \"#utility.yul\":8201:8249   */\n  tag_57\n  jump\t// in\ntag_164:\n    /* \"#utility.yul\":8193:8199   */\n  dup4\n    /* \"#utility.yul\":8186:8250   */\n  sstore\n    /* \"#utility.yul\":8108:8264   */\n  pop\n    /* \"#utility.yul\":8085:8264   */\ntag_163:\n    /* \"#utility.yul\":8310:8311   */\n  0x01\n    /* \"#utility.yul\":8306:8307   */\n  0x02\n    /* \"#utility.yul\":8298:8304   */\n  dup9\n    /* \"#utility.yul\":8294:8308   */\n  mul\n    /* \"#utility.yul\":8290:8312   */\n  add\n    /* \"#utility.yul\":8284:8288   */\n  dup9\n    /* \"#utility.yul\":8277:8313   */\n  sstore\n    /* \"#utility.yul\":7712:8323   */\n  pop\n  pop\n  pop\n    /* \"#utility.yul\":7675:8562   */\ntag_155:\n  pop\n    /* \"#utility.yul\":7265:8568   */\n  pop\n  pop\n  pop\n    /* \"#utility.yul\":7173:8568   */\n  pop\n  pop\n  jump\t// out\n    /* \"#utility.yul\":8574:8743   */\ntag_59:\n    /* \"#utility.yul\":8658:8669   */\n  0x00\n    /* \"#utility.yul\":8692:8698   */\n  dup3\n    /* \"#utility.yul\":8687:8690   */\n  dup3\n    /* \"#utility.yul\":8680:8699   */\n  mstore\n    /* \"#utility.yul\":8732:8736   */\n  0x20\n    /* \"#utility.yul\":8727:8730   */\n  dup3\n    /* \"#utility.yul\":8723:8737   */\n  add\n    /* \"#utility.yul\":8708:8737   */\n  swap1\n  pop\n    /* \"#utility.yul\":8574:8743   */\n  swap3\n  swap2\n  pop\n  pop\n  jump\t// out\n    /* \"#utility.yul\":8773:9604   */\ntag_60:\n    /* \"#utility.yul\":8858:8861   */\n  0x00\n    /* \"#utility.yul\":8895:8900   */\n  dup2\n    /* \"#utility.yul\":8889:8901   */\n  sload\n    /* \"#utility.yul\":8924:8960   */\n  tag_167\n    /* \"#utility.yul\":8950:8959   */\n  dup2\n    /* \"#utility.yul\":8924:8960   */\n  tag_43\n  jump\t// in\ntag_167:\n    /* \"#utility.yul\":8976:9047   */\n  tag_168\n    /* \"#utility.yul\":9040:9046   */\n  dup2\n    /* \"#utility.yul\":9035:9038   */\n  dup7\n    /* \"#utility.yul\":8976:9047   */\n  tag_59\n  jump\t// in\ntag_168:\n    /* \"#utility.yul\":8969:9047   */\n  swap5\n  pop\n    /* \"#utility.yul\":9078:9079   */\n  0x01\n    /* \"#utility.yul\":9067:9076   */\n  dup3\n    /* \"#utility.yul\":9063:9080   */\n  and\n    /* \"#utility.yul\":9094:9095   */\n  0x00\n    /* \"#utility.yul\":9089:9253   */\n  dup2\n  eq\n  tag_170\n  jumpi\n    /* \"#utility.yul\":9267:9268   */\n  0x01\n    /* \"#utility.yul\":9262:9598   */\n  dup2\n  eq\n  tag_171\n  jumpi\n    /* \"#utility.yul\":9056:9598   */\n  jump(tag_169)\n    /* \"#utility.yul\":9089:9253   */\ntag_170:\n    /* \"#utility.yul\":9173:9177   */\n  0xff\n    /* \"#utility.yul\":9169:9178   */\n  not\n    /* \"#utility.yul\":9158:9167   */\n  dup4\n    /* \"#utility.yul\":9154:9179   */\n  and\n    /* \"#utility.yul\":9149:9152   */\n  dup7\n    /* \"#utility.yul\":9142:9180   */\n  mstore\n    /* \"#utility.yul\":9233:9239   */\n  dup2\n    /* \"#utility.yul\":9226:9240   */\n  iszero\n    /* \"#utility.yul\":9219:9241   */\n  iszero\n    /* \"#utility.yul\":9213:9217   */\n  0x20\n    /* \"#utility.yul\":9209:9242   */\n  mul\n    /* \"#utility.yul\":9204:9207   */\n  dup7\n    /* \"#utility.yul\":9200:9243   */\n  add\n    /* \"#utility.yul\":9193:9243   */\n  swap4\n  pop\n    /* \"#utility.yul\":9089:9253   */\n  jump(tag_169)\n    /* \"#utility.yul\":9262:9598   */\ntag_171:\n    /* \"#utility.yul\":9329:9367   */\n  tag_172\n    /* \"#utility.yul\":9361:9366   */\n  dup6\n    /* \"#utility.yul\":9329:9367   */\n  tag_44\n  jump\t// in\ntag_172:\n    /* \"#utility.yul\":9389:9390   */\n  0x00\n    /* \"#utility.yul\":9403:9557   */\ntag_173:\n    /* \"#utility.yul\":9417:9423   */\n  dup4\n    /* \"#utility.yul\":9414:9415   */\n  dup2\n    /* \"#utility.yul\":9411:9424   */\n  lt\n    /* \"#utility.yul\":9403:9557   */\n  iszero\n  tag_175\n  jumpi\n    /* \"#utility.yul\":9491:9498   */\n  dup2\n    /* \"#utility.yul\":9485:9499   */\n  sload\n    /* \"#utility.yul\":9481:9482   */\n  dup2\n    /* \"#utility.yul\":9476:9479   */\n  dup10\n    /* \"#utility.yul\":9472:9483   */\n  add\n    /* \"#utility.yul\":9465:9500   */\n  mstore\n    /* \"#utility.yul\":9541:9542   */\n  0x01\n    /* \"#utility.yul\":9532:9539   */\n  dup3\n    /* \"#utility.yul\":9528:9543   */\n  add\n    /* \"#utility.yul\":9517:9543   */\n  swap2\n  pop\n    /* \"#utility.yul\":9439:9443   */\n  0x20\n    /* \"#utility.yul\":9436:9437   */\n  dup2\n    /* \"#utility.yul\":9432:9444   */\n  add\n    /* \"#utility.yul\":9427:9444   */\n  swap1\n  pop\n    /* \"#utility.yul\":9403:9557   */\n  jump(tag_173)\ntag_175:\n    /* \"#utility.yul\":9586:9587   */\n  dup1\n    /* \"#utility.yul\":9581:9584   */\n  dup9\n    /* \"#utility.yul\":9577:9588   */\n  add\n    /* \"#utility.yul\":9570:9588   */\n  swap6\n  pop\n    /* \"#utility.yul\":9269:9598   */\n  pop\n  pop\n    /* \"#utility.yul\":9056:9598   */\ntag_169:\n  pop\n    /* \"#utility.yul\":8862:9604   */\n  pop\n  pop\n    /* \"#utility.yul\":8773:9604   */\n  swap3\n  swap2\n  pop\n  pop\n  jump\t// out\n    /* \"#utility.yul\":9610:9917   */\ntag_13:\n    /* \"#utility.yul\":9720:9724   */\n  0x00\n    /* \"#utility.yul\":9758:9760   */\n  0x20\n    /* \"#utility.yul\":9747:9756   */\n  dup3\n    /* \"#utility.yul\":9743:9761   */\n  add\n    /* \"#utility.yul\":9735:9761   */\n  swap1\n  pop\n    /* \"#utility.yul\":9807:9816   */\n  dup2\n    /* \"#utility.yul\":9801:9805   */\n  dup2\n    /* \"#utility.yul\":9797:9817   */\n  sub\n    /* \"#utility.yul\":9793:9794   */\n  0x00\n    /* \"#utility.yul\":9782:9791   */\n  dup4\n    /* \"#utility.yul\":9778:9795   */\n  add\n    /* \"#utility.yul\":9771:9818   */\n  mstore\n    /* \"#utility.yul\":9835:9910   */\n  tag_177\n    /* \"#utility.yul\":9905:9909   */\n  dup2\n    /* \"#utility.yul\":9896:9902   */\n  dup5\n    /* \"#utility.yul\":9835:9910   */\n  tag_60\n  jump\t// in\ntag_177:\n    /* \"#utility.yul\":9827:9910   */\n  swap1\n  pop\n    /* \"#utility.yul\":9610:9917   */\n  swap3\n  swap2\n  pop\n  pop\n  jump\t// out\n    /* \"#utility.yul\":9923:10103   */\ntag_61:\n    /* \"#utility.yul\":9971:10048   */\n  0x4e487b7100000000000000000000000000000000000000000000000000000000\n    /* \"#utility.yul\":9968:9969   */\n  0x00\n    /* \"#utility.yul\":9961:10049   */\n  mstore\n    /* \"#utility.yul\":10068:10072   */\n  0x11\n    /* \"#utility.yul\":10065:10066   */\n  0x04\n    /* \"#utility.yul\":10058:10073   */\n  mstore\n    /* \"#utility.yul\":10092:10096   */\n  0x24\n    /* \"#utility.yul\":10089:10090   */\n  0x00\n    /* \"#utility.yul\":10082:10097   */\n  revert\n    /* \"#utility.yul\":10109:10300   */\ntag_15:\n    /* \"#utility.yul\":10149:10152   */\n  0x00\n    /* \"#utility.yul\":10168:10188   */\n  tag_180\n    /* \"#utility.yul\":10186:10187   */\n  dup3\n    /* \"#utility.yul\":10168:10188   */\n  tag_38\n  jump\t// in\ntag_180:\n    /* \"#utility.yul\":10163:10188   */\n  swap2\n  pop\n    /* \"#utility.yul\":10202:10222   */\n  tag_181\n    /* \"#utility.yul\":10220:10221   */\n  dup4\n    /* \"#utility.yul\":10202:10222   */\n  tag_38\n  jump\t// in\ntag_181:\n    /* \"#utility.yul\":10197:10222   */\n  swap3\n  pop\n    /* \"#utility.yul\":10245:10246   */\n  dup3\n    /* \"#utility.yul\":10242:10243   */\n  dup3\n    /* \"#utility.yul\":10238:10247   */\n  add\n    /* \"#utility.yul\":10231:10247   */\n  swap1\n  pop\n    /* \"#utility.yul\":10266:10269   */\n  dup1\n    /* \"#utility.yul\":10263:10264   */\n  dup3\n    /* \"#utility.yul\":10260:10270   */\n  gt\n    /* \"#utility.yul\":10257:10293   */\n  iszero\n  tag_182\n  jumpi\n    /* \"#utility.yul\":10273:10291   */\n  tag_183\n  tag_61\n  jump\t// in\ntag_183:\n    /* \"#utility.yul\":10257:10293   */\ntag_182:\n    /* \"#utility.yul\":10109:10300   */\n  swap3\n  swap2\n  pop\n  pop\n  jump\t// out\n    /* \"#utility.yul\":10306:10486   */\ntag_62:\n    /* \"#utility.yul\":10354:10431   */\n  0x4e487b7100000000000000000000000000000000000000000000000000000000\n    /* \"#utility.yul\":10351:10352   */\n  0x00\n    /* \"#utility.yul\":10344:10432   */\n  mstore\n    /* \"#utility.yul\":10451:10455   */\n  0x12\n    /* \"#utility.yul\":10448:10449   */\n  0x04\n    /* \"#utility.yul\":10441:10456   */\n  mstore\n    /* \"#utility.yul\":10475:10479   */\n  0x24\n    /* \"#utility.yul\":10472:10473   */\n  0x00\n    /* \"#utility.yul\":10465:10480   */\n  revert\n    /* \"#utility.yul\":10492:10677   */\ntag_19:\n    /* \"#utility.yul\":10532:10533   */\n  0x00\n    /* \"#utility.yul\":10549:10569   */\n  tag_186\n    /* \"#utility.yul\":10567:10568   */\n  dup3\n    /* \"#utility.yul\":10549:10569   */\n  tag_38\n  jump\t// in\ntag_186:\n    /* \"#utility.yul\":10544:10569   */\n  swap2\n  pop\n    /* \"#utility.yul\":10583:10603   */\n  tag_187\n    /* \"#utility.yul\":10601:10602   */\n  dup4\n    /* \"#utility.yul\":10583:10603   */\n  tag_38\n  jump\t// in\ntag_187:\n    /* \"#utility.yul\":10578:10603   */\n  swap3\n  pop\n    /* \"#utility.yul\":10622:10623   */\n  dup3\n    /* \"#utility.yul\":10612:10647   */\n  tag_188\n  jumpi\n    /* \"#utility.yul\":10627:10645   */\n  tag_189\n  tag_62\n  jump\t// in\ntag_189:\n    /* \"#utility.yul\":10612:10647   */\ntag_188:\n    /* \"#utility.yul\":10669:10670   */\n  dup3\n    /* \"#utility.yul\":10666:10667   */\n  dup3\n    /* \"#utility.yul\":10662:10671   */\n  div\n    /* \"#utility.yul\":10657:10671   */\n  swap1\n  pop\n    /* \"#utility.yul\":10492:10677   */\n  swap3\n  swap2\n  pop\n  pop\n  jump\t// out\n    /* \"#utility.yul\":10683:11093   */\ntag_21:\n    /* \"#utility.yul\":10723:10730   */\n  0x00\n    /* \"#utility.yul\":10746:10766   */\n  tag_191\n    /* \"#utility.yul\":10764:10765   */\n  dup3\n    /* \"#utility.yul\":10746:10766   */\n  tag_38\n  jump\t// in\ntag_191:\n    /* \"#utility.yul\":10741:10766   */\n  swap2\n  pop\n    /* \"#utility.yul\":10780:10800   */\n  tag_192\n    /* \"#utility.yul\":10798:10799   */\n  dup4\n    /* \"#utility.yul\":10780:10800   */\n  tag_38\n  jump\t// in\ntag_192:\n    /* \"#utility.yul\":10775:10800   */\n  swap3\n  pop\n    /* \"#utility.yul\":10835:10836   */\n  dup3\n    /* \"#utility.yul\":10832:10833   */\n  dup3\n    /* \"#utility.yul\":10828:10837   */\n  mul\n    /* \"#utility.yul\":10857:10887   */\n  tag_193\n    /* \"#utility.yul\":10875:10886   */\n  dup2\n    /* \"#utility.yul\":10857:10887   */\n  tag_38\n  jump\t// in\ntag_193:\n    /* \"#utility.yul\":10846:10887   */\n  swap2\n  pop\n    /* \"#utility.yul\":11036:11037   */\n  dup3\n    /* \"#utility.yul\":11027:11034   */\n  dup3\n    /* \"#utility.yul\":11023:11038   */\n  div\n    /* \"#utility.yul\":11020:11021   */\n  dup5\n    /* \"#utility.yul\":11017:11039   */\n  eq\n    /* \"#utility.yul\":10997:10998   */\n  dup4\n    /* \"#utility.yul\":10990:10999   */\n  iszero\n    /* \"#utility.yul\":10970:11053   */\n  or\n    /* \"#utility.yul\":10947:11086   */\n  tag_194\n  jumpi\n    /* \"#utility.yul\":11066:11084   */\n  tag_195\n  tag_61\n  jump\t// in\ntag_195:\n    /* \"#utility.yul\":10947:11086   */\ntag_194:\n    /* \"#utility.yul\":10731:11093   */\n  pop\n    /* \"#utility.yul\":10683:11093   */\n  swap3\n  swap2\n  pop\n  pop\n  jump\t// out\n    /* \"#utility.yul\":11099:11293   */\ntag_23:\n    /* \"#utility.yul\":11139:11143   */\n  0x00\n    /* \"#utility.yul\":11159:11179   */\n  tag_197\n    /* \"#utility.yul\":11177:11178   */\n  dup3\n    /* \"#utility.yul\":11159:11179   */\n  tag_38\n  jump\t// in\ntag_197:\n    /* \"#utility.yul\":11154:11179   */\n  swap2\n  pop\n    /* \"#utility.yul\":11193:11213   */\n  tag_198\n    /* \"#utility.yul\":11211:11212   */\n  dup4\n    /* \"#utility.yul\":11193:11213   */\n  tag_38\n  jump\t// in\ntag_198:\n    /* \"#utility.yul\":11188:11213   */\n  swap3\n  pop\n    /* \"#utility.yul\":11237:11238   */\n  dup3\n    /* \"#utility.yul\":11234:11235   */\n  dup3\n    /* \"#utility.yul\":11230:11239   */\n  sub\n    /* \"#utility.yul\":11222:11239   */\n  swap1\n  pop\n    /* \"#utility.yul\":11261:11262   */\n  dup2\n    /* \"#utility.yul\":11255:11259   */\n  dup2\n    /* \"#utility.yul\":11252:11263   */\n  gt\n    /* \"#utility.yul\":11249:11286   */\n  iszero\n  tag_199\n  jumpi\n    /* \"#utility.yul\":11266:11284   */\n  tag_200\n  tag_61\n  jump\t// in\ntag_200:\n    /* \"#utility.yul\":11249:11286   */\ntag_199:\n    /* \"#utility.yul\":11099:11293   */\n  swap3\n  swap2\n  pop\n  pop\n  jump\t// out\n    /* \"RandomGame/game.sol\":67:3708  contract Random {... */\ntag_10:\n  dataSize(sub_0)\n  dup1\n  dataOffset(sub_0)\n  0x00\n  codecopy\n  0x00\n  return\nstop\n\nsub_0: assembly {\n        /* \"RandomGame/game.sol\":67:3708  contract Random {... */\n      mstore(0x40, 0x80)\n      jumpi(tag_1, lt(calldatasize, 0x04))\n      shr(0xe0, calldataload(0x00))\n      dup1\n      0x79ed40bc\n      gt\n      tag_12\n      jumpi\n      dup1\n      0x79ed40bc\n      eq\n      tag_7\n      jumpi\n      dup1\n      0x8da5cb5b\n      eq\n      tag_8\n      jumpi\n      dup1\n      0x9f8743f7\n      eq\n      tag_9\n      jumpi\n      dup1\n      0xa86d2e19\n      eq\n      tag_10\n      jumpi\n      dup1\n      0xcf66b989\n      eq\n      tag_11\n      jumpi\n      jump(tag_2)\n    tag_12:\n      dup1\n      0x0df516d8\n      eq\n      tag_3\n      jumpi\n      dup1\n      0x12065fe0\n      eq\n      tag_4\n      jumpi\n      dup1\n      0x146ca531\n      eq\n      tag_5\n      jumpi\n      dup1\n      0x5ef5cc89\n      eq\n      tag_6\n      jumpi\n      jump(tag_2)\n    tag_1:\n      jumpi(tag_2, calldatasize)\n        /* \"RandomGame/game.sol\":1791:1797  10**16 */\n      0x2386f26fc10000\n        /* \"RandomGame/game.sol\":1778:1787  msg.value */\n      callvalue\n        /* \"RandomGame/game.sol\":1778:1797  msg.value == 10**16 */\n      eq\n        /* \"RandomGame/game.sol\":1770:1821  require(msg.value == 10**16, \"Must be 0.01 ether.\") */\n      tag_15\n      jumpi\n      mload(0x40)\n      0x08c379a000000000000000000000000000000000000000000000000000000000\n      dup2\n      mstore\n      0x04\n      add\n      tag_16\n      swap1\n      tag_17\n      jump\t// in\n    tag_16:\n      mload(0x40)\n      dup1\n      swap2\n      sub\n      swap1\n      revert\n    tag_15:\n        /* \"RandomGame/game.sol\":1931:1936  false */\n      0x00\n        /* \"RandomGame/game.sol\":1893:1936  paidAddressList[round][msg.sender] == false */\n      iszero\n      iszero\n        /* \"RandomGame/game.sol\":1893:1908  paidAddressList */\n      0x00\n        /* \"RandomGame/game.sol\":1893:1915  paidAddressList[round] */\n      dup1\n        /* \"RandomGame/game.sol\":1909:1914  round */\n      sload(0x05)\n        /* \"RandomGame/game.sol\":1893:1915  paidAddressList[round] */\n      dup2\n      mstore\n      0x20\n      add\n      swap1\n      dup2\n      mstore\n      0x20\n      add\n      0x00\n      keccak256\n        /* \"RandomGame/game.sol\":1893:1927  paidAddressList[round][msg.sender] */\n      0x00\n        /* \"RandomGame/game.sol\":1916:1926  msg.sender */\n      caller\n        /* \"RandomGame/game.sol\":1893:1927  paidAddressList[round][msg.sender] */\n      0xffffffffffffffffffffffffffffffffffffffff\n      and\n      0xffffffffffffffffffffffffffffffffffffffff\n      and\n      dup2\n      mstore\n      0x20\n      add\n      swap1\n      dup2\n      mstore\n      0x20\n      add\n      0x00\n      keccak256\n      0x00\n      swap1\n      sload\n      swap1\n      0x0100\n      exp\n      swap1\n      div\n      0xff\n      and\n        /* \"RandomGame/game.sol\":1893:1936  paidAddressList[round][msg.sender] == false */\n      iszero\n      iszero\n      eq\n        /* \"RandomGame/game.sol\":1885:1960  require(paidAddressList[round][msg.sender] == false, \"Must be first time.\") */\n      tag_18\n      jumpi\n      mload(0x40)\n      0x08c379a000000000000000000000000000000000000000000000000000000000\n      dup2\n      mstore\n      0x04\n      add\n      tag_19\n      swap1\n      tag_20\n      jump\t// in\n    tag_19:\n      mload(0x40)\n      dup1\n      swap2\n      sub\n      swap1\n      revert\n    tag_18:\n        /* \"RandomGame/game.sol\":2040:2044  true */\n      0x01\n        /* \"RandomGame/game.sol\":2003:2018  paidAddressList */\n      0x00\n        /* \"RandomGame/game.sol\":2003:2025  paidAddressList[round] */\n      dup1\n        /* \"RandomGame/game.sol\":2019:2024  round */\n      sload(0x05)\n        /* \"RandomGame/game.sol\":2003:2025  paidAddressList[round] */\n      dup2\n      mstore\n      0x20\n      add\n      swap1\n      dup2\n      mstore\n      0x20\n      add\n      0x00\n      keccak256\n        /* \"RandomGame/game.sol\":2003:2037  paidAddressList[round][msg.sender] */\n      0x00\n        /* \"RandomGame/game.sol\":2026:2036  msg.sender */\n      caller\n        /* \"RandomGame/game.sol\":2003:2037  paidAddressList[round][msg.sender] */\n      0xffffffffffffffffffffffffffffffffffffffff\n      and\n      0xffffffffffffffffffffffffffffffffffffffff\n      and\n      dup2\n      mstore\n      0x20\n      add\n      swap1\n      dup2\n      mstore\n      0x20\n      add\n      0x00\n      keccak256\n      0x00\n        /* \"RandomGame/game.sol\":2003:2044  paidAddressList[round][msg.sender] = true */\n      0x0100\n      exp\n      dup2\n      sload\n      dup2\n      0xff\n      mul\n      not\n      and\n      swap1\n      dup4\n      iszero\n      iszero\n      mul\n      or\n      swap1\n      sstore\n      pop\n        /* \"RandomGame/game.sol\":2077:2087  playNumber */\n      0x06\n      0x00\n        /* \"RandomGame/game.sol\":2075:2087  ++playNumber */\n      dup2\n      sload\n      tag_21\n      swap1\n      tag_22\n      jump\t// in\n    tag_21:\n      swap2\n      swap1\n      pop\n      dup2\n      swap1\n      sstore\n      pop\n        /* \"RandomGame/game.sol\":2181:2193  winnerNumber */\n      sload(0x02)\n        /* \"RandomGame/game.sol\":2167:2177  playNumber */\n      sload(0x06)\n        /* \"RandomGame/game.sol\":2167:2193  playNumber == winnerNumber */\n      sub\n        /* \"RandomGame/game.sol\":2163:2827  if (playNumber == winnerNumber)  // 현재 실행 숫자와 우승 숫자가 같은지 판별, if-else... */\n      tag_23\n      jumpi\n        /* \"RandomGame/game.sol\":2400:2412  bool success */\n      0x00\n        /* \"RandomGame/game.sol\":2417:2427  msg.sender */\n      caller\n        /* \"RandomGame/game.sol\":2417:2432  msg.sender.call */\n      0xffffffffffffffffffffffffffffffffffffffff\n      and\n        /* \"RandomGame/game.sol\":2441:2462  address(this).balance */\n      selfbalance\n        /* \"RandomGame/game.sol\":2417:2468  msg.sender.call{ value: address(this).balance }(\"\") */\n      mload(0x40)\n      tag_24\n      swap1\n      tag_25\n      jump\t// in\n    tag_24:\n      0x00\n      mload(0x40)\n      dup1\n      dup4\n      sub\n      dup2\n      dup6\n      dup8\n      gas\n      call\n      swap3\n      pop\n      pop\n      pop\n      returndatasize\n      dup1\n      0x00\n      dup2\n      eq\n      tag_28\n      jumpi\n      mload(0x40)\n      swap2\n      pop\n      and(add(returndatasize, 0x3f), not(0x1f))\n      dup3\n      add\n      0x40\n      mstore\n      returndatasize\n      dup3\n      mstore\n      returndatasize\n      0x00\n      0x20\n      dup5\n      add\n      returndatacopy\n      jump(tag_27)\n    tag_28:\n      0x60\n      swap2\n      pop\n    tag_27:\n      pop\n        /* \"RandomGame/game.sol\":2399:2468  (bool success,) = msg.sender.call{ value: address(this).balance }(\"\") */\n      pop\n      swap1\n      pop\n        /* \"RandomGame/game.sol\":2491:2498  success */\n      dup1\n        /* \"RandomGame/game.sol\":2483:2509  require(success, \"Failed\") */\n      tag_29\n      jumpi\n      mload(0x40)\n      0x08c379a000000000000000000000000000000000000000000000000000000000\n      dup2\n      mstore\n      0x04\n      add\n      tag_30\n      swap1\n      tag_31\n      jump\t// in\n    tag_30:\n      mload(0x40)\n      dup1\n      swap2\n      sub\n      swap1\n      revert\n    tag_29:\n        /* \"RandomGame/game.sol\":2536:2537  0 */\n      0x00\n        /* \"RandomGame/game.sol\":2523:2533  playNumber */\n      0x06\n        /* \"RandomGame/game.sol\":2523:2537  playNumber = 0 */\n      dup2\n      swap1\n      sstore\n      pop\n        /* \"RandomGame/game.sol\":2566:2571  round */\n      0x05\n      0x00\n        /* \"RandomGame/game.sol\":2564:2571  ++round */\n      dup2\n      sload\n      tag_32\n      swap1\n      tag_22\n      jump\t// in\n    tag_32:\n      swap2\n      swap1\n      pop\n      dup2\n      swap1\n      sstore\n      pop\n        /* \"RandomGame/game.sol\":2636:2650  randomNumber() */\n      tag_33\n        /* \"RandomGame/game.sol\":2636:2648  randomNumber */\n      tag_34\n        /* \"RandomGame/game.sol\":2636:2650  randomNumber() */\n      jump\t// in\n    tag_33:\n        /* \"RandomGame/game.sol\":2621:2633  winnerNumber */\n      0x02\n        /* \"RandomGame/game.sol\":2621:2650  winnerNumber = randomNumber() */\n      dup2\n      swap1\n      sstore\n      pop\n        /* \"RandomGame/game.sol\":2684:2694  msg.sender */\n      caller\n        /* \"RandomGame/game.sol\":2670:2695  winnerAddress(msg.sender) */\n      0xffffffffffffffffffffffffffffffffffffffff\n      and\n      0x97327fd6694d3df45480784b7731f13ecffcae0f296816eec3de6f43bf02f728\n      mload(0x40)\n      mload(0x40)\n      dup1\n      swap2\n      sub\n      swap1\n      log2\n        /* \"RandomGame/game.sol\":2274:2719  {... */\n      pop\n        /* \"RandomGame/game.sol\":2163:2827  if (playNumber == winnerNumber)  // 현재 실행 숫자와 우승 숫자가 같은지 판별, if-else... */\n      jump(tag_35)\n    tag_23:\n        /* \"RandomGame/game.sol\":2774:2784  msg.sender */\n      caller\n        /* \"RandomGame/game.sol\":2762:2796  paidAddress(msg.sender, msg.value) */\n      0xffffffffffffffffffffffffffffffffffffffff\n      and\n      0x03b4b447121cfc99f637122d1c595e94ee2fb045709001f086432cf5442ac3f2\n        /* \"RandomGame/game.sol\":2786:2795  msg.value */\n      callvalue\n        /* \"RandomGame/game.sol\":2762:2796  paidAddress(msg.sender, msg.value) */\n      mload(0x40)\n      tag_36\n      swap2\n      swap1\n      tag_37\n      jump\t// in\n    tag_36:\n      mload(0x40)\n      dup1\n      swap2\n      sub\n      swap1\n      log2\n        /* \"RandomGame/game.sol\":2163:2827  if (playNumber == winnerNumber)  // 현재 실행 숫자와 우승 숫자가 같은지 판별, if-else... */\n    tag_35:\n        /* \"RandomGame/game.sol\":67:3708  contract Random {... */\n      stop\n    tag_2:\n      0x00\n      dup1\n      revert\n        /* \"RandomGame/game.sol\":1386:1412  uint public playNumber = 0 */\n    tag_3:\n      callvalue\n      dup1\n      iszero\n      tag_38\n      jumpi\n      0x00\n      dup1\n      revert\n    tag_38:\n      pop\n      tag_39\n      tag_40\n      jump\t// in\n    tag_39:\n      mload(0x40)\n      tag_41\n      swap2\n      swap1\n      tag_37\n      jump\t// in\n    tag_41:\n      mload(0x40)\n      dup1\n      swap2\n      sub\n      swap1\n      return\n        /* \"RandomGame/game.sol\":3594:3706  function getBalance()... */\n    tag_4:\n      callvalue\n      dup1\n      iszero\n      tag_42\n      jumpi\n      0x00\n      dup1\n      revert\n    tag_42:\n      pop\n      tag_43\n      tag_44\n      jump\t// in\n    tag_43:\n      mload(0x40)\n      tag_45\n      swap2\n      swap1\n      tag_37\n      jump\t// in\n    tag_45:\n      mload(0x40)\n      dup1\n      swap2\n      sub\n      swap1\n      return\n        /* \"RandomGame/game.sol\":1309:1330  uint public round = 1 */\n    tag_5:\n      callvalue\n      dup1\n      iszero\n      tag_46\n      jumpi\n      0x00\n      dup1\n      revert\n    tag_46:\n      pop\n      tag_47\n      tag_48\n      jump\t// in\n    tag_47:\n      mload(0x40)\n      tag_49\n      swap2\n      swap1\n      tag_37\n      jump\t// in\n    tag_49:\n      mload(0x40)\n      dup1\n      swap2\n      sub\n      swap1\n      return\n        /* \"RandomGame/game.sol\":3062:3200  function setSecretKey(string memory _key1, uint _key2)... */\n    tag_6:\n      callvalue\n      dup1\n      iszero\n      tag_50\n      jumpi\n      0x00\n      dup1\n      revert\n    tag_50:\n      pop\n      tag_51\n      0x04\n      dup1\n      calldatasize\n      sub\n      dup2\n      add\n      swap1\n      tag_52\n      swap2\n      swap1\n      tag_53\n      jump\t// in\n    tag_52:\n      tag_54\n      jump\t// in\n    tag_51:\n      stop\n        /* \"RandomGame/game.sol\":3210:3356  function getSecretKey()... */\n    tag_7:\n      callvalue\n      dup1\n      iszero\n      tag_55\n      jumpi\n      0x00\n      dup1\n      revert\n    tag_55:\n      pop\n      tag_56\n      tag_57\n      jump\t// in\n    tag_56:\n      mload(0x40)\n      tag_58\n      swap3\n      swap2\n      swap1\n      tag_59\n      jump\t// in\n    tag_58:\n      mload(0x40)\n      dup1\n      swap2\n      sub\n      swap1\n      return\n        /* \"RandomGame/game.sol\":1059:1079  address public owner */\n    tag_8:\n      callvalue\n      dup1\n      iszero\n      tag_60\n      jumpi\n      0x00\n      dup1\n      revert\n    tag_60:\n      pop\n      tag_61\n      tag_62\n      jump\t// in\n    tag_61:\n      mload(0x40)\n      tag_63\n      swap2\n      swap1\n      tag_64\n      jump\t// in\n    tag_63:\n      mload(0x40)\n      dup1\n      swap2\n      sub\n      swap1\n      return\n        /* \"RandomGame/game.sol\":3493:3588  function getRound()... */\n    tag_9:\n      callvalue\n      dup1\n      iszero\n      tag_65\n      jumpi\n      0x00\n      dup1\n      revert\n    tag_65:\n      pop\n      tag_66\n      tag_67\n      jump\t// in\n    tag_66:\n      mload(0x40)\n      tag_68\n      swap2\n      swap1\n      tag_37\n      jump\t// in\n    tag_68:\n      mload(0x40)\n      dup1\n      swap2\n      sub\n      swap1\n      return\n        /* \"RandomGame/game.sol\":3362:3487  function getWinnerNumber()... */\n    tag_10:\n      callvalue\n      dup1\n      iszero\n      tag_69\n      jumpi\n      0x00\n      dup1\n      revert\n    tag_69:\n      pop\n      tag_70\n      tag_71\n      jump\t// in\n    tag_70:\n      mload(0x40)\n      tag_72\n      swap2\n      swap1\n      tag_37\n      jump\t// in\n    tag_72:\n      mload(0x40)\n      dup1\n      swap2\n      sub\n      swap1\n      return\n        /* \"RandomGame/game.sol\":981:1050  mapping (uint256 => mapping (address => bool)) public paidAddressList */\n    tag_11:\n      callvalue\n      dup1\n      iszero\n      tag_73\n      jumpi\n      0x00\n      dup1\n      revert\n    tag_73:\n      pop\n      tag_74\n      0x04\n      dup1\n      calldatasize\n      sub\n      dup2\n      add\n      swap1\n      tag_75\n      swap2\n      swap1\n      tag_76\n      jump\t// in\n    tag_75:\n      tag_77\n      jump\t// in\n    tag_74:\n      mload(0x40)\n      tag_78\n      swap2\n      swap1\n      tag_79\n      jump\t// in\n    tag_78:\n      mload(0x40)\n      dup1\n      swap2\n      sub\n      swap1\n      return\n        /* \"RandomGame/game.sol\":2839:3056  function randomNumber()... */\n    tag_34:\n        /* \"RandomGame/game.sol\":2897:2901  uint */\n      0x00\n        /* \"RandomGame/game.sol\":2917:2925  uint num */\n      dup1\n        /* \"RandomGame/game.sol\":2992:3004  block.number */\n      number\n        /* \"RandomGame/game.sol\":2972:2987  block.timestamp */\n      timestamp\n        /* \"RandomGame/game.sol\":2964:2968  key2 */\n      sload(0x04)\n        /* \"RandomGame/game.sol\":2954:2958  key1 */\n      0x03\n        /* \"RandomGame/game.sol\":2943:2959  abi.encode(key1) */\n      add(0x20, mload(0x40))\n      tag_81\n      swap2\n      swap1\n      tag_82\n      jump\t// in\n    tag_81:\n      mload(0x40)\n      0x20\n      dup2\n      dup4\n      sub\n      sub\n      dup2\n      mstore\n      swap1\n      0x40\n      mstore\n        /* \"RandomGame/game.sol\":2933:2960  keccak256(abi.encode(key1)) */\n      dup1\n      mload\n      swap1\n      0x20\n      add\n      keccak256\n        /* \"RandomGame/game.sol\":2928:2961  uint(keccak256(abi.encode(key1))) */\n      0x00\n      shr\n        /* \"RandomGame/game.sol\":2928:2968  uint(keccak256(abi.encode(key1))) + key2 */\n      tag_83\n      swap2\n      swap1\n      tag_84\n      jump\t// in\n    tag_83:\n        /* \"RandomGame/game.sol\":2928:2988  uint(keccak256(abi.encode(key1))) + key2 + (block.timestamp) */\n      tag_85\n      swap2\n      swap1\n      tag_84\n      jump\t// in\n    tag_85:\n        /* \"RandomGame/game.sol\":2928:3005  uint(keccak256(abi.encode(key1))) + key2 + (block.timestamp) + (block.number) */\n      tag_86\n      swap2\n      swap1\n      tag_84\n      jump\t// in\n    tag_86:\n        /* \"RandomGame/game.sol\":2917:3005  uint num = uint(keccak256(abi.encode(key1))) + key2 + (block.timestamp) + (block.number) */\n      swap1\n      pop\n        /* \"RandomGame/game.sol\":3048:3049  1 */\n      0x01\n        /* \"RandomGame/game.sol\":3042:3044  10 */\n      0x0a\n        /* \"RandomGame/game.sol\":3036:3038  10 */\n      dup1\n        /* \"RandomGame/game.sol\":3030:3033  num */\n      dup4\n        /* \"RandomGame/game.sol\":3030:3038  num / 10 */\n      tag_87\n      swap2\n      swap1\n      tag_88\n      jump\t// in\n    tag_87:\n        /* \"RandomGame/game.sol\":3029:3044  (num / 10) * 10 */\n      tag_89\n      swap2\n      swap1\n      tag_90\n      jump\t// in\n    tag_89:\n        /* \"RandomGame/game.sol\":3023:3026  num */\n      dup3\n        /* \"RandomGame/game.sol\":3023:3044  num - (num / 10) * 10 */\n      tag_91\n      swap2\n      swap1\n      tag_92\n      jump\t// in\n    tag_91:\n        /* \"RandomGame/game.sol\":3022:3049  (num - (num / 10) * 10) + 1 */\n      tag_93\n      swap2\n      swap1\n      tag_84\n      jump\t// in\n    tag_93:\n        /* \"RandomGame/game.sol\":3015:3049  return (num - (num / 10) * 10) + 1 */\n      swap2\n      pop\n      pop\n        /* \"RandomGame/game.sol\":2839:3056  function randomNumber()... */\n      swap1\n      jump\t// out\n        /* \"RandomGame/game.sol\":1386:1412  uint public playNumber = 0 */\n    tag_40:\n      sload(0x06)\n      dup2\n      jump\t// out\n        /* \"RandomGame/game.sol\":3594:3706  function getBalance()... */\n    tag_44:\n        /* \"RandomGame/game.sol\":3648:3655  uint256 */\n      0x00\n        /* \"RandomGame/game.sol\":3678:3699  address(this).balance */\n      selfbalance\n        /* \"RandomGame/game.sol\":3671:3699  return address(this).balance */\n      swap1\n      pop\n        /* \"RandomGame/game.sol\":3594:3706  function getBalance()... */\n      swap1\n      jump\t// out\n        /* \"RandomGame/game.sol\":1309:1330  uint public round = 1 */\n    tag_48:\n      sload(0x05)\n      dup2\n      jump\t// out\n        /* \"RandomGame/game.sol\":3062:3200  function setSecretKey(string memory _key1, uint _key2)... */\n    tag_54:\n        /* \"RandomGame/game.sol\":386:391  owner */\n      0x01\n      0x00\n      swap1\n      sload\n      swap1\n      0x0100\n      exp\n      swap1\n      div\n      0xffffffffffffffffffffffffffffffffffffffff\n      and\n        /* \"RandomGame/game.sol\":372:391  msg.sender == owner */\n      0xffffffffffffffffffffffffffffffffffffffff\n      and\n        /* \"RandomGame/game.sol\":372:382  msg.sender */\n      caller\n        /* \"RandomGame/game.sol\":372:391  msg.sender == owner */\n      0xffffffffffffffffffffffffffffffffffffffff\n      and\n      eq\n        /* \"RandomGame/game.sol\":364:428  require(msg.sender == owner, \"Ownable: caller is not the owner\") */\n      tag_96\n      jumpi\n      mload(0x40)\n      0x08c379a000000000000000000000000000000000000000000000000000000000\n      dup2\n      mstore\n      0x04\n      add\n      tag_97\n      swap1\n      tag_98\n      jump\t// in\n    tag_97:\n      mload(0x40)\n      dup1\n      swap2\n      sub\n      swap1\n      revert\n    tag_96:\n        /* \"RandomGame/game.sol\":3166:3171  _key1 */\n      dup2\n        /* \"RandomGame/game.sol\":3159:3163  key1 */\n      0x03\n        /* \"RandomGame/game.sol\":3159:3171  key1 = _key1 */\n      swap1\n      dup2\n      tag_100\n      swap2\n      swap1\n      tag_101\n      jump\t// in\n    tag_100:\n      pop\n        /* \"RandomGame/game.sol\":3188:3193  _key2 */\n      dup1\n        /* \"RandomGame/game.sol\":3181:3185  key2 */\n      0x04\n        /* \"RandomGame/game.sol\":3181:3193  key2 = _key2 */\n      dup2\n      swap1\n      sstore\n      pop\n        /* \"RandomGame/game.sol\":3062:3200  function setSecretKey(string memory _key1, uint _key2)... */\n      pop\n      pop\n      jump\t// out\n        /* \"RandomGame/game.sol\":3210:3356  function getSecretKey()... */\n    tag_57:\n        /* \"RandomGame/game.sol\":3283:3302  string memory _key1 */\n      0x60\n        /* \"RandomGame/game.sol\":3304:3314  uint _key2 */\n      0x00\n        /* \"RandomGame/game.sol\":386:391  owner */\n      0x01\n      0x00\n      swap1\n      sload\n      swap1\n      0x0100\n      exp\n      swap1\n      div\n      0xffffffffffffffffffffffffffffffffffffffff\n      and\n        /* \"RandomGame/game.sol\":372:391  msg.sender == owner */\n      0xffffffffffffffffffffffffffffffffffffffff\n      and\n        /* \"RandomGame/game.sol\":372:382  msg.sender */\n      caller\n        /* \"RandomGame/game.sol\":372:391  msg.sender == owner */\n      0xffffffffffffffffffffffffffffffffffffffff\n      and\n      eq\n        /* \"RandomGame/game.sol\":364:428  require(msg.sender == owner, \"Ownable: caller is not the owner\") */\n      tag_103\n      jumpi\n      mload(0x40)\n      0x08c379a000000000000000000000000000000000000000000000000000000000\n      dup2\n      mstore\n      0x04\n      add\n      tag_104\n      swap1\n      tag_98\n      jump\t// in\n    tag_104:\n      mload(0x40)\n      dup1\n      swap2\n      sub\n      swap1\n      revert\n    tag_103:\n        /* \"RandomGame/game.sol\":3338:3342  key1 */\n      0x03\n        /* \"RandomGame/game.sol\":3344:3348  key2 */\n      sload(0x04)\n        /* \"RandomGame/game.sol\":3330:3349  return (key1, key2) */\n      dup2\n      dup1\n      sload\n      tag_106\n      swap1\n      tag_107\n      jump\t// in\n    tag_106:\n      dup1\n      0x1f\n      add\n      0x20\n      dup1\n      swap2\n      div\n      mul\n      0x20\n      add\n      mload(0x40)\n      swap1\n      dup2\n      add\n      0x40\n      mstore\n      dup1\n      swap3\n      swap2\n      swap1\n      dup2\n      dup2\n      mstore\n      0x20\n      add\n      dup3\n      dup1\n      sload\n      tag_108\n      swap1\n      tag_107\n      jump\t// in\n    tag_108:\n      dup1\n      iszero\n      tag_109\n      jumpi\n      dup1\n      0x1f\n      lt\n      tag_110\n      jumpi\n      0x0100\n      dup1\n      dup4\n      sload\n      div\n      mul\n      dup4\n      mstore\n      swap2\n      0x20\n      add\n      swap2\n      jump(tag_109)\n    tag_110:\n      dup3\n      add\n      swap2\n      swap1\n      0x00\n      mstore\n      keccak256(0x00, 0x20)\n      swap1\n    tag_111:\n      dup2\n      sload\n      dup2\n      mstore\n      swap1\n      0x01\n      add\n      swap1\n      0x20\n      add\n      dup1\n      dup4\n      gt\n      tag_111\n      jumpi\n      dup3\n      swap1\n      sub\n      0x1f\n      and\n      dup3\n      add\n      swap2\n    tag_109:\n      pop\n      pop\n      pop\n      pop\n      pop\n      swap2\n      pop\n      swap2\n      pop\n      swap2\n      pop\n        /* \"RandomGame/game.sol\":3210:3356  function getSecretKey()... */\n      swap1\n      swap2\n      jump\t// out\n        /* \"RandomGame/game.sol\":1059:1079  address public owner */\n    tag_62:\n      0x01\n      0x00\n      swap1\n      sload\n      swap1\n      0x0100\n      exp\n      swap1\n      div\n      0xffffffffffffffffffffffffffffffffffffffff\n      and\n      dup2\n      jump\t// out\n        /* \"RandomGame/game.sol\":3493:3588  function getRound()... */\n    tag_67:\n        /* \"RandomGame/game.sol\":3546:3553  uint256 */\n      0x00\n        /* \"RandomGame/game.sol\":3576:3581  round */\n      sload(0x05)\n        /* \"RandomGame/game.sol\":3569:3581  return round */\n      swap1\n      pop\n        /* \"RandomGame/game.sol\":3493:3588  function getRound()... */\n      swap1\n      jump\t// out\n        /* \"RandomGame/game.sol\":3362:3487  function getWinnerNumber()... */\n    tag_71:\n        /* \"RandomGame/game.sol\":3438:3445  uint256 */\n      0x00\n        /* \"RandomGame/game.sol\":386:391  owner */\n      0x01\n      0x00\n      swap1\n      sload\n      swap1\n      0x0100\n      exp\n      swap1\n      div\n      0xffffffffffffffffffffffffffffffffffffffff\n      and\n        /* \"RandomGame/game.sol\":372:391  msg.sender == owner */\n      0xffffffffffffffffffffffffffffffffffffffff\n      and\n        /* \"RandomGame/game.sol\":372:382  msg.sender */\n      caller\n        /* \"RandomGame/game.sol\":372:391  msg.sender == owner */\n      0xffffffffffffffffffffffffffffffffffffffff\n      and\n      eq\n        /* \"RandomGame/game.sol\":364:428  require(msg.sender == owner, \"Ownable: caller is not the owner\") */\n      tag_114\n      jumpi\n      mload(0x40)\n      0x08c379a000000000000000000000000000000000000000000000000000000000\n      dup2\n      mstore\n      0x04\n      add\n      tag_115\n      swap1\n      tag_98\n      jump\t// in\n    tag_115:\n      mload(0x40)\n      dup1\n      swap2\n      sub\n      swap1\n      revert\n    tag_114:\n        /* \"RandomGame/game.sol\":3468:3480  winnerNumber */\n      sload(0x02)\n        /* \"RandomGame/game.sol\":3461:3480  return winnerNumber */\n      swap1\n      pop\n        /* \"RandomGame/game.sol\":3362:3487  function getWinnerNumber()... */\n      swap1\n      jump\t// out\n        /* \"RandomGame/game.sol\":981:1050  mapping (uint256 => mapping (address => bool)) public paidAddressList */\n    tag_77:\n      mstore(0x20, 0x00)\n      dup2\n      0x00\n      mstore\n      mstore(0x20, keccak256(0x00, 0x40))\n      dup1\n      0x00\n      mstore\n      keccak256(0x00, 0x40)\n      0x00\n      swap2\n      pop\n      swap2\n      pop\n      swap1\n      sload\n      swap1\n      0x0100\n      exp\n      swap1\n      div\n      0xff\n      and\n      dup2\n      jump\t// out\n        /* \"#utility.yul\":7:176   */\n    tag_117:\n        /* \"#utility.yul\":91:102   */\n      0x00\n        /* \"#utility.yul\":125:131   */\n      dup3\n        /* \"#utility.yul\":120:123   */\n      dup3\n        /* \"#utility.yul\":113:132   */\n      mstore\n        /* \"#utility.yul\":165:169   */\n      0x20\n        /* \"#utility.yul\":160:163   */\n      dup3\n        /* \"#utility.yul\":156:170   */\n      add\n        /* \"#utility.yul\":141:170   */\n      swap1\n      pop\n        /* \"#utility.yul\":7:176   */\n      swap3\n      swap2\n      pop\n      pop\n      jump\t// out\n        /* \"#utility.yul\":182:351   */\n    tag_118:\n        /* \"#utility.yul\":322:343   */\n      0x4d75737420626520302e30312065746865722e00000000000000000000000000\n        /* \"#utility.yul\":318:319   */\n      0x00\n        /* \"#utility.yul\":310:316   */\n      dup3\n        /* \"#utility.yul\":306:320   */\n      add\n        /* \"#utility.yul\":299:344   */\n      mstore\n        /* \"#utility.yul\":182:351   */\n      pop\n      jump\t// out\n        /* \"#utility.yul\":357:723   */\n    tag_119:\n        /* \"#utility.yul\":499:502   */\n      0x00\n        /* \"#utility.yul\":520:587   */\n      tag_179\n        /* \"#utility.yul\":584:586   */\n      0x13\n        /* \"#utility.yul\":579:582   */\n      dup4\n        /* \"#utility.yul\":520:587   */\n      tag_117\n      jump\t// in\n    tag_179:\n        /* \"#utility.yul\":513:587   */\n      swap2\n      pop\n        /* \"#utility.yul\":596:689   */\n      tag_180\n        /* \"#utility.yul\":685:688   */\n      dup3\n        /* \"#utility.yul\":596:689   */\n      tag_118\n      jump\t// in\n    tag_180:\n        /* \"#utility.yul\":714:716   */\n      0x20\n        /* \"#utility.yul\":709:712   */\n      dup3\n        /* \"#utility.yul\":705:717   */\n      add\n        /* \"#utility.yul\":698:717   */\n      swap1\n      pop\n        /* \"#utility.yul\":357:723   */\n      swap2\n      swap1\n      pop\n      jump\t// out\n        /* \"#utility.yul\":729:1148   */\n    tag_17:\n        /* \"#utility.yul\":895:899   */\n      0x00\n        /* \"#utility.yul\":933:935   */\n      0x20\n        /* \"#utility.yul\":922:931   */\n      dup3\n        /* \"#utility.yul\":918:936   */\n      add\n        /* \"#utility.yul\":910:936   */\n      swap1\n      pop\n        /* \"#utility.yul\":982:991   */\n      dup2\n        /* \"#utility.yul\":976:980   */\n      dup2\n        /* \"#utility.yul\":972:992   */\n      sub\n        /* \"#utility.yul\":968:969   */\n      0x00\n        /* \"#utility.yul\":957:966   */\n      dup4\n        /* \"#utility.yul\":953:970   */\n      add\n        /* \"#utility.yul\":946:993   */\n      mstore\n        /* \"#utility.yul\":1010:1141   */\n      tag_182\n        /* \"#utility.yul\":1136:1140   */\n      dup2\n        /* \"#utility.yul\":1010:1141   */\n      tag_119\n      jump\t// in\n    tag_182:\n        /* \"#utility.yul\":1002:1141   */\n      swap1\n      pop\n        /* \"#utility.yul\":729:1148   */\n      swap2\n      swap1\n      pop\n      jump\t// out\n        /* \"#utility.yul\":1154:1323   */\n    tag_120:\n        /* \"#utility.yul\":1294:1315   */\n      0x4d7573742062652066697273742074696d652e00000000000000000000000000\n        /* \"#utility.yul\":1290:1291   */\n      0x00\n        /* \"#utility.yul\":1282:1288   */\n      dup3\n        /* \"#utility.yul\":1278:1292   */\n      add\n        /* \"#utility.yul\":1271:1316   */\n      mstore\n        /* \"#utility.yul\":1154:1323   */\n      pop\n      jump\t// out\n        /* \"#utility.yul\":1329:1695   */\n    tag_121:\n        /* \"#utility.yul\":1471:1474   */\n      0x00\n        /* \"#utility.yul\":1492:1559   */\n      tag_185\n        /* \"#utility.yul\":1556:1558   */\n      0x13\n        /* \"#utility.yul\":1551:1554   */\n      dup4\n        /* \"#utility.yul\":1492:1559   */\n      tag_117\n      jump\t// in\n    tag_185:\n        /* \"#utility.yul\":1485:1559   */\n      swap2\n      pop\n        /* \"#utility.yul\":1568:1661   */\n      tag_186\n        /* \"#utility.yul\":1657:1660   */\n      dup3\n        /* \"#utility.yul\":1568:1661   */\n      tag_120\n      jump\t// in\n    tag_186:\n        /* \"#utility.yul\":1686:1688   */\n      0x20\n        /* \"#utility.yul\":1681:1684   */\n      dup3\n        /* \"#utility.yul\":1677:1689   */\n      add\n        /* \"#utility.yul\":1670:1689   */\n      swap1\n      pop\n        /* \"#utility.yul\":1329:1695   */\n      swap2\n      swap1\n      pop\n      jump\t// out\n        /* \"#utility.yul\":1701:2120   */\n    tag_20:\n        /* \"#utility.yul\":1867:1871   */\n      0x00\n        /* \"#utility.yul\":1905:1907   */\n      0x20\n        /* \"#utility.yul\":1894:1903   */\n      dup3\n        /* \"#utility.yul\":1890:1908   */\n      add\n        /* \"#utility.yul\":1882:1908   */\n      swap1\n      pop\n        /* \"#utility.yul\":1954:1963   */\n      dup2\n        /* \"#utility.yul\":1948:1952   */\n      dup2\n        /* \"#utility.yul\":1944:1964   */\n      sub\n        /* \"#utility.yul\":1940:1941   */\n      0x00\n        /* \"#utility.yul\":1929:1938   */\n      dup4\n        /* \"#utility.yul\":1925:1942   */\n      add\n        /* \"#utility.yul\":1918:1965   */\n      mstore\n        /* \"#utility.yul\":1982:2113   */\n      tag_188\n        /* \"#utility.yul\":2108:2112   */\n      dup2\n        /* \"#utility.yul\":1982:2113   */\n      tag_121\n      jump\t// in\n    tag_188:\n        /* \"#utility.yul\":1974:2113   */\n      swap1\n      pop\n        /* \"#utility.yul\":1701:2120   */\n      swap2\n      swap1\n      pop\n      jump\t// out\n        /* \"#utility.yul\":2126:2306   */\n    tag_122:\n        /* \"#utility.yul\":2174:2251   */\n      0x4e487b7100000000000000000000000000000000000000000000000000000000\n        /* \"#utility.yul\":2171:2172   */\n      0x00\n        /* \"#utility.yul\":2164:2252   */\n      mstore\n        /* \"#utility.yul\":2271:2275   */\n      0x11\n        /* \"#utility.yul\":2268:2269   */\n      0x04\n        /* \"#utility.yul\":2261:2276   */\n      mstore\n        /* \"#utility.yul\":2295:2299   */\n      0x24\n        /* \"#utility.yul\":2292:2293   */\n      0x00\n        /* \"#utility.yul\":2285:2300   */\n      revert\n        /* \"#utility.yul\":2312:2389   */\n    tag_123:\n        /* \"#utility.yul\":2349:2356   */\n      0x00\n        /* \"#utility.yul\":2378:2383   */\n      dup2\n        /* \"#utility.yul\":2367:2383   */\n      swap1\n      pop\n        /* \"#utility.yul\":2312:2389   */\n      swap2\n      swap1\n      pop\n      jump\t// out\n        /* \"#utility.yul\":2395:2628   */\n    tag_22:\n        /* \"#utility.yul\":2434:2437   */\n      0x00\n        /* \"#utility.yul\":2457:2481   */\n      tag_192\n        /* \"#utility.yul\":2475:2480   */\n      dup3\n        /* \"#utility.yul\":2457:2481   */\n      tag_123\n      jump\t// in\n    tag_192:\n        /* \"#utility.yul\":2448:2481   */\n      swap2\n      pop\n        /* \"#utility.yul\":2503:2569   */\n      0xffffffffffffffffffffffffffffffffffffffffffffffffffffffffffffffff\n        /* \"#utility.yul\":2496:2501   */\n      dup3\n        /* \"#utility.yul\":2493:2570   */\n      sub\n        /* \"#utility.yul\":2490:2593   */\n      tag_193\n      jumpi\n        /* \"#utility.yul\":2573:2591   */\n      tag_194\n      tag_122\n      jump\t// in\n    tag_194:\n        /* \"#utility.yul\":2490:2593   */\n    tag_193:\n        /* \"#utility.yul\":2620:2621   */\n      0x01\n        /* \"#utility.yul\":2613:2618   */\n      dup3\n        /* \"#utility.yul\":2609:2622   */\n      add\n        /* \"#utility.yul\":2602:2622   */\n      swap1\n      pop\n        /* \"#utility.yul\":2395:2628   */\n      swap2\n      swap1\n      pop\n      jump\t// out\n        /* \"#utility.yul\":2634:2781   */\n    tag_124:\n        /* \"#utility.yul\":2735:2746   */\n      0x00\n        /* \"#utility.yul\":2772:2775   */\n      dup2\n        /* \"#utility.yul\":2757:2775   */\n      swap1\n      pop\n        /* \"#utility.yul\":2634:2781   */\n      swap3\n      swap2\n      pop\n      pop\n      jump\t// out\n        /* \"#utility.yul\":2787:2901   */\n    tag_125:\n      pop\n      jump\t// out\n        /* \"#utility.yul\":2907:3305   */\n    tag_126:\n        /* \"#utility.yul\":3066:3069   */\n      0x00\n        /* \"#utility.yul\":3087:3170   */\n      tag_198\n        /* \"#utility.yul\":3168:3169   */\n      0x00\n        /* \"#utility.yul\":3163:3166   */\n      dup4\n        /* \"#utility.yul\":3087:3170   */\n      tag_124\n      jump\t// in\n    tag_198:\n        /* \"#utility.yul\":3080:3170   */\n      swap2\n      pop\n        /* \"#utility.yul\":3179:3272   */\n      tag_199\n        /* \"#utility.yul\":3268:3271   */\n      dup3\n        /* \"#utility.yul\":3179:3272   */\n      tag_125\n      jump\t// in\n    tag_199:\n        /* \"#utility.yul\":3297:3298   */\n      0x00\n        /* \"#utility.yul\":3292:3295   */\n      dup3\n        /* \"#utility.yul\":3288:3299   */\n      add\n        /* \"#utility.yul\":3281:3299   */\n      swap1\n      pop\n        /* \"#utility.yul\":2907:3305   */\n      swap2\n      swap1\n      pop\n      jump\t// out\n        /* \"#utility.yul\":3311:3690   */\n    tag_25:\n        /* \"#utility.yul\":3495:3498   */\n      0x00\n        /* \"#utility.yul\":3517:3664   */\n      tag_201\n        /* \"#utility.yul\":3660:3663   */\n      dup3\n        /* \"#utility.yul\":3517:3664   */\n      tag_126\n      jump\t// in\n    tag_201:\n        /* \"#utility.yul\":3510:3664   */\n      swap2\n      pop\n        /* \"#utility.yul\":3681:3684   */\n      dup2\n        /* \"#utility.yul\":3674:3684   */\n      swap1\n      pop\n        /* \"#utility.yul\":3311:3690   */\n      swap2\n      swap1\n      pop\n      jump\t// out\n        /* \"#utility.yul\":3696:3852   */\n    tag_127:\n        /* \"#utility.yul\":3836:3844   */\n      0x4661696c65640000000000000000000000000000000000000000000000000000\n        /* \"#utility.yul\":3832:3833   */\n      0x00\n        /* \"#utility.yul\":3824:3830   */\n      dup3\n        /* \"#utility.yul\":3820:3834   */\n      add\n        /* \"#utility.yul\":3813:3845   */\n      mstore\n        /* \"#utility.yul\":3696:3852   */\n      pop\n      jump\t// out\n        /* \"#utility.yul\":3858:4223   */\n    tag_128:\n        /* \"#utility.yul\":4000:4003   */\n      0x00\n        /* \"#utility.yul\":4021:4087   */\n      tag_204\n        /* \"#utility.yul\":4085:4086   */\n      0x06\n        /* \"#utility.yul\":4080:4083   */\n      dup4\n        /* \"#utility.yul\":4021:4087   */\n      tag_117\n      jump\t// in\n    tag_204:\n        /* \"#utility.yul\":4014:4087   */\n      swap2\n      pop\n        /* \"#utility.yul\":4096:4189   */\n      tag_205\n        /* \"#utility.yul\":4185:4188   */\n      dup3\n        /* \"#utility.yul\":4096:4189   */\n      tag_127\n      jump\t// in\n    tag_205:\n        /* \"#utility.yul\":4214:4216   */\n      0x20\n        /* \"#utility.yul\":4209:4212   */\n      dup3\n        /* \"#utility.yul\":4205:4217   */\n      add\n        /* \"#utility.yul\":4198:4217   */\n      swap1\n      pop\n        /* \"#utility.yul\":3858:4223   */\n      swap2\n      swap1\n      pop\n      jump\t// out\n        /* \"#utility.yul\":4229:4648   */\n    tag_31:\n        /* \"#utility.yul\":4395:4399   */\n      0x00\n        /* \"#utility.yul\":4433:4435   */\n      0x20\n        /* \"#utility.yul\":4422:4431   */\n      dup3\n        /* \"#utility.yul\":4418:4436   */\n      add\n        /* \"#utility.yul\":4410:4436   */\n      swap1\n      pop\n        /* \"#utility.yul\":4482:4491   */\n      dup2\n        /* \"#utility.yul\":4476:4480   */\n      dup2\n        /* \"#utility.yul\":4472:4492   */\n      sub\n        /* \"#utility.yul\":4468:4469   */\n      0x00\n        /* \"#utility.yul\":4457:4466   */\n      dup4\n        /* \"#utility.yul\":4453:4470   */\n      add\n        /* \"#utility.yul\":4446:4493   */\n      mstore\n        /* \"#utility.yul\":4510:4641   */\n      tag_207\n        /* \"#utility.yul\":4636:4640   */\n      dup2\n        /* \"#utility.yul\":4510:4641   */\n      tag_128\n      jump\t// in\n    tag_207:\n        /* \"#utility.yul\":4502:4641   */\n      swap1\n      pop\n        /* \"#utility.yul\":4229:4648   */\n      swap2\n      swap1\n      pop\n      jump\t// out\n        /* \"#utility.yul\":4654:4772   */\n    tag_129:\n        /* \"#utility.yul\":4741:4765   */\n      tag_209\n        /* \"#utility.yul\":4759:4764   */\n      dup2\n        /* \"#utility.yul\":4741:4765   */\n      tag_123\n      jump\t// in\n    tag_209:\n        /* \"#utility.yul\":4736:4739   */\n      dup3\n        /* \"#utility.yul\":4729:4766   */\n      mstore\n        /* \"#utility.yul\":4654:4772   */\n      pop\n      pop\n      jump\t// out\n        /* \"#utility.yul\":4778:5000   */\n    tag_37:\n        /* \"#utility.yul\":4871:4875   */\n      0x00\n        /* \"#utility.yul\":4909:4911   */\n      0x20\n        /* \"#utility.yul\":4898:4907   */\n      dup3\n        /* \"#utility.yul\":4894:4912   */\n      add\n        /* \"#utility.yul\":4886:4912   */\n      swap1\n      pop\n        /* \"#utility.yul\":4922:4993   */\n      tag_211\n        /* \"#utility.yul\":4990:4991   */\n      0x00\n        /* \"#utility.yul\":4979:4988   */\n      dup4\n        /* \"#utility.yul\":4975:4992   */\n      add\n        /* \"#utility.yul\":4966:4972   */\n      dup5\n        /* \"#utility.yul\":4922:4993   */\n      tag_129\n      jump\t// in\n    tag_211:\n        /* \"#utility.yul\":4778:5000   */\n      swap3\n      swap2\n      pop\n      pop\n      jump\t// out\n        /* \"#utility.yul\":5006:5081   */\n    tag_130:\n        /* \"#utility.yul\":5039:5045   */\n      0x00\n        /* \"#utility.yul\":5072:5074   */\n      0x40\n        /* \"#utility.yul\":5066:5075   */\n      mload\n        /* \"#utility.yul\":5056:5075   */\n      swap1\n      pop\n        /* \"#utility.yul\":5006:5081   */\n      swap1\n      jump\t// out\n        /* \"#utility.yul\":5087:5204   */\n    tag_131:\n        /* \"#utility.yul\":5196:5197   */\n      0x00\n        /* \"#utility.yul\":5193:5194   */\n      dup1\n        /* \"#utility.yul\":5186:5198   */\n      revert\n        /* \"#utility.yul\":5210:5327   */\n    tag_132:\n        /* \"#utility.yul\":5319:5320   */\n      0x00\n        /* \"#utility.yul\":5316:5317   */\n      dup1\n        /* \"#utility.yul\":5309:5321   */\n      revert\n        /* \"#utility.yul\":5333:5450   */\n    tag_133:\n        /* \"#utility.yul\":5442:5443   */\n      0x00\n        /* \"#utility.yul\":5439:5440   */\n      dup1\n        /* \"#utility.yul\":5432:5444   */\n      revert\n        /* \"#utility.yul\":5456:5573   */\n    tag_134:\n        /* \"#utility.yul\":5565:5566   */\n      0x00\n        /* \"#utility.yul\":5562:5563   */\n      dup1\n        /* \"#utility.yul\":5555:5567   */\n      revert\n        /* \"#utility.yul\":5579:5681   */\n    tag_135:\n        /* \"#utility.yul\":5620:5626   */\n      0x00\n        /* \"#utility.yul\":5671:5673   */\n      0x1f\n        /* \"#utility.yul\":5667:5674   */\n      not\n        /* \"#utility.yul\":5662:5664   */\n      0x1f\n        /* \"#utility.yul\":5655:5660   */\n      dup4\n        /* \"#utility.yul\":5651:5665   */\n      add\n        /* \"#utility.yul\":5647:5675   */\n      and\n        /* \"#utility.yul\":5637:5675   */\n      swap1\n      pop\n        /* \"#utility.yul\":5579:5681   */\n      swap2\n      swap1\n      pop\n      jump\t// out\n        /* \"#utility.yul\":5687:5867   */\n    tag_136:\n        /* \"#utility.yul\":5735:5812   */\n      0x4e487b7100000000000000000000000000000000000000000000000000000000\n        /* \"#utility.yul\":5732:5733   */\n      0x00\n        /* \"#utility.yul\":5725:5813   */\n      mstore\n        /* \"#utility.yul\":5832:5836   */\n      0x41\n        /* \"#utility.yul\":5829:5830   */\n      0x04\n        /* \"#utility.yul\":5822:5837   */\n      mstore\n        /* \"#utility.yul\":5856:5860   */\n      0x24\n        /* \"#utility.yul\":5853:5854   */\n      0x00\n        /* \"#utility.yul\":5846:5861   */\n      revert\n        /* \"#utility.yul\":5873:6154   */\n    tag_137:\n        /* \"#utility.yul\":5956:5983   */\n      tag_220\n        /* \"#utility.yul\":5978:5982   */\n      dup3\n        /* \"#utility.yul\":5956:5983   */\n      tag_135\n      jump\t// in\n    tag_220:\n        /* \"#utility.yul\":5948:5954   */\n      dup2\n        /* \"#utility.yul\":5944:5984   */\n      add\n        /* \"#utility.yul\":6086:6092   */\n      dup2\n        /* \"#utility.yul\":6074:6084   */\n      dup2\n        /* \"#utility.yul\":6071:6093   */\n      lt\n        /* \"#utility.yul\":6050:6068   */\n      0xffffffffffffffff\n        /* \"#utility.yul\":6038:6048   */\n      dup3\n        /* \"#utility.yul\":6035:6069   */\n      gt\n        /* \"#utility.yul\":6032:6094   */\n      or\n        /* \"#utility.yul\":6029:6117   */\n      iszero\n      tag_221\n      jumpi\n        /* \"#utility.yul\":6097:6115   */\n      tag_222\n      tag_136\n      jump\t// in\n    tag_222:\n        /* \"#utility.yul\":6029:6117   */\n    tag_221:\n        /* \"#utility.yul\":6137:6147   */\n      dup1\n        /* \"#utility.yul\":6133:6135   */\n      0x40\n        /* \"#utility.yul\":6126:6148   */\n      mstore\n        /* \"#utility.yul\":5916:6154   */\n      pop\n        /* \"#utility.yul\":5873:6154   */\n      pop\n      pop\n      jump\t// out\n        /* \"#utility.yul\":6160:6289   */\n    tag_138:\n        /* \"#utility.yul\":6194:6200   */\n      0x00\n        /* \"#utility.yul\":6221:6241   */\n      tag_224\n      tag_130\n      jump\t// in\n    tag_224:\n        /* \"#utility.yul\":6211:6241   */\n      swap1\n      pop\n        /* \"#utility.yul\":6250:6283   */\n      tag_225\n        /* \"#utility.yul\":6278:6282   */\n      dup3\n        /* \"#utility.yul\":6270:6276   */\n      dup3\n        /* \"#utility.yul\":6250:6283   */\n      tag_137\n      jump\t// in\n    tag_225:\n        /* \"#utility.yul\":6160:6289   */\n      swap2\n      swap1\n      pop\n      jump\t// out\n        /* \"#utility.yul\":6295:6603   */\n    tag_139:\n        /* \"#utility.yul\":6357:6361   */\n      0x00\n        /* \"#utility.yul\":6447:6465   */\n      0xffffffffffffffff\n        /* \"#utility.yul\":6439:6445   */\n      dup3\n        /* \"#utility.yul\":6436:6466   */\n      gt\n        /* \"#utility.yul\":6433:6489   */\n      iszero\n      tag_227\n      jumpi\n        /* \"#utility.yul\":6469:6487   */\n      tag_228\n      tag_136\n      jump\t// in\n    tag_228:\n        /* \"#utility.yul\":6433:6489   */\n    tag_227:\n        /* \"#utility.yul\":6507:6536   */\n      tag_229\n        /* \"#utility.yul\":6529:6535   */\n      dup3\n        /* \"#utility.yul\":6507:6536   */\n      tag_135\n      jump\t// in\n    tag_229:\n        /* \"#utility.yul\":6499:6536   */\n      swap1\n      pop\n        /* \"#utility.yul\":6591:6595   */\n      0x20\n        /* \"#utility.yul\":6585:6589   */\n      dup2\n        /* \"#utility.yul\":6581:6596   */\n      add\n        /* \"#utility.yul\":6573:6596   */\n      swap1\n      pop\n        /* \"#utility.yul\":6295:6603   */\n      swap2\n      swap1\n      pop\n      jump\t// out\n        /* \"#utility.yul\":6609:6757   */\n    tag_140:\n        /* \"#utility.yul\":6707:6713   */\n      dup3\n        /* \"#utility.yul\":6702:6705   */\n      dup2\n        /* \"#utility.yul\":6697:6700   */\n      dup4\n        /* \"#utility.yul\":6684:6714   */\n      calldatacopy\n        /* \"#utility.yul\":6748:6749   */\n      0x00\n        /* \"#utility.yul\":6739:6745   */\n      dup4\n        /* \"#utility.yul\":6734:6737   */\n      dup4\n        /* \"#utility.yul\":6730:6746   */\n      add\n        /* \"#utility.yul\":6723:6750   */\n      mstore\n        /* \"#utility.yul\":6609:6757   */\n      pop\n      pop\n      pop\n      jump\t// out\n        /* \"#utility.yul\":6763:7188   */\n    tag_141:\n        /* \"#utility.yul\":6841:6846   */\n      0x00\n        /* \"#utility.yul\":6866:6932   */\n      tag_232\n        /* \"#utility.yul\":6882:6931   */\n      tag_233\n        /* \"#utility.yul\":6924:6930   */\n      dup5\n        /* \"#utility.yul\":6882:6931   */\n      tag_139\n      jump\t// in\n    tag_233:\n        /* \"#utility.yul\":6866:6932   */\n      tag_138\n      jump\t// in\n    tag_232:\n        /* \"#utility.yul\":6857:6932   */\n      swap1\n      pop\n        /* \"#utility.yul\":6955:6961   */\n      dup3\n        /* \"#utility.yul\":6948:6953   */\n      dup2\n        /* \"#utility.yul\":6941:6962   */\n      mstore\n        /* \"#utility.yul\":6993:6997   */\n      0x20\n        /* \"#utility.yul\":6986:6991   */\n      dup2\n        /* \"#utility.yul\":6982:6998   */\n      add\n        /* \"#utility.yul\":7031:7034   */\n      dup5\n        /* \"#utility.yul\":7022:7028   */\n      dup5\n        /* \"#utility.yul\":7017:7020   */\n      dup5\n        /* \"#utility.yul\":7013:7029   */\n      add\n        /* \"#utility.yul\":7010:7035   */\n      gt\n        /* \"#utility.yul\":7007:7119   */\n      iszero\n      tag_234\n      jumpi\n        /* \"#utility.yul\":7038:7117   */\n      tag_235\n      tag_134\n      jump\t// in\n    tag_235:\n        /* \"#utility.yul\":7007:7119   */\n    tag_234:\n        /* \"#utility.yul\":7128:7182   */\n      tag_236\n        /* \"#utility.yul\":7175:7181   */\n      dup5\n        /* \"#utility.yul\":7170:7173   */\n      dup3\n        /* \"#utility.yul\":7165:7168   */\n      dup6\n        /* \"#utility.yul\":7128:7182   */\n      tag_140\n      jump\t// in\n    tag_236:\n        /* \"#utility.yul\":6847:7188   */\n      pop\n        /* \"#utility.yul\":6763:7188   */\n      swap4\n      swap3\n      pop\n      pop\n      pop\n      jump\t// out\n        /* \"#utility.yul\":7208:7548   */\n    tag_142:\n        /* \"#utility.yul\":7264:7269   */\n      0x00\n        /* \"#utility.yul\":7313:7316   */\n      dup3\n        /* \"#utility.yul\":7306:7310   */\n      0x1f\n        /* \"#utility.yul\":7298:7304   */\n      dup4\n        /* \"#utility.yul\":7294:7311   */\n      add\n        /* \"#utility.yul\":7290:7317   */\n      slt\n        /* \"#utility.yul\":7280:7402   */\n      tag_238\n      jumpi\n        /* \"#utility.yul\":7321:7400   */\n      tag_239\n      tag_133\n      jump\t// in\n    tag_239:\n        /* \"#utility.yul\":7280:7402   */\n    tag_238:\n        /* \"#utility.yul\":7438:7444   */\n      dup2\n        /* \"#utility.yul\":7425:7445   */\n      calldataload\n        /* \"#utility.yul\":7463:7542   */\n      tag_240\n        /* \"#utility.yul\":7538:7541   */\n      dup5\n        /* \"#utility.yul\":7530:7536   */\n      dup3\n        /* \"#utility.yul\":7523:7527   */\n      0x20\n        /* \"#utility.yul\":7515:7521   */\n      dup7\n        /* \"#utility.yul\":7511:7528   */\n      add\n        /* \"#utility.yul\":7463:7542   */\n      tag_141\n      jump\t// in\n    tag_240:\n        /* \"#utility.yul\":7454:7542   */\n      swap2\n      pop\n        /* \"#utility.yul\":7270:7548   */\n      pop\n        /* \"#utility.yul\":7208:7548   */\n      swap3\n      swap2\n      pop\n      pop\n      jump\t// out\n        /* \"#utility.yul\":7554:7676   */\n    tag_143:\n        /* \"#utility.yul\":7627:7651   */\n      tag_242\n        /* \"#utility.yul\":7645:7650   */\n      dup2\n        /* \"#utility.yul\":7627:7651   */\n      tag_123\n      jump\t// in\n    tag_242:\n        /* \"#utility.yul\":7620:7625   */\n      dup2\n        /* \"#utility.yul\":7617:7652   */\n      eq\n        /* \"#utility.yul\":7607:7670   */\n      tag_243\n      jumpi\n        /* \"#utility.yul\":7666:7667   */\n      0x00\n        /* \"#utility.yul\":7663:7664   */\n      dup1\n        /* \"#utility.yul\":7656:7668   */\n      revert\n        /* \"#utility.yul\":7607:7670   */\n    tag_243:\n        /* \"#utility.yul\":7554:7676   */\n      pop\n      jump\t// out\n        /* \"#utility.yul\":7682:7821   */\n    tag_144:\n        /* \"#utility.yul\":7728:7733   */\n      0x00\n        /* \"#utility.yul\":7766:7772   */\n      dup2\n        /* \"#utility.yul\":7753:7773   */\n      calldataload\n        /* \"#utility.yul\":7744:7773   */\n      swap1\n      pop\n        /* \"#utility.yul\":7782:7815   */\n      tag_245\n        /* \"#utility.yul\":7809:7814   */\n      dup2\n        /* \"#utility.yul\":7782:7815   */\n      tag_143\n      jump\t// in\n    tag_245:\n        /* \"#utility.yul\":7682:7821   */\n      swap3\n      swap2\n      pop\n      pop\n      jump\t// out\n        /* \"#utility.yul\":7827:8481   */\n    tag_53:\n        /* \"#utility.yul\":7905:7911   */\n      0x00\n        /* \"#utility.yul\":7913:7919   */\n      dup1\n        /* \"#utility.yul\":7962:7964   */\n      0x40\n        /* \"#utility.yul\":7950:7959   */\n      dup4\n        /* \"#utility.yul\":7941:7948   */\n      dup6\n        /* \"#utility.yul\":7937:7960   */\n      sub\n        /* \"#utility.yul\":7933:7965   */\n      slt\n        /* \"#utility.yul\":7930:8049   */\n      iszero\n      tag_247\n      jumpi\n        /* \"#utility.yul\":7968:8047   */\n      tag_248\n      tag_131\n      jump\t// in\n    tag_248:\n        /* \"#utility.yul\":7930:8049   */\n    tag_247:\n        /* \"#utility.yul\":8116:8117   */\n      0x00\n        /* \"#utility.yul\":8105:8114   */\n      dup4\n        /* \"#utility.yul\":8101:8118   */\n      add\n        /* \"#utility.yul\":8088:8119   */\n      calldataload\n        /* \"#utility.yul\":8146:8164   */\n      0xffffffffffffffff\n        /* \"#utility.yul\":8138:8144   */\n      dup2\n        /* \"#utility.yul\":8135:8165   */\n      gt\n        /* \"#utility.yul\":8132:8249   */\n      iszero\n      tag_249\n      jumpi\n        /* \"#utility.yul\":8168:8247   */\n      tag_250\n      tag_132\n      jump\t// in\n    tag_250:\n        /* \"#utility.yul\":8132:8249   */\n    tag_249:\n        /* \"#utility.yul\":8273:8336   */\n      tag_251\n        /* \"#utility.yul\":8328:8335   */\n      dup6\n        /* \"#utility.yul\":8319:8325   */\n      dup3\n        /* \"#utility.yul\":8308:8317   */\n      dup7\n        /* \"#utility.yul\":8304:8326   */\n      add\n        /* \"#utility.yul\":8273:8336   */\n      tag_142\n      jump\t// in\n    tag_251:\n        /* \"#utility.yul\":8263:8336   */\n      swap3\n      pop\n        /* \"#utility.yul\":8059:8346   */\n      pop\n        /* \"#utility.yul\":8385:8387   */\n      0x20\n        /* \"#utility.yul\":8411:8464   */\n      tag_252\n        /* \"#utility.yul\":8456:8463   */\n      dup6\n        /* \"#utility.yul\":8447:8453   */\n      dup3\n        /* \"#utility.yul\":8436:8445   */\n      dup7\n        /* \"#utility.yul\":8432:8454   */\n      add\n        /* \"#utility.yul\":8411:8464   */\n      tag_144\n      jump\t// in\n    tag_252:\n        /* \"#utility.yul\":8401:8464   */\n      swap2\n      pop\n        /* \"#utility.yul\":8356:8474   */\n      pop\n        /* \"#utility.yul\":7827:8481   */\n      swap3\n      pop\n      swap3\n      swap1\n      pop\n      jump\t// out\n        /* \"#utility.yul\":8487:8586   */\n    tag_145:\n        /* \"#utility.yul\":8539:8545   */\n      0x00\n        /* \"#utility.yul\":8573:8578   */\n      dup2\n        /* \"#utility.yul\":8567:8579   */\n      mload\n        /* \"#utility.yul\":8557:8579   */\n      swap1\n      pop\n        /* \"#utility.yul\":8487:8586   */\n      swap2\n      swap1\n      pop\n      jump\t// out\n        /* \"#utility.yul\":8592:8731   */\n    tag_146:\n        /* \"#utility.yul\":8681:8687   */\n      dup3\n        /* \"#utility.yul\":8676:8679   */\n      dup2\n        /* \"#utility.yul\":8671:8674   */\n      dup4\n        /* \"#utility.yul\":8665:8688   */\n      mcopy\n        /* \"#utility.yul\":8722:8723   */\n      0x00\n        /* \"#utility.yul\":8713:8719   */\n      dup4\n        /* \"#utility.yul\":8708:8711   */\n      dup4\n        /* \"#utility.yul\":8704:8720   */\n      add\n        /* \"#utility.yul\":8697:8724   */\n      mstore\n        /* \"#utility.yul\":8592:8731   */\n      pop\n      pop\n      pop\n      jump\t// out\n        /* \"#utility.yul\":8737:9114   */\n    tag_147:\n        /* \"#utility.yul\":8825:8828   */\n      0x00\n        /* \"#utility.yul\":8853:8892   */\n      tag_256\n        /* \"#utility.yul\":8886:8891   */\n      dup3\n        /* \"#utility.yul\":8853:8892   */\n      tag_145\n      jump\t// in\n    tag_256:\n        /* \"#utility.yul\":8908:8979   */\n      tag_257\n        /* \"#utility.yul\":8972:8978   */\n      dup2\n        /* \"#utility.yul\":8967:8970   */\n      dup6\n        /* \"#utility.yul\":8908:8979   */\n      tag_117\n      jump\t// in\n    tag_257:\n        /* \"#utility.yul\":8901:8979   */\n      swap4\n      pop\n        /* \"#utility.yul\":8988:9053   */\n      tag_258\n        /* \"#utility.yul\":9046:9052   */\n      dup2\n        /* \"#utility.yul\":9041:9044   */\n      dup6\n        /* \"#utility.yul\":9034:9038   */\n      0x20\n        /* \"#utility.yul\":9027:9032   */\n      dup7\n        /* \"#utility.yul\":9023:9039   */\n      add\n        /* \"#utility.yul\":8988:9053   */\n      tag_146\n      jump\t// in\n    tag_258:\n        /* \"#utility.yul\":9078:9107   */\n      tag_259\n        /* \"#utility.yul\":9100:9106   */\n      dup2\n        /* \"#utility.yul\":9078:9107   */\n      tag_135\n      jump\t// in\n    tag_259:\n        /* \"#utility.yul\":9073:9076   */\n      dup5\n        /* \"#utility.yul\":9069:9108   */\n      add\n        /* \"#utility.yul\":9062:9108   */\n      swap2\n      pop\n        /* \"#utility.yul\":8829:9114   */\n      pop\n        /* \"#utility.yul\":8737:9114   */\n      swap3\n      swap2\n      pop\n      pop\n      jump\t// out\n        /* \"#utility.yul\":9120:9543   */\n    tag_59:\n        /* \"#utility.yul\":9261:9265   */\n      0x00\n        /* \"#utility.yul\":9299:9301   */\n      0x40\n        /* \"#utility.yul\":9288:9297   */\n      dup3\n        /* \"#utility.yul\":9284:9302   */\n      add\n        /* \"#utility.yul\":9276:9302   */\n      swap1\n      pop\n        /* \"#utility.yul\":9348:9357   */\n      dup2\n        /* \"#utility.yul\":9342:9346   */\n      dup2\n        /* \"#utility.yul\":9338:9358   */\n      sub\n        /* \"#utility.yul\":9334:9335   */\n      0x00\n        /* \"#utility.yul\":9323:9332   */\n      dup4\n        /* \"#utility.yul\":9319:9336   */\n      add\n        /* \"#utility.yul\":9312:9359   */\n      mstore\n        /* \"#utility.yul\":9376:9454   */\n      tag_261\n        /* \"#utility.yul\":9449:9453   */\n      dup2\n        /* \"#utility.yul\":9440:9446   */\n      dup6\n        /* \"#utility.yul\":9376:9454   */\n      tag_147\n      jump\t// in\n    tag_261:\n        /* \"#utility.yul\":9368:9454   */\n      swap1\n      pop\n        /* \"#utility.yul\":9464:9536   */\n      tag_262\n        /* \"#utility.yul\":9532:9534   */\n      0x20\n        /* \"#utility.yul\":9521:9530   */\n      dup4\n        /* \"#utility.yul\":9517:9535   */\n      add\n        /* \"#utility.yul\":9508:9514   */\n      dup5\n        /* \"#utility.yul\":9464:9536   */\n      tag_129\n      jump\t// in\n    tag_262:\n        /* \"#utility.yul\":9120:9543   */\n      swap4\n      swap3\n      pop\n      pop\n      pop\n      jump\t// out\n        /* \"#utility.yul\":9549:9675   */\n    tag_148:\n        /* \"#utility.yul\":9586:9593   */\n      0x00\n        /* \"#utility.yul\":9626:9668   */\n      0xffffffffffffffffffffffffffffffffffffffff\n        /* \"#utility.yul\":9619:9624   */\n      dup3\n        /* \"#utility.yul\":9615:9669   */\n      and\n        /* \"#utility.yul\":9604:9669   */\n      swap1\n      pop\n        /* \"#utility.yul\":9549:9675   */\n      swap2\n      swap1\n      pop\n      jump\t// out\n        /* \"#utility.yul\":9681:9777   */\n    tag_149:\n        /* \"#utility.yul\":9718:9725   */\n      0x00\n        /* \"#utility.yul\":9747:9771   */\n      tag_265\n        /* \"#utility.yul\":9765:9770   */\n      dup3\n        /* \"#utility.yul\":9747:9771   */\n      tag_148\n      jump\t// in\n    tag_265:\n        /* \"#utility.yul\":9736:9771   */\n      swap1\n      pop\n        /* \"#utility.yul\":9681:9777   */\n      swap2\n      swap1\n      pop\n      jump\t// out\n        /* \"#utility.yul\":9783:9901   */\n    tag_150:\n        /* \"#utility.yul\":9870:9894   */\n      tag_267\n        /* \"#utility.yul\":9888:9893   */\n      dup2\n        /* \"#utility.yul\":9870:9894   */\n      tag_149\n      jump\t// in\n    tag_267:\n        /* \"#utility.yul\":9865:9868   */\n      dup3\n        /* \"#utility.yul\":9858:9895   */\n      mstore\n        /* \"#utility.yul\":9783:9901   */\n      pop\n      pop\n      jump\t// out\n        /* \"#utility.yul\":9907:10129   */\n    tag_64:\n        /* \"#utility.yul\":10000:10004   */\n      0x00\n        /* \"#utility.yul\":10038:10040   */\n      0x20\n        /* \"#utility.yul\":10027:10036   */\n      dup3\n        /* \"#utility.yul\":10023:10041   */\n      add\n        /* \"#utility.yul\":10015:10041   */\n      swap1\n      pop\n        /* \"#utility.yul\":10051:10122   */\n      tag_269\n        /* \"#utility.yul\":10119:10120   */\n      0x00\n        /* \"#utility.yul\":10108:10117   */\n      dup4\n        /* \"#utility.yul\":10104:10121   */\n      add\n        /* \"#utility.yul\":10095:10101   */\n      dup5\n        /* \"#utility.yul\":10051:10122   */\n      tag_150\n      jump\t// in\n    tag_269:\n        /* \"#utility.yul\":9907:10129   */\n      swap3\n      swap2\n      pop\n      pop\n      jump\t// out\n        /* \"#utility.yul\":10135:10257   */\n    tag_151:\n        /* \"#utility.yul\":10208:10232   */\n      tag_271\n        /* \"#utility.yul\":10226:10231   */\n      dup2\n        /* \"#utility.yul\":10208:10232   */\n      tag_149\n      jump\t// in\n    tag_271:\n        /* \"#utility.yul\":10201:10206   */\n      dup2\n        /* \"#utility.yul\":10198:10233   */\n      eq\n        /* \"#utility.yul\":10188:10251   */\n      tag_272\n      jumpi\n        /* \"#utility.yul\":10247:10248   */\n      0x00\n        /* \"#utility.yul\":10244:10245   */\n      dup1\n        /* \"#utility.yul\":10237:10249   */\n      revert\n        /* \"#utility.yul\":10188:10251   */\n    tag_272:\n        /* \"#utility.yul\":10135:10257   */\n      pop\n      jump\t// out\n        /* \"#utility.yul\":10263:10402   */\n    tag_152:\n        /* \"#utility.yul\":10309:10314   */\n      0x00\n        /* \"#utility.yul\":10347:10353   */\n      dup2\n        /* \"#utility.yul\":10334:10354   */\n      calldataload\n        /* \"#utility.yul\":10325:10354   */\n      swap1\n      pop\n        /* \"#utility.yul\":10363:10396   */\n      tag_274\n        /* \"#utility.yul\":10390:10395   */\n      dup2\n        /* \"#utility.yul\":10363:10396   */\n      tag_151\n      jump\t// in\n    tag_274:\n        /* \"#utility.yul\":10263:10402   */\n      swap3\n      swap2\n      pop\n      pop\n      jump\t// out\n        /* \"#utility.yul\":10408:10882   */\n    tag_76:\n        /* \"#utility.yul\":10476:10482   */\n      0x00\n        /* \"#utility.yul\":10484:10490   */\n      dup1\n        /* \"#utility.yul\":10533:10535   */\n      0x40\n        /* \"#utility.yul\":10521:10530   */\n      dup4\n        /* \"#utility.yul\":10512:10519   */\n      dup6\n        /* \"#utility.yul\":10508:10531   */\n      sub\n        /* \"#utility.yul\":10504:10536   */\n      slt\n        /* \"#utility.yul\":10501:10620   */\n      iszero\n      tag_276\n      jumpi\n        /* \"#utility.yul\":10539:10618   */\n      tag_277\n      tag_131\n      jump\t// in\n    tag_277:\n        /* \"#utility.yul\":10501:10620   */\n    tag_276:\n        /* \"#utility.yul\":10659:10660   */\n      0x00\n        /* \"#utility.yul\":10684:10737   */\n      tag_278\n        /* \"#utility.yul\":10729:10736   */\n      dup6\n        /* \"#utility.yul\":10720:10726   */\n      dup3\n        /* \"#utility.yul\":10709:10718   */\n      dup7\n        /* \"#utility.yul\":10705:10727   */\n      add\n        /* \"#utility.yul\":10684:10737   */\n      tag_144\n      jump\t// in\n    tag_278:\n        /* \"#utility.yul\":10674:10737   */\n      swap3\n      pop\n        /* \"#utility.yul\":10630:10747   */\n      pop\n        /* \"#utility.yul\":10786:10788   */\n      0x20\n        /* \"#utility.yul\":10812:10865   */\n      tag_279\n        /* \"#utility.yul\":10857:10864   */\n      dup6\n        /* \"#utility.yul\":10848:10854   */\n      dup3\n        /* \"#utility.yul\":10837:10846   */\n      dup7\n        /* \"#utility.yul\":10833:10855   */\n      add\n        /* \"#utility.yul\":10812:10865   */\n      tag_152\n      jump\t// in\n    tag_279:\n        /* \"#utility.yul\":10802:10865   */\n      swap2\n      pop\n        /* \"#utility.yul\":10757:10875   */\n      pop\n        /* \"#utility.yul\":10408:10882   */\n      swap3\n      pop\n      swap3\n      swap1\n      pop\n      jump\t// out\n        /* \"#utility.yul\":10888:10978   */\n    tag_153:\n        /* \"#utility.yul\":10922:10929   */\n      0x00\n        /* \"#utility.yul\":10965:10970   */\n      dup2\n        /* \"#utility.yul\":10958:10971   */\n      iszero\n        /* \"#utility.yul\":10951:10972   */\n      iszero\n        /* \"#utility.yul\":10940:10972   */\n      swap1\n      pop\n        /* \"#utility.yul\":10888:10978   */\n      swap2\n      swap1\n      pop\n      jump\t// out\n        /* \"#utility.yul\":10984:11093   */\n    tag_154:\n        /* \"#utility.yul\":11065:11086   */\n      tag_282\n        /* \"#utility.yul\":11080:11085   */\n      dup2\n        /* \"#utility.yul\":11065:11086   */\n      tag_153\n      jump\t// in\n    tag_282:\n        /* \"#utility.yul\":11060:11063   */\n      dup3\n        /* \"#utility.yul\":11053:11087   */\n      mstore\n        /* \"#utility.yul\":10984:11093   */\n      pop\n      pop\n      jump\t// out\n        /* \"#utility.yul\":11099:11309   */\n    tag_79:\n        /* \"#utility.yul\":11186:11190   */\n      0x00\n        /* \"#utility.yul\":11224:11226   */\n      0x20\n        /* \"#utility.yul\":11213:11222   */\n      dup3\n        /* \"#utility.yul\":11209:11227   */\n      add\n        /* \"#utility.yul\":11201:11227   */\n      swap1\n      pop\n        /* \"#utility.yul\":11237:11302   */\n      tag_284\n        /* \"#utility.yul\":11299:11300   */\n      0x00\n        /* \"#utility.yul\":11288:11297   */\n      dup4\n        /* \"#utility.yul\":11284:11301   */\n      add\n        /* \"#utility.yul\":11275:11281   */\n      dup5\n        /* \"#utility.yul\":11237:11302   */\n      tag_154\n      jump\t// in\n    tag_284:\n        /* \"#utility.yul\":11099:11309   */\n      swap3\n      swap2\n      pop\n      pop\n      jump\t// out\n        /* \"#utility.yul\":11315:11495   */\n    tag_155:\n        /* \"#utility.yul\":11363:11440   */\n      0x4e487b7100000000000000000000000000000000000000000000000000000000\n        /* \"#utility.yul\":11360:11361   */\n      0x00\n        /* \"#utility.yul\":11353:11441   */\n      mstore\n        /* \"#utility.yul\":11460:11464   */\n      0x22\n        /* \"#utility.yul\":11457:11458   */\n      0x04\n        /* \"#utility.yul\":11450:11465   */\n      mstore\n        /* \"#utility.yul\":11484:11488   */\n      0x24\n        /* \"#utility.yul\":11481:11482   */\n      0x00\n        /* \"#utility.yul\":11474:11489   */\n      revert\n        /* \"#utility.yul\":11501:11821   */\n    tag_107:\n        /* \"#utility.yul\":11545:11551   */\n      0x00\n        /* \"#utility.yul\":11582:11583   */\n      0x02\n        /* \"#utility.yul\":11576:11580   */\n      dup3\n        /* \"#utility.yul\":11572:11584   */\n      div\n        /* \"#utility.yul\":11562:11584   */\n      swap1\n      pop\n        /* \"#utility.yul\":11629:11630   */\n      0x01\n        /* \"#utility.yul\":11623:11627   */\n      dup3\n        /* \"#utility.yul\":11619:11631   */\n      and\n        /* \"#utility.yul\":11650:11668   */\n      dup1\n        /* \"#utility.yul\":11640:11721   */\n      tag_287\n      jumpi\n        /* \"#utility.yul\":11706:11710   */\n      0x7f\n        /* \"#utility.yul\":11698:11704   */\n      dup3\n        /* \"#utility.yul\":11694:11711   */\n      and\n        /* \"#utility.yul\":11684:11711   */\n      swap2\n      pop\n        /* \"#utility.yul\":11640:11721   */\n    tag_287:\n        /* \"#utility.yul\":11768:11770   */\n      0x20\n        /* \"#utility.yul\":11760:11766   */\n      dup3\n        /* \"#utility.yul\":11757:11771   */\n      lt\n        /* \"#utility.yul\":11737:11755   */\n      dup2\n        /* \"#utility.yul\":11734:11772   */\n      sub\n        /* \"#utility.yul\":11731:11815   */\n      tag_288\n      jumpi\n        /* \"#utility.yul\":11787:11805   */\n      tag_289\n      tag_155\n      jump\t// in\n    tag_289:\n        /* \"#utility.yul\":11731:11815   */\n    tag_288:\n        /* \"#utility.yul\":11552:11821   */\n      pop\n        /* \"#utility.yul\":11501:11821   */\n      swap2\n      swap1\n      pop\n      jump\t// out\n        /* \"#utility.yul\":11827:11968   */\n    tag_156:\n        /* \"#utility.yul\":11876:11880   */\n      0x00\n        /* \"#utility.yul\":11899:11902   */\n      dup2\n        /* \"#utility.yul\":11891:11902   */\n      swap1\n      pop\n        /* \"#utility.yul\":11922:11925   */\n      dup2\n        /* \"#utility.yul\":11919:11920   */\n      0x00\n        /* \"#utility.yul\":11912:11926   */\n      mstore\n        /* \"#utility.yul\":11956:11960   */\n      0x20\n        /* \"#utility.yul\":11953:11954   */\n      0x00\n        /* \"#utility.yul\":11943:11961   */\n      keccak256\n        /* \"#utility.yul\":11935:11961   */\n      swap1\n      pop\n        /* \"#utility.yul\":11827:11968   */\n      swap2\n      swap1\n      pop\n      jump\t// out\n        /* \"#utility.yul\":11998:12829   */\n    tag_157:\n        /* \"#utility.yul\":12083:12086   */\n      0x00\n        /* \"#utility.yul\":12120:12125   */\n      dup2\n        /* \"#utility.yul\":12114:12126   */\n      sload\n        /* \"#utility.yul\":12149:12185   */\n      tag_292\n        /* \"#utility.yul\":12175:12184   */\n      dup2\n        /* \"#utility.yul\":12149:12185   */\n      tag_107\n      jump\t// in\n    tag_292:\n        /* \"#utility.yul\":12201:12272   */\n      tag_293\n        /* \"#utility.yul\":12265:12271   */\n      dup2\n        /* \"#utility.yul\":12260:12263   */\n      dup7\n        /* \"#utility.yul\":12201:12272   */\n      tag_117\n      jump\t// in\n    tag_293:\n        /* \"#utility.yul\":12194:12272   */\n      swap5\n      pop\n        /* \"#utility.yul\":12303:12304   */\n      0x01\n        /* \"#utility.yul\":12292:12301   */\n      dup3\n        /* \"#utility.yul\":12288:12305   */\n      and\n        /* \"#utility.yul\":12319:12320   */\n      0x00\n        /* \"#utility.yul\":12314:12478   */\n      dup2\n      eq\n      tag_295\n      jumpi\n        /* \"#utility.yul\":12492:12493   */\n      0x01\n        /* \"#utility.yul\":12487:12823   */\n      dup2\n      eq\n      tag_296\n      jumpi\n        /* \"#utility.yul\":12281:12823   */\n      jump(tag_294)\n        /* \"#utility.yul\":12314:12478   */\n    tag_295:\n        /* \"#utility.yul\":12398:12402   */\n      0xff\n        /* \"#utility.yul\":12394:12403   */\n      not\n        /* \"#utility.yul\":12383:12392   */\n      dup4\n        /* \"#utility.yul\":12379:12404   */\n      and\n        /* \"#utility.yul\":12374:12377   */\n      dup7\n        /* \"#utility.yul\":12367:12405   */\n      mstore\n        /* \"#utility.yul\":12458:12464   */\n      dup2\n        /* \"#utility.yul\":12451:12465   */\n      iszero\n        /* \"#utility.yul\":12444:12466   */\n      iszero\n        /* \"#utility.yul\":12438:12442   */\n      0x20\n        /* \"#utility.yul\":12434:12467   */\n      mul\n        /* \"#utility.yul\":12429:12432   */\n      dup7\n        /* \"#utility.yul\":12425:12468   */\n      add\n        /* \"#utility.yul\":12418:12468   */\n      swap4\n      pop\n        /* \"#utility.yul\":12314:12478   */\n      jump(tag_294)\n        /* \"#utility.yul\":12487:12823   */\n    tag_296:\n        /* \"#utility.yul\":12554:12592   */\n      tag_297\n        /* \"#utility.yul\":12586:12591   */\n      dup6\n        /* \"#utility.yul\":12554:12592   */\n      tag_156\n      jump\t// in\n    tag_297:\n        /* \"#utility.yul\":12614:12615   */\n      0x00\n        /* \"#utility.yul\":12628:12782   */\n    tag_298:\n        /* \"#utility.yul\":12642:12648   */\n      dup4\n        /* \"#utility.yul\":12639:12640   */\n      dup2\n        /* \"#utility.yul\":12636:12649   */\n      lt\n        /* \"#utility.yul\":12628:12782   */\n      iszero\n      tag_300\n      jumpi\n        /* \"#utility.yul\":12716:12723   */\n      dup2\n        /* \"#utility.yul\":12710:12724   */\n      sload\n        /* \"#utility.yul\":12706:12707   */\n      dup2\n        /* \"#utility.yul\":12701:12704   */\n      dup10\n        /* \"#utility.yul\":12697:12708   */\n      add\n        /* \"#utility.yul\":12690:12725   */\n      mstore\n        /* \"#utility.yul\":12766:12767   */\n      0x01\n        /* \"#utility.yul\":12757:12764   */\n      dup3\n        /* \"#utility.yul\":12753:12768   */\n      add\n        /* \"#utility.yul\":12742:12768   */\n      swap2\n      pop\n        /* \"#utility.yul\":12664:12668   */\n      0x20\n        /* \"#utility.yul\":12661:12662   */\n      dup2\n        /* \"#utility.yul\":12657:12669   */\n      add\n        /* \"#utility.yul\":12652:12669   */\n      swap1\n      pop\n        /* \"#utility.yul\":12628:12782   */\n      jump(tag_298)\n    tag_300:\n        /* \"#utility.yul\":12811:12812   */\n      dup1\n        /* \"#utility.yul\":12806:12809   */\n      dup9\n        /* \"#utility.yul\":12802:12813   */\n      add\n        /* \"#utility.yul\":12795:12813   */\n      swap6\n      pop\n        /* \"#utility.yul\":12494:12823   */\n      pop\n      pop\n        /* \"#utility.yul\":12281:12823   */\n    tag_294:\n      pop\n        /* \"#utility.yul\":12087:12829   */\n      pop\n      pop\n        /* \"#utility.yul\":11998:12829   */\n      swap3\n      swap2\n      pop\n      pop\n      jump\t// out\n        /* \"#utility.yul\":12835:13142   */\n    tag_82:\n        /* \"#utility.yul\":12945:12949   */\n      0x00\n        /* \"#utility.yul\":12983:12985   */\n      0x20\n        /* \"#utility.yul\":12972:12981   */\n      dup3\n        /* \"#utility.yul\":12968:12986   */\n      add\n        /* \"#utility.yul\":12960:12986   */\n      swap1\n      pop\n        /* \"#utility.yul\":13032:13041   */\n      dup2\n        /* \"#utility.yul\":13026:13030   */\n      dup2\n        /* \"#utility.yul\":13022:13042   */\n      sub\n        /* \"#utility.yul\":13018:13019   */\n      0x00\n        /* \"#utility.yul\":13007:13016   */\n      dup4\n        /* \"#utility.yul\":13003:13020   */\n      add\n        /* \"#utility.yul\":12996:13043   */\n      mstore\n        /* \"#utility.yul\":13060:13135   */\n      tag_302\n        /* \"#utility.yul\":13130:13134   */\n      dup2\n        /* \"#utility.yul\":13121:13127   */\n      dup5\n        /* \"#utility.yul\":13060:13135   */\n      tag_157\n      jump\t// in\n    tag_302:\n        /* \"#utility.yul\":13052:13135   */\n      swap1\n      pop\n        /* \"#utility.yul\":12835:13142   */\n      swap3\n      swap2\n      pop\n      pop\n      jump\t// out\n        /* \"#utility.yul\":13148:13339   */\n    tag_84:\n        /* \"#utility.yul\":13188:13191   */\n      0x00\n        /* \"#utility.yul\":13207:13227   */\n      tag_304\n        /* \"#utility.yul\":13225:13226   */\n      dup3\n        /* \"#utility.yul\":13207:13227   */\n      tag_123\n      jump\t// in\n    tag_304:\n        /* \"#utility.yul\":13202:13227   */\n      swap2\n      pop\n        /* \"#utility.yul\":13241:13261   */\n      tag_305\n        /* \"#utility.yul\":13259:13260   */\n      dup4\n        /* \"#utility.yul\":13241:13261   */\n      tag_123\n      jump\t// in\n    tag_305:\n        /* \"#utility.yul\":13236:13261   */\n      swap3\n      pop\n        /* \"#utility.yul\":13284:13285   */\n      dup3\n        /* \"#utility.yul\":13281:13282   */\n      dup3\n        /* \"#utility.yul\":13277:13286   */\n      add\n        /* \"#utility.yul\":13270:13286   */\n      swap1\n      pop\n        /* \"#utility.yul\":13305:13308   */\n      dup1\n        /* \"#utility.yul\":13302:13303   */\n      dup3\n        /* \"#utility.yul\":13299:13309   */\n      gt\n        /* \"#utility.yul\":13296:13332   */\n      iszero\n      tag_306\n      jumpi\n        /* \"#utility.yul\":13312:13330   */\n      tag_307\n      tag_122\n      jump\t// in\n    tag_307:\n        /* \"#utility.yul\":13296:13332   */\n    tag_306:\n        /* \"#utility.yul\":13148:13339   */\n      swap3\n      swap2\n      pop\n      pop\n      jump\t// out\n        /* \"#utility.yul\":13345:13525   */\n    tag_158:\n        /* \"#utility.yul\":13393:13470   */\n      0x4e487b7100000000000000000000000000000000000000000000000000000000\n        /* \"#utility.yul\":13390:13391   */\n      0x00\n        /* \"#utility.yul\":13383:13471   */\n      mstore\n        /* \"#utility.yul\":13490:13494   */\n      0x12\n        /* \"#utility.yul\":13487:13488   */\n      0x04\n        /* \"#utility.yul\":13480:13495   */\n      mstore\n        /* \"#utility.yul\":13514:13518   */\n      0x24\n        /* \"#utility.yul\":13511:13512   */\n      0x00\n        /* \"#utility.yul\":13504:13519   */\n      revert\n        /* \"#utility.yul\":13531:13716   */\n    tag_88:\n        /* \"#utility.yul\":13571:13572   */\n      0x00\n        /* \"#utility.yul\":13588:13608   */\n      tag_310\n        /* \"#utility.yul\":13606:13607   */\n      dup3\n        /* \"#utility.yul\":13588:13608   */\n      tag_123\n      jump\t// in\n    tag_310:\n        /* \"#utility.yul\":13583:13608   */\n      swap2\n      pop\n        /* \"#utility.yul\":13622:13642   */\n      tag_311\n        /* \"#utility.yul\":13640:13641   */\n      dup4\n        /* \"#utility.yul\":13622:13642   */\n      tag_123\n      jump\t// in\n    tag_311:\n        /* \"#utility.yul\":13617:13642   */\n      swap3\n      pop\n        /* \"#utility.yul\":13661:13662   */\n      dup3\n        /* \"#utility.yul\":13651:13686   */\n      tag_312\n      jumpi\n        /* \"#utility.yul\":13666:13684   */\n      tag_313\n      tag_158\n      jump\t// in\n    tag_313:\n        /* \"#utility.yul\":13651:13686   */\n    tag_312:\n        /* \"#utility.yul\":13708:13709   */\n      dup3\n        /* \"#utility.yul\":13705:13706   */\n      dup3\n        /* \"#utility.yul\":13701:13710   */\n      div\n        /* \"#utility.yul\":13696:13710   */\n      swap1\n      pop\n        /* \"#utility.yul\":13531:13716   */\n      swap3\n      swap2\n      pop\n      pop\n      jump\t// out\n        /* \"#utility.yul\":13722:14132   */\n    tag_90:\n        /* \"#utility.yul\":13762:13769   */\n      0x00\n        /* \"#utility.yul\":13785:13805   */\n      tag_315\n        /* \"#utility.yul\":13803:13804   */\n      dup3\n        /* \"#utility.yul\":13785:13805   */\n      tag_123\n      jump\t// in\n    tag_315:\n        /* \"#utility.yul\":13780:13805   */\n      swap2\n      pop\n        /* \"#utility.yul\":13819:13839   */\n      tag_316\n        /* \"#utility.yul\":13837:13838   */\n      dup4\n        /* \"#utility.yul\":13819:13839   */\n      tag_123\n      jump\t// in\n    tag_316:\n        /* \"#utility.yul\":13814:13839   */\n      swap3\n      pop\n        /* \"#utility.yul\":13874:13875   */\n      dup3\n        /* \"#utility.yul\":13871:13872   */\n      dup3\n        /* \"#utility.yul\":13867:13876   */\n      mul\n        /* \"#utility.yul\":13896:13926   */\n      tag_317\n        /* \"#utility.yul\":13914:13925   */\n      dup2\n        /* \"#utility.yul\":13896:13926   */\n      tag_123\n      jump\t// in\n    tag_317:\n        /* \"#utility.yul\":13885:13926   */\n      swap2\n      pop\n        /* \"#utility.yul\":14075:14076   */\n      dup3\n        /* \"#utility.yul\":14066:14073   */\n      dup3\n        /* \"#utility.yul\":14062:14077   */\n      div\n        /* \"#utility.yul\":14059:14060   */\n      dup5\n        /* \"#utility.yul\":14056:14078   */\n      eq\n        /* \"#utility.yul\":14036:14037   */\n      dup4\n        /* \"#utility.yul\":14029:14038   */\n      iszero\n        /* \"#utility.yul\":14009:14092   */\n      or\n        /* \"#utility.yul\":13986:14125   */\n      tag_318\n      jumpi\n        /* \"#utility.yul\":14105:14123   */\n      tag_319\n      tag_122\n      jump\t// in\n    tag_319:\n        /* \"#utility.yul\":13986:14125   */\n    tag_318:\n        /* \"#utility.yul\":13770:14132   */\n      pop\n        /* \"#utility.yul\":13722:14132   */\n      swap3\n      swap2\n      pop\n      pop\n      jump\t// out\n        /* \"#utility.yul\":14138:14332   */\n    tag_92:\n        /* \"#utility.yul\":14178:14182   */\n      0x00\n        /* \"#utility.yul\":14198:14218   */\n      tag_321\n        /* \"#utility.yul\":14216:14217   */\n      dup3\n        /* \"#utility.yul\":14198:14218   */\n      tag_123\n      jump\t// in\n    tag_321:\n        /* \"#utility.yul\":14193:14218   */\n      swap2\n      pop\n        /* \"#utility.yul\":14232:14252   */\n      tag_322\n        /* \"#utility.yul\":14250:14251   */\n      dup4\n        /* \"#utility.yul\":14232:14252   */\n      tag_123\n      jump\t// in\n    tag_322:\n        /* \"#utility.yul\":14227:14252   */\n      swap3\n      pop\n        /* \"#utility.yul\":14276:14277   */\n      dup3\n        /* \"#utility.yul\":14273:14274   */\n      dup3\n        /* \"#utility.yul\":14269:14278   */\n      sub\n        /* \"#utility.yul\":14261:14278   */\n      swap1\n      pop\n        /* \"#utility.yul\":14300:14301   */\n      dup2\n        /* \"#utility.yul\":14294:14298   */\n      dup2\n        /* \"#utility.yul\":14291:14302   */\n      gt\n        /* \"#utility.yul\":14288:14325   */\n      iszero\n      tag_323\n      jumpi\n        /* \"#utility.yul\":14305:14323   */\n      tag_324\n      tag_122\n      jump\t// in\n    tag_324:\n        /* \"#utility.yul\":14288:14325   */\n    tag_323:\n        /* \"#utility.yul\":14138:14332   */\n      swap3\n      swap2\n      pop\n      pop\n      jump\t// out\n        /* \"#utility.yul\":14338:14520   */\n    tag_159:\n        /* \"#utility.yul\":14478:14512   */\n      0x4f776e61626c653a2063616c6c6572206973206e6f7420746865206f776e6572\n        /* \"#utility.yul\":14474:14475   */\n      0x00\n        /* \"#utility.yul\":14466:14472   */\n      dup3\n        /* \"#utility.yul\":14462:14476   */\n      add\n        /* \"#utility.yul\":14455:14513   */\n      mstore\n        /* \"#utility.yul\":14338:14520   */\n      pop\n      jump\t// out\n        /* \"#utility.yul\":14526:14892   */\n    tag_160:\n        /* \"#utility.yul\":14668:14671   */\n      0x00\n        /* \"#utility.yul\":14689:14756   */\n      tag_327\n        /* \"#utility.yul\":14753:14755   */\n      0x20\n        /* \"#utility.yul\":14748:14751   */\n      dup4\n        /* \"#utility.yul\":14689:14756   */\n      tag_117\n      jump\t// in\n    tag_327:\n        /* \"#utility.yul\":14682:14756   */\n      swap2\n      pop\n        /* \"#utility.yul\":14765:14858   */\n      tag_328\n        /* \"#utility.yul\":14854:14857   */\n      dup3\n        /* \"#utility.yul\":14765:14858   */\n      tag_159\n      jump\t// in\n    tag_328:\n        /* \"#utility.yul\":14883:14885   */\n      0x20\n        /* \"#utility.yul\":14878:14881   */\n      dup3\n        /* \"#utility.yul\":14874:14886   */\n      add\n        /* \"#utility.yul\":14867:14886   */\n      swap1\n      pop\n        /* \"#utility.yul\":14526:14892   */\n      swap2\n      swap1\n      pop\n      jump\t// out\n        /* \"#utility.yul\":14898:15317   */\n    tag_98:\n        /* \"#utility.yul\":15064:15068   */\n      0x00\n        /* \"#utility.yul\":15102:15104   */\n      0x20\n        /* \"#utility.yul\":15091:15100   */\n      dup3\n        /* \"#utility.yul\":15087:15105   */\n      add\n        /* \"#utility.yul\":15079:15105   */\n      swap1\n      pop\n        /* \"#utility.yul\":15151:15160   */\n      dup2\n        /* \"#utility.yul\":15145:15149   */\n      dup2\n        /* \"#utility.yul\":15141:15161   */\n      sub\n        /* \"#utility.yul\":15137:15138   */\n      0x00\n        /* \"#utility.yul\":15126:15135   */\n      dup4\n        /* \"#utility.yul\":15122:15139   */\n      add\n        /* \"#utility.yul\":15115:15162   */\n      mstore\n        /* \"#utility.yul\":15179:15310   */\n      tag_330\n        /* \"#utility.yul\":15305:15309   */\n      dup2\n        /* \"#utility.yul\":15179:15310   */\n      tag_160\n      jump\t// in\n    tag_330:\n        /* \"#utility.yul\":15171:15310   */\n      swap1\n      pop\n        /* \"#utility.yul\":14898:15317   */\n      swap2\n      swap1\n      pop\n      jump\t// out\n        /* \"#utility.yul\":15323:15416   */\n    tag_161:\n        /* \"#utility.yul\":15360:15366   */\n      0x00\n        /* \"#utility.yul\":15407:15409   */\n      0x20\n        /* \"#utility.yul\":15402:15404   */\n      0x1f\n        /* \"#utility.yul\":15395:15400   */\n      dup4\n        /* \"#utility.yul\":15391:15405   */\n      add\n        /* \"#utility.yul\":15387:15410   */\n      div\n        /* \"#utility.yul\":15377:15410   */\n      swap1\n      pop\n        /* \"#utility.yul\":15323:15416   */\n      swap2\n      swap1\n      pop\n      jump\t// out\n        /* \"#utility.yul\":15422:15529   */\n    tag_162:\n        /* \"#utility.yul\":15466:15474   */\n      0x00\n        /* \"#utility.yul\":15516:15521   */\n      dup3\n        /* \"#utility.yul\":15510:15514   */\n      dup3\n        /* \"#utility.yul\":15506:15522   */\n      shl\n        /* \"#utility.yul\":15485:15522   */\n      swap1\n      pop\n        /* \"#utility.yul\":15422:15529   */\n      swap3\n      swap2\n      pop\n      pop\n      jump\t// out\n        /* \"#utility.yul\":15535:15928   */\n    tag_163:\n        /* \"#utility.yul\":15604:15610   */\n      0x00\n        /* \"#utility.yul\":15654:15655   */\n      0x08\n        /* \"#utility.yul\":15642:15652   */\n      dup4\n        /* \"#utility.yul\":15638:15656   */\n      mul\n        /* \"#utility.yul\":15677:15774   */\n      tag_334\n        /* \"#utility.yul\":15707:15773   */\n      0xffffffffffffffffffffffffffffffffffffffffffffffffffffffffffffffff\n        /* \"#utility.yul\":15696:15705   */\n      dup3\n        /* \"#utility.yul\":15677:15774   */\n      tag_162\n      jump\t// in\n    tag_334:\n        /* \"#utility.yul\":15795:15834   */\n      tag_335\n        /* \"#utility.yul\":15825:15833   */\n      dup7\n        /* \"#utility.yul\":15814:15823   */\n      dup4\n        /* \"#utility.yul\":15795:15834   */\n      tag_162\n      jump\t// in\n    tag_335:\n        /* \"#utility.yul\":15783:15834   */\n      swap6\n      pop\n        /* \"#utility.yul\":15867:15871   */\n      dup1\n        /* \"#utility.yul\":15863:15872   */\n      not\n        /* \"#utility.yul\":15856:15861   */\n      dup5\n        /* \"#utility.yul\":15852:15873   */\n      and\n        /* \"#utility.yul\":15843:15873   */\n      swap4\n      pop\n        /* \"#utility.yul\":15916:15920   */\n      dup1\n        /* \"#utility.yul\":15906:15914   */\n      dup7\n        /* \"#utility.yul\":15902:15921   */\n      and\n        /* \"#utility.yul\":15895:15900   */\n      dup5\n        /* \"#utility.yul\":15892:15922   */\n      or\n        /* \"#utility.yul\":15882:15922   */\n      swap3\n      pop\n        /* \"#utility.yul\":15611:15928   */\n      pop\n      pop\n        /* \"#utility.yul\":15535:15928   */\n      swap4\n      swap3\n      pop\n      pop\n      pop\n      jump\t// out\n        /* \"#utility.yul\":15934:15994   */\n    tag_164:\n        /* \"#utility.yul\":15962:15965   */\n      0x00\n        /* \"#utility.yul\":15983:15988   */\n      dup2\n        /* \"#utility.yul\":15976:15988   */\n      swap1\n      pop\n        /* \"#utility.yul\":15934:15994   */\n      swap2\n      swap1\n      pop\n      jump\t// out\n        /* \"#utility.yul\":16000:16142   */\n    tag_165:\n        /* \"#utility.yul\":16050:16059   */\n      0x00\n        /* \"#utility.yul\":16083:16136   */\n      tag_338\n        /* \"#utility.yul\":16101:16135   */\n      tag_339\n        /* \"#utility.yul\":16110:16134   */\n      tag_340\n        /* \"#utility.yul\":16128:16133   */\n      dup5\n        /* \"#utility.yul\":16110:16134   */\n      tag_123\n      jump\t// in\n    tag_340:\n        /* \"#utility.yul\":16101:16135   */\n      tag_164\n      jump\t// in\n    tag_339:\n        /* \"#utility.yul\":16083:16136   */\n      tag_123\n      jump\t// in\n    tag_338:\n        /* \"#utility.yul\":16070:16136   */\n      swap1\n      pop\n        /* \"#utility.yul\":16000:16142   */\n      swap2\n      swap1\n      pop\n      jump\t// out\n        /* \"#utility.yul\":16148:16223   */\n    tag_166:\n        /* \"#utility.yul\":16191:16194   */\n      0x00\n        /* \"#utility.yul\":16212:16217   */\n      dup2\n        /* \"#utility.yul\":16205:16217   */\n      swap1\n      pop\n        /* \"#utility.yul\":16148:16223   */\n      swap2\n      swap1\n      pop\n      jump\t// out\n        /* \"#utility.yul\":16229:16498   */\n    tag_167:\n        /* \"#utility.yul\":16339:16378   */\n      tag_343\n        /* \"#utility.yul\":16370:16377   */\n      dup4\n        /* \"#utility.yul\":16339:16378   */\n      tag_165\n      jump\t// in\n    tag_343:\n        /* \"#utility.yul\":16400:16491   */\n      tag_344\n        /* \"#utility.yul\":16449:16490   */\n      tag_345\n        /* \"#utility.yul\":16473:16489   */\n      dup3\n        /* \"#utility.yul\":16449:16490   */\n      tag_166\n      jump\t// in\n    tag_345:\n        /* \"#utility.yul\":16441:16447   */\n      dup5\n        /* \"#utility.yul\":16434:16438   */\n      dup5\n        /* \"#utility.yul\":16428:16439   */\n      sload\n        /* \"#utility.yul\":16400:16491   */\n      tag_163\n      jump\t// in\n    tag_344:\n        /* \"#utility.yul\":16394:16398   */\n      dup3\n        /* \"#utility.yul\":16387:16492   */\n      sstore\n        /* \"#utility.yul\":16305:16498   */\n      pop\n        /* \"#utility.yul\":16229:16498   */\n      pop\n      pop\n      pop\n      jump\t// out\n        /* \"#utility.yul\":16504:16577   */\n    tag_168:\n        /* \"#utility.yul\":16549:16552   */\n      0x00\n        /* \"#utility.yul\":16504:16577   */\n      swap1\n      jump\t// out\n        /* \"#utility.yul\":16583:16772   */\n    tag_169:\n        /* \"#utility.yul\":16660:16692   */\n      tag_348\n      tag_168\n      jump\t// in\n    tag_348:\n        /* \"#utility.yul\":16701:16766   */\n      tag_349\n        /* \"#utility.yul\":16759:16765   */\n      dup2\n        /* \"#utility.yul\":16751:16757   */\n      dup5\n        /* \"#utility.yul\":16745:16749   */\n      dup5\n        /* \"#utility.yul\":16701:16766   */\n      tag_167\n      jump\t// in\n    tag_349:\n        /* \"#utility.yul\":16636:16772   */\n      pop\n        /* \"#utility.yul\":16583:16772   */\n      pop\n      pop\n      jump\t// out\n        /* \"#utility.yul\":16778:16964   */\n    tag_170:\n        /* \"#utility.yul\":16838:16958   */\n    tag_351:\n        /* \"#utility.yul\":16855:16858   */\n      dup2\n        /* \"#utility.yul\":16848:16853   */\n      dup2\n        /* \"#utility.yul\":16845:16859   */\n      lt\n        /* \"#utility.yul\":16838:16958   */\n      iszero\n      tag_353\n      jumpi\n        /* \"#utility.yul\":16909:16948   */\n      tag_354\n        /* \"#utility.yul\":16946:16947   */\n      0x00\n        /* \"#utility.yul\":16939:16944   */\n      dup3\n        /* \"#utility.yul\":16909:16948   */\n      tag_169\n      jump\t// in\n    tag_354:\n        /* \"#utility.yul\":16882:16883   */\n      0x01\n        /* \"#utility.yul\":16875:16880   */\n      dup2\n        /* \"#utility.yul\":16871:16884   */\n      add\n        /* \"#utility.yul\":16862:16884   */\n      swap1\n      pop\n        /* \"#utility.yul\":16838:16958   */\n      jump(tag_351)\n    tag_353:\n        /* \"#utility.yul\":16778:16964   */\n      pop\n      pop\n      jump\t// out\n        /* \"#utility.yul\":16970:17513   */\n    tag_171:\n        /* \"#utility.yul\":17071:17073   */\n      0x1f\n        /* \"#utility.yul\":17066:17069   */\n      dup3\n        /* \"#utility.yul\":17063:17074   */\n      gt\n        /* \"#utility.yul\":17060:17506   */\n      iszero\n      tag_356\n      jumpi\n        /* \"#utility.yul\":17105:17143   */\n      tag_357\n        /* \"#utility.yul\":17137:17142   */\n      dup2\n        /* \"#utility.yul\":17105:17143   */\n      tag_156\n      jump\t// in\n    tag_357:\n        /* \"#utility.yul\":17189:17218   */\n      tag_358\n        /* \"#utility.yul\":17207:17217   */\n      dup5\n        /* \"#utility.yul\":17189:17218   */\n      tag_161\n      jump\t// in\n    tag_358:\n        /* \"#utility.yul\":17179:17187   */\n      dup2\n        /* \"#utility.yul\":17175:17219   */\n      add\n        /* \"#utility.yul\":17372:17374   */\n      0x20\n        /* \"#utility.yul\":17360:17370   */\n      dup6\n        /* \"#utility.yul\":17357:17375   */\n      lt\n        /* \"#utility.yul\":17354:17403   */\n      iszero\n      tag_359\n      jumpi\n        /* \"#utility.yul\":17393:17401   */\n      dup2\n        /* \"#utility.yul\":17378:17401   */\n      swap1\n      pop\n        /* \"#utility.yul\":17354:17403   */\n    tag_359:\n        /* \"#utility.yul\":17416:17496   */\n      tag_360\n        /* \"#utility.yul\":17472:17494   */\n      tag_361\n        /* \"#utility.yul\":17490:17493   */\n      dup6\n        /* \"#utility.yul\":17472:17494   */\n      tag_161\n      jump\t// in\n    tag_361:\n        /* \"#utility.yul\":17462:17470   */\n      dup4\n        /* \"#utility.yul\":17458:17495   */\n      add\n        /* \"#utility.yul\":17445:17456   */\n      dup3\n        /* \"#utility.yul\":17416:17496   */\n      tag_170\n      jump\t// in\n    tag_360:\n        /* \"#utility.yul\":17075:17506   */\n      pop\n      pop\n        /* \"#utility.yul\":17060:17506   */\n    tag_356:\n        /* \"#utility.yul\":16970:17513   */\n      pop\n      pop\n      pop\n      jump\t// out\n        /* \"#utility.yul\":17519:17636   */\n    tag_172:\n        /* \"#utility.yul\":17573:17581   */\n      0x00\n        /* \"#utility.yul\":17623:17628   */\n      dup3\n        /* \"#utility.yul\":17617:17621   */\n      dup3\n        /* \"#utility.yul\":17613:17629   */\n      shr\n        /* \"#utility.yul\":17592:17629   */\n      swap1\n      pop\n        /* \"#utility.yul\":17519:17636   */\n      swap3\n      swap2\n      pop\n      pop\n      jump\t// out\n        /* \"#utility.yul\":17642:17811   */\n    tag_173:\n        /* \"#utility.yul\":17686:17692   */\n      0x00\n        /* \"#utility.yul\":17719:17770   */\n      tag_364\n        /* \"#utility.yul\":17767:17768   */\n      0x00\n        /* \"#utility.yul\":17763:17769   */\n      not\n        /* \"#utility.yul\":17755:17760   */\n      dup5\n        /* \"#utility.yul\":17752:17753   */\n      0x08\n        /* \"#utility.yul\":17748:17761   */\n      mul\n        /* \"#utility.yul\":17719:17770   */\n      tag_172\n      jump\t// in\n    tag_364:\n        /* \"#utility.yul\":17715:17771   */\n      not\n        /* \"#utility.yul\":17800:17804   */\n      dup1\n        /* \"#utility.yul\":17794:17798   */\n      dup4\n        /* \"#utility.yul\":17790:17805   */\n      and\n        /* \"#utility.yul\":17780:17805   */\n      swap2\n      pop\n        /* \"#utility.yul\":17693:17811   */\n      pop\n        /* \"#utility.yul\":17642:17811   */\n      swap3\n      swap2\n      pop\n      pop\n      jump\t// out\n        /* \"#utility.yul\":17816:18111   */\n    tag_174:\n        /* \"#utility.yul\":17892:17896   */\n      0x00\n        /* \"#utility.yul\":18038:18067   */\n      tag_366\n        /* \"#utility.yul\":18063:18066   */\n      dup4\n        /* \"#utility.yul\":18057:18061   */\n      dup4\n        /* \"#utility.yul\":18038:18067   */\n      tag_173\n      jump\t// in\n    tag_366:\n        /* \"#utility.yul\":18030:18067   */\n      swap2\n      pop\n        /* \"#utility.yul\":18100:18103   */\n      dup3\n        /* \"#utility.yul\":18097:18098   */\n      0x02\n        /* \"#utility.yul\":18093:18104   */\n      mul\n        /* \"#utility.yul\":18087:18091   */\n      dup3\n        /* \"#utility.yul\":18084:18105   */\n      or\n        /* \"#utility.yul\":18076:18105   */\n      swap1\n      pop\n        /* \"#utility.yul\":17816:18111   */\n      swap3\n      swap2\n      pop\n      pop\n      jump\t// out\n        /* \"#utility.yul\":18116:19511   */\n    tag_101:\n        /* \"#utility.yul\":18233:18270   */\n      tag_368\n        /* \"#utility.yul\":18266:18269   */\n      dup3\n        /* \"#utility.yul\":18233:18270   */\n      tag_145\n      jump\t// in\n    tag_368:\n        /* \"#utility.yul\":18335:18353   */\n      0xffffffffffffffff\n        /* \"#utility.yul\":18327:18333   */\n      dup2\n        /* \"#utility.yul\":18324:18354   */\n      gt\n        /* \"#utility.yul\":18321:18377   */\n      iszero\n      tag_369\n      jumpi\n        /* \"#utility.yul\":18357:18375   */\n      tag_370\n      tag_136\n      jump\t// in\n    tag_370:\n        /* \"#utility.yul\":18321:18377   */\n    tag_369:\n        /* \"#utility.yul\":18401:18439   */\n      tag_371\n        /* \"#utility.yul\":18433:18437   */\n      dup3\n        /* \"#utility.yul\":18427:18438   */\n      sload\n        /* \"#utility.yul\":18401:18439   */\n      tag_107\n      jump\t// in\n    tag_371:\n        /* \"#utility.yul\":18486:18553   */\n      tag_372\n        /* \"#utility.yul\":18546:18552   */\n      dup3\n        /* \"#utility.yul\":18538:18544   */\n      dup3\n        /* \"#utility.yul\":18532:18536   */\n      dup6\n        /* \"#utility.yul\":18486:18553   */\n      tag_171\n      jump\t// in\n    tag_372:\n        /* \"#utility.yul\":18580:18581   */\n      0x00\n        /* \"#utility.yul\":18604:18608   */\n      0x20\n        /* \"#utility.yul\":18591:18608   */\n      swap1\n      pop\n        /* \"#utility.yul\":18636:18638   */\n      0x1f\n        /* \"#utility.yul\":18628:18634   */\n      dup4\n        /* \"#utility.yul\":18625:18639   */\n      gt\n        /* \"#utility.yul\":18653:18654   */\n      0x01\n        /* \"#utility.yul\":18648:19266   */\n      dup2\n      eq\n      tag_374\n      jumpi\n        /* \"#utility.yul\":19310:19311   */\n      0x00\n        /* \"#utility.yul\":19327:19333   */\n      dup5\n        /* \"#utility.yul\":19324:19401   */\n      iszero\n      tag_375\n      jumpi\n        /* \"#utility.yul\":19376:19385   */\n      dup3\n        /* \"#utility.yul\":19371:19374   */\n      dup8\n        /* \"#utility.yul\":19367:19386   */\n      add\n        /* \"#utility.yul\":19361:19387   */\n      mload\n        /* \"#utility.yul\":19352:19387   */\n      swap1\n      pop\n        /* \"#utility.yul\":19324:19401   */\n    tag_375:\n        /* \"#utility.yul\":19427:19494   */\n      tag_376\n        /* \"#utility.yul\":19487:19493   */\n      dup6\n        /* \"#utility.yul\":19480:19485   */\n      dup3\n        /* \"#utility.yul\":19427:19494   */\n      tag_174\n      jump\t// in\n    tag_376:\n        /* \"#utility.yul\":19421:19425   */\n      dup7\n        /* \"#utility.yul\":19414:19495   */\n      sstore\n        /* \"#utility.yul\":19283:19505   */\n      pop\n        /* \"#utility.yul\":18618:19505   */\n      jump(tag_373)\n        /* \"#utility.yul\":18648:19266   */\n    tag_374:\n        /* \"#utility.yul\":18700:18704   */\n      0x1f\n        /* \"#utility.yul\":18696:18705   */\n      not\n        /* \"#utility.yul\":18688:18694   */\n      dup5\n        /* \"#utility.yul\":18684:18706   */\n      and\n        /* \"#utility.yul\":18734:18771   */\n      tag_377\n        /* \"#utility.yul\":18766:18770   */\n      dup7\n        /* \"#utility.yul\":18734:18771   */\n      tag_156\n      jump\t// in\n    tag_377:\n        /* \"#utility.yul\":18793:18794   */\n      0x00\n        /* \"#utility.yul\":18807:19015   */\n    tag_378:\n        /* \"#utility.yul\":18821:18828   */\n      dup3\n        /* \"#utility.yul\":18818:18819   */\n      dup2\n        /* \"#utility.yul\":18815:18829   */\n      lt\n        /* \"#utility.yul\":18807:19015   */\n      iszero\n      tag_380\n      jumpi\n        /* \"#utility.yul\":18900:18909   */\n      dup5\n        /* \"#utility.yul\":18895:18898   */\n      dup10\n        /* \"#utility.yul\":18891:18910   */\n      add\n        /* \"#utility.yul\":18885:18911   */\n      mload\n        /* \"#utility.yul\":18877:18883   */\n      dup3\n        /* \"#utility.yul\":18870:18912   */\n      sstore\n        /* \"#utility.yul\":18951:18952   */\n      0x01\n        /* \"#utility.yul\":18943:18949   */\n      dup3\n        /* \"#utility.yul\":18939:18953   */\n      add\n        /* \"#utility.yul\":18929:18953   */\n      swap2\n      pop\n        /* \"#utility.yul\":18998:19000   */\n      0x20\n        /* \"#utility.yul\":18987:18996   */\n      dup6\n        /* \"#utility.yul\":18983:19001   */\n      add\n        /* \"#utility.yul\":18970:19001   */\n      swap5\n      pop\n        /* \"#utility.yul\":18844:18848   */\n      0x20\n        /* \"#utility.yul\":18841:18842   */\n      dup2\n        /* \"#utility.yul\":18837:18849   */\n      add\n        /* \"#utility.yul\":18832:18849   */\n      swap1\n      pop\n        /* \"#utility.yul\":18807:19015   */\n      jump(tag_378)\n    tag_380:\n        /* \"#utility.yul\":19043:19049   */\n      dup7\n        /* \"#utility.yul\":19034:19041   */\n      dup4\n        /* \"#utility.yul\":19031:19050   */\n      lt\n        /* \"#utility.yul\":19028:19207   */\n      iszero\n      tag_381\n      jumpi\n        /* \"#utility.yul\":19101:19110   */\n      dup5\n        /* \"#utility.yul\":19096:19099   */\n      dup10\n        /* \"#utility.yul\":19092:19111   */\n      add\n        /* \"#utility.yul\":19086:19112   */\n      mload\n        /* \"#utility.yul\":19144:19192   */\n      tag_382\n        /* \"#utility.yul\":19186:19190   */\n      0x1f\n        /* \"#utility.yul\":19178:19184   */\n      dup10\n        /* \"#utility.yul\":19174:19191   */\n      and\n        /* \"#utility.yul\":19163:19172   */\n      dup3\n        /* \"#utility.yul\":19144:19192   */\n      tag_173\n      jump\t// in\n    tag_382:\n        /* \"#utility.yul\":19136:19142   */\n      dup4\n        /* \"#utility.yul\":19129:19193   */\n      sstore\n        /* \"#utility.yul\":19051:19207   */\n      pop\n        /* \"#utility.yul\":19028:19207   */\n    tag_381:\n        /* \"#utility.yul\":19253:19254   */\n      0x01\n        /* \"#utility.yul\":19249:19250   */\n      0x02\n        /* \"#utility.yul\":19241:19247   */\n      dup9\n        /* \"#utility.yul\":19237:19251   */\n      mul\n        /* \"#utility.yul\":19233:19255   */\n      add\n        /* \"#utility.yul\":19227:19231   */\n      dup9\n        /* \"#utility.yul\":19220:19256   */\n      sstore\n        /* \"#utility.yul\":18655:19266   */\n      pop\n      pop\n      pop\n        /* \"#utility.yul\":18618:19505   */\n    tag_373:\n      pop\n        /* \"#utility.yul\":18208:19511   */\n      pop\n      pop\n      pop\n        /* \"#utility.yul\":18116:19511   */\n      pop\n      pop\n      jump\t// out\n\n    auxdata: 0xa2646970667358221220e04d3821f61540ee527e810627f93605617869f5f61be5eb21a5e04f9ccad4ee64736f6c634300081a0033\n}\n",
				"bytecode": {
					"linkReferences": {},
					"object": "60806040525f60025560016005555f60065534801561001c575f80fd5b50604051611a9f380380611a9f833981810160405281019061003e91906102b6565b3360015f6101000a81548173ffffffffffffffffffffffffffffffffffffffff021916908373ffffffffffffffffffffffffffffffffffffffff160217905550816003908161008d9190610514565b50806004819055506100a36100b060201b60201c565b60028190555050506107c5565b5f80434260045460036040516020016100c99190610674565b604051602081830303815290604052805190602001205f1c6100eb91906106c1565b6100f591906106c1565b6100ff91906106c1565b90506001600a80836101119190610721565b61011b9190610751565b826101269190610792565b61013091906106c1565b91505090565b5f604051905090565b5f80fd5b5f80fd5b5f80fd5b5f80fd5b5f601f19601f8301169050919050565b7f4e487b71000000000000000000000000000000000000000000000000000000005f52604160045260245ffd5b6101958261014f565b810181811067ffffffffffffffff821117156101b4576101b361015f565b5b80604052505050565b5f6101c6610136565b90506101d2828261018c565b919050565b5f67ffffffffffffffff8211156101f1576101f061015f565b5b6101fa8261014f565b9050602081019050919050565b8281835e5f83830152505050565b5f610227610222846101d7565b6101bd565b9050828152602081018484840111156102435761024261014b565b5b61024e848285610207565b509392505050565b5f82601f83011261026a57610269610147565b5b815161027a848260208601610215565b91505092915050565b5f819050919050565b61029581610283565b811461029f575f80fd5b50565b5f815190506102b08161028c565b92915050565b5f80604083850312156102cc576102cb61013f565b5b5f83015167ffffffffffffffff8111156102e9576102e8610143565b5b6102f585828601610256565b9250506020610306858286016102a2565b9150509250929050565b5f81519050919050565b7f4e487b71000000000000000000000000000000000000000000000000000000005f52602260045260245ffd5b5f600282049050600182168061035e57607f821691505b6020821081036103715761037061031a565b5b50919050565b5f819050815f5260205f209050919050565b5f6020601f8301049050919050565b5f82821b905092915050565b5f600883026103d37fffffffffffffffffffffffffffffffffffffffffffffffffffffffffffffffff82610398565b6103dd8683610398565b95508019841693508086168417925050509392505050565b5f819050919050565b5f61041861041361040e84610283565b6103f5565b610283565b9050919050565b5f819050919050565b610431836103fe565b61044561043d8261041f565b8484546103a4565b825550505050565b5f90565b61045961044d565b610464818484610428565b505050565b5b818110156104875761047c5f82610451565b60018101905061046a565b5050565b601f8211156104cc5761049d81610377565b6104a684610389565b810160208510156104b5578190505b6104c96104c185610389565b830182610469565b50505b505050565b5f82821c905092915050565b5f6104ec5f19846008026104d1565b1980831691505092915050565b5f61050483836104dd565b9150826002028217905092915050565b61051d82610310565b67ffffffffffffffff8111156105365761053561015f565b5b6105408254610347565b61054b82828561048b565b5f60209050601f83116001811461057c575f841561056a578287015190505b61057485826104f9565b8655506105db565b601f19841661058a86610377565b5f5b828110156105b15784890151825560018201915060208501945060208101905061058c565b868310156105ce57848901516105ca601f8916826104dd565b8355505b6001600288020188555050505b505050505050565b5f82825260208201905092915050565b5f81546105ff81610347565b61060981866105e3565b9450600182165f811461062357600181146106395761066b565b60ff19831686528115156020028601935061066b565b61064285610377565b5f5b8381101561066357815481890152600182019150602081019050610644565b808801955050505b50505092915050565b5f6020820190508181035f83015261068c81846105f3565b905092915050565b7f4e487b71000000000000000000000000000000000000000000000000000000005f52601160045260245ffd5b5f6106cb82610283565b91506106d683610283565b92508282019050808211156106ee576106ed610694565b5b92915050565b7f4e487b71000000000000000000000000000000000000000000000000000000005f52601260045260245ffd5b5f61072b82610283565b915061073683610283565b925082610746576107456106f4565b5b828204905092915050565b5f61075b82610283565b915061076683610283565b925082820261077481610283565b9150828204841483151761078b5761078a610694565b5b5092915050565b5f61079c82610283565b91506107a783610283565b92508282039050818111156107bf576107be610694565b5b92915050565b6112cd806107d25f395ff3fe608060405260043610610089575f3560e01c806379ed40bc1161005857806379ed40bc146104115780638da5cb5b1461043c5780639f8743f714610466578063a86d2e1914610490578063cf66b989146104ba57610367565b80630df516d81461036b57806312065fe014610395578063146ca531146103bf5780635ef5cc89146103e957610367565b3661036757662386f26fc1000034146100d7576040517f08c379a00000000000000000000000000000000000000000000000000000000081526004016100ce906108ab565b60405180910390fd5b5f15155f8060055481526020019081526020015f205f3373ffffffffffffffffffffffffffffffffffffffff1673ffffffffffffffffffffffffffffffffffffffff1681526020019081526020015f205f9054906101000a900460ff16151514610176576040517f08c379a000000000000000000000000000000000000000000000000000000000815260040161016d90610913565b60405180910390fd5b60015f8060055481526020019081526020015f205f3373ffffffffffffffffffffffffffffffffffffffff1673ffffffffffffffffffffffffffffffffffffffff1681526020019081526020015f205f6101000a81548160ff02191690831515021790555060065f81546101e990610967565b9190508190555060025460065403610316575f3373ffffffffffffffffffffffffffffffffffffffff1647604051610220906109db565b5f6040518083038185875af1925050503d805f811461025a576040519150601f19603f3d011682016040523d82523d5f602084013e61025f565b606091505b50509050806102a3576040517f08c379a000000000000000000000000000000000000000000000000000000000815260040161029a90610a39565b60405180910390fd5b5f60068190555060055f81546102b890610967565b919050819055506102c76104f6565b6002819055503373ffffffffffffffffffffffffffffffffffffffff167f97327fd6694d3df45480784b7731f13ecffcae0f296816eec3de6f43bf02f72860405160405180910390a250610365565b3373ffffffffffffffffffffffffffffffffffffffff167f03b4b447121cfc99f637122d1c595e94ee2fb045709001f086432cf5442ac3f23460405161035c9190610a66565b60405180910390a25b005b5f80fd5b348015610376575f80fd5b5061037f61057c565b60405161038c9190610a66565b60405180910390f35b3480156103a0575f80fd5b506103a9610582565b6040516103b69190610a66565b60405180910390f35b3480156103ca575f80fd5b506103d3610589565b6040516103e09190610a66565b60405180910390f35b3480156103f4575f80fd5b5061040f600480360381019061040a9190610bf6565b61058f565b005b34801561041c575f80fd5b50610425610639565b604051610433929190610ca0565b60405180910390f35b348015610447575f80fd5b50610450610762565b60405161045d9190610d0d565b60405180910390f35b348015610471575f80fd5b5061047a610787565b6040516104879190610a66565b60405180910390f35b34801561049b575f80fd5b506104a4610790565b6040516104b19190610a66565b60405180910390f35b3480156104c5575f80fd5b506104e060048036038101906104db9190610d50565b610828565b6040516104ed9190610da8565b60405180910390f35b5f804342600454600360405160200161050f9190610eb1565b604051602081830303815290604052805190602001205f1c6105319190610ed1565b61053b9190610ed1565b6105459190610ed1565b90506001600a80836105579190610f31565b6105619190610f61565b8261056c9190610fa2565b6105769190610ed1565b91505090565b60065481565b5f47905090565b60055481565b60015f9054906101000a900473ffffffffffffffffffffffffffffffffffffffff1673ffffffffffffffffffffffffffffffffffffffff163373ffffffffffffffffffffffffffffffffffffffff161461061e576040517f08c379a00000000000000000000000000000000000000000000000000000000081526004016106159061101f565b60405180910390fd5b816003908161062d91906111c8565b50806004819055505050565b60605f60015f9054906101000a900473ffffffffffffffffffffffffffffffffffffffff1673ffffffffffffffffffffffffffffffffffffffff163373ffffffffffffffffffffffffffffffffffffffff16146106cb576040517f08c379a00000000000000000000000000000000000000000000000000000000081526004016106c29061101f565b60405180910390fd5b60036004548180546106dc90610dee565b80601f016020809104026020016040519081016040528092919081815260200182805461070890610dee565b80156107535780601f1061072a57610100808354040283529160200191610753565b820191905f5260205f20905b81548152906001019060200180831161073657829003601f168201915b50505050509150915091509091565b60015f9054906101000a900473ffffffffffffffffffffffffffffffffffffffff1681565b5f600554905090565b5f60015f9054906101000a900473ffffffffffffffffffffffffffffffffffffffff1673ffffffffffffffffffffffffffffffffffffffff163373ffffffffffffffffffffffffffffffffffffffff1614610820576040517f08c379a00000000000000000000000000000000000000000000000000000000081526004016108179061101f565b60405180910390fd5b600254905090565b5f602052815f5260405f20602052805f5260405f205f915091509054906101000a900460ff1681565b5f82825260208201905092915050565b7f4d75737420626520302e30312065746865722e000000000000000000000000005f82015250565b5f610895601383610851565b91506108a082610861565b602082019050919050565b5f6020820190508181035f8301526108c281610889565b9050919050565b7f4d7573742062652066697273742074696d652e000000000000000000000000005f82015250565b5f6108fd601383610851565b9150610908826108c9565b602082019050919050565b5f6020820190508181035f83015261092a816108f1565b9050919050565b7f4e487b71000000000000000000000000000000000000000000000000000000005f52601160045260245ffd5b5f819050919050565b5f6109718261095e565b91507fffffffffffffffffffffffffffffffffffffffffffffffffffffffffffffffff82036109a3576109a2610931565b5b600182019050919050565b5f81905092915050565b50565b5f6109c65f836109ae565b91506109d1826109b8565b5f82019050919050565b5f6109e5826109bb565b9150819050919050565b7f4661696c656400000000000000000000000000000000000000000000000000005f82015250565b5f610a23600683610851565b9150610a2e826109ef565b602082019050919050565b5f6020820190508181035f830152610a5081610a17565b9050919050565b610a608161095e565b82525050565b5f602082019050610a795f830184610a57565b92915050565b5f604051905090565b5f80fd5b5f80fd5b5f80fd5b5f80fd5b5f601f19601f8301169050919050565b7f4e487b71000000000000000000000000000000000000000000000000000000005f52604160045260245ffd5b610ade82610a98565b810181811067ffffffffffffffff82111715610afd57610afc610aa8565b5b80604052505050565b5f610b0f610a7f565b9050610b1b8282610ad5565b919050565b5f67ffffffffffffffff821115610b3a57610b39610aa8565b5b610b4382610a98565b9050602081019050919050565b828183375f83830152505050565b5f610b70610b6b84610b20565b610b06565b905082815260208101848484011115610b8c57610b8b610a94565b5b610b97848285610b50565b509392505050565b5f82601f830112610bb357610bb2610a90565b5b8135610bc3848260208601610b5e565b91505092915050565b610bd58161095e565b8114610bdf575f80fd5b50565b5f81359050610bf081610bcc565b92915050565b5f8060408385031215610c0c57610c0b610a88565b5b5f83013567ffffffffffffffff811115610c2957610c28610a8c565b5b610c3585828601610b9f565b9250506020610c4685828601610be2565b9150509250929050565b5f81519050919050565b8281835e5f83830152505050565b5f610c7282610c50565b610c7c8185610851565b9350610c8c818560208601610c5a565b610c9581610a98565b840191505092915050565b5f6040820190508181035f830152610cb88185610c68565b9050610cc76020830184610a57565b9392505050565b5f73ffffffffffffffffffffffffffffffffffffffff82169050919050565b5f610cf782610cce565b9050919050565b610d0781610ced565b82525050565b5f602082019050610d205f830184610cfe565b92915050565b610d2f81610ced565b8114610d39575f80fd5b50565b5f81359050610d4a81610d26565b92915050565b5f8060408385031215610d6657610d65610a88565b5b5f610d7385828601610be2565b9250506020610d8485828601610d3c565b9150509250929050565b5f8115159050919050565b610da281610d8e565b82525050565b5f602082019050610dbb5f830184610d99565b92915050565b7f4e487b71000000000000000000000000000000000000000000000000000000005f52602260045260245ffd5b5f6002820490506001821680610e0557607f821691505b602082108103610e1857610e17610dc1565b5b50919050565b5f819050815f5260205f209050919050565b5f8154610e3c81610dee565b610e468186610851565b9450600182165f8114610e605760018114610e7657610ea8565b60ff198316865281151560200286019350610ea8565b610e7f85610e1e565b5f5b83811015610ea057815481890152600182019150602081019050610e81565b808801955050505b50505092915050565b5f6020820190508181035f830152610ec98184610e30565b905092915050565b5f610edb8261095e565b9150610ee68361095e565b9250828201905080821115610efe57610efd610931565b5b92915050565b7f4e487b71000000000000000000000000000000000000000000000000000000005f52601260045260245ffd5b5f610f3b8261095e565b9150610f468361095e565b925082610f5657610f55610f04565b5b828204905092915050565b5f610f6b8261095e565b9150610f768361095e565b9250828202610f848161095e565b91508282048414831517610f9b57610f9a610931565b5b5092915050565b5f610fac8261095e565b9150610fb78361095e565b9250828203905081811115610fcf57610fce610931565b5b92915050565b7f4f776e61626c653a2063616c6c6572206973206e6f7420746865206f776e65725f82015250565b5f611009602083610851565b915061101482610fd5565b602082019050919050565b5f6020820190508181035f83015261103681610ffd565b9050919050565b5f6020601f8301049050919050565b5f82821b905092915050565b5f600883026110877fffffffffffffffffffffffffffffffffffffffffffffffffffffffffffffffff8261104c565b611091868361104c565b95508019841693508086168417925050509392505050565b5f819050919050565b5f6110cc6110c76110c28461095e565b6110a9565b61095e565b9050919050565b5f819050919050565b6110e5836110b2565b6110f96110f1826110d3565b848454611058565b825550505050565b5f90565b61110d611101565b6111188184846110dc565b505050565b5b8181101561113b576111305f82611105565b60018101905061111e565b5050565b601f8211156111805761115181610e1e565b61115a8461103d565b81016020851015611169578190505b61117d6111758561103d565b83018261111d565b50505b505050565b5f82821c905092915050565b5f6111a05f1984600802611185565b1980831691505092915050565b5f6111b88383611191565b9150826002028217905092915050565b6111d182610c50565b67ffffffffffffffff8111156111ea576111e9610aa8565b5b6111f48254610dee565b6111ff82828561113f565b5f60209050601f831160018114611230575f841561121e578287015190505b61122885826111ad565b86555061128f565b601f19841661123e86610e1e565b5f5b8281101561126557848901518255600182019150602085019450602081019050611240565b86831015611282578489015161127e601f891682611191565b8355505b6001600288020188555050505b50505050505056fea2646970667358221220e04d3821f61540ee527e810627f93605617869f5f61be5eb21a5e04f9ccad4ee64736f6c634300081a0033",
					"opcodes": "PUSH1 0x80 PUSH1 0x40 MSTORE PUSH0 PUSH1 0x2 SSTORE PUSH1 0x1 PUSH1 0x5 SSTORE PUSH0 PUSH1 0x6 SSTORE CALLVALUE DUP1 ISZERO PUSH2 0x1C JUMPI PUSH0 DUP1 REVERT JUMPDEST POP PUSH1 0x40 MLOAD PUSH2 0x1A9F CODESIZE SUB DUP1 PUSH2 0x1A9F DUP4 CODECOPY DUP2 DUP2 ADD PUSH1 0x40 MSTORE DUP2 ADD SWAP1 PUSH2 0x3E SWAP2 SWAP1 PUSH2 0x2B6 JUMP JUMPDEST CALLER PUSH1 0x1 PUSH0 PUSH2 0x100 EXP DUP2 SLOAD DUP2 PUSH20 0xFFFFFFFFFFFFFFFFFFFFFFFFFFFFFFFFFFFFFFFF MUL NOT AND SWAP1 DUP4 PUSH20 0xFFFFFFFFFFFFFFFFFFFFFFFFFFFFFFFFFFFFFFFF AND MUL OR SWAP1 SSTORE POP DUP2 PUSH1 0x3 SWAP1 DUP2 PUSH2 0x8D SWAP2 SWAP1 PUSH2 0x514 JUMP JUMPDEST POP DUP1 PUSH1 0x4 DUP2 SWAP1 SSTORE POP PUSH2 0xA3 PUSH2 0xB0 PUSH1 0x20 SHL PUSH1 0x20 SHR JUMP JUMPDEST PUSH1 0x2 DUP2 SWAP1 SSTORE POP POP POP PUSH2 0x7C5 JUMP JUMPDEST PUSH0 DUP1 NUMBER TIMESTAMP PUSH1 0x4 SLOAD PUSH1 0x3 PUSH1 0x40 MLOAD PUSH1 0x20 ADD PUSH2 0xC9 SWAP2 SWAP1 PUSH2 0x674 JUMP JUMPDEST PUSH1 0x40 MLOAD PUSH1 0x20 DUP2 DUP4 SUB SUB DUP2 MSTORE SWAP1 PUSH1 0x40 MSTORE DUP1 MLOAD SWAP1 PUSH1 0x20 ADD KECCAK256 PUSH0 SHR PUSH2 0xEB SWAP2 SWAP1 PUSH2 0x6C1 JUMP JUMPDEST PUSH2 0xF5 SWAP2 SWAP1 PUSH2 0x6C1 JUMP JUMPDEST PUSH2 0xFF SWAP2 SWAP1 PUSH2 0x6C1 JUMP JUMPDEST SWAP1 POP PUSH1 0x1 PUSH1 0xA DUP1 DUP4 PUSH2 0x111 SWAP2 SWAP1 PUSH2 0x721 JUMP JUMPDEST PUSH2 0x11B SWAP2 SWAP1 PUSH2 0x751 JUMP JUMPDEST DUP3 PUSH2 0x126 SWAP2 SWAP1 PUSH2 0x792 JUMP JUMPDEST PUSH2 0x130 SWAP2 SWAP1 PUSH2 0x6C1 JUMP JUMPDEST SWAP2 POP POP SWAP1 JUMP JUMPDEST PUSH0 PUSH1 0x40 MLOAD SWAP1 POP SWAP1 JUMP JUMPDEST PUSH0 DUP1 REVERT JUMPDEST PUSH0 DUP1 REVERT JUMPDEST PUSH0 DUP1 REVERT JUMPDEST PUSH0 DUP1 REVERT JUMPDEST PUSH0 PUSH1 0x1F NOT PUSH1 0x1F DUP4 ADD AND SWAP1 POP SWAP2 SWAP1 POP JUMP JUMPDEST PUSH32 0x4E487B7100000000000000000000000000000000000000000000000000000000 PUSH0 MSTORE PUSH1 0x41 PUSH1 0x4 MSTORE PUSH1 0x24 PUSH0 REVERT JUMPDEST PUSH2 0x195 DUP3 PUSH2 0x14F JUMP JUMPDEST DUP2 ADD DUP2 DUP2 LT PUSH8 0xFFFFFFFFFFFFFFFF DUP3 GT OR ISZERO PUSH2 0x1B4 JUMPI PUSH2 0x1B3 PUSH2 0x15F JUMP JUMPDEST JUMPDEST DUP1 PUSH1 0x40 MSTORE POP POP POP JUMP JUMPDEST PUSH0 PUSH2 0x1C6 PUSH2 0x136 JUMP JUMPDEST SWAP1 POP PUSH2 0x1D2 DUP3 DUP3 PUSH2 0x18C JUMP JUMPDEST SWAP2 SWAP1 POP JUMP JUMPDEST PUSH0 PUSH8 0xFFFFFFFFFFFFFFFF DUP3 GT ISZERO PUSH2 0x1F1 JUMPI PUSH2 0x1F0 PUSH2 0x15F JUMP JUMPDEST JUMPDEST PUSH2 0x1FA DUP3 PUSH2 0x14F JUMP JUMPDEST SWAP1 POP PUSH1 0x20 DUP2 ADD SWAP1 POP SWAP2 SWAP1 POP JUMP JUMPDEST DUP3 DUP2 DUP4 MCOPY PUSH0 DUP4 DUP4 ADD MSTORE POP POP POP JUMP JUMPDEST PUSH0 PUSH2 0x227 PUSH2 0x222 DUP5 PUSH2 0x1D7 JUMP JUMPDEST PUSH2 0x1BD JUMP JUMPDEST SWAP1 POP DUP3 DUP2 MSTORE PUSH1 0x20 DUP2 ADD DUP5 DUP5 DUP5 ADD GT ISZERO PUSH2 0x243 JUMPI PUSH2 0x242 PUSH2 0x14B JUMP JUMPDEST JUMPDEST PUSH2 0x24E DUP5 DUP3 DUP6 PUSH2 0x207 JUMP JUMPDEST POP SWAP4 SWAP3 POP POP POP JUMP JUMPDEST PUSH0 DUP3 PUSH1 0x1F DUP4 ADD SLT PUSH2 0x26A JUMPI PUSH2 0x269 PUSH2 0x147 JUMP JUMPDEST JUMPDEST DUP2 MLOAD PUSH2 0x27A DUP5 DUP3 PUSH1 0x20 DUP7 ADD PUSH2 0x215 JUMP JUMPDEST SWAP2 POP POP SWAP3 SWAP2 POP POP JUMP JUMPDEST PUSH0 DUP2 SWAP1 POP SWAP2 SWAP1 POP JUMP JUMPDEST PUSH2 0x295 DUP2 PUSH2 0x283 JUMP JUMPDEST DUP2 EQ PUSH2 0x29F JUMPI PUSH0 DUP1 REVERT JUMPDEST POP JUMP JUMPDEST PUSH0 DUP2 MLOAD SWAP1 POP PUSH2 0x2B0 DUP2 PUSH2 0x28C JUMP JUMPDEST SWAP3 SWAP2 POP POP JUMP JUMPDEST PUSH0 DUP1 PUSH1 0x40 DUP4 DUP6 SUB SLT ISZERO PUSH2 0x2CC JUMPI PUSH2 0x2CB PUSH2 0x13F JUMP JUMPDEST JUMPDEST PUSH0 DUP4 ADD MLOAD PUSH8 0xFFFFFFFFFFFFFFFF DUP2 GT ISZERO PUSH2 0x2E9 JUMPI PUSH2 0x2E8 PUSH2 0x143 JUMP JUMPDEST JUMPDEST PUSH2 0x2F5 DUP6 DUP3 DUP7 ADD PUSH2 0x256 JUMP JUMPDEST SWAP3 POP POP PUSH1 0x20 PUSH2 0x306 DUP6 DUP3 DUP7 ADD PUSH2 0x2A2 JUMP JUMPDEST SWAP2 POP POP SWAP3 POP SWAP3 SWAP1 POP JUMP JUMPDEST PUSH0 DUP2 MLOAD SWAP1 POP SWAP2 SWAP1 POP JUMP JUMPDEST PUSH32 0x4E487B7100000000000000000000000000000000000000000000000000000000 PUSH0 MSTORE PUSH1 0x22 PUSH1 0x4 MSTORE PUSH1 0x24 PUSH0 REVERT JUMPDEST PUSH0 PUSH1 0x2 DUP3 DIV SWAP1 POP PUSH1 0x1 DUP3 AND DUP1 PUSH2 0x35E JUMPI PUSH1 0x7F DUP3 AND SWAP2 POP JUMPDEST PUSH1 0x20 DUP3 LT DUP2 SUB PUSH2 0x371 JUMPI PUSH2 0x370 PUSH2 0x31A JUMP JUMPDEST JUMPDEST POP SWAP2 SWAP1 POP JUMP JUMPDEST PUSH0 DUP2 SWAP1 POP DUP2 PUSH0 MSTORE PUSH1 0x20 PUSH0 KECCAK256 SWAP1 POP SWAP2 SWAP1 POP JUMP JUMPDEST PUSH0 PUSH1 0x20 PUSH1 0x1F DUP4 ADD DIV SWAP1 POP SWAP2 SWAP1 POP JUMP JUMPDEST PUSH0 DUP3 DUP3 SHL SWAP1 POP SWAP3 SWAP2 POP POP JUMP JUMPDEST PUSH0 PUSH1 0x8 DUP4 MUL PUSH2 0x3D3 PUSH32 0xFFFFFFFFFFFFFFFFFFFFFFFFFFFFFFFFFFFFFFFFFFFFFFFFFFFFFFFFFFFFFFFF DUP3 PUSH2 0x398 JUMP JUMPDEST PUSH2 0x3DD DUP7 DUP4 PUSH2 0x398 JUMP JUMPDEST SWAP6 POP DUP1 NOT DUP5 AND SWAP4 POP DUP1 DUP7 AND DUP5 OR SWAP3 POP POP POP SWAP4 SWAP3 POP POP POP JUMP JUMPDEST PUSH0 DUP2 SWAP1 POP SWAP2 SWAP1 POP JUMP JUMPDEST PUSH0 PUSH2 0x418 PUSH2 0x413 PUSH2 0x40E DUP5 PUSH2 0x283 JUMP JUMPDEST PUSH2 0x3F5 JUMP JUMPDEST PUSH2 0x283 JUMP JUMPDEST SWAP1 POP SWAP2 SWAP1 POP JUMP JUMPDEST PUSH0 DUP2 SWAP1 POP SWAP2 SWAP1 POP JUMP JUMPDEST PUSH2 0x431 DUP4 PUSH2 0x3FE JUMP JUMPDEST PUSH2 0x445 PUSH2 0x43D DUP3 PUSH2 0x41F JUMP JUMPDEST DUP5 DUP5 SLOAD PUSH2 0x3A4 JUMP JUMPDEST DUP3 SSTORE POP POP POP POP JUMP JUMPDEST PUSH0 SWAP1 JUMP JUMPDEST PUSH2 0x459 PUSH2 0x44D JUMP JUMPDEST PUSH2 0x464 DUP2 DUP5 DUP5 PUSH2 0x428 JUMP JUMPDEST POP POP POP JUMP JUMPDEST JUMPDEST DUP2 DUP2 LT ISZERO PUSH2 0x487 JUMPI PUSH2 0x47C PUSH0 DUP3 PUSH2 0x451 JUMP JUMPDEST PUSH1 0x1 DUP2 ADD SWAP1 POP PUSH2 0x46A JUMP JUMPDEST POP POP JUMP JUMPDEST PUSH1 0x1F DUP3 GT ISZERO PUSH2 0x4CC JUMPI PUSH2 0x49D DUP2 PUSH2 0x377 JUMP JUMPDEST PUSH2 0x4A6 DUP5 PUSH2 0x389 JUMP JUMPDEST DUP2 ADD PUSH1 0x20 DUP6 LT ISZERO PUSH2 0x4B5 JUMPI DUP2 SWAP1 POP JUMPDEST PUSH2 0x4C9 PUSH2 0x4C1 DUP6 PUSH2 0x389 JUMP JUMPDEST DUP4 ADD DUP3 PUSH2 0x469 JUMP JUMPDEST POP POP JUMPDEST POP POP POP JUMP JUMPDEST PUSH0 DUP3 DUP3 SHR SWAP1 POP SWAP3 SWAP2 POP POP JUMP JUMPDEST PUSH0 PUSH2 0x4EC PUSH0 NOT DUP5 PUSH1 0x8 MUL PUSH2 0x4D1 JUMP JUMPDEST NOT DUP1 DUP4 AND SWAP2 POP POP SWAP3 SWAP2 POP POP JUMP JUMPDEST PUSH0 PUSH2 0x504 DUP4 DUP4 PUSH2 0x4DD JUMP JUMPDEST SWAP2 POP DUP3 PUSH1 0x2 MUL DUP3 OR SWAP1 POP SWAP3 SWAP2 POP POP JUMP JUMPDEST PUSH2 0x51D DUP3 PUSH2 0x310 JUMP JUMPDEST PUSH8 0xFFFFFFFFFFFFFFFF DUP2 GT ISZERO PUSH2 0x536 JUMPI PUSH2 0x535 PUSH2 0x15F JUMP JUMPDEST JUMPDEST PUSH2 0x540 DUP3 SLOAD PUSH2 0x347 JUMP JUMPDEST PUSH2 0x54B DUP3 DUP3 DUP6 PUSH2 0x48B JUMP JUMPDEST PUSH0 PUSH1 0x20 SWAP1 POP PUSH1 0x1F DUP4 GT PUSH1 0x1 DUP2 EQ PUSH2 0x57C JUMPI PUSH0 DUP5 ISZERO PUSH2 0x56A JUMPI DUP3 DUP8 ADD MLOAD SWAP1 POP JUMPDEST PUSH2 0x574 DUP6 DUP3 PUSH2 0x4F9 JUMP JUMPDEST DUP7 SSTORE POP PUSH2 0x5DB JUMP JUMPDEST PUSH1 0x1F NOT DUP5 AND PUSH2 0x58A DUP7 PUSH2 0x377 JUMP JUMPDEST PUSH0 JUMPDEST DUP3 DUP2 LT ISZERO PUSH2 0x5B1 JUMPI DUP5 DUP10 ADD MLOAD DUP3 SSTORE PUSH1 0x1 DUP3 ADD SWAP2 POP PUSH1 0x20 DUP6 ADD SWAP5 POP PUSH1 0x20 DUP2 ADD SWAP1 POP PUSH2 0x58C JUMP JUMPDEST DUP7 DUP4 LT ISZERO PUSH2 0x5CE JUMPI DUP5 DUP10 ADD MLOAD PUSH2 0x5CA PUSH1 0x1F DUP10 AND DUP3 PUSH2 0x4DD JUMP JUMPDEST DUP4 SSTORE POP JUMPDEST PUSH1 0x1 PUSH1 0x2 DUP9 MUL ADD DUP9 SSTORE POP POP POP JUMPDEST POP POP POP POP POP POP JUMP JUMPDEST PUSH0 DUP3 DUP3 MSTORE PUSH1 0x20 DUP3 ADD SWAP1 POP SWAP3 SWAP2 POP POP JUMP JUMPDEST PUSH0 DUP2 SLOAD PUSH2 0x5FF DUP2 PUSH2 0x347 JUMP JUMPDEST PUSH2 0x609 DUP2 DUP7 PUSH2 0x5E3 JUMP JUMPDEST SWAP5 POP PUSH1 0x1 DUP3 AND PUSH0 DUP2 EQ PUSH2 0x623 JUMPI PUSH1 0x1 DUP2 EQ PUSH2 0x639 JUMPI PUSH2 0x66B JUMP JUMPDEST PUSH1 0xFF NOT DUP4 AND DUP7 MSTORE DUP2 ISZERO ISZERO PUSH1 0x20 MUL DUP7 ADD SWAP4 POP PUSH2 0x66B JUMP JUMPDEST PUSH2 0x642 DUP6 PUSH2 0x377 JUMP JUMPDEST PUSH0 JUMPDEST DUP4 DUP2 LT ISZERO PUSH2 0x663 JUMPI DUP2 SLOAD DUP2 DUP10 ADD MSTORE PUSH1 0x1 DUP3 ADD SWAP2 POP PUSH1 0x20 DUP2 ADD SWAP1 POP PUSH2 0x644 JUMP JUMPDEST DUP1 DUP9 ADD SWAP6 POP POP POP JUMPDEST POP POP POP SWAP3 SWAP2 POP POP JUMP JUMPDEST PUSH0 PUSH1 0x20 DUP3 ADD SWAP1 POP DUP2 DUP2 SUB PUSH0 DUP4 ADD MSTORE PUSH2 0x68C DUP2 DUP5 PUSH2 0x5F3 JUMP JUMPDEST SWAP1 POP SWAP3 SWAP2 POP POP JUMP JUMPDEST PUSH32 0x4E487B7100000000000000000000000000000000000000000000000000000000 PUSH0 MSTORE PUSH1 0x11 PUSH1 0x4 MSTORE PUSH1 0x24 PUSH0 REVERT JUMPDEST PUSH0 PUSH2 0x6CB DUP3 PUSH2 0x283 JUMP JUMPDEST SWAP2 POP PUSH2 0x6D6 DUP4 PUSH2 0x283 JUMP JUMPDEST SWAP3 POP DUP3 DUP3 ADD SWAP1 POP DUP1 DUP3 GT ISZERO PUSH2 0x6EE JUMPI PUSH2 0x6ED PUSH2 0x694 JUMP JUMPDEST JUMPDEST SWAP3 SWAP2 POP POP JUMP JUMPDEST PUSH32 0x4E487B7100000000000000000000000000000000000000000000000000000000 PUSH0 MSTORE PUSH1 0x12 PUSH1 0x4 MSTORE PUSH1 0x24 PUSH0 REVERT JUMPDEST PUSH0 PUSH2 0x72B DUP3 PUSH2 0x283 JUMP JUMPDEST SWAP2 POP PUSH2 0x736 DUP4 PUSH2 0x283 JUMP JUMPDEST SWAP3 POP DUP3 PUSH2 0x746 JUMPI PUSH2 0x745 PUSH2 0x6F4 JUMP JUMPDEST JUMPDEST DUP3 DUP3 DIV SWAP1 POP SWAP3 SWAP2 POP POP JUMP JUMPDEST PUSH0 PUSH2 0x75B DUP3 PUSH2 0x283 JUMP JUMPDEST SWAP2 POP PUSH2 0x766 DUP4 PUSH2 0x283 JUMP JUMPDEST SWAP3 POP DUP3 DUP3 MUL PUSH2 0x774 DUP2 PUSH2 0x283 JUMP JUMPDEST SWAP2 POP DUP3 DUP3 DIV DUP5 EQ DUP4 ISZERO OR PUSH2 0x78B JUMPI PUSH2 0x78A PUSH2 0x694 JUMP JUMPDEST JUMPDEST POP SWAP3 SWAP2 POP POP JUMP JUMPDEST PUSH0 PUSH2 0x79C DUP3 PUSH2 0x283 JUMP JUMPDEST SWAP2 POP PUSH2 0x7A7 DUP4 PUSH2 0x283 JUMP JUMPDEST SWAP3 POP DUP3 DUP3 SUB SWAP1 POP DUP2 DUP2 GT ISZERO PUSH2 0x7BF JUMPI PUSH2 0x7BE PUSH2 0x694 JUMP JUMPDEST JUMPDEST SWAP3 SWAP2 POP POP JUMP JUMPDEST PUSH2 0x12CD DUP1 PUSH2 0x7D2 PUSH0 CODECOPY PUSH0 RETURN INVALID PUSH1 0x80 PUSH1 0x40 MSTORE PUSH1 0x4 CALLDATASIZE LT PUSH2 0x89 JUMPI PUSH0 CALLDATALOAD PUSH1 0xE0 SHR DUP1 PUSH4 0x79ED40BC GT PUSH2 0x58 JUMPI DUP1 PUSH4 0x79ED40BC EQ PUSH2 0x411 JUMPI DUP1 PUSH4 0x8DA5CB5B EQ PUSH2 0x43C JUMPI DUP1 PUSH4 0x9F8743F7 EQ PUSH2 0x466 JUMPI DUP1 PUSH4 0xA86D2E19 EQ PUSH2 0x490 JUMPI DUP1 PUSH4 0xCF66B989 EQ PUSH2 0x4BA JUMPI PUSH2 0x367 JUMP JUMPDEST DUP1 PUSH4 0xDF516D8 EQ PUSH2 0x36B JUMPI DUP1 PUSH4 0x12065FE0 EQ PUSH2 0x395 JUMPI DUP1 PUSH4 0x146CA531 EQ PUSH2 0x3BF JUMPI DUP1 PUSH4 0x5EF5CC89 EQ PUSH2 0x3E9 JUMPI PUSH2 0x367 JUMP JUMPDEST CALLDATASIZE PUSH2 0x367 JUMPI PUSH7 0x2386F26FC10000 CALLVALUE EQ PUSH2 0xD7 JUMPI PUSH1 0x40 MLOAD PUSH32 0x8C379A000000000000000000000000000000000000000000000000000000000 DUP2 MSTORE PUSH1 0x4 ADD PUSH2 0xCE SWAP1 PUSH2 0x8AB JUMP JUMPDEST PUSH1 0x40 MLOAD DUP1 SWAP2 SUB SWAP1 REVERT JUMPDEST PUSH0 ISZERO ISZERO PUSH0 DUP1 PUSH1 0x5 SLOAD DUP2 MSTORE PUSH1 0x20 ADD SWAP1 DUP2 MSTORE PUSH1 0x20 ADD PUSH0 KECCAK256 PUSH0 CALLER PUSH20 0xFFFFFFFFFFFFFFFFFFFFFFFFFFFFFFFFFFFFFFFF AND PUSH20 0xFFFFFFFFFFFFFFFFFFFFFFFFFFFFFFFFFFFFFFFF AND DUP2 MSTORE PUSH1 0x20 ADD SWAP1 DUP2 MSTORE PUSH1 0x20 ADD PUSH0 KECCAK256 PUSH0 SWAP1 SLOAD SWAP1 PUSH2 0x100 EXP SWAP1 DIV PUSH1 0xFF AND ISZERO ISZERO EQ PUSH2 0x176 JUMPI PUSH1 0x40 MLOAD PUSH32 0x8C379A000000000000000000000000000000000000000000000000000000000 DUP2 MSTORE PUSH1 0x4 ADD PUSH2 0x16D SWAP1 PUSH2 0x913 JUMP JUMPDEST PUSH1 0x40 MLOAD DUP1 SWAP2 SUB SWAP1 REVERT JUMPDEST PUSH1 0x1 PUSH0 DUP1 PUSH1 0x5 SLOAD DUP2 MSTORE PUSH1 0x20 ADD SWAP1 DUP2 MSTORE PUSH1 0x20 ADD PUSH0 KECCAK256 PUSH0 CALLER PUSH20 0xFFFFFFFFFFFFFFFFFFFFFFFFFFFFFFFFFFFFFFFF AND PUSH20 0xFFFFFFFFFFFFFFFFFFFFFFFFFFFFFFFFFFFFFFFF AND DUP2 MSTORE PUSH1 0x20 ADD SWAP1 DUP2 MSTORE PUSH1 0x20 ADD PUSH0 KECCAK256 PUSH0 PUSH2 0x100 EXP DUP2 SLOAD DUP2 PUSH1 0xFF MUL NOT AND SWAP1 DUP4 ISZERO ISZERO MUL OR SWAP1 SSTORE POP PUSH1 0x6 PUSH0 DUP2 SLOAD PUSH2 0x1E9 SWAP1 PUSH2 0x967 JUMP JUMPDEST SWAP2 SWAP1 POP DUP2 SWAP1 SSTORE POP PUSH1 0x2 SLOAD PUSH1 0x6 SLOAD SUB PUSH2 0x316 JUMPI PUSH0 CALLER PUSH20 0xFFFFFFFFFFFFFFFFFFFFFFFFFFFFFFFFFFFFFFFF AND SELFBALANCE PUSH1 0x40 MLOAD PUSH2 0x220 SWAP1 PUSH2 0x9DB JUMP JUMPDEST PUSH0 PUSH1 0x40 MLOAD DUP1 DUP4 SUB DUP2 DUP6 DUP8 GAS CALL SWAP3 POP POP POP RETURNDATASIZE DUP1 PUSH0 DUP2 EQ PUSH2 0x25A JUMPI PUSH1 0x40 MLOAD SWAP2 POP PUSH1 0x1F NOT PUSH1 0x3F RETURNDATASIZE ADD AND DUP3 ADD PUSH1 0x40 MSTORE RETURNDATASIZE DUP3 MSTORE RETURNDATASIZE PUSH0 PUSH1 0x20 DUP5 ADD RETURNDATACOPY PUSH2 0x25F JUMP JUMPDEST PUSH1 0x60 SWAP2 POP JUMPDEST POP POP SWAP1 POP DUP1 PUSH2 0x2A3 JUMPI PUSH1 0x40 MLOAD PUSH32 0x8C379A000000000000000000000000000000000000000000000000000000000 DUP2 MSTORE PUSH1 0x4 ADD PUSH2 0x29A SWAP1 PUSH2 0xA39 JUMP JUMPDEST PUSH1 0x40 MLOAD DUP1 SWAP2 SUB SWAP1 REVERT JUMPDEST PUSH0 PUSH1 0x6 DUP2 SWAP1 SSTORE POP PUSH1 0x5 PUSH0 DUP2 SLOAD PUSH2 0x2B8 SWAP1 PUSH2 0x967 JUMP JUMPDEST SWAP2 SWAP1 POP DUP2 SWAP1 SSTORE POP PUSH2 0x2C7 PUSH2 0x4F6 JUMP JUMPDEST PUSH1 0x2 DUP2 SWAP1 SSTORE POP CALLER PUSH20 0xFFFFFFFFFFFFFFFFFFFFFFFFFFFFFFFFFFFFFFFF AND PUSH32 0x97327FD6694D3DF45480784B7731F13ECFFCAE0F296816EEC3DE6F43BF02F728 PUSH1 0x40 MLOAD PUSH1 0x40 MLOAD DUP1 SWAP2 SUB SWAP1 LOG2 POP PUSH2 0x365 JUMP JUMPDEST CALLER PUSH20 0xFFFFFFFFFFFFFFFFFFFFFFFFFFFFFFFFFFFFFFFF AND PUSH32 0x3B4B447121CFC99F637122D1C595E94EE2FB045709001F086432CF5442AC3F2 CALLVALUE PUSH1 0x40 MLOAD PUSH2 0x35C SWAP2 SWAP1 PUSH2 0xA66 JUMP JUMPDEST PUSH1 0x40 MLOAD DUP1 SWAP2 SUB SWAP1 LOG2 JUMPDEST STOP JUMPDEST PUSH0 DUP1 REVERT JUMPDEST CALLVALUE DUP1 ISZERO PUSH2 0x376 JUMPI PUSH0 DUP1 REVERT JUMPDEST POP PUSH2 0x37F PUSH2 0x57C JUMP JUMPDEST PUSH1 0x40 MLOAD PUSH2 0x38C SWAP2 SWAP1 PUSH2 0xA66 JUMP JUMPDEST PUSH1 0x40 MLOAD DUP1 SWAP2 SUB SWAP1 RETURN JUMPDEST CALLVALUE DUP1 ISZERO PUSH2 0x3A0 JUMPI PUSH0 DUP1 REVERT JUMPDEST POP PUSH2 0x3A9 PUSH2 0x582 JUMP JUMPDEST PUSH1 0x40 MLOAD PUSH2 0x3B6 SWAP2 SWAP1 PUSH2 0xA66 JUMP JUMPDEST PUSH1 0x40 MLOAD DUP1 SWAP2 SUB SWAP1 RETURN JUMPDEST CALLVALUE DUP1 ISZERO PUSH2 0x3CA JUMPI PUSH0 DUP1 REVERT JUMPDEST POP PUSH2 0x3D3 PUSH2 0x589 JUMP JUMPDEST PUSH1 0x40 MLOAD PUSH2 0x3E0 SWAP2 SWAP1 PUSH2 0xA66 JUMP JUMPDEST PUSH1 0x40 MLOAD DUP1 SWAP2 SUB SWAP1 RETURN JUMPDEST CALLVALUE DUP1 ISZERO PUSH2 0x3F4 JUMPI PUSH0 DUP1 REVERT JUMPDEST POP PUSH2 0x40F PUSH1 0x4 DUP1 CALLDATASIZE SUB DUP2 ADD SWAP1 PUSH2 0x40A SWAP2 SWAP1 PUSH2 0xBF6 JUMP JUMPDEST PUSH2 0x58F JUMP JUMPDEST STOP JUMPDEST CALLVALUE DUP1 ISZERO PUSH2 0x41C JUMPI PUSH0 DUP1 REVERT JUMPDEST POP PUSH2 0x425 PUSH2 0x639 JUMP JUMPDEST PUSH1 0x40 MLOAD PUSH2 0x433 SWAP3 SWAP2 SWAP1 PUSH2 0xCA0 JUMP JUMPDEST PUSH1 0x40 MLOAD DUP1 SWAP2 SUB SWAP1 RETURN JUMPDEST CALLVALUE DUP1 ISZERO PUSH2 0x447 JUMPI PUSH0 DUP1 REVERT JUMPDEST POP PUSH2 0x450 PUSH2 0x762 JUMP JUMPDEST PUSH1 0x40 MLOAD PUSH2 0x45D SWAP2 SWAP1 PUSH2 0xD0D JUMP JUMPDEST PUSH1 0x40 MLOAD DUP1 SWAP2 SUB SWAP1 RETURN JUMPDEST CALLVALUE DUP1 ISZERO PUSH2 0x471 JUMPI PUSH0 DUP1 REVERT JUMPDEST POP PUSH2 0x47A PUSH2 0x787 JUMP JUMPDEST PUSH1 0x40 MLOAD PUSH2 0x487 SWAP2 SWAP1 PUSH2 0xA66 JUMP JUMPDEST PUSH1 0x40 MLOAD DUP1 SWAP2 SUB SWAP1 RETURN JUMPDEST CALLVALUE DUP1 ISZERO PUSH2 0x49B JUMPI PUSH0 DUP1 REVERT JUMPDEST POP PUSH2 0x4A4 PUSH2 0x790 JUMP JUMPDEST PUSH1 0x40 MLOAD PUSH2 0x4B1 SWAP2 SWAP1 PUSH2 0xA66 JUMP JUMPDEST PUSH1 0x40 MLOAD DUP1 SWAP2 SUB SWAP1 RETURN JUMPDEST CALLVALUE DUP1 ISZERO PUSH2 0x4C5 JUMPI PUSH0 DUP1 REVERT JUMPDEST POP PUSH2 0x4E0 PUSH1 0x4 DUP1 CALLDATASIZE SUB DUP2 ADD SWAP1 PUSH2 0x4DB SWAP2 SWAP1 PUSH2 0xD50 JUMP JUMPDEST PUSH2 0x828 JUMP JUMPDEST PUSH1 0x40 MLOAD PUSH2 0x4ED SWAP2 SWAP1 PUSH2 0xDA8 JUMP JUMPDEST PUSH1 0x40 MLOAD DUP1 SWAP2 SUB SWAP1 RETURN JUMPDEST PUSH0 DUP1 NUMBER TIMESTAMP PUSH1 0x4 SLOAD PUSH1 0x3 PUSH1 0x40 MLOAD PUSH1 0x20 ADD PUSH2 0x50F SWAP2 SWAP1 PUSH2 0xEB1 JUMP JUMPDEST PUSH1 0x40 MLOAD PUSH1 0x20 DUP2 DUP4 SUB SUB DUP2 MSTORE SWAP1 PUSH1 0x40 MSTORE DUP1 MLOAD SWAP1 PUSH1 0x20 ADD KECCAK256 PUSH0 SHR PUSH2 0x531 SWAP2 SWAP1 PUSH2 0xED1 JUMP JUMPDEST PUSH2 0x53B SWAP2 SWAP1 PUSH2 0xED1 JUMP JUMPDEST PUSH2 0x545 SWAP2 SWAP1 PUSH2 0xED1 JUMP JUMPDEST SWAP1 POP PUSH1 0x1 PUSH1 0xA DUP1 DUP4 PUSH2 0x557 SWAP2 SWAP1 PUSH2 0xF31 JUMP JUMPDEST PUSH2 0x561 SWAP2 SWAP1 PUSH2 0xF61 JUMP JUMPDEST DUP3 PUSH2 0x56C SWAP2 SWAP1 PUSH2 0xFA2 JUMP JUMPDEST PUSH2 0x576 SWAP2 SWAP1 PUSH2 0xED1 JUMP JUMPDEST SWAP2 POP POP SWAP1 JUMP JUMPDEST PUSH1 0x6 SLOAD DUP2 JUMP JUMPDEST PUSH0 SELFBALANCE SWAP1 POP SWAP1 JUMP JUMPDEST PUSH1 0x5 SLOAD DUP2 JUMP JUMPDEST PUSH1 0x1 PUSH0 SWAP1 SLOAD SWAP1 PUSH2 0x100 EXP SWAP1 DIV PUSH20 0xFFFFFFFFFFFFFFFFFFFFFFFFFFFFFFFFFFFFFFFF AND PUSH20 0xFFFFFFFFFFFFFFFFFFFFFFFFFFFFFFFFFFFFFFFF AND CALLER PUSH20 0xFFFFFFFFFFFFFFFFFFFFFFFFFFFFFFFFFFFFFFFF AND EQ PUSH2 0x61E JUMPI PUSH1 0x40 MLOAD PUSH32 0x8C379A000000000000000000000000000000000000000000000000000000000 DUP2 MSTORE PUSH1 0x4 ADD PUSH2 0x615 SWAP1 PUSH2 0x101F JUMP JUMPDEST PUSH1 0x40 MLOAD DUP1 SWAP2 SUB SWAP1 REVERT JUMPDEST DUP2 PUSH1 0x3 SWAP1 DUP2 PUSH2 0x62D SWAP2 SWAP1 PUSH2 0x11C8 JUMP JUMPDEST POP DUP1 PUSH1 0x4 DUP2 SWAP1 SSTORE POP POP POP JUMP JUMPDEST PUSH1 0x60 PUSH0 PUSH1 0x1 PUSH0 SWAP1 SLOAD SWAP1 PUSH2 0x100 EXP SWAP1 DIV PUSH20 0xFFFFFFFFFFFFFFFFFFFFFFFFFFFFFFFFFFFFFFFF AND PUSH20 0xFFFFFFFFFFFFFFFFFFFFFFFFFFFFFFFFFFFFFFFF AND CALLER PUSH20 0xFFFFFFFFFFFFFFFFFFFFFFFFFFFFFFFFFFFFFFFF AND EQ PUSH2 0x6CB JUMPI PUSH1 0x40 MLOAD PUSH32 0x8C379A000000000000000000000000000000000000000000000000000000000 DUP2 MSTORE PUSH1 0x4 ADD PUSH2 0x6C2 SWAP1 PUSH2 0x101F JUMP JUMPDEST PUSH1 0x40 MLOAD DUP1 SWAP2 SUB SWAP1 REVERT JUMPDEST PUSH1 0x3 PUSH1 0x4 SLOAD DUP2 DUP1 SLOAD PUSH2 0x6DC SWAP1 PUSH2 0xDEE JUMP JUMPDEST DUP1 PUSH1 0x1F ADD PUSH1 0x20 DUP1 SWAP2 DIV MUL PUSH1 0x20 ADD PUSH1 0x40 MLOAD SWAP1 DUP2 ADD PUSH1 0x40 MSTORE DUP1 SWAP3 SWAP2 SWAP1 DUP2 DUP2 MSTORE PUSH1 0x20 ADD DUP3 DUP1 SLOAD PUSH2 0x708 SWAP1 PUSH2 0xDEE JUMP JUMPDEST DUP1 ISZERO PUSH2 0x753 JUMPI DUP1 PUSH1 0x1F LT PUSH2 0x72A JUMPI PUSH2 0x100 DUP1 DUP4 SLOAD DIV MUL DUP4 MSTORE SWAP2 PUSH1 0x20 ADD SWAP2 PUSH2 0x753 JUMP JUMPDEST DUP3 ADD SWAP2 SWAP1 PUSH0 MSTORE PUSH1 0x20 PUSH0 KECCAK256 SWAP1 JUMPDEST DUP2 SLOAD DUP2 MSTORE SWAP1 PUSH1 0x1 ADD SWAP1 PUSH1 0x20 ADD DUP1 DUP4 GT PUSH2 0x736 JUMPI DUP3 SWAP1 SUB PUSH1 0x1F AND DUP3 ADD SWAP2 JUMPDEST POP POP POP POP POP SWAP2 POP SWAP2 POP SWAP2 POP SWAP1 SWAP2 JUMP JUMPDEST PUSH1 0x1 PUSH0 SWAP1 SLOAD SWAP1 PUSH2 0x100 EXP SWAP1 DIV PUSH20 0xFFFFFFFFFFFFFFFFFFFFFFFFFFFFFFFFFFFFFFFF AND DUP2 JUMP JUMPDEST PUSH0 PUSH1 0x5 SLOAD SWAP1 POP SWAP1 JUMP JUMPDEST PUSH0 PUSH1 0x1 PUSH0 SWAP1 SLOAD SWAP1 PUSH2 0x100 EXP SWAP1 DIV PUSH20 0xFFFFFFFFFFFFFFFFFFFFFFFFFFFFFFFFFFFFFFFF AND PUSH20 0xFFFFFFFFFFFFFFFFFFFFFFFFFFFFFFFFFFFFFFFF AND CALLER PUSH20 0xFFFFFFFFFFFFFFFFFFFFFFFFFFFFFFFFFFFFFFFF AND EQ PUSH2 0x820 JUMPI PUSH1 0x40 MLOAD PUSH32 0x8C379A000000000000000000000000000000000000000000000000000000000 DUP2 MSTORE PUSH1 0x4 ADD PUSH2 0x817 SWAP1 PUSH2 0x101F JUMP JUMPDEST PUSH1 0x40 MLOAD DUP1 SWAP2 SUB SWAP1 REVERT JUMPDEST PUSH1 0x2 SLOAD SWAP1 POP SWAP1 JUMP JUMPDEST PUSH0 PUSH1 0x20 MSTORE DUP2 PUSH0 MSTORE PUSH1 0x40 PUSH0 KECCAK256 PUSH1 0x20 MSTORE DUP1 PUSH0 MSTORE PUSH1 0x40 PUSH0 KECCAK256 PUSH0 SWAP2 POP SWAP2 POP SWAP1 SLOAD SWAP1 PUSH2 0x100 EXP SWAP1 DIV PUSH1 0xFF AND DUP2 JUMP JUMPDEST PUSH0 DUP3 DUP3 MSTORE PUSH1 0x20 DUP3 ADD SWAP1 POP SWAP3 SWAP2 POP POP JUMP JUMPDEST PUSH32 0x4D75737420626520302E30312065746865722E00000000000000000000000000 PUSH0 DUP3 ADD MSTORE POP JUMP JUMPDEST PUSH0 PUSH2 0x895 PUSH1 0x13 DUP4 PUSH2 0x851 JUMP JUMPDEST SWAP2 POP PUSH2 0x8A0 DUP3 PUSH2 0x861 JUMP JUMPDEST PUSH1 0x20 DUP3 ADD SWAP1 POP SWAP2 SWAP1 POP JUMP JUMPDEST PUSH0 PUSH1 0x20 DUP3 ADD SWAP1 POP DUP2 DUP2 SUB PUSH0 DUP4 ADD MSTORE PUSH2 0x8C2 DUP2 PUSH2 0x889 JUMP JUMPDEST SWAP1 POP SWAP2 SWAP1 POP JUMP JUMPDEST PUSH32 0x4D7573742062652066697273742074696D652E00000000000000000000000000 PUSH0 DUP3 ADD MSTORE POP JUMP JUMPDEST PUSH0 PUSH2 0x8FD PUSH1 0x13 DUP4 PUSH2 0x851 JUMP JUMPDEST SWAP2 POP PUSH2 0x908 DUP3 PUSH2 0x8C9 JUMP JUMPDEST PUSH1 0x20 DUP3 ADD SWAP1 POP SWAP2 SWAP1 POP JUMP JUMPDEST PUSH0 PUSH1 0x20 DUP3 ADD SWAP1 POP DUP2 DUP2 SUB PUSH0 DUP4 ADD MSTORE PUSH2 0x92A DUP2 PUSH2 0x8F1 JUMP JUMPDEST SWAP1 POP SWAP2 SWAP1 POP JUMP JUMPDEST PUSH32 0x4E487B7100000000000000000000000000000000000000000000000000000000 PUSH0 MSTORE PUSH1 0x11 PUSH1 0x4 MSTORE PUSH1 0x24 PUSH0 REVERT JUMPDEST PUSH0 DUP2 SWAP1 POP SWAP2 SWAP1 POP JUMP JUMPDEST PUSH0 PUSH2 0x971 DUP3 PUSH2 0x95E JUMP JUMPDEST SWAP2 POP PUSH32 0xFFFFFFFFFFFFFFFFFFFFFFFFFFFFFFFFFFFFFFFFFFFFFFFFFFFFFFFFFFFFFFFF DUP3 SUB PUSH2 0x9A3 JUMPI PUSH2 0x9A2 PUSH2 0x931 JUMP JUMPDEST JUMPDEST PUSH1 0x1 DUP3 ADD SWAP1 POP SWAP2 SWAP1 POP JUMP JUMPDEST PUSH0 DUP2 SWAP1 POP SWAP3 SWAP2 POP POP JUMP JUMPDEST POP JUMP JUMPDEST PUSH0 PUSH2 0x9C6 PUSH0 DUP4 PUSH2 0x9AE JUMP JUMPDEST SWAP2 POP PUSH2 0x9D1 DUP3 PUSH2 0x9B8 JUMP JUMPDEST PUSH0 DUP3 ADD SWAP1 POP SWAP2 SWAP1 POP JUMP JUMPDEST PUSH0 PUSH2 0x9E5 DUP3 PUSH2 0x9BB JUMP JUMPDEST SWAP2 POP DUP2 SWAP1 POP SWAP2 SWAP1 POP JUMP JUMPDEST PUSH32 0x4661696C65640000000000000000000000000000000000000000000000000000 PUSH0 DUP3 ADD MSTORE POP JUMP JUMPDEST PUSH0 PUSH2 0xA23 PUSH1 0x6 DUP4 PUSH2 0x851 JUMP JUMPDEST SWAP2 POP PUSH2 0xA2E DUP3 PUSH2 0x9EF JUMP JUMPDEST PUSH1 0x20 DUP3 ADD SWAP1 POP SWAP2 SWAP1 POP JUMP JUMPDEST PUSH0 PUSH1 0x20 DUP3 ADD SWAP1 POP DUP2 DUP2 SUB PUSH0 DUP4 ADD MSTORE PUSH2 0xA50 DUP2 PUSH2 0xA17 JUMP JUMPDEST SWAP1 POP SWAP2 SWAP1 POP JUMP JUMPDEST PUSH2 0xA60 DUP2 PUSH2 0x95E JUMP JUMPDEST DUP3 MSTORE POP POP JUMP JUMPDEST PUSH0 PUSH1 0x20 DUP3 ADD SWAP1 POP PUSH2 0xA79 PUSH0 DUP4 ADD DUP5 PUSH2 0xA57 JUMP JUMPDEST SWAP3 SWAP2 POP POP JUMP JUMPDEST PUSH0 PUSH1 0x40 MLOAD SWAP1 POP SWAP1 JUMP JUMPDEST PUSH0 DUP1 REVERT JUMPDEST PUSH0 DUP1 REVERT JUMPDEST PUSH0 DUP1 REVERT JUMPDEST PUSH0 DUP1 REVERT JUMPDEST PUSH0 PUSH1 0x1F NOT PUSH1 0x1F DUP4 ADD AND SWAP1 POP SWAP2 SWAP1 POP JUMP JUMPDEST PUSH32 0x4E487B7100000000000000000000000000000000000000000000000000000000 PUSH0 MSTORE PUSH1 0x41 PUSH1 0x4 MSTORE PUSH1 0x24 PUSH0 REVERT JUMPDEST PUSH2 0xADE DUP3 PUSH2 0xA98 JUMP JUMPDEST DUP2 ADD DUP2 DUP2 LT PUSH8 0xFFFFFFFFFFFFFFFF DUP3 GT OR ISZERO PUSH2 0xAFD JUMPI PUSH2 0xAFC PUSH2 0xAA8 JUMP JUMPDEST JUMPDEST DUP1 PUSH1 0x40 MSTORE POP POP POP JUMP JUMPDEST PUSH0 PUSH2 0xB0F PUSH2 0xA7F JUMP JUMPDEST SWAP1 POP PUSH2 0xB1B DUP3 DUP3 PUSH2 0xAD5 JUMP JUMPDEST SWAP2 SWAP1 POP JUMP JUMPDEST PUSH0 PUSH8 0xFFFFFFFFFFFFFFFF DUP3 GT ISZERO PUSH2 0xB3A JUMPI PUSH2 0xB39 PUSH2 0xAA8 JUMP JUMPDEST JUMPDEST PUSH2 0xB43 DUP3 PUSH2 0xA98 JUMP JUMPDEST SWAP1 POP PUSH1 0x20 DUP2 ADD SWAP1 POP SWAP2 SWAP1 POP JUMP JUMPDEST DUP3 DUP2 DUP4 CALLDATACOPY PUSH0 DUP4 DUP4 ADD MSTORE POP POP POP JUMP JUMPDEST PUSH0 PUSH2 0xB70 PUSH2 0xB6B DUP5 PUSH2 0xB20 JUMP JUMPDEST PUSH2 0xB06 JUMP JUMPDEST SWAP1 POP DUP3 DUP2 MSTORE PUSH1 0x20 DUP2 ADD DUP5 DUP5 DUP5 ADD GT ISZERO PUSH2 0xB8C JUMPI PUSH2 0xB8B PUSH2 0xA94 JUMP JUMPDEST JUMPDEST PUSH2 0xB97 DUP5 DUP3 DUP6 PUSH2 0xB50 JUMP JUMPDEST POP SWAP4 SWAP3 POP POP POP JUMP JUMPDEST PUSH0 DUP3 PUSH1 0x1F DUP4 ADD SLT PUSH2 0xBB3 JUMPI PUSH2 0xBB2 PUSH2 0xA90 JUMP JUMPDEST JUMPDEST DUP2 CALLDATALOAD PUSH2 0xBC3 DUP5 DUP3 PUSH1 0x20 DUP7 ADD PUSH2 0xB5E JUMP JUMPDEST SWAP2 POP POP SWAP3 SWAP2 POP POP JUMP JUMPDEST PUSH2 0xBD5 DUP2 PUSH2 0x95E JUMP JUMPDEST DUP2 EQ PUSH2 0xBDF JUMPI PUSH0 DUP1 REVERT JUMPDEST POP JUMP JUMPDEST PUSH0 DUP2 CALLDATALOAD SWAP1 POP PUSH2 0xBF0 DUP2 PUSH2 0xBCC JUMP JUMPDEST SWAP3 SWAP2 POP POP JUMP JUMPDEST PUSH0 DUP1 PUSH1 0x40 DUP4 DUP6 SUB SLT ISZERO PUSH2 0xC0C JUMPI PUSH2 0xC0B PUSH2 0xA88 JUMP JUMPDEST JUMPDEST PUSH0 DUP4 ADD CALLDATALOAD PUSH8 0xFFFFFFFFFFFFFFFF DUP2 GT ISZERO PUSH2 0xC29 JUMPI PUSH2 0xC28 PUSH2 0xA8C JUMP JUMPDEST JUMPDEST PUSH2 0xC35 DUP6 DUP3 DUP7 ADD PUSH2 0xB9F JUMP JUMPDEST SWAP3 POP POP PUSH1 0x20 PUSH2 0xC46 DUP6 DUP3 DUP7 ADD PUSH2 0xBE2 JUMP JUMPDEST SWAP2 POP POP SWAP3 POP SWAP3 SWAP1 POP JUMP JUMPDEST PUSH0 DUP2 MLOAD SWAP1 POP SWAP2 SWAP1 POP JUMP JUMPDEST DUP3 DUP2 DUP4 MCOPY PUSH0 DUP4 DUP4 ADD MSTORE POP POP POP JUMP JUMPDEST PUSH0 PUSH2 0xC72 DUP3 PUSH2 0xC50 JUMP JUMPDEST PUSH2 0xC7C DUP2 DUP6 PUSH2 0x851 JUMP JUMPDEST SWAP4 POP PUSH2 0xC8C DUP2 DUP6 PUSH1 0x20 DUP7 ADD PUSH2 0xC5A JUMP JUMPDEST PUSH2 0xC95 DUP2 PUSH2 0xA98 JUMP JUMPDEST DUP5 ADD SWAP2 POP POP SWAP3 SWAP2 POP POP JUMP JUMPDEST PUSH0 PUSH1 0x40 DUP3 ADD SWAP1 POP DUP2 DUP2 SUB PUSH0 DUP4 ADD MSTORE PUSH2 0xCB8 DUP2 DUP6 PUSH2 0xC68 JUMP JUMPDEST SWAP1 POP PUSH2 0xCC7 PUSH1 0x20 DUP4 ADD DUP5 PUSH2 0xA57 JUMP JUMPDEST SWAP4 SWAP3 POP POP POP JUMP JUMPDEST PUSH0 PUSH20 0xFFFFFFFFFFFFFFFFFFFFFFFFFFFFFFFFFFFFFFFF DUP3 AND SWAP1 POP SWAP2 SWAP1 POP JUMP JUMPDEST PUSH0 PUSH2 0xCF7 DUP3 PUSH2 0xCCE JUMP JUMPDEST SWAP1 POP SWAP2 SWAP1 POP JUMP JUMPDEST PUSH2 0xD07 DUP2 PUSH2 0xCED JUMP JUMPDEST DUP3 MSTORE POP POP JUMP JUMPDEST PUSH0 PUSH1 0x20 DUP3 ADD SWAP1 POP PUSH2 0xD20 PUSH0 DUP4 ADD DUP5 PUSH2 0xCFE JUMP JUMPDEST SWAP3 SWAP2 POP POP JUMP JUMPDEST PUSH2 0xD2F DUP2 PUSH2 0xCED JUMP JUMPDEST DUP2 EQ PUSH2 0xD39 JUMPI PUSH0 DUP1 REVERT JUMPDEST POP JUMP JUMPDEST PUSH0 DUP2 CALLDATALOAD SWAP1 POP PUSH2 0xD4A DUP2 PUSH2 0xD26 JUMP JUMPDEST SWAP3 SWAP2 POP POP JUMP JUMPDEST PUSH0 DUP1 PUSH1 0x40 DUP4 DUP6 SUB SLT ISZERO PUSH2 0xD66 JUMPI PUSH2 0xD65 PUSH2 0xA88 JUMP JUMPDEST JUMPDEST PUSH0 PUSH2 0xD73 DUP6 DUP3 DUP7 ADD PUSH2 0xBE2 JUMP JUMPDEST SWAP3 POP POP PUSH1 0x20 PUSH2 0xD84 DUP6 DUP3 DUP7 ADD PUSH2 0xD3C JUMP JUMPDEST SWAP2 POP POP SWAP3 POP SWAP3 SWAP1 POP JUMP JUMPDEST PUSH0 DUP2 ISZERO ISZERO SWAP1 POP SWAP2 SWAP1 POP JUMP JUMPDEST PUSH2 0xDA2 DUP2 PUSH2 0xD8E JUMP JUMPDEST DUP3 MSTORE POP POP JUMP JUMPDEST PUSH0 PUSH1 0x20 DUP3 ADD SWAP1 POP PUSH2 0xDBB PUSH0 DUP4 ADD DUP5 PUSH2 0xD99 JUMP JUMPDEST SWAP3 SWAP2 POP POP JUMP JUMPDEST PUSH32 0x4E487B7100000000000000000000000000000000000000000000000000000000 PUSH0 MSTORE PUSH1 0x22 PUSH1 0x4 MSTORE PUSH1 0x24 PUSH0 REVERT JUMPDEST PUSH0 PUSH1 0x2 DUP3 DIV SWAP1 POP PUSH1 0x1 DUP3 AND DUP1 PUSH2 0xE05 JUMPI PUSH1 0x7F DUP3 AND SWAP2 POP JUMPDEST PUSH1 0x20 DUP3 LT DUP2 SUB PUSH2 0xE18 JUMPI PUSH2 0xE17 PUSH2 0xDC1 JUMP JUMPDEST JUMPDEST POP SWAP2 SWAP1 POP JUMP JUMPDEST PUSH0 DUP2 SWAP1 POP DUP2 PUSH0 MSTORE PUSH1 0x20 PUSH0 KECCAK256 SWAP1 POP SWAP2 SWAP1 POP JUMP JUMPDEST PUSH0 DUP2 SLOAD PUSH2 0xE3C DUP2 PUSH2 0xDEE JUMP JUMPDEST PUSH2 0xE46 DUP2 DUP7 PUSH2 0x851 JUMP JUMPDEST SWAP5 POP PUSH1 0x1 DUP3 AND PUSH0 DUP2 EQ PUSH2 0xE60 JUMPI PUSH1 0x1 DUP2 EQ PUSH2 0xE76 JUMPI PUSH2 0xEA8 JUMP JUMPDEST PUSH1 0xFF NOT DUP4 AND DUP7 MSTORE DUP2 ISZERO ISZERO PUSH1 0x20 MUL DUP7 ADD SWAP4 POP PUSH2 0xEA8 JUMP JUMPDEST PUSH2 0xE7F DUP6 PUSH2 0xE1E JUMP JUMPDEST PUSH0 JUMPDEST DUP4 DUP2 LT ISZERO PUSH2 0xEA0 JUMPI DUP2 SLOAD DUP2 DUP10 ADD MSTORE PUSH1 0x1 DUP3 ADD SWAP2 POP PUSH1 0x20 DUP2 ADD SWAP1 POP PUSH2 0xE81 JUMP JUMPDEST DUP1 DUP9 ADD SWAP6 POP POP POP JUMPDEST POP POP POP SWAP3 SWAP2 POP POP JUMP JUMPDEST PUSH0 PUSH1 0x20 DUP3 ADD SWAP1 POP DUP2 DUP2 SUB PUSH0 DUP4 ADD MSTORE PUSH2 0xEC9 DUP2 DUP5 PUSH2 0xE30 JUMP JUMPDEST SWAP1 POP SWAP3 SWAP2 POP POP JUMP JUMPDEST PUSH0 PUSH2 0xEDB DUP3 PUSH2 0x95E JUMP JUMPDEST SWAP2 POP PUSH2 0xEE6 DUP4 PUSH2 0x95E JUMP JUMPDEST SWAP3 POP DUP3 DUP3 ADD SWAP1 POP DUP1 DUP3 GT ISZERO PUSH2 0xEFE JUMPI PUSH2 0xEFD PUSH2 0x931 JUMP JUMPDEST JUMPDEST SWAP3 SWAP2 POP POP JUMP JUMPDEST PUSH32 0x4E487B7100000000000000000000000000000000000000000000000000000000 PUSH0 MSTORE PUSH1 0x12 PUSH1 0x4 MSTORE PUSH1 0x24 PUSH0 REVERT JUMPDEST PUSH0 PUSH2 0xF3B DUP3 PUSH2 0x95E JUMP JUMPDEST SWAP2 POP PUSH2 0xF46 DUP4 PUSH2 0x95E JUMP JUMPDEST SWAP3 POP DUP3 PUSH2 0xF56 JUMPI PUSH2 0xF55 PUSH2 0xF04 JUMP JUMPDEST JUMPDEST DUP3 DUP3 DIV SWAP1 POP SWAP3 SWAP2 POP POP JUMP JUMPDEST PUSH0 PUSH2 0xF6B DUP3 PUSH2 0x95E JUMP JUMPDEST SWAP2 POP PUSH2 0xF76 DUP4 PUSH2 0x95E JUMP JUMPDEST SWAP3 POP DUP3 DUP3 MUL PUSH2 0xF84 DUP2 PUSH2 0x95E JUMP JUMPDEST SWAP2 POP DUP3 DUP3 DIV DUP5 EQ DUP4 ISZERO OR PUSH2 0xF9B JUMPI PUSH2 0xF9A PUSH2 0x931 JUMP JUMPDEST JUMPDEST POP SWAP3 SWAP2 POP POP JUMP JUMPDEST PUSH0 PUSH2 0xFAC DUP3 PUSH2 0x95E JUMP JUMPDEST SWAP2 POP PUSH2 0xFB7 DUP4 PUSH2 0x95E JUMP JUMPDEST SWAP3 POP DUP3 DUP3 SUB SWAP1 POP DUP2 DUP2 GT ISZERO PUSH2 0xFCF JUMPI PUSH2 0xFCE PUSH2 0x931 JUMP JUMPDEST JUMPDEST SWAP3 SWAP2 POP POP JUMP JUMPDEST PUSH32 0x4F776E61626C653A2063616C6C6572206973206E6F7420746865206F776E6572 PUSH0 DUP3 ADD MSTORE POP JUMP JUMPDEST PUSH0 PUSH2 0x1009 PUSH1 0x20 DUP4 PUSH2 0x851 JUMP JUMPDEST SWAP2 POP PUSH2 0x1014 DUP3 PUSH2 0xFD5 JUMP JUMPDEST PUSH1 0x20 DUP3 ADD SWAP1 POP SWAP2 SWAP1 POP JUMP JUMPDEST PUSH0 PUSH1 0x20 DUP3 ADD SWAP1 POP DUP2 DUP2 SUB PUSH0 DUP4 ADD MSTORE PUSH2 0x1036 DUP2 PUSH2 0xFFD JUMP JUMPDEST SWAP1 POP SWAP2 SWAP1 POP JUMP JUMPDEST PUSH0 PUSH1 0x20 PUSH1 0x1F DUP4 ADD DIV SWAP1 POP SWAP2 SWAP1 POP JUMP JUMPDEST PUSH0 DUP3 DUP3 SHL SWAP1 POP SWAP3 SWAP2 POP POP JUMP JUMPDEST PUSH0 PUSH1 0x8 DUP4 MUL PUSH2 0x1087 PUSH32 0xFFFFFFFFFFFFFFFFFFFFFFFFFFFFFFFFFFFFFFFFFFFFFFFFFFFFFFFFFFFFFFFF DUP3 PUSH2 0x104C JUMP JUMPDEST PUSH2 0x1091 DUP7 DUP4 PUSH2 0x104C JUMP JUMPDEST SWAP6 POP DUP1 NOT DUP5 AND SWAP4 POP DUP1 DUP7 AND DUP5 OR SWAP3 POP POP POP SWAP4 SWAP3 POP POP POP JUMP JUMPDEST PUSH0 DUP2 SWAP1 POP SWAP2 SWAP1 POP JUMP JUMPDEST PUSH0 PUSH2 0x10CC PUSH2 0x10C7 PUSH2 0x10C2 DUP5 PUSH2 0x95E JUMP JUMPDEST PUSH2 0x10A9 JUMP JUMPDEST PUSH2 0x95E JUMP JUMPDEST SWAP1 POP SWAP2 SWAP1 POP JUMP JUMPDEST PUSH0 DUP2 SWAP1 POP SWAP2 SWAP1 POP JUMP JUMPDEST PUSH2 0x10E5 DUP4 PUSH2 0x10B2 JUMP JUMPDEST PUSH2 0x10F9 PUSH2 0x10F1 DUP3 PUSH2 0x10D3 JUMP JUMPDEST DUP5 DUP5 SLOAD PUSH2 0x1058 JUMP JUMPDEST DUP3 SSTORE POP POP POP POP JUMP JUMPDEST PUSH0 SWAP1 JUMP JUMPDEST PUSH2 0x110D PUSH2 0x1101 JUMP JUMPDEST PUSH2 0x1118 DUP2 DUP5 DUP5 PUSH2 0x10DC JUMP JUMPDEST POP POP POP JUMP JUMPDEST JUMPDEST DUP2 DUP2 LT ISZERO PUSH2 0x113B JUMPI PUSH2 0x1130 PUSH0 DUP3 PUSH2 0x1105 JUMP JUMPDEST PUSH1 0x1 DUP2 ADD SWAP1 POP PUSH2 0x111E JUMP JUMPDEST POP POP JUMP JUMPDEST PUSH1 0x1F DUP3 GT ISZERO PUSH2 0x1180 JUMPI PUSH2 0x1151 DUP2 PUSH2 0xE1E JUMP JUMPDEST PUSH2 0x115A DUP5 PUSH2 0x103D JUMP JUMPDEST DUP2 ADD PUSH1 0x20 DUP6 LT ISZERO PUSH2 0x1169 JUMPI DUP2 SWAP1 POP JUMPDEST PUSH2 0x117D PUSH2 0x1175 DUP6 PUSH2 0x103D JUMP JUMPDEST DUP4 ADD DUP3 PUSH2 0x111D JUMP JUMPDEST POP POP JUMPDEST POP POP POP JUMP JUMPDEST PUSH0 DUP3 DUP3 SHR SWAP1 POP SWAP3 SWAP2 POP POP JUMP JUMPDEST PUSH0 PUSH2 0x11A0 PUSH0 NOT DUP5 PUSH1 0x8 MUL PUSH2 0x1185 JUMP JUMPDEST NOT DUP1 DUP4 AND SWAP2 POP POP SWAP3 SWAP2 POP POP JUMP JUMPDEST PUSH0 PUSH2 0x11B8 DUP4 DUP4 PUSH2 0x1191 JUMP JUMPDEST SWAP2 POP DUP3 PUSH1 0x2 MUL DUP3 OR SWAP1 POP SWAP3 SWAP2 POP POP JUMP JUMPDEST PUSH2 0x11D1 DUP3 PUSH2 0xC50 JUMP JUMPDEST PUSH8 0xFFFFFFFFFFFFFFFF DUP2 GT ISZERO PUSH2 0x11EA JUMPI PUSH2 0x11E9 PUSH2 0xAA8 JUMP JUMPDEST JUMPDEST PUSH2 0x11F4 DUP3 SLOAD PUSH2 0xDEE JUMP JUMPDEST PUSH2 0x11FF DUP3 DUP3 DUP6 PUSH2 0x113F JUMP JUMPDEST PUSH0 PUSH1 0x20 SWAP1 POP PUSH1 0x1F DUP4 GT PUSH1 0x1 DUP2 EQ PUSH2 0x1230 JUMPI PUSH0 DUP5 ISZERO PUSH2 0x121E JUMPI DUP3 DUP8 ADD MLOAD SWAP1 POP JUMPDEST PUSH2 0x1228 DUP6 DUP3 PUSH2 0x11AD JUMP JUMPDEST DUP7 SSTORE POP PUSH2 0x128F JUMP JUMPDEST PUSH1 0x1F NOT DUP5 AND PUSH2 0x123E DUP7 PUSH2 0xE1E JUMP JUMPDEST PUSH0 JUMPDEST DUP3 DUP2 LT ISZERO PUSH2 0x1265 JUMPI DUP5 DUP10 ADD MLOAD DUP3 SSTORE PUSH1 0x1 DUP3 ADD SWAP2 POP PUSH1 0x20 DUP6 ADD SWAP5 POP PUSH1 0x20 DUP2 ADD SWAP1 POP PUSH2 0x1240 JUMP JUMPDEST DUP7 DUP4 LT ISZERO PUSH2 0x1282 JUMPI DUP5 DUP10 ADD MLOAD PUSH2 0x127E PUSH1 0x1F DUP10 AND DUP3 PUSH2 0x1191 JUMP JUMPDEST DUP4 SSTORE POP JUMPDEST PUSH1 0x1 PUSH1 0x2 DUP9 MUL ADD DUP9 SSTORE POP POP POP JUMPDEST POP POP POP POP POP POP JUMP INVALID LOG2 PUSH5 0x6970667358 0x22 SLT KECCAK256 0xE0 0x4D CODESIZE 0x21 0xF6 ISZERO BLOCKHASH 0xEE MSTORE PUSH31 0x810627F93605617869F5F61BE5EB21A5E04F9CCAD4EE64736F6C634300081A STOP CALLER "
				},
				"gasEstimates": {
					"creation": {
						"codeDepositCost": "962600",
						"executionCost": "infinite",
						"totalCost": "infinite"
					},
					"external": {
						"getBalance()": "357",
						"getRound()": "2476",
						"getSecretKey()": "infinite",
						"getWinnerNumber()": "4667",
						"owner()": "2530",
						"paidAddressList(uint256,address)": "3158",
						"playNumber()": "2426",
						"round()": "2470",
						"setSecretKey(string,uint256)": "infinite"
					},
					"internal": {
						"randomNumber()": "infinite"
					}
				},
				"methodIdentifiers": {
					"getBalance()": "12065fe0",
					"getRound()": "9f8743f7",
					"getSecretKey()": "79ed40bc",
					"getWinnerNumber()": "a86d2e19",
					"owner()": "8da5cb5b",
					"paidAddressList(uint256,address)": "cf66b989",
					"playNumber()": "0df516d8",
					"round()": "146ca531",
					"setSecretKey(string,uint256)": "5ef5cc89"
				}
			},
			"storageLayout": {
				"storage": [
					{
						"astId": 29,
						"contract": "RandomGame/game.sol:Random",
						"label": "paidAddressList",
						"offset": 0,
						"slot": "0",
						"type": "t_mapping(t_uint256,t_mapping(t_address,t_bool))"
					},
					{
						"astId": 31,
						"contract": "RandomGame/game.sol:Random",
						"label": "owner",
						"offset": 0,
						"slot": "1",
						"type": "t_address"
					},
					{
						"astId": 34,
						"contract": "RandomGame/game.sol:Random",
						"label": "winnerNumber",
						"offset": 0,
						"slot": "2",
						"type": "t_uint256"
					},
					{
						"astId": 36,
						"contract": "RandomGame/game.sol:Random",
						"label": "key1",
						"offset": 0,
						"slot": "3",
						"type": "t_string_storage"
					},
					{
						"astId": 38,
						"contract": "RandomGame/game.sol:Random",
						"label": "key2",
						"offset": 0,
						"slot": "4",
						"type": "t_uint256"
					},
					{
						"astId": 41,
						"contract": "RandomGame/game.sol:Random",
						"label": "round",
						"offset": 0,
						"slot": "5",
						"type": "t_uint256"
					},
					{
						"astId": 44,
						"contract": "RandomGame/game.sol:Random",
						"label": "playNumber",
						"offset": 0,
						"slot": "6",
						"type": "t_uint256"
					}
				],
				"types": {
					"t_address": {
						"encoding": "inplace",
						"label": "address",
						"numberOfBytes": "20"
					},
					"t_bool": {
						"encoding": "inplace",
						"label": "bool",
						"numberOfBytes": "1"
					},
					"t_mapping(t_address,t_bool)": {
						"encoding": "mapping",
						"key": "t_address",
						"label": "mapping(address => bool)",
						"numberOfBytes": "32",
						"value": "t_bool"
					},
					"t_mapping(t_uint256,t_mapping(t_address,t_bool))": {
						"encoding": "mapping",
						"key": "t_uint256",
						"label": "mapping(uint256 => mapping(address => bool))",
						"numberOfBytes": "32",
						"value": "t_mapping(t_address,t_bool)"
					},
					"t_string_storage": {
						"encoding": "bytes",
						"label": "string",
						"numberOfBytes": "32"
					},
					"t_uint256": {
						"encoding": "inplace",
						"label": "uint256",
						"numberOfBytes": "32"
					}
				}
			},
			"userdoc": {
				"kind": "user",
				"methods": {},
				"version": 1
			}
		}
	}
}