{
	"reference/gas.sol": {
		"Gas": {
			"abi": [
				{
					"inputs": [],
					"name": "forever",
					"outputs": [],
					"stateMutability": "nonpayable",
					"type": "function"
				},
				{
					"inputs": [],
					"name": "i",
					"outputs": [
						{
							"internalType": "uint256",
							"name": "",
							"type": "uint256"
						}
					],
					"stateMutability": "view",
					"type": "function"
				}
			],
			"devdoc": {
				"kind": "dev",
				"methods": {},
				"version": 1
			},
			"evm": {
				"assembly": "    /* \"reference/gas.sol\":445:858  contract Gas {... */\n  mstore(0x40, 0x80)\n    /* \"reference/gas.sol\":480:481  0 */\n  0x00\n    /* \"reference/gas.sol\":464:481  uint public i = 0 */\n  dup1\n  sstore\n    /* \"reference/gas.sol\":445:858  contract Gas {... */\n  callvalue\n  dup1\n  iszero\n  tag_1\n  jumpi\n  0x00\n  dup1\n  revert\ntag_1:\n  pop\n  dataSize(sub_0)\n  dup1\n  dataOffset(sub_0)\n  0x00\n  codecopy\n  0x00\n  return\nstop\n\nsub_0: assembly {\n        /* \"reference/gas.sol\":445:858  contract Gas {... */\n      mstore(0x40, 0x80)\n      callvalue\n      dup1\n      iszero\n      tag_1\n      jumpi\n      0x00\n      dup1\n      revert\n    tag_1:\n      pop\n      jumpi(tag_2, lt(calldatasize, 0x04))\n      shr(0xe0, calldataload(0x00))\n      dup1\n      0x9ff9a603\n      eq\n      tag_3\n      jumpi\n      dup1\n      0xe5aa3d58\n      eq\n      tag_4\n      jumpi\n    tag_2:\n      0x00\n      dup1\n      revert\n        /* \"reference/gas.sol\":647:856  function forever() public {... */\n    tag_3:\n      tag_5\n      tag_6\n      jump\t// in\n    tag_5:\n      stop\n        /* \"reference/gas.sol\":464:481  uint public i = 0 */\n    tag_4:\n      tag_7\n      tag_8\n      jump\t// in\n    tag_7:\n      mload(0x40)\n      dup1\n      dup3\n      dup2\n      mstore\n      0x20\n      add\n      swap2\n      pop\n      pop\n      mload(0x40)\n      dup1\n      swap2\n      sub\n      swap1\n      return\n        /* \"reference/gas.sol\":647:856  function forever() public {... */\n    tag_6:\n        /* \"reference/gas.sol\":806:850  while (true) {... */\n    tag_10:\n        /* \"reference/gas.sol\":813:817  true */\n      0x01\n        /* \"reference/gas.sol\":806:850  while (true) {... */\n      iszero\n      tag_11\n      jumpi\n        /* \"reference/gas.sol\":838:839  1 */\n      0x01\n        /* \"reference/gas.sol\":833:834  i */\n      0x00\n      dup1\n        /* \"reference/gas.sol\":833:839  i += 1 */\n      dup3\n      dup3\n      sload\n      add\n      swap3\n      pop\n      pop\n      dup2\n      swap1\n      sstore\n      pop\n        /* \"reference/gas.sol\":806:850  while (true) {... */\n      jump(tag_10)\n    tag_11:\n        /* \"reference/gas.sol\":647:856  function forever() public {... */\n      jump\t// out\n        /* \"reference/gas.sol\":464:481  uint public i = 0 */\n    tag_8:\n      sload(0x00)\n      dup2\n      jump\t// out\n\n    auxdata: 0xa2646970667358221220065e9bc19fba84a9f6e471ea84c746b1e15a10203141626d6810d947920e152a64736f6c63430007000033\n}\n",
				"bytecode": {
					"linkReferences": {},
					"object": "60806040526000805534801561001457600080fd5b5060b4806100236000396000f3fe6080604052348015600f57600080fd5b506004361060325760003560e01c80639ff9a603146037578063e5aa3d5814603f575b600080fd5b603d605b565b005b60456078565b6040518082815260200191505060405180910390f35b5b60011560765760016000808282540192505081905550605c565b565b6000548156fea2646970667358221220065e9bc19fba84a9f6e471ea84c746b1e15a10203141626d6810d947920e152a64736f6c63430007000033",
					"opcodes": "PUSH1 0x80 PUSH1 0x40 MSTORE PUSH1 0x0 DUP1 SSTORE CALLVALUE DUP1 ISZERO PUSH2 0x14 JUMPI PUSH1 0x0 DUP1 REVERT JUMPDEST POP PUSH1 0xB4 DUP1 PUSH2 0x23 PUSH1 0x0 CODECOPY PUSH1 0x0 RETURN INVALID PUSH1 0x80 PUSH1 0x40 MSTORE CALLVALUE DUP1 ISZERO PUSH1 0xF JUMPI PUSH1 0x0 DUP1 REVERT JUMPDEST POP PUSH1 0x4 CALLDATASIZE LT PUSH1 0x32 JUMPI PUSH1 0x0 CALLDATALOAD PUSH1 0xE0 SHR DUP1 PUSH4 0x9FF9A603 EQ PUSH1 0x37 JUMPI DUP1 PUSH4 0xE5AA3D58 EQ PUSH1 0x3F JUMPI JUMPDEST PUSH1 0x0 DUP1 REVERT JUMPDEST PUSH1 0x3D PUSH1 0x5B JUMP JUMPDEST STOP JUMPDEST PUSH1 0x45 PUSH1 0x78 JUMP JUMPDEST PUSH1 0x40 MLOAD DUP1 DUP3 DUP2 MSTORE PUSH1 0x20 ADD SWAP2 POP POP PUSH1 0x40 MLOAD DUP1 SWAP2 SUB SWAP1 RETURN JUMPDEST JUMPDEST PUSH1 0x1 ISZERO PUSH1 0x76 JUMPI PUSH1 0x1 PUSH1 0x0 DUP1 DUP3 DUP3 SLOAD ADD SWAP3 POP POP DUP2 SWAP1 SSTORE POP PUSH1 0x5C JUMP JUMPDEST JUMP JUMPDEST PUSH1 0x0 SLOAD DUP2 JUMP INVALID LOG2 PUSH5 0x6970667358 0x22 SLT KECCAK256 MOD 0x5E SWAP12 0xC1 SWAP16 0xBA DUP5 0xA9 0xF6 0xE4 PUSH18 0xEA84C746B1E15A10203141626D6810D94792 0xE ISZERO 0x2A PUSH5 0x736F6C6343 STOP SMOD STOP STOP CALLER "
				},
				"gasEstimates": {
					"creation": {
						"codeDepositCost": "36000",
						"executionCost": "5093",
						"totalCost": "41093"
					},
					"external": {
						"forever()": "infinite",
						"i()": "1005"
					}
				},
				"methodIdentifiers": {
					"forever()": "9ff9a603",
					"i()": "e5aa3d58"
				}
			},
			"storageLayout": {
				"storage": [
					{
						"astId": 4,
						"contract": "reference/gas.sol:Gas",
						"label": "i",
						"offset": 0,
						"slot": "0",
						"type": "t_uint256"
					}
				],
				"types": {
					"t_uint256": {
						"encoding": "inplace",
						"label": "uint256",
						"numberOfBytes": "32"
					}
				}
			},
			"userdoc": {
				"kind": "user",
				"methods": {},
				"version": 1
			}
		}
	}
}