{
	"const-operator/operator.sol": {
		"Operactor": {
			"abi": [
				{
					"inputs": [],
					"name": "assignment",
					"outputs": [
						{
							"internalType": "string",
							"name": "",
							"type": "string"
						},
						{
							"internalType": "uint256",
							"name": "",
							"type": "uint256"
						},
						{
							"internalType": "uint256",
							"name": "",
							"type": "uint256"
						},
						{
							"internalType": "uint256",
							"name": "",
							"type": "uint256"
						},
						{
							"internalType": "uint256",
							"name": "",
							"type": "uint256"
						},
						{
							"internalType": "uint256",
							"name": "",
							"type": "uint256"
						}
					],
					"stateMutability": "nonpayable",
					"type": "function"
				}
			],
			"devdoc": {
				"kind": "dev",
				"methods": {},
				"version": 1
			},
			"evm": {
				"assembly": "    /* \"const-operator/operator.sol\":88:554  contract Operactor {... */\n  mstore(0x40, 0x80)\n    /* \"const-operator/operator.sol\":113:131  string a = \"Hello\" */\n  mload(0x40)\n  dup1\n  0x40\n  add\n  0x40\n  mstore\n  dup1\n  0x05\n  dup2\n  mstore\n  0x20\n  add\n  0x48656c6c6f000000000000000000000000000000000000000000000000000000\n  dup2\n  mstore\n  pop\n  0x00\n  swap1\n  dup2\n  tag_1\n  swap2\n  swap1\n  tag_2\n  jump\t// in\ntag_1:\n  pop\n    /* \"const-operator/operator.sol\":146:147  5 */\n  0x05\n    /* \"const-operator/operator.sol\":137:147  uint b = 5 */\n  0x01\n  sstore\n    /* \"const-operator/operator.sol\":162:163  5 */\n  0x05\n    /* \"const-operator/operator.sol\":153:163  uint c = 5 */\n  0x02\n  sstore\n    /* \"const-operator/operator.sol\":178:179  5 */\n  0x05\n    /* \"const-operator/operator.sol\":169:179  uint d = 5 */\n  0x03\n  sstore\n    /* \"const-operator/operator.sol\":194:195  5 */\n  0x05\n    /* \"const-operator/operator.sol\":185:195  uint e = 5 */\n  0x04\n  sstore\n    /* \"const-operator/operator.sol\":210:211  5 */\n  0x05\n    /* \"const-operator/operator.sol\":201:211  uint f = 5 */\n  dup1\n  sstore\n    /* \"const-operator/operator.sol\":88:554  contract Operactor {... */\n  callvalue\n  dup1\n  iszero\n  tag_3\n  jumpi\n  0x00\n  dup1\n  revert\ntag_3:\n  pop\n  jump(tag_4)\n    /* \"#utility.yul\":7:106   */\ntag_5:\n    /* \"#utility.yul\":59:65   */\n  0x00\n    /* \"#utility.yul\":93:98   */\n  dup2\n    /* \"#utility.yul\":87:99   */\n  mload\n    /* \"#utility.yul\":77:99   */\n  swap1\n  pop\n    /* \"#utility.yul\":7:106   */\n  swap2\n  swap1\n  pop\n  jump\t// out\n    /* \"#utility.yul\":112:292   */\ntag_6:\n    /* \"#utility.yul\":160:237   */\n  0x4e487b7100000000000000000000000000000000000000000000000000000000\n    /* \"#utility.yul\":157:158   */\n  0x00\n    /* \"#utility.yul\":150:238   */\n  mstore\n    /* \"#utility.yul\":257:261   */\n  0x41\n    /* \"#utility.yul\":254:255   */\n  0x04\n    /* \"#utility.yul\":247:262   */\n  mstore\n    /* \"#utility.yul\":281:285   */\n  0x24\n    /* \"#utility.yul\":278:279   */\n  0x00\n    /* \"#utility.yul\":271:286   */\n  revert\n    /* \"#utility.yul\":298:478   */\ntag_7:\n    /* \"#utility.yul\":346:423   */\n  0x4e487b7100000000000000000000000000000000000000000000000000000000\n    /* \"#utility.yul\":343:344   */\n  0x00\n    /* \"#utility.yul\":336:424   */\n  mstore\n    /* \"#utility.yul\":443:447   */\n  0x22\n    /* \"#utility.yul\":440:441   */\n  0x04\n    /* \"#utility.yul\":433:448   */\n  mstore\n    /* \"#utility.yul\":467:471   */\n  0x24\n    /* \"#utility.yul\":464:465   */\n  0x00\n    /* \"#utility.yul\":457:472   */\n  revert\n    /* \"#utility.yul\":484:804   */\ntag_8:\n    /* \"#utility.yul\":528:534   */\n  0x00\n    /* \"#utility.yul\":565:566   */\n  0x02\n    /* \"#utility.yul\":559:563   */\n  dup3\n    /* \"#utility.yul\":555:567   */\n  div\n    /* \"#utility.yul\":545:567   */\n  swap1\n  pop\n    /* \"#utility.yul\":612:613   */\n  0x01\n    /* \"#utility.yul\":606:610   */\n  dup3\n    /* \"#utility.yul\":602:614   */\n  and\n    /* \"#utility.yul\":633:651   */\n  dup1\n    /* \"#utility.yul\":623:704   */\n  tag_30\n  jumpi\n    /* \"#utility.yul\":689:693   */\n  0x7f\n    /* \"#utility.yul\":681:687   */\n  dup3\n    /* \"#utility.yul\":677:694   */\n  and\n    /* \"#utility.yul\":667:694   */\n  swap2\n  pop\n    /* \"#utility.yul\":623:704   */\ntag_30:\n    /* \"#utility.yul\":751:753   */\n  0x20\n    /* \"#utility.yul\":743:749   */\n  dup3\n    /* \"#utility.yul\":740:754   */\n  lt\n    /* \"#utility.yul\":720:738   */\n  dup2\n    /* \"#utility.yul\":717:755   */\n  sub\n    /* \"#utility.yul\":714:798   */\n  tag_31\n  jumpi\n    /* \"#utility.yul\":770:788   */\n  tag_32\n  tag_7\n  jump\t// in\ntag_32:\n    /* \"#utility.yul\":714:798   */\ntag_31:\n    /* \"#utility.yul\":535:804   */\n  pop\n    /* \"#utility.yul\":484:804   */\n  swap2\n  swap1\n  pop\n  jump\t// out\n    /* \"#utility.yul\":810:951   */\ntag_9:\n    /* \"#utility.yul\":859:863   */\n  0x00\n    /* \"#utility.yul\":882:885   */\n  dup2\n    /* \"#utility.yul\":874:885   */\n  swap1\n  pop\n    /* \"#utility.yul\":905:908   */\n  dup2\n    /* \"#utility.yul\":902:903   */\n  0x00\n    /* \"#utility.yul\":895:909   */\n  mstore\n    /* \"#utility.yul\":939:943   */\n  0x20\n    /* \"#utility.yul\":936:937   */\n  0x00\n    /* \"#utility.yul\":926:944   */\n  keccak256\n    /* \"#utility.yul\":918:944   */\n  swap1\n  pop\n    /* \"#utility.yul\":810:951   */\n  swap2\n  swap1\n  pop\n  jump\t// out\n    /* \"#utility.yul\":957:1050   */\ntag_10:\n    /* \"#utility.yul\":994:1000   */\n  0x00\n    /* \"#utility.yul\":1041:1043   */\n  0x20\n    /* \"#utility.yul\":1036:1038   */\n  0x1f\n    /* \"#utility.yul\":1029:1034   */\n  dup4\n    /* \"#utility.yul\":1025:1039   */\n  add\n    /* \"#utility.yul\":1021:1044   */\n  div\n    /* \"#utility.yul\":1011:1044   */\n  swap1\n  pop\n    /* \"#utility.yul\":957:1050   */\n  swap2\n  swap1\n  pop\n  jump\t// out\n    /* \"#utility.yul\":1056:1163   */\ntag_11:\n    /* \"#utility.yul\":1100:1108   */\n  0x00\n    /* \"#utility.yul\":1150:1155   */\n  dup3\n    /* \"#utility.yul\":1144:1148   */\n  dup3\n    /* \"#utility.yul\":1140:1156   */\n  shl\n    /* \"#utility.yul\":1119:1156   */\n  swap1\n  pop\n    /* \"#utility.yul\":1056:1163   */\n  swap3\n  swap2\n  pop\n  pop\n  jump\t// out\n    /* \"#utility.yul\":1169:1562   */\ntag_12:\n    /* \"#utility.yul\":1238:1244   */\n  0x00\n    /* \"#utility.yul\":1288:1289   */\n  0x08\n    /* \"#utility.yul\":1276:1286   */\n  dup4\n    /* \"#utility.yul\":1272:1290   */\n  mul\n    /* \"#utility.yul\":1311:1408   */\n  tag_37\n    /* \"#utility.yul\":1341:1407   */\n  0xffffffffffffffffffffffffffffffffffffffffffffffffffffffffffffffff\n    /* \"#utility.yul\":1330:1339   */\n  dup3\n    /* \"#utility.yul\":1311:1408   */\n  tag_11\n  jump\t// in\ntag_37:\n    /* \"#utility.yul\":1429:1468   */\n  tag_38\n    /* \"#utility.yul\":1459:1467   */\n  dup7\n    /* \"#utility.yul\":1448:1457   */\n  dup4\n    /* \"#utility.yul\":1429:1468   */\n  tag_11\n  jump\t// in\ntag_38:\n    /* \"#utility.yul\":1417:1468   */\n  swap6\n  pop\n    /* \"#utility.yul\":1501:1505   */\n  dup1\n    /* \"#utility.yul\":1497:1506   */\n  not\n    /* \"#utility.yul\":1490:1495   */\n  dup5\n    /* \"#utility.yul\":1486:1507   */\n  and\n    /* \"#utility.yul\":1477:1507   */\n  swap4\n  pop\n    /* \"#utility.yul\":1550:1554   */\n  dup1\n    /* \"#utility.yul\":1540:1548   */\n  dup7\n    /* \"#utility.yul\":1536:1555   */\n  and\n    /* \"#utility.yul\":1529:1534   */\n  dup5\n    /* \"#utility.yul\":1526:1556   */\n  or\n    /* \"#utility.yul\":1516:1556   */\n  swap3\n  pop\n    /* \"#utility.yul\":1245:1562   */\n  pop\n  pop\n    /* \"#utility.yul\":1169:1562   */\n  swap4\n  swap3\n  pop\n  pop\n  pop\n  jump\t// out\n    /* \"#utility.yul\":1568:1645   */\ntag_13:\n    /* \"#utility.yul\":1605:1612   */\n  0x00\n    /* \"#utility.yul\":1634:1639   */\n  dup2\n    /* \"#utility.yul\":1623:1639   */\n  swap1\n  pop\n    /* \"#utility.yul\":1568:1645   */\n  swap2\n  swap1\n  pop\n  jump\t// out\n    /* \"#utility.yul\":1651:1711   */\ntag_14:\n    /* \"#utility.yul\":1679:1682   */\n  0x00\n    /* \"#utility.yul\":1700:1705   */\n  dup2\n    /* \"#utility.yul\":1693:1705   */\n  swap1\n  pop\n    /* \"#utility.yul\":1651:1711   */\n  swap2\n  swap1\n  pop\n  jump\t// out\n    /* \"#utility.yul\":1717:1859   */\ntag_15:\n    /* \"#utility.yul\":1767:1776   */\n  0x00\n    /* \"#utility.yul\":1800:1853   */\n  tag_42\n    /* \"#utility.yul\":1818:1852   */\n  tag_43\n    /* \"#utility.yul\":1827:1851   */\n  tag_44\n    /* \"#utility.yul\":1845:1850   */\n  dup5\n    /* \"#utility.yul\":1827:1851   */\n  tag_13\n  jump\t// in\ntag_44:\n    /* \"#utility.yul\":1818:1852   */\n  tag_14\n  jump\t// in\ntag_43:\n    /* \"#utility.yul\":1800:1853   */\n  tag_13\n  jump\t// in\ntag_42:\n    /* \"#utility.yul\":1787:1853   */\n  swap1\n  pop\n    /* \"#utility.yul\":1717:1859   */\n  swap2\n  swap1\n  pop\n  jump\t// out\n    /* \"#utility.yul\":1865:1940   */\ntag_16:\n    /* \"#utility.yul\":1908:1911   */\n  0x00\n    /* \"#utility.yul\":1929:1934   */\n  dup2\n    /* \"#utility.yul\":1922:1934   */\n  swap1\n  pop\n    /* \"#utility.yul\":1865:1940   */\n  swap2\n  swap1\n  pop\n  jump\t// out\n    /* \"#utility.yul\":1946:2215   */\ntag_17:\n    /* \"#utility.yul\":2056:2095   */\n  tag_47\n    /* \"#utility.yul\":2087:2094   */\n  dup4\n    /* \"#utility.yul\":2056:2095   */\n  tag_15\n  jump\t// in\ntag_47:\n    /* \"#utility.yul\":2117:2208   */\n  tag_48\n    /* \"#utility.yul\":2166:2207   */\n  tag_49\n    /* \"#utility.yul\":2190:2206   */\n  dup3\n    /* \"#utility.yul\":2166:2207   */\n  tag_16\n  jump\t// in\ntag_49:\n    /* \"#utility.yul\":2158:2164   */\n  dup5\n    /* \"#utility.yul\":2151:2155   */\n  dup5\n    /* \"#utility.yul\":2145:2156   */\n  sload\n    /* \"#utility.yul\":2117:2208   */\n  tag_12\n  jump\t// in\ntag_48:\n    /* \"#utility.yul\":2111:2115   */\n  dup3\n    /* \"#utility.yul\":2104:2209   */\n  sstore\n    /* \"#utility.yul\":2022:2215   */\n  pop\n    /* \"#utility.yul\":1946:2215   */\n  pop\n  pop\n  pop\n  jump\t// out\n    /* \"#utility.yul\":2221:2294   */\ntag_18:\n    /* \"#utility.yul\":2266:2269   */\n  0x00\n    /* \"#utility.yul\":2221:2294   */\n  swap1\n  jump\t// out\n    /* \"#utility.yul\":2300:2489   */\ntag_19:\n    /* \"#utility.yul\":2377:2409   */\n  tag_52\n  tag_18\n  jump\t// in\ntag_52:\n    /* \"#utility.yul\":2418:2483   */\n  tag_53\n    /* \"#utility.yul\":2476:2482   */\n  dup2\n    /* \"#utility.yul\":2468:2474   */\n  dup5\n    /* \"#utility.yul\":2462:2466   */\n  dup5\n    /* \"#utility.yul\":2418:2483   */\n  tag_17\n  jump\t// in\ntag_53:\n    /* \"#utility.yul\":2353:2489   */\n  pop\n    /* \"#utility.yul\":2300:2489   */\n  pop\n  pop\n  jump\t// out\n    /* \"#utility.yul\":2495:2681   */\ntag_20:\n    /* \"#utility.yul\":2555:2675   */\ntag_55:\n    /* \"#utility.yul\":2572:2575   */\n  dup2\n    /* \"#utility.yul\":2565:2570   */\n  dup2\n    /* \"#utility.yul\":2562:2576   */\n  lt\n    /* \"#utility.yul\":2555:2675   */\n  iszero\n  tag_57\n  jumpi\n    /* \"#utility.yul\":2626:2665   */\n  tag_58\n    /* \"#utility.yul\":2663:2664   */\n  0x00\n    /* \"#utility.yul\":2656:2661   */\n  dup3\n    /* \"#utility.yul\":2626:2665   */\n  tag_19\n  jump\t// in\ntag_58:\n    /* \"#utility.yul\":2599:2600   */\n  0x01\n    /* \"#utility.yul\":2592:2597   */\n  dup2\n    /* \"#utility.yul\":2588:2601   */\n  add\n    /* \"#utility.yul\":2579:2601   */\n  swap1\n  pop\n    /* \"#utility.yul\":2555:2675   */\n  jump(tag_55)\ntag_57:\n    /* \"#utility.yul\":2495:2681   */\n  pop\n  pop\n  jump\t// out\n    /* \"#utility.yul\":2687:3230   */\ntag_21:\n    /* \"#utility.yul\":2788:2790   */\n  0x1f\n    /* \"#utility.yul\":2783:2786   */\n  dup3\n    /* \"#utility.yul\":2780:2791   */\n  gt\n    /* \"#utility.yul\":2777:3223   */\n  iszero\n  tag_60\n  jumpi\n    /* \"#utility.yul\":2822:2860   */\n  tag_61\n    /* \"#utility.yul\":2854:2859   */\n  dup2\n    /* \"#utility.yul\":2822:2860   */\n  tag_9\n  jump\t// in\ntag_61:\n    /* \"#utility.yul\":2906:2935   */\n  tag_62\n    /* \"#utility.yul\":2924:2934   */\n  dup5\n    /* \"#utility.yul\":2906:2935   */\n  tag_10\n  jump\t// in\ntag_62:\n    /* \"#utility.yul\":2896:2904   */\n  dup2\n    /* \"#utility.yul\":2892:2936   */\n  add\n    /* \"#utility.yul\":3089:3091   */\n  0x20\n    /* \"#utility.yul\":3077:3087   */\n  dup6\n    /* \"#utility.yul\":3074:3092   */\n  lt\n    /* \"#utility.yul\":3071:3120   */\n  iszero\n  tag_63\n  jumpi\n    /* \"#utility.yul\":3110:3118   */\n  dup2\n    /* \"#utility.yul\":3095:3118   */\n  swap1\n  pop\n    /* \"#utility.yul\":3071:3120   */\ntag_63:\n    /* \"#utility.yul\":3133:3213   */\n  tag_64\n    /* \"#utility.yul\":3189:3211   */\n  tag_65\n    /* \"#utility.yul\":3207:3210   */\n  dup6\n    /* \"#utility.yul\":3189:3211   */\n  tag_10\n  jump\t// in\ntag_65:\n    /* \"#utility.yul\":3179:3187   */\n  dup4\n    /* \"#utility.yul\":3175:3212   */\n  add\n    /* \"#utility.yul\":3162:3173   */\n  dup3\n    /* \"#utility.yul\":3133:3213   */\n  tag_20\n  jump\t// in\ntag_64:\n    /* \"#utility.yul\":2792:3223   */\n  pop\n  pop\n    /* \"#utility.yul\":2777:3223   */\ntag_60:\n    /* \"#utility.yul\":2687:3230   */\n  pop\n  pop\n  pop\n  jump\t// out\n    /* \"#utility.yul\":3236:3353   */\ntag_22:\n    /* \"#utility.yul\":3290:3298   */\n  0x00\n    /* \"#utility.yul\":3340:3345   */\n  dup3\n    /* \"#utility.yul\":3334:3338   */\n  dup3\n    /* \"#utility.yul\":3330:3346   */\n  shr\n    /* \"#utility.yul\":3309:3346   */\n  swap1\n  pop\n    /* \"#utility.yul\":3236:3353   */\n  swap3\n  swap2\n  pop\n  pop\n  jump\t// out\n    /* \"#utility.yul\":3359:3528   */\ntag_23:\n    /* \"#utility.yul\":3403:3409   */\n  0x00\n    /* \"#utility.yul\":3436:3487   */\n  tag_68\n    /* \"#utility.yul\":3484:3485   */\n  0x00\n    /* \"#utility.yul\":3480:3486   */\n  not\n    /* \"#utility.yul\":3472:3477   */\n  dup5\n    /* \"#utility.yul\":3469:3470   */\n  0x08\n    /* \"#utility.yul\":3465:3478   */\n  mul\n    /* \"#utility.yul\":3436:3487   */\n  tag_22\n  jump\t// in\ntag_68:\n    /* \"#utility.yul\":3432:3488   */\n  not\n    /* \"#utility.yul\":3517:3521   */\n  dup1\n    /* \"#utility.yul\":3511:3515   */\n  dup4\n    /* \"#utility.yul\":3507:3522   */\n  and\n    /* \"#utility.yul\":3497:3522   */\n  swap2\n  pop\n    /* \"#utility.yul\":3410:3528   */\n  pop\n    /* \"#utility.yul\":3359:3528   */\n  swap3\n  swap2\n  pop\n  pop\n  jump\t// out\n    /* \"#utility.yul\":3533:3828   */\ntag_24:\n    /* \"#utility.yul\":3609:3613   */\n  0x00\n    /* \"#utility.yul\":3755:3784   */\n  tag_70\n    /* \"#utility.yul\":3780:3783   */\n  dup4\n    /* \"#utility.yul\":3774:3778   */\n  dup4\n    /* \"#utility.yul\":3755:3784   */\n  tag_23\n  jump\t// in\ntag_70:\n    /* \"#utility.yul\":3747:3784   */\n  swap2\n  pop\n    /* \"#utility.yul\":3817:3820   */\n  dup3\n    /* \"#utility.yul\":3814:3815   */\n  0x02\n    /* \"#utility.yul\":3810:3821   */\n  mul\n    /* \"#utility.yul\":3804:3808   */\n  dup3\n    /* \"#utility.yul\":3801:3822   */\n  or\n    /* \"#utility.yul\":3793:3822   */\n  swap1\n  pop\n    /* \"#utility.yul\":3533:3828   */\n  swap3\n  swap2\n  pop\n  pop\n  jump\t// out\n    /* \"#utility.yul\":3833:5228   */\ntag_2:\n    /* \"#utility.yul\":3950:3987   */\n  tag_72\n    /* \"#utility.yul\":3983:3986   */\n  dup3\n    /* \"#utility.yul\":3950:3987   */\n  tag_5\n  jump\t// in\ntag_72:\n    /* \"#utility.yul\":4052:4070   */\n  0xffffffffffffffff\n    /* \"#utility.yul\":4044:4050   */\n  dup2\n    /* \"#utility.yul\":4041:4071   */\n  gt\n    /* \"#utility.yul\":4038:4094   */\n  iszero\n  tag_73\n  jumpi\n    /* \"#utility.yul\":4074:4092   */\n  tag_74\n  tag_6\n  jump\t// in\ntag_74:\n    /* \"#utility.yul\":4038:4094   */\ntag_73:\n    /* \"#utility.yul\":4118:4156   */\n  tag_75\n    /* \"#utility.yul\":4150:4154   */\n  dup3\n    /* \"#utility.yul\":4144:4155   */\n  sload\n    /* \"#utility.yul\":4118:4156   */\n  tag_8\n  jump\t// in\ntag_75:\n    /* \"#utility.yul\":4203:4270   */\n  tag_76\n    /* \"#utility.yul\":4263:4269   */\n  dup3\n    /* \"#utility.yul\":4255:4261   */\n  dup3\n    /* \"#utility.yul\":4249:4253   */\n  dup6\n    /* \"#utility.yul\":4203:4270   */\n  tag_21\n  jump\t// in\ntag_76:\n    /* \"#utility.yul\":4297:4298   */\n  0x00\n    /* \"#utility.yul\":4321:4325   */\n  0x20\n    /* \"#utility.yul\":4308:4325   */\n  swap1\n  pop\n    /* \"#utility.yul\":4353:4355   */\n  0x1f\n    /* \"#utility.yul\":4345:4351   */\n  dup4\n    /* \"#utility.yul\":4342:4356   */\n  gt\n    /* \"#utility.yul\":4370:4371   */\n  0x01\n    /* \"#utility.yul\":4365:4983   */\n  dup2\n  eq\n  tag_78\n  jumpi\n    /* \"#utility.yul\":5027:5028   */\n  0x00\n    /* \"#utility.yul\":5044:5050   */\n  dup5\n    /* \"#utility.yul\":5041:5118   */\n  iszero\n  tag_79\n  jumpi\n    /* \"#utility.yul\":5093:5102   */\n  dup3\n    /* \"#utility.yul\":5088:5091   */\n  dup8\n    /* \"#utility.yul\":5084:5103   */\n  add\n    /* \"#utility.yul\":5078:5104   */\n  mload\n    /* \"#utility.yul\":5069:5104   */\n  swap1\n  pop\n    /* \"#utility.yul\":5041:5118   */\ntag_79:\n    /* \"#utility.yul\":5144:5211   */\n  tag_80\n    /* \"#utility.yul\":5204:5210   */\n  dup6\n    /* \"#utility.yul\":5197:5202   */\n  dup3\n    /* \"#utility.yul\":5144:5211   */\n  tag_24\n  jump\t// in\ntag_80:\n    /* \"#utility.yul\":5138:5142   */\n  dup7\n    /* \"#utility.yul\":5131:5212   */\n  sstore\n    /* \"#utility.yul\":5000:5222   */\n  pop\n    /* \"#utility.yul\":4335:5222   */\n  jump(tag_77)\n    /* \"#utility.yul\":4365:4983   */\ntag_78:\n    /* \"#utility.yul\":4417:4421   */\n  0x1f\n    /* \"#utility.yul\":4413:4422   */\n  not\n    /* \"#utility.yul\":4405:4411   */\n  dup5\n    /* \"#utility.yul\":4401:4423   */\n  and\n    /* \"#utility.yul\":4451:4488   */\n  tag_81\n    /* \"#utility.yul\":4483:4487   */\n  dup7\n    /* \"#utility.yul\":4451:4488   */\n  tag_9\n  jump\t// in\ntag_81:\n    /* \"#utility.yul\":4510:4511   */\n  0x00\n    /* \"#utility.yul\":4524:4732   */\ntag_82:\n    /* \"#utility.yul\":4538:4545   */\n  dup3\n    /* \"#utility.yul\":4535:4536   */\n  dup2\n    /* \"#utility.yul\":4532:4546   */\n  lt\n    /* \"#utility.yul\":4524:4732   */\n  iszero\n  tag_84\n  jumpi\n    /* \"#utility.yul\":4617:4626   */\n  dup5\n    /* \"#utility.yul\":4612:4615   */\n  dup10\n    /* \"#utility.yul\":4608:4627   */\n  add\n    /* \"#utility.yul\":4602:4628   */\n  mload\n    /* \"#utility.yul\":4594:4600   */\n  dup3\n    /* \"#utility.yul\":4587:4629   */\n  sstore\n    /* \"#utility.yul\":4668:4669   */\n  0x01\n    /* \"#utility.yul\":4660:4666   */\n  dup3\n    /* \"#utility.yul\":4656:4670   */\n  add\n    /* \"#utility.yul\":4646:4670   */\n  swap2\n  pop\n    /* \"#utility.yul\":4715:4717   */\n  0x20\n    /* \"#utility.yul\":4704:4713   */\n  dup6\n    /* \"#utility.yul\":4700:4718   */\n  add\n    /* \"#utility.yul\":4687:4718   */\n  swap5\n  pop\n    /* \"#utility.yul\":4561:4565   */\n  0x20\n    /* \"#utility.yul\":4558:4559   */\n  dup2\n    /* \"#utility.yul\":4554:4566   */\n  add\n    /* \"#utility.yul\":4549:4566   */\n  swap1\n  pop\n    /* \"#utility.yul\":4524:4732   */\n  jump(tag_82)\ntag_84:\n    /* \"#utility.yul\":4760:4766   */\n  dup7\n    /* \"#utility.yul\":4751:4758   */\n  dup4\n    /* \"#utility.yul\":4748:4767   */\n  lt\n    /* \"#utility.yul\":4745:4924   */\n  iszero\n  tag_85\n  jumpi\n    /* \"#utility.yul\":4818:4827   */\n  dup5\n    /* \"#utility.yul\":4813:4816   */\n  dup10\n    /* \"#utility.yul\":4809:4828   */\n  add\n    /* \"#utility.yul\":4803:4829   */\n  mload\n    /* \"#utility.yul\":4861:4909   */\n  tag_86\n    /* \"#utility.yul\":4903:4907   */\n  0x1f\n    /* \"#utility.yul\":4895:4901   */\n  dup10\n    /* \"#utility.yul\":4891:4908   */\n  and\n    /* \"#utility.yul\":4880:4889   */\n  dup3\n    /* \"#utility.yul\":4861:4909   */\n  tag_23\n  jump\t// in\ntag_86:\n    /* \"#utility.yul\":4853:4859   */\n  dup4\n    /* \"#utility.yul\":4846:4910   */\n  sstore\n    /* \"#utility.yul\":4768:4924   */\n  pop\n    /* \"#utility.yul\":4745:4924   */\ntag_85:\n    /* \"#utility.yul\":4970:4971   */\n  0x01\n    /* \"#utility.yul\":4966:4967   */\n  0x02\n    /* \"#utility.yul\":4958:4964   */\n  dup9\n    /* \"#utility.yul\":4954:4968   */\n  mul\n    /* \"#utility.yul\":4950:4972   */\n  add\n    /* \"#utility.yul\":4944:4948   */\n  dup9\n    /* \"#utility.yul\":4937:4973   */\n  sstore\n    /* \"#utility.yul\":4372:4983   */\n  pop\n  pop\n  pop\n    /* \"#utility.yul\":4335:5222   */\ntag_77:\n  pop\n    /* \"#utility.yul\":3925:5228   */\n  pop\n  pop\n  pop\n    /* \"#utility.yul\":3833:5228   */\n  pop\n  pop\n  jump\t// out\n    /* \"const-operator/operator.sol\":88:554  contract Operactor {... */\ntag_4:\n  dataSize(sub_0)\n  dup1\n  dataOffset(sub_0)\n  0x00\n  codecopy\n  0x00\n  return\nstop\n\nsub_0: assembly {\n        /* \"const-operator/operator.sol\":88:554  contract Operactor {... */\n      mstore(0x40, 0x80)\n      callvalue\n      dup1\n      iszero\n      tag_1\n      jumpi\n      0x00\n      dup1\n      revert\n    tag_1:\n      pop\n      jumpi(tag_2, lt(calldatasize, 0x04))\n      shr(0xe0, calldataload(0x00))\n      dup1\n      0x71ca2ecf\n      eq\n      tag_3\n      jumpi\n    tag_2:\n      0x00\n      dup1\n      revert\n        /* \"const-operator/operator.sol\":218:552  function assignment() public returns (string memory, uint, uint, uint, uint, uint) {... */\n    tag_3:\n      tag_4\n      tag_5\n      jump\t// in\n    tag_4:\n      mload(0x40)\n      tag_6\n      swap7\n      swap6\n      swap5\n      swap4\n      swap3\n      swap2\n      swap1\n      tag_7\n      jump\t// in\n    tag_6:\n      mload(0x40)\n      dup1\n      swap2\n      sub\n      swap1\n      return\n    tag_5:\n        /* \"const-operator/operator.sol\":256:269  string memory */\n      0x60\n        /* \"const-operator/operator.sol\":271:275  uint */\n      0x00\n        /* \"const-operator/operator.sol\":277:281  uint */\n      dup1\n        /* \"const-operator/operator.sol\":283:287  uint */\n      0x00\n        /* \"const-operator/operator.sol\":289:293  uint */\n      dup1\n        /* \"const-operator/operator.sol\":295:299  uint */\n      0x00\n        /* \"const-operator/operator.sol\":344:364  a = 'Hello Solidity' */\n      mload(0x40)\n      dup1\n      0x40\n      add\n      0x40\n      mstore\n      dup1\n      0x0e\n      dup2\n      mstore\n      0x20\n      add\n      0x48656c6c6f20536f6c6964697479000000000000000000000000000000000000\n      dup2\n      mstore\n      pop\n        /* \"const-operator/operator.sol\":344:345  a */\n      0x00\n        /* \"const-operator/operator.sol\":344:364  a = 'Hello Solidity' */\n      swap1\n      dup2\n      tag_9\n      swap2\n      swap1\n      tag_10\n      jump\t// in\n    tag_9:\n      pop\n        /* \"const-operator/operator.sol\":379:380  2 */\n      0x02\n        /* \"const-operator/operator.sol\":374:375  b */\n      0x01\n      0x00\n        /* \"const-operator/operator.sol\":374:380  b += 2 */\n      dup3\n      dup3\n      sload\n      tag_11\n      swap2\n      swap1\n      tag_12\n      jump\t// in\n    tag_11:\n      swap3\n      pop\n      pop\n      dup2\n      swap1\n      sstore\n      pop\n        /* \"const-operator/operator.sol\":408:409  2 */\n      0x02\n        /* \"const-operator/operator.sol\":403:404  c */\n      dup1\n      0x00\n        /* \"const-operator/operator.sol\":403:409  c -= 2 */\n      dup3\n      dup3\n      sload\n      tag_13\n      swap2\n      swap1\n      tag_14\n      jump\t// in\n    tag_13:\n      swap3\n      pop\n      pop\n      dup2\n      swap1\n      sstore\n      pop\n        /* \"const-operator/operator.sol\":437:438  2 */\n      0x02\n        /* \"const-operator/operator.sol\":432:433  d */\n      0x03\n      0x00\n        /* \"const-operator/operator.sol\":432:438  d *= 2 */\n      dup3\n      dup3\n      sload\n      tag_15\n      swap2\n      swap1\n      tag_16\n      jump\t// in\n    tag_15:\n      swap3\n      pop\n      pop\n      dup2\n      swap1\n      sstore\n      pop\n        /* \"const-operator/operator.sol\":466:467  2 */\n      0x02\n        /* \"const-operator/operator.sol\":461:462  e */\n      0x04\n      0x00\n        /* \"const-operator/operator.sol\":461:467  e /= 2 */\n      dup3\n      dup3\n      sload\n      tag_17\n      swap2\n      swap1\n      tag_18\n      jump\t// in\n    tag_17:\n      swap3\n      pop\n      pop\n      dup2\n      swap1\n      sstore\n      pop\n        /* \"const-operator/operator.sol\":495:496  2 */\n      0x02\n        /* \"const-operator/operator.sol\":490:491  f */\n      0x05\n      0x00\n        /* \"const-operator/operator.sol\":490:496  f %= 2 */\n      dup3\n      dup3\n      sload\n      tag_19\n      swap2\n      swap1\n      tag_20\n      jump\t// in\n    tag_19:\n      swap3\n      pop\n      pop\n      dup2\n      swap1\n      sstore\n      pop\n        /* \"const-operator/operator.sol\":528:529  a */\n      0x00\n        /* \"const-operator/operator.sol\":531:532  b */\n      sload(0x01)\n        /* \"const-operator/operator.sol\":534:535  c */\n      sload(0x02)\n        /* \"const-operator/operator.sol\":537:538  d */\n      sload(0x03)\n        /* \"const-operator/operator.sol\":540:541  e */\n      sload(0x04)\n        /* \"const-operator/operator.sol\":543:544  f */\n      sload(0x05)\n        /* \"const-operator/operator.sol\":519:545  return  (a, b, c, d, e, f) */\n      dup6\n      dup1\n      sload\n      tag_21\n      swap1\n      tag_22\n      jump\t// in\n    tag_21:\n      dup1\n      0x1f\n      add\n      0x20\n      dup1\n      swap2\n      div\n      mul\n      0x20\n      add\n      mload(0x40)\n      swap1\n      dup2\n      add\n      0x40\n      mstore\n      dup1\n      swap3\n      swap2\n      swap1\n      dup2\n      dup2\n      mstore\n      0x20\n      add\n      dup3\n      dup1\n      sload\n      tag_23\n      swap1\n      tag_22\n      jump\t// in\n    tag_23:\n      dup1\n      iszero\n      tag_24\n      jumpi\n      dup1\n      0x1f\n      lt\n      tag_25\n      jumpi\n      0x0100\n      dup1\n      dup4\n      sload\n      div\n      mul\n      dup4\n      mstore\n      swap2\n      0x20\n      add\n      swap2\n      jump(tag_24)\n    tag_25:\n      dup3\n      add\n      swap2\n      swap1\n      0x00\n      mstore\n      keccak256(0x00, 0x20)\n      swap1\n    tag_26:\n      dup2\n      sload\n      dup2\n      mstore\n      swap1\n      0x01\n      add\n      swap1\n      0x20\n      add\n      dup1\n      dup4\n      gt\n      tag_26\n      jumpi\n      dup3\n      swap1\n      sub\n      0x1f\n      and\n      dup3\n      add\n      swap2\n    tag_24:\n      pop\n      pop\n      pop\n      pop\n      pop\n      swap6\n      pop\n      swap6\n      pop\n      swap6\n      pop\n      swap6\n      pop\n      swap6\n      pop\n      swap6\n      pop\n      swap6\n      pop\n        /* \"const-operator/operator.sol\":218:552  function assignment() public returns (string memory, uint, uint, uint, uint, uint) {... */\n      swap1\n      swap2\n      swap3\n      swap4\n      swap5\n      swap6\n      jump\t// out\n        /* \"#utility.yul\":7:106   */\n    tag_27:\n        /* \"#utility.yul\":59:65   */\n      0x00\n        /* \"#utility.yul\":93:98   */\n      dup2\n        /* \"#utility.yul\":87:99   */\n      mload\n        /* \"#utility.yul\":77:99   */\n      swap1\n      pop\n        /* \"#utility.yul\":7:106   */\n      swap2\n      swap1\n      pop\n      jump\t// out\n        /* \"#utility.yul\":112:281   */\n    tag_28:\n        /* \"#utility.yul\":196:207   */\n      0x00\n        /* \"#utility.yul\":230:236   */\n      dup3\n        /* \"#utility.yul\":225:228   */\n      dup3\n        /* \"#utility.yul\":218:237   */\n      mstore\n        /* \"#utility.yul\":270:274   */\n      0x20\n        /* \"#utility.yul\":265:268   */\n      dup3\n        /* \"#utility.yul\":261:275   */\n      add\n        /* \"#utility.yul\":246:275   */\n      swap1\n      pop\n        /* \"#utility.yul\":112:281   */\n      swap3\n      swap2\n      pop\n      pop\n      jump\t// out\n        /* \"#utility.yul\":287:426   */\n    tag_29:\n        /* \"#utility.yul\":376:382   */\n      dup3\n        /* \"#utility.yul\":371:374   */\n      dup2\n        /* \"#utility.yul\":366:369   */\n      dup4\n        /* \"#utility.yul\":360:383   */\n      mcopy\n        /* \"#utility.yul\":417:418   */\n      0x00\n        /* \"#utility.yul\":408:414   */\n      dup4\n        /* \"#utility.yul\":403:406   */\n      dup4\n        /* \"#utility.yul\":399:415   */\n      add\n        /* \"#utility.yul\":392:419   */\n      mstore\n        /* \"#utility.yul\":287:426   */\n      pop\n      pop\n      pop\n      jump\t// out\n        /* \"#utility.yul\":432:534   */\n    tag_30:\n        /* \"#utility.yul\":473:479   */\n      0x00\n        /* \"#utility.yul\":524:526   */\n      0x1f\n        /* \"#utility.yul\":520:527   */\n      not\n        /* \"#utility.yul\":515:517   */\n      0x1f\n        /* \"#utility.yul\":508:513   */\n      dup4\n        /* \"#utility.yul\":504:518   */\n      add\n        /* \"#utility.yul\":500:528   */\n      and\n        /* \"#utility.yul\":490:528   */\n      swap1\n      pop\n        /* \"#utility.yul\":432:534   */\n      swap2\n      swap1\n      pop\n      jump\t// out\n        /* \"#utility.yul\":540:917   */\n    tag_31:\n        /* \"#utility.yul\":628:631   */\n      0x00\n        /* \"#utility.yul\":656:695   */\n      tag_59\n        /* \"#utility.yul\":689:694   */\n      dup3\n        /* \"#utility.yul\":656:695   */\n      tag_27\n      jump\t// in\n    tag_59:\n        /* \"#utility.yul\":711:782   */\n      tag_60\n        /* \"#utility.yul\":775:781   */\n      dup2\n        /* \"#utility.yul\":770:773   */\n      dup6\n        /* \"#utility.yul\":711:782   */\n      tag_28\n      jump\t// in\n    tag_60:\n        /* \"#utility.yul\":704:782   */\n      swap4\n      pop\n        /* \"#utility.yul\":791:856   */\n      tag_61\n        /* \"#utility.yul\":849:855   */\n      dup2\n        /* \"#utility.yul\":844:847   */\n      dup6\n        /* \"#utility.yul\":837:841   */\n      0x20\n        /* \"#utility.yul\":830:835   */\n      dup7\n        /* \"#utility.yul\":826:842   */\n      add\n        /* \"#utility.yul\":791:856   */\n      tag_29\n      jump\t// in\n    tag_61:\n        /* \"#utility.yul\":881:910   */\n      tag_62\n        /* \"#utility.yul\":903:909   */\n      dup2\n        /* \"#utility.yul\":881:910   */\n      tag_30\n      jump\t// in\n    tag_62:\n        /* \"#utility.yul\":876:879   */\n      dup5\n        /* \"#utility.yul\":872:911   */\n      add\n        /* \"#utility.yul\":865:911   */\n      swap2\n      pop\n        /* \"#utility.yul\":632:917   */\n      pop\n        /* \"#utility.yul\":540:917   */\n      swap3\n      swap2\n      pop\n      pop\n      jump\t// out\n        /* \"#utility.yul\":923:1000   */\n    tag_32:\n        /* \"#utility.yul\":960:967   */\n      0x00\n        /* \"#utility.yul\":989:994   */\n      dup2\n        /* \"#utility.yul\":978:994   */\n      swap1\n      pop\n        /* \"#utility.yul\":923:1000   */\n      swap2\n      swap1\n      pop\n      jump\t// out\n        /* \"#utility.yul\":1006:1124   */\n    tag_33:\n        /* \"#utility.yul\":1093:1117   */\n      tag_65\n        /* \"#utility.yul\":1111:1116   */\n      dup2\n        /* \"#utility.yul\":1093:1117   */\n      tag_32\n      jump\t// in\n    tag_65:\n        /* \"#utility.yul\":1088:1091   */\n      dup3\n        /* \"#utility.yul\":1081:1118   */\n      mstore\n        /* \"#utility.yul\":1006:1124   */\n      pop\n      pop\n      jump\t// out\n        /* \"#utility.yul\":1130:1996   */\n    tag_7:\n        /* \"#utility.yul\":1383:1387   */\n      0x00\n        /* \"#utility.yul\":1421:1424   */\n      0xc0\n        /* \"#utility.yul\":1410:1419   */\n      dup3\n        /* \"#utility.yul\":1406:1425   */\n      add\n        /* \"#utility.yul\":1398:1425   */\n      swap1\n      pop\n        /* \"#utility.yul\":1471:1480   */\n      dup2\n        /* \"#utility.yul\":1465:1469   */\n      dup2\n        /* \"#utility.yul\":1461:1481   */\n      sub\n        /* \"#utility.yul\":1457:1458   */\n      0x00\n        /* \"#utility.yul\":1446:1455   */\n      dup4\n        /* \"#utility.yul\":1442:1459   */\n      add\n        /* \"#utility.yul\":1435:1482   */\n      mstore\n        /* \"#utility.yul\":1499:1577   */\n      tag_67\n        /* \"#utility.yul\":1572:1576   */\n      dup2\n        /* \"#utility.yul\":1563:1569   */\n      dup10\n        /* \"#utility.yul\":1499:1577   */\n      tag_31\n      jump\t// in\n    tag_67:\n        /* \"#utility.yul\":1491:1577   */\n      swap1\n      pop\n        /* \"#utility.yul\":1587:1659   */\n      tag_68\n        /* \"#utility.yul\":1655:1657   */\n      0x20\n        /* \"#utility.yul\":1644:1653   */\n      dup4\n        /* \"#utility.yul\":1640:1658   */\n      add\n        /* \"#utility.yul\":1631:1637   */\n      dup9\n        /* \"#utility.yul\":1587:1659   */\n      tag_33\n      jump\t// in\n    tag_68:\n        /* \"#utility.yul\":1669:1741   */\n      tag_69\n        /* \"#utility.yul\":1737:1739   */\n      0x40\n        /* \"#utility.yul\":1726:1735   */\n      dup4\n        /* \"#utility.yul\":1722:1740   */\n      add\n        /* \"#utility.yul\":1713:1719   */\n      dup8\n        /* \"#utility.yul\":1669:1741   */\n      tag_33\n      jump\t// in\n    tag_69:\n        /* \"#utility.yul\":1751:1823   */\n      tag_70\n        /* \"#utility.yul\":1819:1821   */\n      0x60\n        /* \"#utility.yul\":1808:1817   */\n      dup4\n        /* \"#utility.yul\":1804:1822   */\n      add\n        /* \"#utility.yul\":1795:1801   */\n      dup7\n        /* \"#utility.yul\":1751:1823   */\n      tag_33\n      jump\t// in\n    tag_70:\n        /* \"#utility.yul\":1833:1906   */\n      tag_71\n        /* \"#utility.yul\":1901:1904   */\n      0x80\n        /* \"#utility.yul\":1890:1899   */\n      dup4\n        /* \"#utility.yul\":1886:1905   */\n      add\n        /* \"#utility.yul\":1877:1883   */\n      dup6\n        /* \"#utility.yul\":1833:1906   */\n      tag_33\n      jump\t// in\n    tag_71:\n        /* \"#utility.yul\":1916:1989   */\n      tag_72\n        /* \"#utility.yul\":1984:1987   */\n      0xa0\n        /* \"#utility.yul\":1973:1982   */\n      dup4\n        /* \"#utility.yul\":1969:1988   */\n      add\n        /* \"#utility.yul\":1960:1966   */\n      dup5\n        /* \"#utility.yul\":1916:1989   */\n      tag_33\n      jump\t// in\n    tag_72:\n        /* \"#utility.yul\":1130:1996   */\n      swap8\n      swap7\n      pop\n      pop\n      pop\n      pop\n      pop\n      pop\n      pop\n      jump\t// out\n        /* \"#utility.yul\":2002:2182   */\n    tag_34:\n        /* \"#utility.yul\":2050:2127   */\n      0x4e487b7100000000000000000000000000000000000000000000000000000000\n        /* \"#utility.yul\":2047:2048   */\n      0x00\n        /* \"#utility.yul\":2040:2128   */\n      mstore\n        /* \"#utility.yul\":2147:2151   */\n      0x41\n        /* \"#utility.yul\":2144:2145   */\n      0x04\n        /* \"#utility.yul\":2137:2152   */\n      mstore\n        /* \"#utility.yul\":2171:2175   */\n      0x24\n        /* \"#utility.yul\":2168:2169   */\n      0x00\n        /* \"#utility.yul\":2161:2176   */\n      revert\n        /* \"#utility.yul\":2188:2368   */\n    tag_35:\n        /* \"#utility.yul\":2236:2313   */\n      0x4e487b7100000000000000000000000000000000000000000000000000000000\n        /* \"#utility.yul\":2233:2234   */\n      0x00\n        /* \"#utility.yul\":2226:2314   */\n      mstore\n        /* \"#utility.yul\":2333:2337   */\n      0x22\n        /* \"#utility.yul\":2330:2331   */\n      0x04\n        /* \"#utility.yul\":2323:2338   */\n      mstore\n        /* \"#utility.yul\":2357:2361   */\n      0x24\n        /* \"#utility.yul\":2354:2355   */\n      0x00\n        /* \"#utility.yul\":2347:2362   */\n      revert\n        /* \"#utility.yul\":2374:2694   */\n    tag_22:\n        /* \"#utility.yul\":2418:2424   */\n      0x00\n        /* \"#utility.yul\":2455:2456   */\n      0x02\n        /* \"#utility.yul\":2449:2453   */\n      dup3\n        /* \"#utility.yul\":2445:2457   */\n      div\n        /* \"#utility.yul\":2435:2457   */\n      swap1\n      pop\n        /* \"#utility.yul\":2502:2503   */\n      0x01\n        /* \"#utility.yul\":2496:2500   */\n      dup3\n        /* \"#utility.yul\":2492:2504   */\n      and\n        /* \"#utility.yul\":2523:2541   */\n      dup1\n        /* \"#utility.yul\":2513:2594   */\n      tag_76\n      jumpi\n        /* \"#utility.yul\":2579:2583   */\n      0x7f\n        /* \"#utility.yul\":2571:2577   */\n      dup3\n        /* \"#utility.yul\":2567:2584   */\n      and\n        /* \"#utility.yul\":2557:2584   */\n      swap2\n      pop\n        /* \"#utility.yul\":2513:2594   */\n    tag_76:\n        /* \"#utility.yul\":2641:2643   */\n      0x20\n        /* \"#utility.yul\":2633:2639   */\n      dup3\n        /* \"#utility.yul\":2630:2644   */\n      lt\n        /* \"#utility.yul\":2610:2628   */\n      dup2\n        /* \"#utility.yul\":2607:2645   */\n      sub\n        /* \"#utility.yul\":2604:2688   */\n      tag_77\n      jumpi\n        /* \"#utility.yul\":2660:2678   */\n      tag_78\n      tag_35\n      jump\t// in\n    tag_78:\n        /* \"#utility.yul\":2604:2688   */\n    tag_77:\n        /* \"#utility.yul\":2425:2694   */\n      pop\n        /* \"#utility.yul\":2374:2694   */\n      swap2\n      swap1\n      pop\n      jump\t// out\n        /* \"#utility.yul\":2700:2841   */\n    tag_36:\n        /* \"#utility.yul\":2749:2753   */\n      0x00\n        /* \"#utility.yul\":2772:2775   */\n      dup2\n        /* \"#utility.yul\":2764:2775   */\n      swap1\n      pop\n        /* \"#utility.yul\":2795:2798   */\n      dup2\n        /* \"#utility.yul\":2792:2793   */\n      0x00\n        /* \"#utility.yul\":2785:2799   */\n      mstore\n        /* \"#utility.yul\":2829:2833   */\n      0x20\n        /* \"#utility.yul\":2826:2827   */\n      0x00\n        /* \"#utility.yul\":2816:2834   */\n      keccak256\n        /* \"#utility.yul\":2808:2834   */\n      swap1\n      pop\n        /* \"#utility.yul\":2700:2841   */\n      swap2\n      swap1\n      pop\n      jump\t// out\n        /* \"#utility.yul\":2847:2940   */\n    tag_37:\n        /* \"#utility.yul\":2884:2890   */\n      0x00\n        /* \"#utility.yul\":2931:2933   */\n      0x20\n        /* \"#utility.yul\":2926:2928   */\n      0x1f\n        /* \"#utility.yul\":2919:2924   */\n      dup4\n        /* \"#utility.yul\":2915:2929   */\n      add\n        /* \"#utility.yul\":2911:2934   */\n      div\n        /* \"#utility.yul\":2901:2934   */\n      swap1\n      pop\n        /* \"#utility.yul\":2847:2940   */\n      swap2\n      swap1\n      pop\n      jump\t// out\n        /* \"#utility.yul\":2946:3053   */\n    tag_38:\n        /* \"#utility.yul\":2990:2998   */\n      0x00\n        /* \"#utility.yul\":3040:3045   */\n      dup3\n        /* \"#utility.yul\":3034:3038   */\n      dup3\n        /* \"#utility.yul\":3030:3046   */\n      shl\n        /* \"#utility.yul\":3009:3046   */\n      swap1\n      pop\n        /* \"#utility.yul\":2946:3053   */\n      swap3\n      swap2\n      pop\n      pop\n      jump\t// out\n        /* \"#utility.yul\":3059:3452   */\n    tag_39:\n        /* \"#utility.yul\":3128:3134   */\n      0x00\n        /* \"#utility.yul\":3178:3179   */\n      0x08\n        /* \"#utility.yul\":3166:3176   */\n      dup4\n        /* \"#utility.yul\":3162:3180   */\n      mul\n        /* \"#utility.yul\":3201:3298   */\n      tag_83\n        /* \"#utility.yul\":3231:3297   */\n      0xffffffffffffffffffffffffffffffffffffffffffffffffffffffffffffffff\n        /* \"#utility.yul\":3220:3229   */\n      dup3\n        /* \"#utility.yul\":3201:3298   */\n      tag_38\n      jump\t// in\n    tag_83:\n        /* \"#utility.yul\":3319:3358   */\n      tag_84\n        /* \"#utility.yul\":3349:3357   */\n      dup7\n        /* \"#utility.yul\":3338:3347   */\n      dup4\n        /* \"#utility.yul\":3319:3358   */\n      tag_38\n      jump\t// in\n    tag_84:\n        /* \"#utility.yul\":3307:3358   */\n      swap6\n      pop\n        /* \"#utility.yul\":3391:3395   */\n      dup1\n        /* \"#utility.yul\":3387:3396   */\n      not\n        /* \"#utility.yul\":3380:3385   */\n      dup5\n        /* \"#utility.yul\":3376:3397   */\n      and\n        /* \"#utility.yul\":3367:3397   */\n      swap4\n      pop\n        /* \"#utility.yul\":3440:3444   */\n      dup1\n        /* \"#utility.yul\":3430:3438   */\n      dup7\n        /* \"#utility.yul\":3426:3445   */\n      and\n        /* \"#utility.yul\":3419:3424   */\n      dup5\n        /* \"#utility.yul\":3416:3446   */\n      or\n        /* \"#utility.yul\":3406:3446   */\n      swap3\n      pop\n        /* \"#utility.yul\":3135:3452   */\n      pop\n      pop\n        /* \"#utility.yul\":3059:3452   */\n      swap4\n      swap3\n      pop\n      pop\n      pop\n      jump\t// out\n        /* \"#utility.yul\":3458:3518   */\n    tag_40:\n        /* \"#utility.yul\":3486:3489   */\n      0x00\n        /* \"#utility.yul\":3507:3512   */\n      dup2\n        /* \"#utility.yul\":3500:3512   */\n      swap1\n      pop\n        /* \"#utility.yul\":3458:3518   */\n      swap2\n      swap1\n      pop\n      jump\t// out\n        /* \"#utility.yul\":3524:3666   */\n    tag_41:\n        /* \"#utility.yul\":3574:3583   */\n      0x00\n        /* \"#utility.yul\":3607:3660   */\n      tag_87\n        /* \"#utility.yul\":3625:3659   */\n      tag_88\n        /* \"#utility.yul\":3634:3658   */\n      tag_89\n        /* \"#utility.yul\":3652:3657   */\n      dup5\n        /* \"#utility.yul\":3634:3658   */\n      tag_32\n      jump\t// in\n    tag_89:\n        /* \"#utility.yul\":3625:3659   */\n      tag_40\n      jump\t// in\n    tag_88:\n        /* \"#utility.yul\":3607:3660   */\n      tag_32\n      jump\t// in\n    tag_87:\n        /* \"#utility.yul\":3594:3660   */\n      swap1\n      pop\n        /* \"#utility.yul\":3524:3666   */\n      swap2\n      swap1\n      pop\n      jump\t// out\n        /* \"#utility.yul\":3672:3747   */\n    tag_42:\n        /* \"#utility.yul\":3715:3718   */\n      0x00\n        /* \"#utility.yul\":3736:3741   */\n      dup2\n        /* \"#utility.yul\":3729:3741   */\n      swap1\n      pop\n        /* \"#utility.yul\":3672:3747   */\n      swap2\n      swap1\n      pop\n      jump\t// out\n        /* \"#utility.yul\":3753:4022   */\n    tag_43:\n        /* \"#utility.yul\":3863:3902   */\n      tag_92\n        /* \"#utility.yul\":3894:3901   */\n      dup4\n        /* \"#utility.yul\":3863:3902   */\n      tag_41\n      jump\t// in\n    tag_92:\n        /* \"#utility.yul\":3924:4015   */\n      tag_93\n        /* \"#utility.yul\":3973:4014   */\n      tag_94\n        /* \"#utility.yul\":3997:4013   */\n      dup3\n        /* \"#utility.yul\":3973:4014   */\n      tag_42\n      jump\t// in\n    tag_94:\n        /* \"#utility.yul\":3965:3971   */\n      dup5\n        /* \"#utility.yul\":3958:3962   */\n      dup5\n        /* \"#utility.yul\":3952:3963   */\n      sload\n        /* \"#utility.yul\":3924:4015   */\n      tag_39\n      jump\t// in\n    tag_93:\n        /* \"#utility.yul\":3918:3922   */\n      dup3\n        /* \"#utility.yul\":3911:4016   */\n      sstore\n        /* \"#utility.yul\":3829:4022   */\n      pop\n        /* \"#utility.yul\":3753:4022   */\n      pop\n      pop\n      pop\n      jump\t// out\n        /* \"#utility.yul\":4028:4101   */\n    tag_44:\n        /* \"#utility.yul\":4073:4076   */\n      0x00\n        /* \"#utility.yul\":4028:4101   */\n      swap1\n      jump\t// out\n        /* \"#utility.yul\":4107:4296   */\n    tag_45:\n        /* \"#utility.yul\":4184:4216   */\n      tag_97\n      tag_44\n      jump\t// in\n    tag_97:\n        /* \"#utility.yul\":4225:4290   */\n      tag_98\n        /* \"#utility.yul\":4283:4289   */\n      dup2\n        /* \"#utility.yul\":4275:4281   */\n      dup5\n        /* \"#utility.yul\":4269:4273   */\n      dup5\n        /* \"#utility.yul\":4225:4290   */\n      tag_43\n      jump\t// in\n    tag_98:\n        /* \"#utility.yul\":4160:4296   */\n      pop\n        /* \"#utility.yul\":4107:4296   */\n      pop\n      pop\n      jump\t// out\n        /* \"#utility.yul\":4302:4488   */\n    tag_46:\n        /* \"#utility.yul\":4362:4482   */\n    tag_100:\n        /* \"#utility.yul\":4379:4382   */\n      dup2\n        /* \"#utility.yul\":4372:4377   */\n      dup2\n        /* \"#utility.yul\":4369:4383   */\n      lt\n        /* \"#utility.yul\":4362:4482   */\n      iszero\n      tag_102\n      jumpi\n        /* \"#utility.yul\":4433:4472   */\n      tag_103\n        /* \"#utility.yul\":4470:4471   */\n      0x00\n        /* \"#utility.yul\":4463:4468   */\n      dup3\n        /* \"#utility.yul\":4433:4472   */\n      tag_45\n      jump\t// in\n    tag_103:\n        /* \"#utility.yul\":4406:4407   */\n      0x01\n        /* \"#utility.yul\":4399:4404   */\n      dup2\n        /* \"#utility.yul\":4395:4408   */\n      add\n        /* \"#utility.yul\":4386:4408   */\n      swap1\n      pop\n        /* \"#utility.yul\":4362:4482   */\n      jump(tag_100)\n    tag_102:\n        /* \"#utility.yul\":4302:4488   */\n      pop\n      pop\n      jump\t// out\n        /* \"#utility.yul\":4494:5037   */\n    tag_47:\n        /* \"#utility.yul\":4595:4597   */\n      0x1f\n        /* \"#utility.yul\":4590:4593   */\n      dup3\n        /* \"#utility.yul\":4587:4598   */\n      gt\n        /* \"#utility.yul\":4584:5030   */\n      iszero\n      tag_105\n      jumpi\n        /* \"#utility.yul\":4629:4667   */\n      tag_106\n        /* \"#utility.yul\":4661:4666   */\n      dup2\n        /* \"#utility.yul\":4629:4667   */\n      tag_36\n      jump\t// in\n    tag_106:\n        /* \"#utility.yul\":4713:4742   */\n      tag_107\n        /* \"#utility.yul\":4731:4741   */\n      dup5\n        /* \"#utility.yul\":4713:4742   */\n      tag_37\n      jump\t// in\n    tag_107:\n        /* \"#utility.yul\":4703:4711   */\n      dup2\n        /* \"#utility.yul\":4699:4743   */\n      add\n        /* \"#utility.yul\":4896:4898   */\n      0x20\n        /* \"#utility.yul\":4884:4894   */\n      dup6\n        /* \"#utility.yul\":4881:4899   */\n      lt\n        /* \"#utility.yul\":4878:4927   */\n      iszero\n      tag_108\n      jumpi\n        /* \"#utility.yul\":4917:4925   */\n      dup2\n        /* \"#utility.yul\":4902:4925   */\n      swap1\n      pop\n        /* \"#utility.yul\":4878:4927   */\n    tag_108:\n        /* \"#utility.yul\":4940:5020   */\n      tag_109\n        /* \"#utility.yul\":4996:5018   */\n      tag_110\n        /* \"#utility.yul\":5014:5017   */\n      dup6\n        /* \"#utility.yul\":4996:5018   */\n      tag_37\n      jump\t// in\n    tag_110:\n        /* \"#utility.yul\":4986:4994   */\n      dup4\n        /* \"#utility.yul\":4982:5019   */\n      add\n        /* \"#utility.yul\":4969:4980   */\n      dup3\n        /* \"#utility.yul\":4940:5020   */\n      tag_46\n      jump\t// in\n    tag_109:\n        /* \"#utility.yul\":4599:5030   */\n      pop\n      pop\n        /* \"#utility.yul\":4584:5030   */\n    tag_105:\n        /* \"#utility.yul\":4494:5037   */\n      pop\n      pop\n      pop\n      jump\t// out\n        /* \"#utility.yul\":5043:5160   */\n    tag_48:\n        /* \"#utility.yul\":5097:5105   */\n      0x00\n        /* \"#utility.yul\":5147:5152   */\n      dup3\n        /* \"#utility.yul\":5141:5145   */\n      dup3\n        /* \"#utility.yul\":5137:5153   */\n      shr\n        /* \"#utility.yul\":5116:5153   */\n      swap1\n      pop\n        /* \"#utility.yul\":5043:5160   */\n      swap3\n      swap2\n      pop\n      pop\n      jump\t// out\n        /* \"#utility.yul\":5166:5335   */\n    tag_49:\n        /* \"#utility.yul\":5210:5216   */\n      0x00\n        /* \"#utility.yul\":5243:5294   */\n      tag_113\n        /* \"#utility.yul\":5291:5292   */\n      0x00\n        /* \"#utility.yul\":5287:5293   */\n      not\n        /* \"#utility.yul\":5279:5284   */\n      dup5\n        /* \"#utility.yul\":5276:5277   */\n      0x08\n        /* \"#utility.yul\":5272:5285   */\n      mul\n        /* \"#utility.yul\":5243:5294   */\n      tag_48\n      jump\t// in\n    tag_113:\n        /* \"#utility.yul\":5239:5295   */\n      not\n        /* \"#utility.yul\":5324:5328   */\n      dup1\n        /* \"#utility.yul\":5318:5322   */\n      dup4\n        /* \"#utility.yul\":5314:5329   */\n      and\n        /* \"#utility.yul\":5304:5329   */\n      swap2\n      pop\n        /* \"#utility.yul\":5217:5335   */\n      pop\n        /* \"#utility.yul\":5166:5335   */\n      swap3\n      swap2\n      pop\n      pop\n      jump\t// out\n        /* \"#utility.yul\":5340:5635   */\n    tag_50:\n        /* \"#utility.yul\":5416:5420   */\n      0x00\n        /* \"#utility.yul\":5562:5591   */\n      tag_115\n        /* \"#utility.yul\":5587:5590   */\n      dup4\n        /* \"#utility.yul\":5581:5585   */\n      dup4\n        /* \"#utility.yul\":5562:5591   */\n      tag_49\n      jump\t// in\n    tag_115:\n        /* \"#utility.yul\":5554:5591   */\n      swap2\n      pop\n        /* \"#utility.yul\":5624:5627   */\n      dup3\n        /* \"#utility.yul\":5621:5622   */\n      0x02\n        /* \"#utility.yul\":5617:5628   */\n      mul\n        /* \"#utility.yul\":5611:5615   */\n      dup3\n        /* \"#utility.yul\":5608:5629   */\n      or\n        /* \"#utility.yul\":5600:5629   */\n      swap1\n      pop\n        /* \"#utility.yul\":5340:5635   */\n      swap3\n      swap2\n      pop\n      pop\n      jump\t// out\n        /* \"#utility.yul\":5640:7035   */\n    tag_10:\n        /* \"#utility.yul\":5757:5794   */\n      tag_117\n        /* \"#utility.yul\":5790:5793   */\n      dup3\n        /* \"#utility.yul\":5757:5794   */\n      tag_27\n      jump\t// in\n    tag_117:\n        /* \"#utility.yul\":5859:5877   */\n      0xffffffffffffffff\n        /* \"#utility.yul\":5851:5857   */\n      dup2\n        /* \"#utility.yul\":5848:5878   */\n      gt\n        /* \"#utility.yul\":5845:5901   */\n      iszero\n      tag_118\n      jumpi\n        /* \"#utility.yul\":5881:5899   */\n      tag_119\n      tag_34\n      jump\t// in\n    tag_119:\n        /* \"#utility.yul\":5845:5901   */\n    tag_118:\n        /* \"#utility.yul\":5925:5963   */\n      tag_120\n        /* \"#utility.yul\":5957:5961   */\n      dup3\n        /* \"#utility.yul\":5951:5962   */\n      sload\n        /* \"#utility.yul\":5925:5963   */\n      tag_22\n      jump\t// in\n    tag_120:\n        /* \"#utility.yul\":6010:6077   */\n      tag_121\n        /* \"#utility.yul\":6070:6076   */\n      dup3\n        /* \"#utility.yul\":6062:6068   */\n      dup3\n        /* \"#utility.yul\":6056:6060   */\n      dup6\n        /* \"#utility.yul\":6010:6077   */\n      tag_47\n      jump\t// in\n    tag_121:\n        /* \"#utility.yul\":6104:6105   */\n      0x00\n        /* \"#utility.yul\":6128:6132   */\n      0x20\n        /* \"#utility.yul\":6115:6132   */\n      swap1\n      pop\n        /* \"#utility.yul\":6160:6162   */\n      0x1f\n        /* \"#utility.yul\":6152:6158   */\n      dup4\n        /* \"#utility.yul\":6149:6163   */\n      gt\n        /* \"#utility.yul\":6177:6178   */\n      0x01\n        /* \"#utility.yul\":6172:6790   */\n      dup2\n      eq\n      tag_123\n      jumpi\n        /* \"#utility.yul\":6834:6835   */\n      0x00\n        /* \"#utility.yul\":6851:6857   */\n      dup5\n        /* \"#utility.yul\":6848:6925   */\n      iszero\n      tag_124\n      jumpi\n        /* \"#utility.yul\":6900:6909   */\n      dup3\n        /* \"#utility.yul\":6895:6898   */\n      dup8\n        /* \"#utility.yul\":6891:6910   */\n      add\n        /* \"#utility.yul\":6885:6911   */\n      mload\n        /* \"#utility.yul\":6876:6911   */\n      swap1\n      pop\n        /* \"#utility.yul\":6848:6925   */\n    tag_124:\n        /* \"#utility.yul\":6951:7018   */\n      tag_125\n        /* \"#utility.yul\":7011:7017   */\n      dup6\n        /* \"#utility.yul\":7004:7009   */\n      dup3\n        /* \"#utility.yul\":6951:7018   */\n      tag_50\n      jump\t// in\n    tag_125:\n        /* \"#utility.yul\":6945:6949   */\n      dup7\n        /* \"#utility.yul\":6938:7019   */\n      sstore\n        /* \"#utility.yul\":6807:7029   */\n      pop\n        /* \"#utility.yul\":6142:7029   */\n      jump(tag_122)\n        /* \"#utility.yul\":6172:6790   */\n    tag_123:\n        /* \"#utility.yul\":6224:6228   */\n      0x1f\n        /* \"#utility.yul\":6220:6229   */\n      not\n        /* \"#utility.yul\":6212:6218   */\n      dup5\n        /* \"#utility.yul\":6208:6230   */\n      and\n        /* \"#utility.yul\":6258:6295   */\n      tag_126\n        /* \"#utility.yul\":6290:6294   */\n      dup7\n        /* \"#utility.yul\":6258:6295   */\n      tag_36\n      jump\t// in\n    tag_126:\n        /* \"#utility.yul\":6317:6318   */\n      0x00\n        /* \"#utility.yul\":6331:6539   */\n    tag_127:\n        /* \"#utility.yul\":6345:6352   */\n      dup3\n        /* \"#utility.yul\":6342:6343   */\n      dup2\n        /* \"#utility.yul\":6339:6353   */\n      lt\n        /* \"#utility.yul\":6331:6539   */\n      iszero\n      tag_129\n      jumpi\n        /* \"#utility.yul\":6424:6433   */\n      dup5\n        /* \"#utility.yul\":6419:6422   */\n      dup10\n        /* \"#utility.yul\":6415:6434   */\n      add\n        /* \"#utility.yul\":6409:6435   */\n      mload\n        /* \"#utility.yul\":6401:6407   */\n      dup3\n        /* \"#utility.yul\":6394:6436   */\n      sstore\n        /* \"#utility.yul\":6475:6476   */\n      0x01\n        /* \"#utility.yul\":6467:6473   */\n      dup3\n        /* \"#utility.yul\":6463:6477   */\n      add\n        /* \"#utility.yul\":6453:6477   */\n      swap2\n      pop\n        /* \"#utility.yul\":6522:6524   */\n      0x20\n        /* \"#utility.yul\":6511:6520   */\n      dup6\n        /* \"#utility.yul\":6507:6525   */\n      add\n        /* \"#utility.yul\":6494:6525   */\n      swap5\n      pop\n        /* \"#utility.yul\":6368:6372   */\n      0x20\n        /* \"#utility.yul\":6365:6366   */\n      dup2\n        /* \"#utility.yul\":6361:6373   */\n      add\n        /* \"#utility.yul\":6356:6373   */\n      swap1\n      pop\n        /* \"#utility.yul\":6331:6539   */\n      jump(tag_127)\n    tag_129:\n        /* \"#utility.yul\":6567:6573   */\n      dup7\n        /* \"#utility.yul\":6558:6565   */\n      dup4\n        /* \"#utility.yul\":6555:6574   */\n      lt\n        /* \"#utility.yul\":6552:6731   */\n      iszero\n      tag_130\n      jumpi\n        /* \"#utility.yul\":6625:6634   */\n      dup5\n        /* \"#utility.yul\":6620:6623   */\n      dup10\n        /* \"#utility.yul\":6616:6635   */\n      add\n        /* \"#utility.yul\":6610:6636   */\n      mload\n        /* \"#utility.yul\":6668:6716   */\n      tag_131\n        /* \"#utility.yul\":6710:6714   */\n      0x1f\n        /* \"#utility.yul\":6702:6708   */\n      dup10\n        /* \"#utility.yul\":6698:6715   */\n      and\n        /* \"#utility.yul\":6687:6696   */\n      dup3\n        /* \"#utility.yul\":6668:6716   */\n      tag_49\n      jump\t// in\n    tag_131:\n        /* \"#utility.yul\":6660:6666   */\n      dup4\n        /* \"#utility.yul\":6653:6717   */\n      sstore\n        /* \"#utility.yul\":6575:6731   */\n      pop\n        /* \"#utility.yul\":6552:6731   */\n    tag_130:\n        /* \"#utility.yul\":6777:6778   */\n      0x01\n        /* \"#utility.yul\":6773:6774   */\n      0x02\n        /* \"#utility.yul\":6765:6771   */\n      dup9\n        /* \"#utility.yul\":6761:6775   */\n      mul\n        /* \"#utility.yul\":6757:6779   */\n      add\n        /* \"#utility.yul\":6751:6755   */\n      dup9\n        /* \"#utility.yul\":6744:6780   */\n      sstore\n        /* \"#utility.yul\":6179:6790   */\n      pop\n      pop\n      pop\n        /* \"#utility.yul\":6142:7029   */\n    tag_122:\n      pop\n        /* \"#utility.yul\":5732:7035   */\n      pop\n      pop\n      pop\n        /* \"#utility.yul\":5640:7035   */\n      pop\n      pop\n      jump\t// out\n        /* \"#utility.yul\":7041:7221   */\n    tag_51:\n        /* \"#utility.yul\":7089:7166   */\n      0x4e487b7100000000000000000000000000000000000000000000000000000000\n        /* \"#utility.yul\":7086:7087   */\n      0x00\n        /* \"#utility.yul\":7079:7167   */\n      mstore\n        /* \"#utility.yul\":7186:7190   */\n      0x11\n        /* \"#utility.yul\":7183:7184   */\n      0x04\n        /* \"#utility.yul\":7176:7191   */\n      mstore\n        /* \"#utility.yul\":7210:7214   */\n      0x24\n        /* \"#utility.yul\":7207:7208   */\n      0x00\n        /* \"#utility.yul\":7200:7215   */\n      revert\n        /* \"#utility.yul\":7227:7418   */\n    tag_12:\n        /* \"#utility.yul\":7267:7270   */\n      0x00\n        /* \"#utility.yul\":7286:7306   */\n      tag_134\n        /* \"#utility.yul\":7304:7305   */\n      dup3\n        /* \"#utility.yul\":7286:7306   */\n      tag_32\n      jump\t// in\n    tag_134:\n        /* \"#utility.yul\":7281:7306   */\n      swap2\n      pop\n        /* \"#utility.yul\":7320:7340   */\n      tag_135\n        /* \"#utility.yul\":7338:7339   */\n      dup4\n        /* \"#utility.yul\":7320:7340   */\n      tag_32\n      jump\t// in\n    tag_135:\n        /* \"#utility.yul\":7315:7340   */\n      swap3\n      pop\n        /* \"#utility.yul\":7363:7364   */\n      dup3\n        /* \"#utility.yul\":7360:7361   */\n      dup3\n        /* \"#utility.yul\":7356:7365   */\n      add\n        /* \"#utility.yul\":7349:7365   */\n      swap1\n      pop\n        /* \"#utility.yul\":7384:7387   */\n      dup1\n        /* \"#utility.yul\":7381:7382   */\n      dup3\n        /* \"#utility.yul\":7378:7388   */\n      gt\n        /* \"#utility.yul\":7375:7411   */\n      iszero\n      tag_136\n      jumpi\n        /* \"#utility.yul\":7391:7409   */\n      tag_137\n      tag_51\n      jump\t// in\n    tag_137:\n        /* \"#utility.yul\":7375:7411   */\n    tag_136:\n        /* \"#utility.yul\":7227:7418   */\n      swap3\n      swap2\n      pop\n      pop\n      jump\t// out\n        /* \"#utility.yul\":7424:7618   */\n    tag_14:\n        /* \"#utility.yul\":7464:7468   */\n      0x00\n        /* \"#utility.yul\":7484:7504   */\n      tag_139\n        /* \"#utility.yul\":7502:7503   */\n      dup3\n        /* \"#utility.yul\":7484:7504   */\n      tag_32\n      jump\t// in\n    tag_139:\n        /* \"#utility.yul\":7479:7504   */\n      swap2\n      pop\n        /* \"#utility.yul\":7518:7538   */\n      tag_140\n        /* \"#utility.yul\":7536:7537   */\n      dup4\n        /* \"#utility.yul\":7518:7538   */\n      tag_32\n      jump\t// in\n    tag_140:\n        /* \"#utility.yul\":7513:7538   */\n      swap3\n      pop\n        /* \"#utility.yul\":7562:7563   */\n      dup3\n        /* \"#utility.yul\":7559:7560   */\n      dup3\n        /* \"#utility.yul\":7555:7564   */\n      sub\n        /* \"#utility.yul\":7547:7564   */\n      swap1\n      pop\n        /* \"#utility.yul\":7586:7587   */\n      dup2\n        /* \"#utility.yul\":7580:7584   */\n      dup2\n        /* \"#utility.yul\":7577:7588   */\n      gt\n        /* \"#utility.yul\":7574:7611   */\n      iszero\n      tag_141\n      jumpi\n        /* \"#utility.yul\":7591:7609   */\n      tag_142\n      tag_51\n      jump\t// in\n    tag_142:\n        /* \"#utility.yul\":7574:7611   */\n    tag_141:\n        /* \"#utility.yul\":7424:7618   */\n      swap3\n      swap2\n      pop\n      pop\n      jump\t// out\n        /* \"#utility.yul\":7624:8034   */\n    tag_16:\n        /* \"#utility.yul\":7664:7671   */\n      0x00\n        /* \"#utility.yul\":7687:7707   */\n      tag_144\n        /* \"#utility.yul\":7705:7706   */\n      dup3\n        /* \"#utility.yul\":7687:7707   */\n      tag_32\n      jump\t// in\n    tag_144:\n        /* \"#utility.yul\":7682:7707   */\n      swap2\n      pop\n        /* \"#utility.yul\":7721:7741   */\n      tag_145\n        /* \"#utility.yul\":7739:7740   */\n      dup4\n        /* \"#utility.yul\":7721:7741   */\n      tag_32\n      jump\t// in\n    tag_145:\n        /* \"#utility.yul\":7716:7741   */\n      swap3\n      pop\n        /* \"#utility.yul\":7776:7777   */\n      dup3\n        /* \"#utility.yul\":7773:7774   */\n      dup3\n        /* \"#utility.yul\":7769:7778   */\n      mul\n        /* \"#utility.yul\":7798:7828   */\n      tag_146\n        /* \"#utility.yul\":7816:7827   */\n      dup2\n        /* \"#utility.yul\":7798:7828   */\n      tag_32\n      jump\t// in\n    tag_146:\n        /* \"#utility.yul\":7787:7828   */\n      swap2\n      pop\n        /* \"#utility.yul\":7977:7978   */\n      dup3\n        /* \"#utility.yul\":7968:7975   */\n      dup3\n        /* \"#utility.yul\":7964:7979   */\n      div\n        /* \"#utility.yul\":7961:7962   */\n      dup5\n        /* \"#utility.yul\":7958:7980   */\n      eq\n        /* \"#utility.yul\":7938:7939   */\n      dup4\n        /* \"#utility.yul\":7931:7940   */\n      iszero\n        /* \"#utility.yul\":7911:7994   */\n      or\n        /* \"#utility.yul\":7888:8027   */\n      tag_147\n      jumpi\n        /* \"#utility.yul\":8007:8025   */\n      tag_148\n      tag_51\n      jump\t// in\n    tag_148:\n        /* \"#utility.yul\":7888:8027   */\n    tag_147:\n        /* \"#utility.yul\":7672:8034   */\n      pop\n        /* \"#utility.yul\":7624:8034   */\n      swap3\n      swap2\n      pop\n      pop\n      jump\t// out\n        /* \"#utility.yul\":8040:8220   */\n    tag_52:\n        /* \"#utility.yul\":8088:8165   */\n      0x4e487b7100000000000000000000000000000000000000000000000000000000\n        /* \"#utility.yul\":8085:8086   */\n      0x00\n        /* \"#utility.yul\":8078:8166   */\n      mstore\n        /* \"#utility.yul\":8185:8189   */\n      0x12\n        /* \"#utility.yul\":8182:8183   */\n      0x04\n        /* \"#utility.yul\":8175:8190   */\n      mstore\n        /* \"#utility.yul\":8209:8213   */\n      0x24\n        /* \"#utility.yul\":8206:8207   */\n      0x00\n        /* \"#utility.yul\":8199:8214   */\n      revert\n        /* \"#utility.yul\":8226:8411   */\n    tag_18:\n        /* \"#utility.yul\":8266:8267   */\n      0x00\n        /* \"#utility.yul\":8283:8303   */\n      tag_151\n        /* \"#utility.yul\":8301:8302   */\n      dup3\n        /* \"#utility.yul\":8283:8303   */\n      tag_32\n      jump\t// in\n    tag_151:\n        /* \"#utility.yul\":8278:8303   */\n      swap2\n      pop\n        /* \"#utility.yul\":8317:8337   */\n      tag_152\n        /* \"#utility.yul\":8335:8336   */\n      dup4\n        /* \"#utility.yul\":8317:8337   */\n      tag_32\n      jump\t// in\n    tag_152:\n        /* \"#utility.yul\":8312:8337   */\n      swap3\n      pop\n        /* \"#utility.yul\":8356:8357   */\n      dup3\n        /* \"#utility.yul\":8346:8381   */\n      tag_153\n      jumpi\n        /* \"#utility.yul\":8361:8379   */\n      tag_154\n      tag_52\n      jump\t// in\n    tag_154:\n        /* \"#utility.yul\":8346:8381   */\n    tag_153:\n        /* \"#utility.yul\":8403:8404   */\n      dup3\n        /* \"#utility.yul\":8400:8401   */\n      dup3\n        /* \"#utility.yul\":8396:8405   */\n      div\n        /* \"#utility.yul\":8391:8405   */\n      swap1\n      pop\n        /* \"#utility.yul\":8226:8411   */\n      swap3\n      swap2\n      pop\n      pop\n      jump\t// out\n        /* \"#utility.yul\":8417:8593   */\n    tag_20:\n        /* \"#utility.yul\":8449:8450   */\n      0x00\n        /* \"#utility.yul\":8466:8486   */\n      tag_156\n        /* \"#utility.yul\":8484:8485   */\n      dup3\n        /* \"#utility.yul\":8466:8486   */\n      tag_32\n      jump\t// in\n    tag_156:\n        /* \"#utility.yul\":8461:8486   */\n      swap2\n      pop\n        /* \"#utility.yul\":8500:8520   */\n      tag_157\n        /* \"#utility.yul\":8518:8519   */\n      dup4\n        /* \"#utility.yul\":8500:8520   */\n      tag_32\n      jump\t// in\n    tag_157:\n        /* \"#utility.yul\":8495:8520   */\n      swap3\n      pop\n        /* \"#utility.yul\":8539:8540   */\n      dup3\n        /* \"#utility.yul\":8529:8564   */\n      tag_158\n      jumpi\n        /* \"#utility.yul\":8544:8562   */\n      tag_159\n      tag_52\n      jump\t// in\n    tag_159:\n        /* \"#utility.yul\":8529:8564   */\n    tag_158:\n        /* \"#utility.yul\":8585:8586   */\n      dup3\n        /* \"#utility.yul\":8582:8583   */\n      dup3\n        /* \"#utility.yul\":8578:8587   */\n      mod\n        /* \"#utility.yul\":8573:8587   */\n      swap1\n      pop\n        /* \"#utility.yul\":8417:8593   */\n      swap3\n      swap2\n      pop\n      pop\n      jump\t// out\n\n    auxdata: 0xa26469706673582212202a6a1e2d61f081e64c28bbb372e81afd4d11ebbd214e5a2894d7b1a72197056864736f6c63430008190033\n}\n",
				"bytecode": {
					"linkReferences": {},
					"object": "60806040526040518060400160405280600581526020017f48656c6c6f0000000000000000000000000000000000000000000000000000008152505f908161004791906102ab565b5060056001556005600255600560035560056004556005805534801561006b575f80fd5b5061037a565b5f81519050919050565b7f4e487b71000000000000000000000000000000000000000000000000000000005f52604160045260245ffd5b7f4e487b71000000000000000000000000000000000000000000000000000000005f52602260045260245ffd5b5f60028204905060018216806100ec57607f821691505b6020821081036100ff576100fe6100a8565b5b50919050565b5f819050815f5260205f209050919050565b5f6020601f8301049050919050565b5f82821b905092915050565b5f600883026101617fffffffffffffffffffffffffffffffffffffffffffffffffffffffffffffffff82610126565b61016b8683610126565b95508019841693508086168417925050509392505050565b5f819050919050565b5f819050919050565b5f6101af6101aa6101a584610183565b61018c565b610183565b9050919050565b5f819050919050565b6101c883610195565b6101dc6101d4826101b6565b848454610132565b825550505050565b5f90565b6101f06101e4565b6101fb8184846101bf565b505050565b5b8181101561021e576102135f826101e8565b600181019050610201565b5050565b601f8211156102635761023481610105565b61023d84610117565b8101602085101561024c578190505b61026061025885610117565b830182610200565b50505b505050565b5f82821c905092915050565b5f6102835f1984600802610268565b1980831691505092915050565b5f61029b8383610274565b9150826002028217905092915050565b6102b482610071565b67ffffffffffffffff8111156102cd576102cc61007b565b5b6102d782546100d5565b6102e2828285610222565b5f60209050601f831160018114610313575f8415610301578287015190505b61030b8582610290565b865550610372565b601f19841661032186610105565b5f5b8281101561034857848901518255600182019150602085019450602081019050610323565b868310156103655784890151610361601f891682610274565b8355505b6001600288020188555050505b505050505050565b610740806103875f395ff3fe608060405234801561000f575f80fd5b5060043610610029575f3560e01c806371ca2ecf1461002d575b5f80fd5b610035610050565b6040516100479695949392919061024d565b60405180910390f35b60605f805f805f6040518060400160405280600e81526020017f48656c6c6f20536f6c69646974790000000000000000000000000000000000008152505f908161009a91906104da565b50600260015f8282546100ad91906105d6565b925050819055506002805f8282546100c59190610609565b92505081905550600260035f8282546100de919061063c565b92505081905550600260045f8282546100f791906106aa565b92505081905550600260055f82825461011091906106da565b925050819055505f6001546002546003546004546005548580546101339061030d565b80601f016020809104026020016040519081016040528092919081815260200182805461015f9061030d565b80156101aa5780601f10610181576101008083540402835291602001916101aa565b820191905f5260205f20905b81548152906001019060200180831161018d57829003601f168201915b50505050509550955095509550955095509550909192939495565b5f81519050919050565b5f82825260208201905092915050565b8281835e5f83830152505050565b5f601f19601f8301169050919050565b5f610207826101c5565b61021181856101cf565b93506102218185602086016101df565b61022a816101ed565b840191505092915050565b5f819050919050565b61024781610235565b82525050565b5f60c0820190508181035f83015261026581896101fd565b9050610274602083018861023e565b610281604083018761023e565b61028e606083018661023e565b61029b608083018561023e565b6102a860a083018461023e565b979650505050505050565b7f4e487b71000000000000000000000000000000000000000000000000000000005f52604160045260245ffd5b7f4e487b71000000000000000000000000000000000000000000000000000000005f52602260045260245ffd5b5f600282049050600182168061032457607f821691505b602082108103610337576103366102e0565b5b50919050565b5f819050815f5260205f209050919050565b5f6020601f8301049050919050565b5f82821b905092915050565b5f600883026103997fffffffffffffffffffffffffffffffffffffffffffffffffffffffffffffffff8261035e565b6103a3868361035e565b95508019841693508086168417925050509392505050565b5f819050919050565b5f6103de6103d96103d484610235565b6103bb565b610235565b9050919050565b5f819050919050565b6103f7836103c4565b61040b610403826103e5565b84845461036a565b825550505050565b5f90565b61041f610413565b61042a8184846103ee565b505050565b5b8181101561044d576104425f82610417565b600181019050610430565b5050565b601f821115610492576104638161033d565b61046c8461034f565b8101602085101561047b578190505b61048f6104878561034f565b83018261042f565b50505b505050565b5f82821c905092915050565b5f6104b25f1984600802610497565b1980831691505092915050565b5f6104ca83836104a3565b9150826002028217905092915050565b6104e3826101c5565b67ffffffffffffffff8111156104fc576104fb6102b3565b5b610506825461030d565b610511828285610451565b5f60209050601f831160018114610542575f8415610530578287015190505b61053a85826104bf565b8655506105a1565b601f1984166105508661033d565b5f5b8281101561057757848901518255600182019150602085019450602081019050610552565b868310156105945784890151610590601f8916826104a3565b8355505b6001600288020188555050505b505050505050565b7f4e487b71000000000000000000000000000000000000000000000000000000005f52601160045260245ffd5b5f6105e082610235565b91506105eb83610235565b9250828201905080821115610603576106026105a9565b5b92915050565b5f61061382610235565b915061061e83610235565b9250828203905081811115610636576106356105a9565b5b92915050565b5f61064682610235565b915061065183610235565b925082820261065f81610235565b91508282048414831517610676576106756105a9565b5b5092915050565b7f4e487b71000000000000000000000000000000000000000000000000000000005f52601260045260245ffd5b5f6106b482610235565b91506106bf83610235565b9250826106cf576106ce61067d565b5b828204905092915050565b5f6106e482610235565b91506106ef83610235565b9250826106ff576106fe61067d565b5b82820690509291505056fea26469706673582212202a6a1e2d61f081e64c28bbb372e81afd4d11ebbd214e5a2894d7b1a72197056864736f6c63430008190033",
					"opcodes": "PUSH1 0x80 PUSH1 0x40 MSTORE PUSH1 0x40 MLOAD DUP1 PUSH1 0x40 ADD PUSH1 0x40 MSTORE DUP1 PUSH1 0x5 DUP2 MSTORE PUSH1 0x20 ADD PUSH32 0x48656C6C6F000000000000000000000000000000000000000000000000000000 DUP2 MSTORE POP PUSH0 SWAP1 DUP2 PUSH2 0x47 SWAP2 SWAP1 PUSH2 0x2AB JUMP JUMPDEST POP PUSH1 0x5 PUSH1 0x1 SSTORE PUSH1 0x5 PUSH1 0x2 SSTORE PUSH1 0x5 PUSH1 0x3 SSTORE PUSH1 0x5 PUSH1 0x4 SSTORE PUSH1 0x5 DUP1 SSTORE CALLVALUE DUP1 ISZERO PUSH2 0x6B JUMPI PUSH0 DUP1 REVERT JUMPDEST POP PUSH2 0x37A JUMP JUMPDEST PUSH0 DUP2 MLOAD SWAP1 POP SWAP2 SWAP1 POP JUMP JUMPDEST PUSH32 0x4E487B7100000000000000000000000000000000000000000000000000000000 PUSH0 MSTORE PUSH1 0x41 PUSH1 0x4 MSTORE PUSH1 0x24 PUSH0 REVERT JUMPDEST PUSH32 0x4E487B7100000000000000000000000000000000000000000000000000000000 PUSH0 MSTORE PUSH1 0x22 PUSH1 0x4 MSTORE PUSH1 0x24 PUSH0 REVERT JUMPDEST PUSH0 PUSH1 0x2 DUP3 DIV SWAP1 POP PUSH1 0x1 DUP3 AND DUP1 PUSH2 0xEC JUMPI PUSH1 0x7F DUP3 AND SWAP2 POP JUMPDEST PUSH1 0x20 DUP3 LT DUP2 SUB PUSH2 0xFF JUMPI PUSH2 0xFE PUSH2 0xA8 JUMP JUMPDEST JUMPDEST POP SWAP2 SWAP1 POP JUMP JUMPDEST PUSH0 DUP2 SWAP1 POP DUP2 PUSH0 MSTORE PUSH1 0x20 PUSH0 KECCAK256 SWAP1 POP SWAP2 SWAP1 POP JUMP JUMPDEST PUSH0 PUSH1 0x20 PUSH1 0x1F DUP4 ADD DIV SWAP1 POP SWAP2 SWAP1 POP JUMP JUMPDEST PUSH0 DUP3 DUP3 SHL SWAP1 POP SWAP3 SWAP2 POP POP JUMP JUMPDEST PUSH0 PUSH1 0x8 DUP4 MUL PUSH2 0x161 PUSH32 0xFFFFFFFFFFFFFFFFFFFFFFFFFFFFFFFFFFFFFFFFFFFFFFFFFFFFFFFFFFFFFFFF DUP3 PUSH2 0x126 JUMP JUMPDEST PUSH2 0x16B DUP7 DUP4 PUSH2 0x126 JUMP JUMPDEST SWAP6 POP DUP1 NOT DUP5 AND SWAP4 POP DUP1 DUP7 AND DUP5 OR SWAP3 POP POP POP SWAP4 SWAP3 POP POP POP JUMP JUMPDEST PUSH0 DUP2 SWAP1 POP SWAP2 SWAP1 POP JUMP JUMPDEST PUSH0 DUP2 SWAP1 POP SWAP2 SWAP1 POP JUMP JUMPDEST PUSH0 PUSH2 0x1AF PUSH2 0x1AA PUSH2 0x1A5 DUP5 PUSH2 0x183 JUMP JUMPDEST PUSH2 0x18C JUMP JUMPDEST PUSH2 0x183 JUMP JUMPDEST SWAP1 POP SWAP2 SWAP1 POP JUMP JUMPDEST PUSH0 DUP2 SWAP1 POP SWAP2 SWAP1 POP JUMP JUMPDEST PUSH2 0x1C8 DUP4 PUSH2 0x195 JUMP JUMPDEST PUSH2 0x1DC PUSH2 0x1D4 DUP3 PUSH2 0x1B6 JUMP JUMPDEST DUP5 DUP5 SLOAD PUSH2 0x132 JUMP JUMPDEST DUP3 SSTORE POP POP POP POP JUMP JUMPDEST PUSH0 SWAP1 JUMP JUMPDEST PUSH2 0x1F0 PUSH2 0x1E4 JUMP JUMPDEST PUSH2 0x1FB DUP2 DUP5 DUP5 PUSH2 0x1BF JUMP JUMPDEST POP POP POP JUMP JUMPDEST JUMPDEST DUP2 DUP2 LT ISZERO PUSH2 0x21E JUMPI PUSH2 0x213 PUSH0 DUP3 PUSH2 0x1E8 JUMP JUMPDEST PUSH1 0x1 DUP2 ADD SWAP1 POP PUSH2 0x201 JUMP JUMPDEST POP POP JUMP JUMPDEST PUSH1 0x1F DUP3 GT ISZERO PUSH2 0x263 JUMPI PUSH2 0x234 DUP2 PUSH2 0x105 JUMP JUMPDEST PUSH2 0x23D DUP5 PUSH2 0x117 JUMP JUMPDEST DUP2 ADD PUSH1 0x20 DUP6 LT ISZERO PUSH2 0x24C JUMPI DUP2 SWAP1 POP JUMPDEST PUSH2 0x260 PUSH2 0x258 DUP6 PUSH2 0x117 JUMP JUMPDEST DUP4 ADD DUP3 PUSH2 0x200 JUMP JUMPDEST POP POP JUMPDEST POP POP POP JUMP JUMPDEST PUSH0 DUP3 DUP3 SHR SWAP1 POP SWAP3 SWAP2 POP POP JUMP JUMPDEST PUSH0 PUSH2 0x283 PUSH0 NOT DUP5 PUSH1 0x8 MUL PUSH2 0x268 JUMP JUMPDEST NOT DUP1 DUP4 AND SWAP2 POP POP SWAP3 SWAP2 POP POP JUMP JUMPDEST PUSH0 PUSH2 0x29B DUP4 DUP4 PUSH2 0x274 JUMP JUMPDEST SWAP2 POP DUP3 PUSH1 0x2 MUL DUP3 OR SWAP1 POP SWAP3 SWAP2 POP POP JUMP JUMPDEST PUSH2 0x2B4 DUP3 PUSH2 0x71 JUMP JUMPDEST PUSH8 0xFFFFFFFFFFFFFFFF DUP2 GT ISZERO PUSH2 0x2CD JUMPI PUSH2 0x2CC PUSH2 0x7B JUMP JUMPDEST JUMPDEST PUSH2 0x2D7 DUP3 SLOAD PUSH2 0xD5 JUMP JUMPDEST PUSH2 0x2E2 DUP3 DUP3 DUP6 PUSH2 0x222 JUMP JUMPDEST PUSH0 PUSH1 0x20 SWAP1 POP PUSH1 0x1F DUP4 GT PUSH1 0x1 DUP2 EQ PUSH2 0x313 JUMPI PUSH0 DUP5 ISZERO PUSH2 0x301 JUMPI DUP3 DUP8 ADD MLOAD SWAP1 POP JUMPDEST PUSH2 0x30B DUP6 DUP3 PUSH2 0x290 JUMP JUMPDEST DUP7 SSTORE POP PUSH2 0x372 JUMP JUMPDEST PUSH1 0x1F NOT DUP5 AND PUSH2 0x321 DUP7 PUSH2 0x105 JUMP JUMPDEST PUSH0 JUMPDEST DUP3 DUP2 LT ISZERO PUSH2 0x348 JUMPI DUP5 DUP10 ADD MLOAD DUP3 SSTORE PUSH1 0x1 DUP3 ADD SWAP2 POP PUSH1 0x20 DUP6 ADD SWAP5 POP PUSH1 0x20 DUP2 ADD SWAP1 POP PUSH2 0x323 JUMP JUMPDEST DUP7 DUP4 LT ISZERO PUSH2 0x365 JUMPI DUP5 DUP10 ADD MLOAD PUSH2 0x361 PUSH1 0x1F DUP10 AND DUP3 PUSH2 0x274 JUMP JUMPDEST DUP4 SSTORE POP JUMPDEST PUSH1 0x1 PUSH1 0x2 DUP9 MUL ADD DUP9 SSTORE POP POP POP JUMPDEST POP POP POP POP POP POP JUMP JUMPDEST PUSH2 0x740 DUP1 PUSH2 0x387 PUSH0 CODECOPY PUSH0 RETURN INVALID PUSH1 0x80 PUSH1 0x40 MSTORE CALLVALUE DUP1 ISZERO PUSH2 0xF JUMPI PUSH0 DUP1 REVERT JUMPDEST POP PUSH1 0x4 CALLDATASIZE LT PUSH2 0x29 JUMPI PUSH0 CALLDATALOAD PUSH1 0xE0 SHR DUP1 PUSH4 0x71CA2ECF EQ PUSH2 0x2D JUMPI JUMPDEST PUSH0 DUP1 REVERT JUMPDEST PUSH2 0x35 PUSH2 0x50 JUMP JUMPDEST PUSH1 0x40 MLOAD PUSH2 0x47 SWAP7 SWAP6 SWAP5 SWAP4 SWAP3 SWAP2 SWAP1 PUSH2 0x24D JUMP JUMPDEST PUSH1 0x40 MLOAD DUP1 SWAP2 SUB SWAP1 RETURN JUMPDEST PUSH1 0x60 PUSH0 DUP1 PUSH0 DUP1 PUSH0 PUSH1 0x40 MLOAD DUP1 PUSH1 0x40 ADD PUSH1 0x40 MSTORE DUP1 PUSH1 0xE DUP2 MSTORE PUSH1 0x20 ADD PUSH32 0x48656C6C6F20536F6C6964697479000000000000000000000000000000000000 DUP2 MSTORE POP PUSH0 SWAP1 DUP2 PUSH2 0x9A SWAP2 SWAP1 PUSH2 0x4DA JUMP JUMPDEST POP PUSH1 0x2 PUSH1 0x1 PUSH0 DUP3 DUP3 SLOAD PUSH2 0xAD SWAP2 SWAP1 PUSH2 0x5D6 JUMP JUMPDEST SWAP3 POP POP DUP2 SWAP1 SSTORE POP PUSH1 0x2 DUP1 PUSH0 DUP3 DUP3 SLOAD PUSH2 0xC5 SWAP2 SWAP1 PUSH2 0x609 JUMP JUMPDEST SWAP3 POP POP DUP2 SWAP1 SSTORE POP PUSH1 0x2 PUSH1 0x3 PUSH0 DUP3 DUP3 SLOAD PUSH2 0xDE SWAP2 SWAP1 PUSH2 0x63C JUMP JUMPDEST SWAP3 POP POP DUP2 SWAP1 SSTORE POP PUSH1 0x2 PUSH1 0x4 PUSH0 DUP3 DUP3 SLOAD PUSH2 0xF7 SWAP2 SWAP1 PUSH2 0x6AA JUMP JUMPDEST SWAP3 POP POP DUP2 SWAP1 SSTORE POP PUSH1 0x2 PUSH1 0x5 PUSH0 DUP3 DUP3 SLOAD PUSH2 0x110 SWAP2 SWAP1 PUSH2 0x6DA JUMP JUMPDEST SWAP3 POP POP DUP2 SWAP1 SSTORE POP PUSH0 PUSH1 0x1 SLOAD PUSH1 0x2 SLOAD PUSH1 0x3 SLOAD PUSH1 0x4 SLOAD PUSH1 0x5 SLOAD DUP6 DUP1 SLOAD PUSH2 0x133 SWAP1 PUSH2 0x30D JUMP JUMPDEST DUP1 PUSH1 0x1F ADD PUSH1 0x20 DUP1 SWAP2 DIV MUL PUSH1 0x20 ADD PUSH1 0x40 MLOAD SWAP1 DUP2 ADD PUSH1 0x40 MSTORE DUP1 SWAP3 SWAP2 SWAP1 DUP2 DUP2 MSTORE PUSH1 0x20 ADD DUP3 DUP1 SLOAD PUSH2 0x15F SWAP1 PUSH2 0x30D JUMP JUMPDEST DUP1 ISZERO PUSH2 0x1AA JUMPI DUP1 PUSH1 0x1F LT PUSH2 0x181 JUMPI PUSH2 0x100 DUP1 DUP4 SLOAD DIV MUL DUP4 MSTORE SWAP2 PUSH1 0x20 ADD SWAP2 PUSH2 0x1AA JUMP JUMPDEST DUP3 ADD SWAP2 SWAP1 PUSH0 MSTORE PUSH1 0x20 PUSH0 KECCAK256 SWAP1 JUMPDEST DUP2 SLOAD DUP2 MSTORE SWAP1 PUSH1 0x1 ADD SWAP1 PUSH1 0x20 ADD DUP1 DUP4 GT PUSH2 0x18D JUMPI DUP3 SWAP1 SUB PUSH1 0x1F AND DUP3 ADD SWAP2 JUMPDEST POP POP POP POP POP SWAP6 POP SWAP6 POP SWAP6 POP SWAP6 POP SWAP6 POP SWAP6 POP SWAP6 POP SWAP1 SWAP2 SWAP3 SWAP4 SWAP5 SWAP6 JUMP JUMPDEST PUSH0 DUP2 MLOAD SWAP1 POP SWAP2 SWAP1 POP JUMP JUMPDEST PUSH0 DUP3 DUP3 MSTORE PUSH1 0x20 DUP3 ADD SWAP1 POP SWAP3 SWAP2 POP POP JUMP JUMPDEST DUP3 DUP2 DUP4 MCOPY PUSH0 DUP4 DUP4 ADD MSTORE POP POP POP JUMP JUMPDEST PUSH0 PUSH1 0x1F NOT PUSH1 0x1F DUP4 ADD AND SWAP1 POP SWAP2 SWAP1 POP JUMP JUMPDEST PUSH0 PUSH2 0x207 DUP3 PUSH2 0x1C5 JUMP JUMPDEST PUSH2 0x211 DUP2 DUP6 PUSH2 0x1CF JUMP JUMPDEST SWAP4 POP PUSH2 0x221 DUP2 DUP6 PUSH1 0x20 DUP7 ADD PUSH2 0x1DF JUMP JUMPDEST PUSH2 0x22A DUP2 PUSH2 0x1ED JUMP JUMPDEST DUP5 ADD SWAP2 POP POP SWAP3 SWAP2 POP POP JUMP JUMPDEST PUSH0 DUP2 SWAP1 POP SWAP2 SWAP1 POP JUMP JUMPDEST PUSH2 0x247 DUP2 PUSH2 0x235 JUMP JUMPDEST DUP3 MSTORE POP POP JUMP JUMPDEST PUSH0 PUSH1 0xC0 DUP3 ADD SWAP1 POP DUP2 DUP2 SUB PUSH0 DUP4 ADD MSTORE PUSH2 0x265 DUP2 DUP10 PUSH2 0x1FD JUMP JUMPDEST SWAP1 POP PUSH2 0x274 PUSH1 0x20 DUP4 ADD DUP9 PUSH2 0x23E JUMP JUMPDEST PUSH2 0x281 PUSH1 0x40 DUP4 ADD DUP8 PUSH2 0x23E JUMP JUMPDEST PUSH2 0x28E PUSH1 0x60 DUP4 ADD DUP7 PUSH2 0x23E JUMP JUMPDEST PUSH2 0x29B PUSH1 0x80 DUP4 ADD DUP6 PUSH2 0x23E JUMP JUMPDEST PUSH2 0x2A8 PUSH1 0xA0 DUP4 ADD DUP5 PUSH2 0x23E JUMP JUMPDEST SWAP8 SWAP7 POP POP POP POP POP POP POP JUMP JUMPDEST PUSH32 0x4E487B7100000000000000000000000000000000000000000000000000000000 PUSH0 MSTORE PUSH1 0x41 PUSH1 0x4 MSTORE PUSH1 0x24 PUSH0 REVERT JUMPDEST PUSH32 0x4E487B7100000000000000000000000000000000000000000000000000000000 PUSH0 MSTORE PUSH1 0x22 PUSH1 0x4 MSTORE PUSH1 0x24 PUSH0 REVERT JUMPDEST PUSH0 PUSH1 0x2 DUP3 DIV SWAP1 POP PUSH1 0x1 DUP3 AND DUP1 PUSH2 0x324 JUMPI PUSH1 0x7F DUP3 AND SWAP2 POP JUMPDEST PUSH1 0x20 DUP3 LT DUP2 SUB PUSH2 0x337 JUMPI PUSH2 0x336 PUSH2 0x2E0 JUMP JUMPDEST JUMPDEST POP SWAP2 SWAP1 POP JUMP JUMPDEST PUSH0 DUP2 SWAP1 POP DUP2 PUSH0 MSTORE PUSH1 0x20 PUSH0 KECCAK256 SWAP1 POP SWAP2 SWAP1 POP JUMP JUMPDEST PUSH0 PUSH1 0x20 PUSH1 0x1F DUP4 ADD DIV SWAP1 POP SWAP2 SWAP1 POP JUMP JUMPDEST PUSH0 DUP3 DUP3 SHL SWAP1 POP SWAP3 SWAP2 POP POP JUMP JUMPDEST PUSH0 PUSH1 0x8 DUP4 MUL PUSH2 0x399 PUSH32 0xFFFFFFFFFFFFFFFFFFFFFFFFFFFFFFFFFFFFFFFFFFFFFFFFFFFFFFFFFFFFFFFF DUP3 PUSH2 0x35E JUMP JUMPDEST PUSH2 0x3A3 DUP7 DUP4 PUSH2 0x35E JUMP JUMPDEST SWAP6 POP DUP1 NOT DUP5 AND SWAP4 POP DUP1 DUP7 AND DUP5 OR SWAP3 POP POP POP SWAP4 SWAP3 POP POP POP JUMP JUMPDEST PUSH0 DUP2 SWAP1 POP SWAP2 SWAP1 POP JUMP JUMPDEST PUSH0 PUSH2 0x3DE PUSH2 0x3D9 PUSH2 0x3D4 DUP5 PUSH2 0x235 JUMP JUMPDEST PUSH2 0x3BB JUMP JUMPDEST PUSH2 0x235 JUMP JUMPDEST SWAP1 POP SWAP2 SWAP1 POP JUMP JUMPDEST PUSH0 DUP2 SWAP1 POP SWAP2 SWAP1 POP JUMP JUMPDEST PUSH2 0x3F7 DUP4 PUSH2 0x3C4 JUMP JUMPDEST PUSH2 0x40B PUSH2 0x403 DUP3 PUSH2 0x3E5 JUMP JUMPDEST DUP5 DUP5 SLOAD PUSH2 0x36A JUMP JUMPDEST DUP3 SSTORE POP POP POP POP JUMP JUMPDEST PUSH0 SWAP1 JUMP JUMPDEST PUSH2 0x41F PUSH2 0x413 JUMP JUMPDEST PUSH2 0x42A DUP2 DUP5 DUP5 PUSH2 0x3EE JUMP JUMPDEST POP POP POP JUMP JUMPDEST JUMPDEST DUP2 DUP2 LT ISZERO PUSH2 0x44D JUMPI PUSH2 0x442 PUSH0 DUP3 PUSH2 0x417 JUMP JUMPDEST PUSH1 0x1 DUP2 ADD SWAP1 POP PUSH2 0x430 JUMP JUMPDEST POP POP JUMP JUMPDEST PUSH1 0x1F DUP3 GT ISZERO PUSH2 0x492 JUMPI PUSH2 0x463 DUP2 PUSH2 0x33D JUMP JUMPDEST PUSH2 0x46C DUP5 PUSH2 0x34F JUMP JUMPDEST DUP2 ADD PUSH1 0x20 DUP6 LT ISZERO PUSH2 0x47B JUMPI DUP2 SWAP1 POP JUMPDEST PUSH2 0x48F PUSH2 0x487 DUP6 PUSH2 0x34F JUMP JUMPDEST DUP4 ADD DUP3 PUSH2 0x42F JUMP JUMPDEST POP POP JUMPDEST POP POP POP JUMP JUMPDEST PUSH0 DUP3 DUP3 SHR SWAP1 POP SWAP3 SWAP2 POP POP JUMP JUMPDEST PUSH0 PUSH2 0x4B2 PUSH0 NOT DUP5 PUSH1 0x8 MUL PUSH2 0x497 JUMP JUMPDEST NOT DUP1 DUP4 AND SWAP2 POP POP SWAP3 SWAP2 POP POP JUMP JUMPDEST PUSH0 PUSH2 0x4CA DUP4 DUP4 PUSH2 0x4A3 JUMP JUMPDEST SWAP2 POP DUP3 PUSH1 0x2 MUL DUP3 OR SWAP1 POP SWAP3 SWAP2 POP POP JUMP JUMPDEST PUSH2 0x4E3 DUP3 PUSH2 0x1C5 JUMP JUMPDEST PUSH8 0xFFFFFFFFFFFFFFFF DUP2 GT ISZERO PUSH2 0x4FC JUMPI PUSH2 0x4FB PUSH2 0x2B3 JUMP JUMPDEST JUMPDEST PUSH2 0x506 DUP3 SLOAD PUSH2 0x30D JUMP JUMPDEST PUSH2 0x511 DUP3 DUP3 DUP6 PUSH2 0x451 JUMP JUMPDEST PUSH0 PUSH1 0x20 SWAP1 POP PUSH1 0x1F DUP4 GT PUSH1 0x1 DUP2 EQ PUSH2 0x542 JUMPI PUSH0 DUP5 ISZERO PUSH2 0x530 JUMPI DUP3 DUP8 ADD MLOAD SWAP1 POP JUMPDEST PUSH2 0x53A DUP6 DUP3 PUSH2 0x4BF JUMP JUMPDEST DUP7 SSTORE POP PUSH2 0x5A1 JUMP JUMPDEST PUSH1 0x1F NOT DUP5 AND PUSH2 0x550 DUP7 PUSH2 0x33D JUMP JUMPDEST PUSH0 JUMPDEST DUP3 DUP2 LT ISZERO PUSH2 0x577 JUMPI DUP5 DUP10 ADD MLOAD DUP3 SSTORE PUSH1 0x1 DUP3 ADD SWAP2 POP PUSH1 0x20 DUP6 ADD SWAP5 POP PUSH1 0x20 DUP2 ADD SWAP1 POP PUSH2 0x552 JUMP JUMPDEST DUP7 DUP4 LT ISZERO PUSH2 0x594 JUMPI DUP5 DUP10 ADD MLOAD PUSH2 0x590 PUSH1 0x1F DUP10 AND DUP3 PUSH2 0x4A3 JUMP JUMPDEST DUP4 SSTORE POP JUMPDEST PUSH1 0x1 PUSH1 0x2 DUP9 MUL ADD DUP9 SSTORE POP POP POP JUMPDEST POP POP POP POP POP POP JUMP JUMPDEST PUSH32 0x4E487B7100000000000000000000000000000000000000000000000000000000 PUSH0 MSTORE PUSH1 0x11 PUSH1 0x4 MSTORE PUSH1 0x24 PUSH0 REVERT JUMPDEST PUSH0 PUSH2 0x5E0 DUP3 PUSH2 0x235 JUMP JUMPDEST SWAP2 POP PUSH2 0x5EB DUP4 PUSH2 0x235 JUMP JUMPDEST SWAP3 POP DUP3 DUP3 ADD SWAP1 POP DUP1 DUP3 GT ISZERO PUSH2 0x603 JUMPI PUSH2 0x602 PUSH2 0x5A9 JUMP JUMPDEST JUMPDEST SWAP3 SWAP2 POP POP JUMP JUMPDEST PUSH0 PUSH2 0x613 DUP3 PUSH2 0x235 JUMP JUMPDEST SWAP2 POP PUSH2 0x61E DUP4 PUSH2 0x235 JUMP JUMPDEST SWAP3 POP DUP3 DUP3 SUB SWAP1 POP DUP2 DUP2 GT ISZERO PUSH2 0x636 JUMPI PUSH2 0x635 PUSH2 0x5A9 JUMP JUMPDEST JUMPDEST SWAP3 SWAP2 POP POP JUMP JUMPDEST PUSH0 PUSH2 0x646 DUP3 PUSH2 0x235 JUMP JUMPDEST SWAP2 POP PUSH2 0x651 DUP4 PUSH2 0x235 JUMP JUMPDEST SWAP3 POP DUP3 DUP3 MUL PUSH2 0x65F DUP2 PUSH2 0x235 JUMP JUMPDEST SWAP2 POP DUP3 DUP3 DIV DUP5 EQ DUP4 ISZERO OR PUSH2 0x676 JUMPI PUSH2 0x675 PUSH2 0x5A9 JUMP JUMPDEST JUMPDEST POP SWAP3 SWAP2 POP POP JUMP JUMPDEST PUSH32 0x4E487B7100000000000000000000000000000000000000000000000000000000 PUSH0 MSTORE PUSH1 0x12 PUSH1 0x4 MSTORE PUSH1 0x24 PUSH0 REVERT JUMPDEST PUSH0 PUSH2 0x6B4 DUP3 PUSH2 0x235 JUMP JUMPDEST SWAP2 POP PUSH2 0x6BF DUP4 PUSH2 0x235 JUMP JUMPDEST SWAP3 POP DUP3 PUSH2 0x6CF JUMPI PUSH2 0x6CE PUSH2 0x67D JUMP JUMPDEST JUMPDEST DUP3 DUP3 DIV SWAP1 POP SWAP3 SWAP2 POP POP JUMP JUMPDEST PUSH0 PUSH2 0x6E4 DUP3 PUSH2 0x235 JUMP JUMPDEST SWAP2 POP PUSH2 0x6EF DUP4 PUSH2 0x235 JUMP JUMPDEST SWAP3 POP DUP3 PUSH2 0x6FF JUMPI PUSH2 0x6FE PUSH2 0x67D JUMP JUMPDEST JUMPDEST DUP3 DUP3 MOD SWAP1 POP SWAP3 SWAP2 POP POP JUMP INVALID LOG2 PUSH5 0x6970667358 0x22 SLT KECCAK256 0x2A PUSH11 0x1E2D61F081E64C28BBB372 0xE8 BYTE REVERT 0x4D GT 0xEB 0xBD 0x21 0x4E GAS 0x28 SWAP5 0xD7 0xB1 0xA7 0x21 SWAP8 SDIV PUSH9 0x64736F6C6343000819 STOP CALLER "
				},
				"gasEstimates": {
					"creation": {
						"codeDepositCost": "371200",
						"executionCost": "infinite",
						"totalCost": "infinite"
					},
					"external": {
						"assignment()": "infinite"
					}
				},
				"methodIdentifiers": {
					"assignment()": "71ca2ecf"
				}
			},
			"storageLayout": {
				"storage": [
					{
						"astId": 4,
						"contract": "const-operator/operator.sol:Operactor",
						"label": "a",
						"offset": 0,
						"slot": "0",
						"type": "t_string_storage"
					},
					{
						"astId": 7,
						"contract": "const-operator/operator.sol:Operactor",
						"label": "b",
						"offset": 0,
						"slot": "1",
						"type": "t_uint256"
					},
					{
						"astId": 10,
						"contract": "const-operator/operator.sol:Operactor",
						"label": "c",
						"offset": 0,
						"slot": "2",
						"type": "t_uint256"
					},
					{
						"astId": 13,
						"contract": "const-operator/operator.sol:Operactor",
						"label": "d",
						"offset": 0,
						"slot": "3",
						"type": "t_uint256"
					},
					{
						"astId": 16,
						"contract": "const-operator/operator.sol:Operactor",
						"label": "e",
						"offset": 0,
						"slot": "4",
						"type": "t_uint256"
					},
					{
						"astId": 19,
						"contract": "const-operator/operator.sol:Operactor",
						"label": "f",
						"offset": 0,
						"slot": "5",
						"type": "t_uint256"
					}
				],
				"types": {
					"t_string_storage": {
						"encoding": "bytes",
						"label": "string",
						"numberOfBytes": "32"
					},
					"t_uint256": {
						"encoding": "inplace",
						"label": "uint256",
						"numberOfBytes": "32"
					}
				}
			},
			"userdoc": {
				"kind": "user",
				"methods": {},
				"version": 1
			}
		}
	}
}