{
	"data-type/logiOpBool.sol": {
		"LogiOpBool": {
			"abi": [
				{
					"inputs": [],
					"name": "logical",
					"outputs": [
						{
							"internalType": "bool",
							"name": "",
							"type": "bool"
						},
						{
							"internalType": "bool",
							"name": "",
							"type": "bool"
						},
						{
							"internalType": "bool",
							"name": "",
							"type": "bool"
						},
						{
							"internalType": "bool",
							"name": "",
							"type": "bool"
						},
						{
							"internalType": "bool",
							"name": "",
							"type": "bool"
						},
						{
							"internalType": "bool",
							"name": "",
							"type": "bool"
						},
						{
							"internalType": "bool",
							"name": "",
							"type": "bool"
						}
					],
					"stateMutability": "view",
					"type": "function"
				}
			],
			"devdoc": {
				"kind": "dev",
				"methods": {},
				"version": 1
			},
			"evm": {
				"assembly": "    /* \"data-type/logiOpBool.sol\":96:441  contract LogiOpBool {... */\n  mstore(0x40, 0x80)\n    /* \"data-type/logiOpBool.sol\":131:135  true */\n  0x01\n    /* \"data-type/logiOpBool.sol\":131:143  true && true */\n  dup1\n  iszero\n  tag_1\n  jumpi\n  pop\n    /* \"data-type/logiOpBool.sol\":139:143  true */\n  0x01\n    /* \"data-type/logiOpBool.sol\":131:143  true && true */\ntag_1:\n    /* \"data-type/logiOpBool.sol\":122:143  bool a = true && true */\n  0x00\n  dup1\n  0x0100\n  exp\n  dup2\n  sload\n  dup2\n  0xff\n  mul\n  not\n  and\n  swap1\n  dup4\n  iszero\n  iszero\n  mul\n  or\n  swap1\n  sstore\n  pop\n    /* \"data-type/logiOpBool.sol\":158:162  true */\n  0x01\n    /* \"data-type/logiOpBool.sol\":158:171  true && false */\n  dup1\n  iszero\n  tag_2\n  jumpi\n  pop\n    /* \"data-type/logiOpBool.sol\":166:171  false */\n  0x00\n    /* \"data-type/logiOpBool.sol\":158:171  true && false */\ntag_2:\n    /* \"data-type/logiOpBool.sol\":149:171  bool b = true && false */\n  0x00\n  exp(0x0100, 0x01)\n  dup2\n  sload\n  dup2\n  0xff\n  mul\n  not\n  and\n  swap1\n  dup4\n  iszero\n  iszero\n  mul\n  or\n  swap1\n  sstore\n  pop\n    /* \"data-type/logiOpBool.sol\":186:191  false */\n  0x00\n    /* \"data-type/logiOpBool.sol\":186:200  false && false */\n  dup1\n  iszero\n  tag_3\n  jumpi\n  pop\n    /* \"data-type/logiOpBool.sol\":195:200  false */\n  0x00\n    /* \"data-type/logiOpBool.sol\":186:200  false && false */\ntag_3:\n    /* \"data-type/logiOpBool.sol\":177:200  bool c = false && false */\n  0x00\n  exp(0x0100, 0x02)\n  dup2\n  sload\n  dup2\n  0xff\n  mul\n  not\n  and\n  swap1\n  dup4\n  iszero\n  iszero\n  mul\n  or\n  swap1\n  sstore\n  pop\n    /* \"data-type/logiOpBool.sol\":215:219  true */\n  0x01\n    /* \"data-type/logiOpBool.sol\":215:227  true || true */\n  dup1\n  tag_4\n  jumpi\n  pop\n    /* \"data-type/logiOpBool.sol\":223:227  true */\n  0x01\n    /* \"data-type/logiOpBool.sol\":215:227  true || true */\ntag_4:\n    /* \"data-type/logiOpBool.sol\":206:227  bool d = true || true */\n  0x00\n  exp(0x0100, 0x03)\n  dup2\n  sload\n  dup2\n  0xff\n  mul\n  not\n  and\n  swap1\n  dup4\n  iszero\n  iszero\n  mul\n  or\n  swap1\n  sstore\n  pop\n    /* \"data-type/logiOpBool.sol\":242:246  true */\n  0x01\n    /* \"data-type/logiOpBool.sol\":242:255  true || false */\n  dup1\n  tag_5\n  jumpi\n  pop\n    /* \"data-type/logiOpBool.sol\":250:255  false */\n  0x00\n    /* \"data-type/logiOpBool.sol\":242:255  true || false */\ntag_5:\n    /* \"data-type/logiOpBool.sol\":233:255  bool e = true || false */\n  0x00\n  exp(0x0100, 0x04)\n  dup2\n  sload\n  dup2\n  0xff\n  mul\n  not\n  and\n  swap1\n  dup4\n  iszero\n  iszero\n  mul\n  or\n  swap1\n  sstore\n  pop\n    /* \"data-type/logiOpBool.sol\":270:275  false */\n  0x00\n    /* \"data-type/logiOpBool.sol\":270:284  false || false */\n  dup1\n  tag_6\n  jumpi\n  pop\n    /* \"data-type/logiOpBool.sol\":279:284  false */\n  0x00\n    /* \"data-type/logiOpBool.sol\":270:284  false || false */\ntag_6:\n    /* \"data-type/logiOpBool.sol\":261:284  bool f = false || false */\n  0x00\n  exp(0x0100, 0x05)\n  dup2\n  sload\n  dup2\n  0xff\n  mul\n  not\n  and\n  swap1\n  dup4\n  iszero\n  iszero\n  mul\n  or\n  swap1\n  sstore\n  pop\n    /* \"data-type/logiOpBool.sol\":300:305  false */\n  0x00\n    /* \"data-type/logiOpBool.sol\":299:305  !false */\n  iszero\n    /* \"data-type/logiOpBool.sol\":290:305  bool g = !false */\n  0x00\n  exp(0x0100, 0x06)\n  dup2\n  sload\n  dup2\n  0xff\n  mul\n  not\n  and\n  swap1\n  dup4\n  iszero\n  iszero\n  mul\n  or\n  swap1\n  sstore\n  pop\n    /* \"data-type/logiOpBool.sol\":96:441  contract LogiOpBool {... */\n  callvalue\n  dup1\n  iszero\n  tag_7\n  jumpi\n  0x00\n  dup1\n  revert\ntag_7:\n  pop\n  dataSize(sub_0)\n  dup1\n  dataOffset(sub_0)\n  0x00\n  codecopy\n  0x00\n  return\nstop\n\nsub_0: assembly {\n        /* \"data-type/logiOpBool.sol\":96:441  contract LogiOpBool {... */\n      mstore(0x40, 0x80)\n      callvalue\n      dup1\n      iszero\n      tag_1\n      jumpi\n      0x00\n      dup1\n      revert\n    tag_1:\n      pop\n      jumpi(tag_2, lt(calldatasize, 0x04))\n      shr(0xe0, calldataload(0x00))\n      dup1\n      0x93daa367\n      eq\n      tag_3\n      jumpi\n    tag_2:\n      0x00\n      dup1\n      revert\n        /* \"data-type/logiOpBool.sol\":312:439  function logical() public view returns (bool, bool, bool, bool, bool, bool, bool) {... */\n    tag_3:\n      tag_4\n      tag_5\n      jump\t// in\n    tag_4:\n      mload(0x40)\n      tag_6\n      swap8\n      swap7\n      swap6\n      swap5\n      swap4\n      swap3\n      swap2\n      swap1\n      tag_7\n      jump\t// in\n    tag_6:\n      mload(0x40)\n      dup1\n      swap2\n      sub\n      swap1\n      return\n    tag_5:\n        /* \"data-type/logiOpBool.sol\":352:356  bool */\n      0x00\n        /* \"data-type/logiOpBool.sol\":358:362  bool */\n      dup1\n        /* \"data-type/logiOpBool.sol\":364:368  bool */\n      0x00\n        /* \"data-type/logiOpBool.sol\":370:374  bool */\n      dup1\n        /* \"data-type/logiOpBool.sol\":376:380  bool */\n      0x00\n        /* \"data-type/logiOpBool.sol\":382:386  bool */\n      dup1\n        /* \"data-type/logiOpBool.sol\":388:392  bool */\n      0x00\n        /* \"data-type/logiOpBool.sol\":412:413  a */\n      dup1\n      0x00\n      swap1\n      sload\n      swap1\n      0x0100\n      exp\n      swap1\n      div\n      0xff\n      and\n        /* \"data-type/logiOpBool.sol\":415:416  b */\n      0x00\n      0x01\n      swap1\n      sload\n      swap1\n      0x0100\n      exp\n      swap1\n      div\n      0xff\n      and\n        /* \"data-type/logiOpBool.sol\":418:419  c */\n      0x00\n      0x02\n      swap1\n      sload\n      swap1\n      0x0100\n      exp\n      swap1\n      div\n      0xff\n      and\n        /* \"data-type/logiOpBool.sol\":421:422  d */\n      0x00\n      0x03\n      swap1\n      sload\n      swap1\n      0x0100\n      exp\n      swap1\n      div\n      0xff\n      and\n        /* \"data-type/logiOpBool.sol\":424:425  e */\n      0x00\n      0x04\n      swap1\n      sload\n      swap1\n      0x0100\n      exp\n      swap1\n      div\n      0xff\n      and\n        /* \"data-type/logiOpBool.sol\":427:428  f */\n      0x00\n      0x05\n      swap1\n      sload\n      swap1\n      0x0100\n      exp\n      swap1\n      div\n      0xff\n      and\n        /* \"data-type/logiOpBool.sol\":430:431  g */\n      0x00\n      0x06\n      swap1\n      sload\n      swap1\n      0x0100\n      exp\n      swap1\n      div\n      0xff\n      and\n        /* \"data-type/logiOpBool.sol\":404:432  return (a, b, c, d, e, f, g) */\n      swap7\n      pop\n      swap7\n      pop\n      swap7\n      pop\n      swap7\n      pop\n      swap7\n      pop\n      swap7\n      pop\n      swap7\n      pop\n        /* \"data-type/logiOpBool.sol\":312:439  function logical() public view returns (bool, bool, bool, bool, bool, bool, bool) {... */\n      swap1\n      swap2\n      swap3\n      swap4\n      swap5\n      swap6\n      swap7\n      jump\t// out\n        /* \"#utility.yul\":7:97   */\n    tag_9:\n        /* \"#utility.yul\":41:48   */\n      0x00\n        /* \"#utility.yul\":84:89   */\n      dup2\n        /* \"#utility.yul\":77:90   */\n      iszero\n        /* \"#utility.yul\":70:91   */\n      iszero\n        /* \"#utility.yul\":59:91   */\n      swap1\n      pop\n        /* \"#utility.yul\":7:97   */\n      swap2\n      swap1\n      pop\n      jump\t// out\n        /* \"#utility.yul\":103:212   */\n    tag_10:\n        /* \"#utility.yul\":184:205   */\n      tag_14\n        /* \"#utility.yul\":199:204   */\n      dup2\n        /* \"#utility.yul\":184:205   */\n      tag_9\n      jump\t// in\n    tag_14:\n        /* \"#utility.yul\":179:182   */\n      dup3\n        /* \"#utility.yul\":172:206   */\n      mstore\n        /* \"#utility.yul\":103:212   */\n      pop\n      pop\n      jump\t// out\n        /* \"#utility.yul\":218:1020   */\n    tag_7:\n        /* \"#utility.yul\":437:441   */\n      0x00\n        /* \"#utility.yul\":475:478   */\n      0xe0\n        /* \"#utility.yul\":464:473   */\n      dup3\n        /* \"#utility.yul\":460:479   */\n      add\n        /* \"#utility.yul\":452:479   */\n      swap1\n      pop\n        /* \"#utility.yul\":489:554   */\n      tag_16\n        /* \"#utility.yul\":551:552   */\n      0x00\n        /* \"#utility.yul\":540:549   */\n      dup4\n        /* \"#utility.yul\":536:553   */\n      add\n        /* \"#utility.yul\":527:533   */\n      dup11\n        /* \"#utility.yul\":489:554   */\n      tag_10\n      jump\t// in\n    tag_16:\n        /* \"#utility.yul\":564:630   */\n      tag_17\n        /* \"#utility.yul\":626:628   */\n      0x20\n        /* \"#utility.yul\":615:624   */\n      dup4\n        /* \"#utility.yul\":611:629   */\n      add\n        /* \"#utility.yul\":602:608   */\n      dup10\n        /* \"#utility.yul\":564:630   */\n      tag_10\n      jump\t// in\n    tag_17:\n        /* \"#utility.yul\":640:706   */\n      tag_18\n        /* \"#utility.yul\":702:704   */\n      0x40\n        /* \"#utility.yul\":691:700   */\n      dup4\n        /* \"#utility.yul\":687:705   */\n      add\n        /* \"#utility.yul\":678:684   */\n      dup9\n        /* \"#utility.yul\":640:706   */\n      tag_10\n      jump\t// in\n    tag_18:\n        /* \"#utility.yul\":716:782   */\n      tag_19\n        /* \"#utility.yul\":778:780   */\n      0x60\n        /* \"#utility.yul\":767:776   */\n      dup4\n        /* \"#utility.yul\":763:781   */\n      add\n        /* \"#utility.yul\":754:760   */\n      dup8\n        /* \"#utility.yul\":716:782   */\n      tag_10\n      jump\t// in\n    tag_19:\n        /* \"#utility.yul\":792:859   */\n      tag_20\n        /* \"#utility.yul\":854:857   */\n      0x80\n        /* \"#utility.yul\":843:852   */\n      dup4\n        /* \"#utility.yul\":839:858   */\n      add\n        /* \"#utility.yul\":830:836   */\n      dup7\n        /* \"#utility.yul\":792:859   */\n      tag_10\n      jump\t// in\n    tag_20:\n        /* \"#utility.yul\":869:936   */\n      tag_21\n        /* \"#utility.yul\":931:934   */\n      0xa0\n        /* \"#utility.yul\":920:929   */\n      dup4\n        /* \"#utility.yul\":916:935   */\n      add\n        /* \"#utility.yul\":907:913   */\n      dup6\n        /* \"#utility.yul\":869:936   */\n      tag_10\n      jump\t// in\n    tag_21:\n        /* \"#utility.yul\":946:1013   */\n      tag_22\n        /* \"#utility.yul\":1008:1011   */\n      0xc0\n        /* \"#utility.yul\":997:1006   */\n      dup4\n        /* \"#utility.yul\":993:1012   */\n      add\n        /* \"#utility.yul\":984:990   */\n      dup5\n        /* \"#utility.yul\":946:1013   */\n      tag_10\n      jump\t// in\n    tag_22:\n        /* \"#utility.yul\":218:1020   */\n      swap9\n      swap8\n      pop\n      pop\n      pop\n      pop\n      pop\n      pop\n      pop\n      pop\n      jump\t// out\n\n    auxdata: 0xa26469706673582212205fa49315f537ecfa6a436d1fec656fdfd4d7f19885539c64e880d949e25935e864736f6c63430008190033\n}\n",
				"bytecode": {
					"linkReferences": {},
					"object": "608060405260018015610010575060015b5f806101000a81548160ff0219169083151502179055506001801561003257505f5b5f60016101000a81548160ff0219169083151502179055505f801561005457505f5b5f60026101000a81548160ff021916908315150217905550600180610077575060015b5f60036101000a81548160ff02191690831515021790555060018061009957505f5b5f60046101000a81548160ff0219169083151502179055505f806100ba57505f5b5f60056101000a81548160ff0219169083151502179055505f155f60066101000a81548160ff0219169083151502179055503480156100f7575f80fd5b50610194806101055f395ff3fe608060405234801561000f575f80fd5b5060043610610029575f3560e01c806393daa3671461002d575b5f80fd5b610035610051565b60405161004897969594939291906100f1565b60405180910390f35b5f805f805f805f805f9054906101000a900460ff165f60019054906101000a900460ff165f60029054906101000a900460ff165f60039054906101000a900460ff165f60049054906101000a900460ff165f60059054906101000a900460ff165f60069054906101000a900460ff16965096509650965096509650965090919293949596565b5f8115159050919050565b6100eb816100d7565b82525050565b5f60e0820190506101045f83018a6100e2565b61011160208301896100e2565b61011e60408301886100e2565b61012b60608301876100e2565b61013860808301866100e2565b61014560a08301856100e2565b61015260c08301846100e2565b9897505050505050505056fea26469706673582212205fa49315f537ecfa6a436d1fec656fdfd4d7f19885539c64e880d949e25935e864736f6c63430008190033",
					"opcodes": "PUSH1 0x80 PUSH1 0x40 MSTORE PUSH1 0x1 DUP1 ISZERO PUSH2 0x10 JUMPI POP PUSH1 0x1 JUMPDEST PUSH0 DUP1 PUSH2 0x100 EXP DUP2 SLOAD DUP2 PUSH1 0xFF MUL NOT AND SWAP1 DUP4 ISZERO ISZERO MUL OR SWAP1 SSTORE POP PUSH1 0x1 DUP1 ISZERO PUSH2 0x32 JUMPI POP PUSH0 JUMPDEST PUSH0 PUSH1 0x1 PUSH2 0x100 EXP DUP2 SLOAD DUP2 PUSH1 0xFF MUL NOT AND SWAP1 DUP4 ISZERO ISZERO MUL OR SWAP1 SSTORE POP PUSH0 DUP1 ISZERO PUSH2 0x54 JUMPI POP PUSH0 JUMPDEST PUSH0 PUSH1 0x2 PUSH2 0x100 EXP DUP2 SLOAD DUP2 PUSH1 0xFF MUL NOT AND SWAP1 DUP4 ISZERO ISZERO MUL OR SWAP1 SSTORE POP PUSH1 0x1 DUP1 PUSH2 0x77 JUMPI POP PUSH1 0x1 JUMPDEST PUSH0 PUSH1 0x3 PUSH2 0x100 EXP DUP2 SLOAD DUP2 PUSH1 0xFF MUL NOT AND SWAP1 DUP4 ISZERO ISZERO MUL OR SWAP1 SSTORE POP PUSH1 0x1 DUP1 PUSH2 0x99 JUMPI POP PUSH0 JUMPDEST PUSH0 PUSH1 0x4 PUSH2 0x100 EXP DUP2 SLOAD DUP2 PUSH1 0xFF MUL NOT AND SWAP1 DUP4 ISZERO ISZERO MUL OR SWAP1 SSTORE POP PUSH0 DUP1 PUSH2 0xBA JUMPI POP PUSH0 JUMPDEST PUSH0 PUSH1 0x5 PUSH2 0x100 EXP DUP2 SLOAD DUP2 PUSH1 0xFF MUL NOT AND SWAP1 DUP4 ISZERO ISZERO MUL OR SWAP1 SSTORE POP PUSH0 ISZERO PUSH0 PUSH1 0x6 PUSH2 0x100 EXP DUP2 SLOAD DUP2 PUSH1 0xFF MUL NOT AND SWAP1 DUP4 ISZERO ISZERO MUL OR SWAP1 SSTORE POP CALLVALUE DUP1 ISZERO PUSH2 0xF7 JUMPI PUSH0 DUP1 REVERT JUMPDEST POP PUSH2 0x194 DUP1 PUSH2 0x105 PUSH0 CODECOPY PUSH0 RETURN INVALID PUSH1 0x80 PUSH1 0x40 MSTORE CALLVALUE DUP1 ISZERO PUSH2 0xF JUMPI PUSH0 DUP1 REVERT JUMPDEST POP PUSH1 0x4 CALLDATASIZE LT PUSH2 0x29 JUMPI PUSH0 CALLDATALOAD PUSH1 0xE0 SHR DUP1 PUSH4 0x93DAA367 EQ PUSH2 0x2D JUMPI JUMPDEST PUSH0 DUP1 REVERT JUMPDEST PUSH2 0x35 PUSH2 0x51 JUMP JUMPDEST PUSH1 0x40 MLOAD PUSH2 0x48 SWAP8 SWAP7 SWAP6 SWAP5 SWAP4 SWAP3 SWAP2 SWAP1 PUSH2 0xF1 JUMP JUMPDEST PUSH1 0x40 MLOAD DUP1 SWAP2 SUB SWAP1 RETURN JUMPDEST PUSH0 DUP1 PUSH0 DUP1 PUSH0 DUP1 PUSH0 DUP1 PUSH0 SWAP1 SLOAD SWAP1 PUSH2 0x100 EXP SWAP1 DIV PUSH1 0xFF AND PUSH0 PUSH1 0x1 SWAP1 SLOAD SWAP1 PUSH2 0x100 EXP SWAP1 DIV PUSH1 0xFF AND PUSH0 PUSH1 0x2 SWAP1 SLOAD SWAP1 PUSH2 0x100 EXP SWAP1 DIV PUSH1 0xFF AND PUSH0 PUSH1 0x3 SWAP1 SLOAD SWAP1 PUSH2 0x100 EXP SWAP1 DIV PUSH1 0xFF AND PUSH0 PUSH1 0x4 SWAP1 SLOAD SWAP1 PUSH2 0x100 EXP SWAP1 DIV PUSH1 0xFF AND PUSH0 PUSH1 0x5 SWAP1 SLOAD SWAP1 PUSH2 0x100 EXP SWAP1 DIV PUSH1 0xFF AND PUSH0 PUSH1 0x6 SWAP1 SLOAD SWAP1 PUSH2 0x100 EXP SWAP1 DIV PUSH1 0xFF AND SWAP7 POP SWAP7 POP SWAP7 POP SWAP7 POP SWAP7 POP SWAP7 POP SWAP7 POP SWAP1 SWAP2 SWAP3 SWAP4 SWAP5 SWAP6 SWAP7 JUMP JUMPDEST PUSH0 DUP2 ISZERO ISZERO SWAP1 POP SWAP2 SWAP1 POP JUMP JUMPDEST PUSH2 0xEB DUP2 PUSH2 0xD7 JUMP JUMPDEST DUP3 MSTORE POP POP JUMP JUMPDEST PUSH0 PUSH1 0xE0 DUP3 ADD SWAP1 POP PUSH2 0x104 PUSH0 DUP4 ADD DUP11 PUSH2 0xE2 JUMP JUMPDEST PUSH2 0x111 PUSH1 0x20 DUP4 ADD DUP10 PUSH2 0xE2 JUMP JUMPDEST PUSH2 0x11E PUSH1 0x40 DUP4 ADD DUP9 PUSH2 0xE2 JUMP JUMPDEST PUSH2 0x12B PUSH1 0x60 DUP4 ADD DUP8 PUSH2 0xE2 JUMP JUMPDEST PUSH2 0x138 PUSH1 0x80 DUP4 ADD DUP7 PUSH2 0xE2 JUMP JUMPDEST PUSH2 0x145 PUSH1 0xA0 DUP4 ADD DUP6 PUSH2 0xE2 JUMP JUMPDEST PUSH2 0x152 PUSH1 0xC0 DUP4 ADD DUP5 PUSH2 0xE2 JUMP JUMPDEST SWAP9 SWAP8 POP POP POP POP POP POP POP POP JUMP INVALID LOG2 PUSH5 0x6970667358 0x22 SLT KECCAK256 PUSH0 LOG4 SWAP4 ISZERO CREATE2 CALLDATACOPY 0xEC STATICCALL PUSH11 0x436D1FEC656FDFD4D7F198 DUP6 MSTORE8 SWAP13 PUSH5 0xE880D949E2 MSIZE CALLDATALOAD 0xE8 PUSH5 0x736F6C6343 STOP ADDMOD NOT STOP CALLER "
				},
				"gasEstimates": {
					"creation": {
						"codeDepositCost": "80800",
						"executionCost": "170413",
						"totalCost": "251213"
					},
					"external": {
						"logical()": "infinite"
					}
				},
				"methodIdentifiers": {
					"logical()": "93daa367"
				}
			},
			"storageLayout": {
				"storage": [
					{
						"astId": 6,
						"contract": "data-type/logiOpBool.sol:LogiOpBool",
						"label": "a",
						"offset": 0,
						"slot": "0",
						"type": "t_bool"
					},
					{
						"astId": 11,
						"contract": "data-type/logiOpBool.sol:LogiOpBool",
						"label": "b",
						"offset": 1,
						"slot": "0",
						"type": "t_bool"
					},
					{
						"astId": 16,
						"contract": "data-type/logiOpBool.sol:LogiOpBool",
						"label": "c",
						"offset": 2,
						"slot": "0",
						"type": "t_bool"
					},
					{
						"astId": 21,
						"contract": "data-type/logiOpBool.sol:LogiOpBool",
						"label": "d",
						"offset": 3,
						"slot": "0",
						"type": "t_bool"
					},
					{
						"astId": 26,
						"contract": "data-type/logiOpBool.sol:LogiOpBool",
						"label": "e",
						"offset": 4,
						"slot": "0",
						"type": "t_bool"
					},
					{
						"astId": 31,
						"contract": "data-type/logiOpBool.sol:LogiOpBool",
						"label": "f",
						"offset": 5,
						"slot": "0",
						"type": "t_bool"
					},
					{
						"astId": 35,
						"contract": "data-type/logiOpBool.sol:LogiOpBool",
						"label": "g",
						"offset": 6,
						"slot": "0",
						"type": "t_bool"
					}
				],
				"types": {
					"t_bool": {
						"encoding": "inplace",
						"label": "bool",
						"numberOfBytes": "1"
					}
				}
			},
			"userdoc": {
				"kind": "user",
				"methods": {},
				"version": 1
			}
		}
	}
}